:10000000F8FF0020110400009DC000007DAD00003D
:100010009DC000009DC000009DC000009DC000006C
:100020009DC000009DC000009DC000009DC000005C
:100030009DC000009DC0000021AE00007BAD00000F
:10004000F7A800009DC000009DC000009DC00000FA
:100050009DC000009DC000009DC000009DC000002C
:100060009DC000009DC000009DC000009DC000001C
:100070009DC000009DC000009DC000009DC000000C
:100080009DC000009DC000009DC000009DC00000FC
:100090009DC000009DC000009DC000009DC00000EC
:1000A0009DC000009DC000009DC000009DC00000DC
:1000B0009DC000009DC000009DC000009DC00000CC
:1000C0009DC000009DC000009DC000009DC00000BC
:1000D0009DC000009DC000009DC000009DC00000AC
:1000E0009DC000009DC000009DC000009DC000009C
:1000F0009DC000009DC000009DC000009DC000008C
:100100009DC000009DC000009DC00000A7AA000087
:100110009DC000009DC000009DC000009DC000006B
:100120009DC000009DC000009DC000009DC000005B
:100130009DC000009DC0000023AE000025AE000061
:100140009DC000009DC000009DC000009DC000003B
:1001500021A900009DC000009DC000009DC00000BE
:100160009DC000009DC000009DC000009DC000001B
:100170009DC000009DC000009DC000009DC000000B
:100180009DC000009DC000009DC000009DC00000FB
:100190009DC000009DC000009DC000009DC00000EB
:1001A0009DC000009DC000006DA800009DC0000023
:1001B0009DC000009DC000009DC000009DC00000CB
:1001C0009DC000009DC000009DC000009DC00000BB
:1001D0009DC000009DC000009DC000009DC00000AB
:1001E0009DC000009DC000009DC000009DC000009B
:10040000FFFFFFFFFFFFFFFFFFFFFFFFFEFFFFFFFD
:1004100062B64FF000004FF000014FF000024FF0C5
:1004200000034FF000044FF000054FF000064FF0BE
:1004300000074FF000084FF000094FF0000A4FF09E
:10044000000B4FF0000C0AF0EFFCFEE730B40300A5
:100450000C0015006A1E002D04D025781D70641C48
:100460005B1CF6E730BC704710B403001400621E3A
:10047000002C02D019705B1CF8E710BC704770B4F8
:1004800003001C000D0000201600721E002E06D076
:1004900020782E78801B6D1C641C0028F4D070BC62
:1004A00070470278002A04D002788A4201D0401CAA
:1004B000F7E700787047F8B504000D00E06A060021
:1004C000AE4232D02079002821D00123320014F12D
:1004D0003001607801F0F4FD002801D0012025E012
:1004E00000202071206AE169081886420FD2E07866
:1004F0000700FFB2022F0AD3E069861901233200F8
:1005000014F13001607801F0DBFD7F1EF1E7002D72
:100510000BD001232A0014F13001607801F035FD81
:10052000002801D0012001E0E5620020F2BD38B5CD
:10053000040000212000FFF7BEFF0500EDB2002DF2
:100540005ED12078032852D1607900284FD0002056
:10055000E0624FF40072002114F13000FFF784FFD5
:10056000552084F82E02AA2084F82F02522084F805
:100570003000522084F83100612084F8320041209C
:1005800084F83300722084F81402722084F8150273
:10059000412084F81602612084F81702206984F84B
:1005A0001802206980B2000A84F819022069000C40
:1005B00084F81A022069000E84F81B02E06884F8AF
:1005C0001C02E06880B2000A84F81D02E068000C9A
:1005D00084F81E02E068000E84F81F02012362699D
:1005E00014F13001607801F06BFD00206071002291
:1005F0000021607801F0F8FD002801D001200500FD
:100600002800C0B232BD0200891E9069801E81425E
:1006100001D3002003E09078926A00FB012070472C
:100620002DE9F04104000D00022D02D3A06985429E
:1006300001D3012073E02078012804D06DD3032872
:100640004BD031D369E0A84618EB5808206A10EB6C
:1006500058212000FFF72FFF00285ED14FF40070D3
:10066000B8FBF0F101FB1081081990F8300006008A
:1006700018F10108206A10EB58212000FFF71BFF3A
:1006800000284AD14FF40070B8FBF0F101FB108153
:10069000081990F8300056EA0026E80701D530091D
:1006A00001E03005000D3AE0206A10EB1521200032
:1006B000FFF701FF002830D168004FF40071B0FB54
:1006C000F1F202FB1102101900F2300007007878F5
:1006D000397851EA002080B221E0206A10EBD51170
:1006E0002000FFF7E8FE002817D1A8004FF40071A2
:1006F000B0FBF1F202FB1102101900F2300007000A
:10070000F878B978090451EA0060797850EA012054
:10071000397808430001000901E05FF0FF30BDE8CF
:10072000F0812DE9F84304000D001600022D02D3DC
:10073000A069854202D302208146A6E020780128E4
:1007400005D0C0F09E80032870D050D399E02F00D0
:1007500017EB5707206A10EB57212000FFF7ABFE7D
:1007600081465FFA89F9B9F1000F40F08C804FF4AF
:100770000070B7FBF0F101FB1071081900F23000B6
:1007800080462800C00706D598F8000010F00F003A
:1007900050EA061000E0300088F800007F1C0120BD
:1007A0002071206A10EB57212000FFF784FE81465C
:1007B0005FFA89F9B9F1000F65D14FF40070B7FB0A
:1007C000F0F101FB1071081900F23000804628009A
:1007D000C00701D5300907E098F8000010F0F000DC
:1007E000310A11F00F01084388F800004BE0206A3D
:1007F00010EB15212000FFF75EFE81465FFA89F9B4
:10080000B9F1000F3FD168004FF40071B0FBF1F275
:1008100002FB1102101900F23000804688F80060D7
:10082000300080B2000A88F801002CE0206A10EB4A
:10083000D5112000FFF73FFE81465FFA89F9B9F133
:10084000000F20D1A8004FF40071B0FBF1F202FBC1
:100850001102101900F23000804698F803000006DB
:1008600010F07040064388F80060300080B2000A43
:1008700088F80100300C88F80200300E88F8030078
:1008800001E002208146012020714846C0B2BDE847
:10089000F283F8B504000D00022D02D3A069854251
:1008A00002D3022006002AE000200600A06985424B
:1008B00025D229002000FFF7B3FE0700002F1ED02D
:1008C000012F02D10220060019E017F1010F02D119
:1008D0000120060013E0002229002000FFF721FF7D
:1008E0000600F6B2002E0AD1206910F1010F04D0E3
:1008F0002069401C2061012060713D00D6E7300076
:10090000C0B2F2BD2DE9F84304000D00002D0AD15C
:10091000E0688046B8F1000F02D0A069804511D38D
:10092000012080460EE029002000FFF779FE060036
:10093000022E01D2012051E0A069864201D230008E
:100940004CE0A84647467F1CA069874205D3022099
:100950000700B84501D2002040E039002000FFF731
:100960005FFE0600002E0CD17FF07042390020009F
:10097000FFF7D7FE81465FFA89F9B9F1000F13D16D
:100980000AE016F1010F01D0012E01D1300025E05F
:100990004745D8D1002021E0002D05D03A0029009C
:1009A0002000FFF7BEFE81465FFA89F9B9F1000F1A
:1009B0000AD1E760206910F1010F0ED02069401EB6
:1009C00020610120607108E05FFA89F9B9F1010F37
:1009D00002D15FF0FF3700E001273800BDE8F28365
:1009E000F8B504000D00E580A0680600012E03D0D4
:1009F00020688069864201D302204CE0002E06D197
:100A000020680078032802D12068406A0600002E82
:100A10000ED1E66020680089ADB2854201D3022084
:100A200039E02068406AADB210EB1510206125E076
:100A30002068807880B200010700ADB2BFB2BD422D
:100A400013D331002068FFF7EBFD060016F1010F0C
:100A500001D101201FE0022E03D320688069864265
:100A600001D3022017E0ED1BE7E7E66031002068C4
:100A7000FFF7C9FDADB210EB15102061ADB210202B
:100A8000B5FBF0F101FB1051206810EB411000F2B2
:100A9000300060610020F2BD2DE9F04104000F003C
:100AA000E088401C0600B6B2002E02D02069002863
:100AB00001D104208FE0B6B21020B6FBF0F101FBAB
:100AC0001061002979D12069401C2061E06800286C
:100AD00006D120680089B6B286426ED304207AE03F
:100AE000B6B2300921688978491E084265D1E168AB
:100AF0002068FFF795FD0500022D01D202206AE073
:100B000015F1010F01D1012065E02068806985425F
:100B10004DD3002F01D104205DE0E1682068FFF78C
:100B2000F1FE0500002D01D1072054E0012D01D177
:100B3000022050E015F1010F01D101204BE000210E
:100B40002068FFF7B8FC002801D0012043E04FF4F3
:100B50000072002120683030FFF786FC29002068F1
:100B6000FFF751FD2168C862002080462068807828
:100B70005FFA88F8804512D22068012101710021B6
:100B80002068FFF798FC002801D0012023E02068AE
:100B9000C06A401C2168C86218F10108E6E72068B5
:100BA000C06A5FFA88F8B0EB08002168C862E560A7
:100BB00029002068FFF727FD2061E680B6B21020EB
:100BC000B6FBF0F101FB1061206810EB411000F260
:100BD000300060610020BDE8F081F8B5040000211C
:100BE0002000FFF7FDFE0700FFB2002F02D0380003
:100BF000C0B225E021692068FFF75DFC0700FFB265
:100C0000002F1BD16069060030780500EDB2002D81
:100C100002D10420070011E0F07A000706D40B226D
:100C2000A1693000FFF72BFC002807D0002120002D
:100C3000FFF732FF0700FFB2002FDBD03800C0B251
:100C4000F2BDF8B5040000212000FFF7C9FE050041
:100C5000EDB2002D19D121692068FFF72CFC0500A9
:100C6000EDB2002D11D1606900780600F6B2E52ED4
:100C700002D0F6B2002E00D107E001212000FFF7DC
:100C80000BFF0500EDB2002DE5D0EDB2002D16D121
:100C900021692068FFF70FFC0500EDB2002D0ED191
:100CA00060690700202200213800FFF7DDFB0B22DE
:100CB000A1693800FFF7CAFB2068012101712800F3
:100CC000C0B2F2BD2DE9F34F81B0029800688346AF
:100CD0009BF800002F2803D09BF800005C2802D16D
:100CE0001BF1010BF4E70198806907000B2220211A
:100CF0003800FFF7B9FB00200400C0B282468146ED
:100D00000820804619F80B00050019F10109EDB221
:100D1000212D05D3EDB22F2D02D0EDB25C2D07D1E0
:100D200019EB0B0002990860EDB2212D61D25EE053
:100D3000EDB22E2D01D0C2450DD3B8F1080F02D16E
:100D4000EDB22E2D01D0062072E0082082460B2045
:100D50008046A400D6E7EDB2802D01D354F0030401
:100D6000EDB2812D22D3EDB2FF2D1FD219F80B0069
:100D7000060019F10109F6B2402E02D3F6B27F2E19
:100D800005D3F6B2802E06D3F6B2FF2E03D2B8F109
:100D90000100824501D306204AE00AF807501AF103
:100DA000010A0AF807601AF1010AABE7EDB229005F
:100DB000DFF83006FFF775FB002801D0062037E08A
:100DC000EDB2412D05D3EDB25B2D02D254F00204F9
:100DD00008E0EDB2612D05D3EDB27B2D02D254F0C7
:100DE0000104203D0AF807501AF1010A8AE7042598
:100DF00000E00025BAF1000F01D1062018E0387894
:100E0000E52801D105203870B8F1080F00D1A40001
:100E1000E4B214F00300012801D155F01005E4B24A
:100E200014F00C00042801D155F00805FD720020D3
:100E3000BDE8FE8FF2B50400009800782F2803D09B
:100E4000009800785C2802D10098401C0090002097
:100E5000A06000980078202807D200212000FFF72A
:100E6000BFFD05000020606131E000A92000FFF710
:100E700029FF0500EDB2002D29D12000FFF7ADFEBE
:100E80000500A069C07A0700EDB2002D07D0EDB2D1
:100E9000042D1CD1780701D40520050017E0780740
:100EA00015D460690600F07AC00602D4052005005A
:100EB0000DE0707D317D51EA002080B2F17EB27E7E
:100EC00052EA012189B251EA0040A060CDE7280032
:100ED000C0B2F2BD38B504000D0001232A0014F1A0
:100EE0003001607801F051F8002801D003202DE096
:100EF00094F82F0294F82E1251EA00204AF6552158
:100F000080B2884201D0022020E094F8680094F872
:100F10006710090251EA004094F866100843DFF8B0
:100F2000C814884201D1002010E094F8840094F89D
:100F30008310090251EA004094F882100843DFF858
:100F4000A814884201D1002000E0012032BD2DE923
:100F5000F74F86B00698D0F8009099F80000303826
:100F6000019001980A2809D299F801003A2805D180
:100F700019F102090698C0F8009001E000200190E4
:100F80000198002801D00B20F8E10198DFF85C14EB
:100F900051F82000824607990860BAF1000F01D18C
:100FA0000C20EBE19AF80000002815D09AF8010017
:100FB00001F077F98DF800009DF80000C0070BD410
:100FC0009DF82000002805D09DF80000400701D5BD
:100FD0000A20D3E10020D1E100208AF80000019826
:100FE0008AF801009AF8010000F01CFE8DF800005C
:100FF0009DF80000C00701D50320BFE19DF8200047
:10100000002805D09DF80000400701D50A20B5E171
:1010100000218B465046FFF75DFF0400E4B2012C2F
:1010200023D100200600F6B2002E00D0761EF6B2C4
:101030001AEB061000F2EE100290029800790028D8
:1010400013D00298C07A0299897A090451EA0060A3
:101050000299497A50EA01200299097A08438346A5
:1010600059465046FFF736FF0400E4B2032C01D185
:10107000012083E1E4B2002C01D00D207EE19AF83A
:101080003C009AF83B1051EA00204FF4007180B206
:10109000884201D00D2071E19AF847009AF8461075
:1010A00051EA002080B20700002F0ED19AF85700B5
:1010B0009AF85610090451EA00609AF8551050EA5F
:1010C00001209AF8541008430700CAF81C709AF8D7
:1010D000400005008AF80300EDB2012D04D0EDB206
:1010E000022D01D00D2049E1EDB26F439AF83D0089
:1010F00005008AF80200EDB2002D04D0691E280018
:10110000C0B2084201D00D2038E19AF842009AF8A6
:10111000411051EA0020AAF80800BAF8080010218E
:10112000B0FBF1F202FB1102002A01D00D2025E1F3
:101130009AF844009AF8431051EA002080B20490D3
:10114000049800280ED19AF853009AF85210090416
:1011500051EA00609AF8511050EA01209AF85010B4
:10116000084304909AF83F009AF83E1051EA002094
:10117000ADF80200BDF80200002801D10D20FDE00D
:10118000BDF8020017FA80F0BAF8081010EB111041
:10119000059004980599884201D20D20EEE004984C
:1011A0000599401A9AF80210B0FBF1F003900398E9
:1011B000002801D10D20E1E001200400039840F651
:1011C000F671884201D30220040003984FF6F671AD
:1011D000884201D3032004000398801CCAF8180039
:1011E000059810EB0B00CAF82800BDF802001BFAA6
:1011F00080F0CAF82000E4B2032C1AD1BAF8080033
:10120000002801D00D20B9E09AF85F009AF85E102E
:10121000090451EA00609AF85D1050EA01209AF83A
:101220005C100843CAF82400DAF8180080008046F1
:101230001CE0BAF80800002801D10D209EE0DAF881
:1012400020003818CAF82400E4B2022C04D1DAF8DD
:1012500018005FEA400809E0DAF818000321484363
:101260009AF8181011F0010111EB5008DAF81C007F
:1012700008F2FF11B0EB512F01D20D207EE05FF09C
:10128000FF30CAF810000020CAF80C00E4B2032CAA
:1012900064D100208AF805009AF861009AF860107D
:1012A00051EA00201BFA80F0CAF814000123DAF892
:1012B00014201AF130019AF8010000F066FE0028AF
:1012C0004CD19AF82F029AF82E1251EA00204AF6D1
:1012D000552180B2884241D19AF833009AF83210F1
:1012E000090451EA00609AF8311050EA01209AF896
:1012F000301008433E49884230D19AF817029AF8D4
:101300001612090451EA00609AF8151250EA0120F9
:101310009AF814120843374988421FD19AF81F02DD
:101320009AF81E12090451EA00609AF81D1250EA58
:1013300001209AF81C120843CAF80C009AF81B0204
:101340009AF81A12090451EA00609AF8191250EA40
:1013500001209AF818120843CAF810008AF80040D1
:1013600025480088401C24490880AAF8060000206F
:10137000CAF82C0000208AF80400002009B0BDE85B
:10138000F08F38B504000D00002C06D0207800281E
:1013900003D0E088ADB2A84201D0092007E0607810
:1013A00000F07FFFC00701D5032000E0002032BD20
:1013B0000200D2B2012A01D30B2011E0D2B20B48B5
:1013C00050F822000300002B01D0002018700029E3
:1013D00001D000200870D2B2044840F8221000204A
:1013E0007047000074C30000464154001050FF1FB6
:1013F0005252614172724161FC52FF1F2DE9F2436A
:101400008AB0040017000020206017F01F0717F0B3
:10141000FE0200A90AA8FFF79AFD050007A806909A
:10142000EDB2002D04D10A9900A8FFF703FD0500D5
:1014300005980600EDB2002D03D1002E01D1062043
:1014400005001C20074267D0EDB2002D0BD0EDB295
:10145000042D03D100A8FFF7F4FB050057F008079F
:10146000059806000AE0F07A1121084202D0072010
:10147000050003E0780701D508200500EDB2002D36
:101480005AD1380758D500F02BFF804686F80E80D9
:10149000404680B2000AF0735FEA184030745FEA99
:1014A000186070740020F072002030770020707790
:1014B0000020B0770020F077707D317D51EA002068
:1014C00080B2F17EB27E52EA012189B251EA004037
:1014D00081460020B0760020F07600203075002094
:1014E0007075009801210171B9F1000F24D00098A6
:1014F000C06A804649460098FFF7CBF90500EDB277
:10150000002D19D10098B9F10101C1604146009840
:10151000FEF7D1FF05000FE0EDB2002D0CD1F07AFF
:10152000C00602D50420050006E0B80704D5F07A0D
:10153000C00701D507200500EDB2002D07D13807FF
:1015400001D557F020070098C06AE0612662EDB22D
:10155000002D21D1A771707D317D51EA002080B22C
:10156000F17EB27E52EA012189B251EA0040206147
:10157000F07FB17F090451EA0060717F50EA0120D9
:10158000317F0843E0600020A0600020A061009847
:1015900020600098C088A0802800C0B20BB0BDE8D1
:1015A000F0832DE9FB4F04001500DDF804B002982C
:1015B00000210160A1882068FFF7E3FE8DF800009C
:1015C0009DF80000002802D09DF8000007E1A079F6
:1015D000000601D5022002E1A079800701D407208E
:1015E000FDE0E0682818E168884201D2002005008B
:1015F000002D00F0E980A0684FF40071B0FBF1F21B
:1016000002FB1102002A40F0A480A068400A216871
:101610008978491E084082465FFA8AFABAF1000FBB
:1016200027D1A06800280AD120690600002E0BD11E
:1016300000212068FFF766F90600206104E0616977
:101640002068FFF75FF90600002E00F0BD80012E34
:1016500005D1A07950F08000A0710220BFE016F102
:10166000010F05D1A07950F08000A0710120B6E0F3
:1016700066612068C06AA16988420BD10021206898
:10168000FEF719FF002805D0A07950F08000A07166
:101690000120A4E061692068FEF7B5FF0700002F74
:1016A00005D1A07950F08000A071022097E057FA90
:1016B0008AF7680A8146B9F1000F37D02068807830
:1016C00059FA8AF1884206D2206880785FFA8AFA4D
:1016D000B0EB0A0081464B46DBB23A00594620681F
:1016E000407800F0EDFC002805D0A07950F0800093
:1016F000A071012073E02068C06AC01B48450FD26A
:101700004FF400722068C06AC01B4FF4007101FBE7
:1017100000B120683030FEF799FE20680021017189
:101720004FF4007000FB09F080463EE0A068E168DD
:1017300088420DD300212068FEF7BDFE002805D0A9
:10174000A07950F08000A071012048E02068C762B5
:10175000A7614FF40070A1684FF40072B1FBF2F37F
:1017600003FB1213C01A8046454500D2A846A16962
:101770002068FEF7A0FE002805D0A07950F0800078
:10178000A07101202BE042465946A0684FF4007337
:10179000B0FBF3FC0CFB130C20681CEB000030309A
:1017A000FEF754FE20680121017118EB0B0BA068B5
:1017B00018EB0000A0600298006818EB0000029986
:1017C0000860B5EB080513E7E068A168884201D21C
:1017D000A068E060A07950F02000A0710020BDE872
:1017E000FE8FF8B50400A1882068FFF7CAFD050048
:1017F000EDB2002D41D1A07980063ED5E169206887
:10180000FEF759FE0500EDB2002D36D1206A070023
:10181000F87A50F02000F872E0683877E06880B21B
:10182000000A7877E068000CB877E068000EF87777
:101830002069B876206980B2000AF8762069000C29
:1018400038752069000C80B2000A787500F048FDF8
:101850000600BE75300080B2000AF875300C38768C
:10186000300E7876A07910F0DF00A0712068012199
:1018700001712068FEF75BFE05002800C0B2F2BDD2
:1018800038B504002000FFF7ACFF0500EDB2002DD5
:1018900001D1002020602800C0B232BD7CB5040018
:1018A0000D00E4B20A2C03D129000D20FFF7F6FF4A
:1018B0008DF800400120060001AB320000A928008D
:1018C000FFF76FFE0198B04201D1012001E05FF007
:1018D000FF3076BD70B504000D00002006002078B2
:1018E00000280CD029002078FFF7D8FF10F1010F55
:1018F00002D15FF0FF3003E0641C761CEFE730009C
:1019000070BD0DB42DE9F04F88B00C0012A8060090
:10191000002083460190019810F1010F00F07581BD
:1019200020788DF80000641C9DF80000002800F06D
:101930006C819DF8000025280CD011999DF80000BD
:10194000FFF7ACFF0190019810F1010F01D00120C9
:10195000019056E100208DF80100C0B2029020787D
:101960008DF80000641C9DF80000302807D101208C
:101970008DF8010020788DF80000641C0AE09DF8C5
:1019800000002D2806D102208DF8010020788DF866
:101990000000641C9DF80000302810D39DF8000062
:1019A0003A280CD202980A219DF8002001FB002061
:1019B0003038029020788DF80000641CEAE79DF82A
:1019C00000006C2803D09DF800004C2809D19DF838
:1019D000010050F004008DF8010020788DF800001F
:1019E000641C9DF80000002800F00F819DF80000A5
:1019F00080465FFA88F8B8F1610F06D35FFA88F87D
:101A0000B8F17B0F01D2B8F120085FFA88F84046A0
:101A100042284ED0432843D0442852D04F284CD09F
:101A2000532804D055284CD058284ED051E0306867
:101A30000390361D0020824603981AF80000002803
:101A400002D01AF1010AF7E7002005009DF8010015
:101A500080070CD4504610F1010A0299884206D240
:101A600011992020FFF71AFF01904519F2E711990B
:101A70000398FFF72FFF01904519504610F1010A16
:101A80000299884206D211992020FFF707FF0190A2
:101A90004519F2E7019810F1010F00D00195B0E06F
:101AA0003000061D11990068C0B2FFF7F7FE0190E3
:101AB000A7E002208DF8020012E008208DF8020055
:101AC0000EE00A208DF802000AE010208DF80200D6
:101AD00006E011999DF80000FFF7E0FE019090E00C
:101AE0009DF80100400702D53768361D09E05FFA0E
:101AF00088F8B8F1440F02D13768361D01E0376825
:101B0000361D5FFA88F8B8F1440F08D1002F06D5CA
:101B10007F429DF8010050F008008DF80100002080
:101B200081469DF80200B7FBF0F100FB1170804682
:101B30009DF80200B7FBF0F75FFA88F8B8F10A0FDA
:101B400008D39DF80000782801D1272000E0072065
:101B500010EB080804A818F1300109F8001019F179
:101B60000109002F02D0B9F1100FDAD39DF801005E
:101B7000000705D504A82D2109F8001019F1010965
:101B8000CA469DF80100C00702D55FF0300801E0A9
:101B90005FF02008002083469DF8010080070ED4E6
:101BA000504610F1010A0299884208D21199404624
:101BB000C0B2FFF773FE019010EB0B0BECE7B9F12D
:101BC0000109119904A819F80000FFF767FE0190B8
:101BD00010EB0B0BB9F1000FF1D1504610F1010AD7
:101BE0000299884207D211992020FFF757FE0190F1
:101BF00010EB0B0BF1E7019810F1010F01D0CDF8BC
:101C000004B0019810EB0B0B85E6019810F1010F61
:101C100002D1DDF804B0FFE7584608B0BDE8F00F88
:101C20005DF810FB2DE9F04389B00400DFF88476FD
:101C3000DFF88486DFF88406C8F80000E4B2002CE0
:101C400001D0012050E1DFF878060078800703D545
:101C5000DFF86C06007847E1DFF8640600780321BE
:101C6000084201D100203FE1B8F1000F03D0D8F8BD
:101C70000000002801D1002036E1DFF84806386076
:101C8000012078600020C8F804000020C8F808008F
:101C90000020C8F81000002088F80C00002088F808
:101CA0000D00DFF82406006850F40030DFF8181645
:101CB0000860002141F2013000F0D2FC002801D080
:101CC000002011E10020009000A941F2033000F053
:101CD000C7FC002801D0002006E10098022808D0A7
:101CE0000098032805D00098052802D000980628FF
:101CF0001DD10098032802D00098062802D10120A7
:101D000088F80C0002208DF8040000208DF80500F2
:101D10000020029000208DF80C000020049001A902
:101D200041F2023000F09CFC002802D103E00020C8
:101D3000DAE00020D8E003208DF8040000208DF8C0
:101D400005000020029000208DF80C000020049077
:101D500001A941F2023000F083FC002801D00020EC
:101D6000C2E00598000C0004C8F8100009208DF8A6
:101D7000040000208DF80500D8F810000290002023
:101D80008DF80C000020049001A941F2023000F00F
:101D900067FC002801D00020A6E0089810F4400F4E
:101DA0001ED10798C0F3032006009DF81C0010F018
:101DB000030081460698800D50EA89290698C0F3F1
:101DC000C210050019F101000121AA1C91404843ED
:101DD00001213200093A91404843C8F808000BE05D
:101DE000012088F80D000698C0F31520814619F1EE
:101DF00001008002C8F8080007208DF804000020C8
:101E00008DF80500D8F81000029000208DF80C0025
:101E10000020049001A941F2023000F021FC0028CA
:101E200001D0002060E010208DF8040000208DF823
:101E300005004FF40070029000208DF80C00002087
:101E4000049001A941F2023000F00AFC002801D000
:101E5000002049E0D8F800000068012837D1372079
:101E60008DF8040000208DF80500D8F810000290CD
:101E700000208DF80C000020049001A941F20230EE
:101E800000F0EEFB002801D000202DE046208DF868
:101E9000040000208DF805000220029000208DF83B
:101EA0000C000020049001A941F2023000F0D8FBA0
:101EB000002801D0002017E00120009000A941F285
:101EC000073000F0CDFB002801D000200CE0DFF847
:101ED000F003007810F0FE00DFF8E4130870DFF87C
:101EE000E003007810F0030009B0BDE8F083F0B41F
:101EF00002001600DFF8D4030700002F01D10020F4
:101F000041E03868022808D03868032805D03868CE
:101F1000072802D03868082804D1DFF8B403006825
:101F20004007FAD40B00002B2CD0B3F5007F02D968
:101F30004FF4007400E01C00E01C80080500002D38
:101F40001ED0DFF89003006810F4E00F0CD0DFF82B
:101F50008403006840F4E00050F02000DFF874C310
:101F6000CCF8000000200EE0DFF8640300680005F4
:101F7000FAD5DFF8640300683060361D6D1EDEE7B9
:101F80001B1BD0E70120F0BC70472DE9F04188B061
:101F900004000D0090461E00C74FE4B2002C02D191
:101FA000F6B2002E01D1042058E0C5480078C007E1
:101FB00001D5032052E0002D01D104204EE0387BF2
:101FC000002803D14FF4007000FB08F8F6B2012E90
:101FD0001DD111208DF8000000208DF80100CDF8F2
:101FE000048001208DF80800F6B2039600A941F2A2
:101FF000023000F035FB002829D14FF40071280091
:10200000FFF775FF002822D0002006001FE01220F5
:102010008DF8000000208DF80100CDF8048001202B
:102020008DF80800F6B2039600A941F2023000F0E4
:1020300017FB00280BD1F6B24FF4007000FB06F13D
:102040002800FFF754FF002801D000200600F6B258
:10205000002E01D0012000E00020C0B208B0BDE891
:10206000F08170B4020013000C00002C25D0B4F5F0
:10207000007F02D94FF4007500E02500641BE81CC6
:102080008508002DF1D09348006810F4E00F0AD0C5
:102090009048006840F4E00050F010008D4E306031
:1020A0005FF0FF300AE08A4800684005FBD58A48A7
:1020B0001E6806601B1D6D1EE3E7012070BC7047A3
:1020C0002DE9F04188B004000D0090461E007A4FC3
:1020D000E4B2002C02D1F6B2002E01D1042080E03F
:1020E00077480078C00701D503207AE0744800786B
:1020F000400701D5022074E0002D01D1042070E0DA
:10210000387B002803D14FF4007000FB08F8F6B2CA
:10211000012E1DD118208DF8000000208DF801003F
:10212000CDF8048000208DF80800F6B2039600A9CF
:1021300041F2023000F094FA002829D14FF40071E6
:102140002800FFF78EFF002822D0002006001FE0A5
:1021500019208DF8000000208DF80100CDF80480D2
:1021600000208DF80800F6B2039600A941F2023073
:1021700000F076FA00280BD1F6B24FF4007000FBA5
:1021800006F12800FFF76DFF002801D000200600AF
:102190000D208DF8000000208DF8010038690190B5
:1021A00000208DF808000020039000A941F20230C1
:1021B00000F056FA002801D0012012E004984749A7
:1021C000084201D001200CE0049810F4F850B0F55A
:1021D000106FDDD1F6B2002E01D0012000E000200A
:1021E000C0B208B0BDE8F0812DE9F04188B004002C
:1021F0000D001600DFF8C080E4B2002C01D00420EE
:102200004CE0012007002E480078C00701D50320CC
:1022100044E0EDB2002D05D0022D0CD005D3032DE6
:102220000FD037E00020070036E0D8F80800306013
:102230000020070030E04FF40070308000200700DD
:102240002AE009208DF8000000208DF80100D8F860
:102250001000019000208DF808000020039000A9D4
:1022600041F2023000F0FCF9002801D0012015E015
:10227000079810F4400F0AD10698C0F38640401C1E
:102280000799090A11F00301491E884030600020B7
:10229000070001E0042007003800C0B208B0BDE824
:1022A000F0810100C9B2002901D0012001E00448F9
:1022B00000787047E452FF1FC850FF1FDC50FF1F1B
:1022C0000C10FF1F48C5000030800440E050FF1F85
:1022D00024100B4030100B4020100B400880D9FF19
:1022E00000207047F0B580230F245FF0FF3C62466A
:1022F0005FF0020C6746B7F5807F16D85FF0010CDF
:102300006646112E0FD206FB07FC01FB0CFCBCEB52
:10231000000C6546002D04D4954202D22A003B00F1
:102320003400761CEDE77F00E5E7DFF810CADCF843
:1023300000C03CF0080CDFF804EACEF800C0DFF87B
:10234000FCC9DCF800C0DFF8F8E91EEA0C0C6646B0
:102350005FEAC31C1CF47F4C5CEA060CB4F1010E6E
:102360005FEA0E1E1EF0F00E5EEA0C0C5CF4602CB0
:10237000DFF8C8E9CEF800C0DFF8C8C9DCF800C053
:102380005FEA0C7CF8D5DFF8B4C9DCF800C05CF07B
:10239000080CDFF8A8E9CEF800C0DFF8ACC9DCF81B
:1023A00000C05CF4801CDFF8A0E9CEF800C0F0BDEE
:1023B00038B504000D0000202060DFF88009DFF848
:1023C0008C190160DFF874090068C001FAD4DFF8E5
:1023D000800900210160DFF87C095FF48131016030
:1023E000DFF8740928210160DFF870095FF001113E
:1023F0000160DFF86C19DFF86C0900684FF47A723D
:102400005043FFF76FFFDFF83C09006810F003004E
:102410000028F8D1DFF8500940F243410160DFF8AD
:102420004C0940F243410160DFF844094FF48861F0
:102430000160DFF8400940F243410160DFF83809EC
:1024400040F243410160DFF8340940F2434101604A
:10245000DFF82C09006850F40030DFF82419086018
:10246000DFF8E4084FF6FF710160DFF81809DFF8C4
:1024700018190160DFF8C408006850F00060DFF848
:10248000BC180860DFF8B40800680001FAD4DFF86F
:10249000B4080068C00301D501202060DFF8A80857
:1024A000006850F08000DFF8A0180860002032BDFE
:1024B000DFF89008006840F20731084201D001209F
:1024C00000E00020C0B270470100DFF87C281268ED
:1024D0000A4010000028F8D0704738B50400207872
:1024E00010F03F00DFF8A41851F820000500002D7F
:1024F00004D12078002801D00120B0E0DFF848089E
:10250000006850F08000DFF840180860DFF83408F9
:102510000068C007FAD46068DFF87418086035F402
:1025200040056078800510F440000543607802287B
:1025300001D155F40015607804280DD115F4403010
:10254000B0F5003F04D135F4403555F4403503E093
:1025500035F4403555F40035DFF8F807006880B2EF
:10256000DFF8F0170860E06800281FD015F440304D
:10257000B0F5403F01D055F40015207A002801D075
:1025800055F01005E068022801D355F02005E068F9
:1025900010F1010F0AD0DFF8BC070068E16850EACB
:1025A0000140DFF8B017086055F00205DFF8E407D6
:1025B00000210160DFF8E0070560DFF8E007FFF7C2
:1025C00083FF01280BD0DFF88007006840F47020FB
:1025D00050F00100DFF87017086001203FE0DFF8DD
:1025E00068070068000609D5DFF85C07006850F04E
:1025F0000110DFF854170860012030E0DFF84807C9
:102600000068C0030AD5DFF84007006850F00110E9
:10261000DFF8341708605FF0FF3020E015F4403F2A
:1026200014D0DFF87C070068206115F44030B0F565
:10263000803F0BD1DFF86C0700686061DFF8680746
:102640000068A061DFF864070068E061DFF8F80661
:10265000006850F00100DFF8F0160860002032BD7D
:102660002DE9F34F8BB05FF00009DDF830A0DFF803
:1026700040070400002C02D140F601205BE3DFF8A4
:1026800034070A900A98002802D140F60B2052E342
:102690000A98006809900998002802D140F60B209A
:1026A00049E30B98C01E00F02B83801F00F01D83B0
:1026B00041F2F821401A18D0401E00F0D981401E86
:1026C00000F0E782401E00F0E281401E00F0FC8135
:1026D000401E00F07B82401E00F09B82401E00F0F6
:1026E0004282401E00F04C8221E3DFF8CC1620002D
:1026F000FFF75EFE8146B9F1000F40F01B8300201A
:102700000500002006000020070000208DF80100D1
:102710000020804600208DF8000000208DF8040085
:1027200000208DF805000020029000208DF80C009C
:102730000020049001A8FFF7D0FE002802D001205D
:102740008146F7E240F24C4000F03AFB08208DF859
:10275000040000208DF805004FF4D5700290002091
:102760008DF80C000020049001A8FFF7B6FE834608
:10277000BBF1000F08D105980299884202D00120D0
:102780008146D7E20120804601208DF800009DF8A7
:102790000000002800F0F98037208DF804000020A8
:1027A0008DF805000020029000208DF80C0000201C
:1027B000049001A8FFF791FE8346BBF1010F02DBF5
:1027C00001208146B6E2BBF1000F6CD50020060067
:1027D000002005000020804601208DF80400002024
:1027E0008DF80500DFF8D405029000208DF80C006C
:1027F0000020049001A8FFF770FE002802D00120FD
:10280000814697E2059810F0C040B0F1005F01D119
:10281000012080460120070027208DF804000020B9
:102820008DF805004FF44060029000208DF80C00F8
:102830000020049001A8FFF750FE002802D00120DC
:10284000814677E20598000ACE2801D1012000E0F8
:102850000020C0B2002800F0988027208DF80400E6
:1028600000208DF805004FF45060029000208DF894
:102870000C000020049001A8FFF72FFE002802D0D2
:102880000120814656E20598000AAA2801D10120BC
:1028900000E00020C0B2002877D00020070001200F
:1028A0008DF8010071E069208DF8040000208DF89A
:1028B00005000020029000208DF80C0000200490FC
:1028C00001A8FFF70AFE002802D00120814631E26C
:1028D000059810F4401F58D0002083460A2000F0CD
:1028E0006FFA1BF1010B37208DF8040000208DF8E2
:1028F00005000020029000208DF80C0000200490BC
:1029000001A8FFF7EAFD002802D00120814624E05B
:1029100069208DF8040000208DF805005FFA88F822
:10292000B8F1000F03D0DFF89404029002E05FF4E6
:102930004010029000208DF80C000020049001A8A7
:10294000FFF7CBFD002802D00120814605E0059865
:10295000002802D4BBF1640FC0DBB9F1000F40F0D6
:10296000E981BBF1640F02DB002080460DE001200D
:1029700005005FFA88F8B8F1000F06D00020804605
:102980000598400001D501208046FFB2002F01D0FC
:10299000072020609DF80100002801D00820206059
:1029A000F6B2002E01D004202060EDB2002D08D038
:1029B000022020605FFA88F8B8F1000F01D00320F0
:1029C0002060F6B2002E0BD0EDB2002D08D005200D
:1029D00020605FFA88F8B8F1000F01D0062020606F
:1029E000DFF8840300210160DFF88003002101602B
:1029F000DFF87C0300210160DFF87803002101602B
:102A0000DFF8740300210160DFF87003002101602A
:102A100009984168DFF84C0300684FF47A7250431C
:102A2000FFF760FCDFF8400340F243410160DFF84C
:102A30003C0340F243410160DFF834034FF4886106
:102A40000160DFF8300340F243410160DFF8280302
:102A500040F243410160DFF8240340F2434101604A
:102A6000DFF81C03006850F40030C549086061E1DC
:102A70005046FFF732FD8346BBF1010F01DB022018
:102A80008146BBF1000F01D50320814652E1BAF126
:102A9000000F02D10C20814615E0A8480068C0094B
:102AA00010F4FF708346A5480068C0F30310401C73
:102AB00000FB0BFBAB4800684FF47A714843B0FB56
:102AC000FBF0CAF8000035E1BAF1000F02D10C208A
:102AD000814647E0DAF80000002802D10C20814648
:102AE00040E0FFF7E5FC002839D19F480021016054
:102AF0009E48002101609E48002101609D48002100
:102B000001609D48002101609C4800210160DAF8C5
:102B10000010944800684FF47A725043FFF7E2FBCC
:102B2000914840F243410160904840F243410160C6
:102B30008F484FF4886101608E4840F24341016044
:102B40008D4840F2434101608C4840F243410160AE
:102B50008B48006850F400308949086002E040F674
:102B60000A208146E6E0BAF1000F02D10C2081462E
:102B700005E078480068C004C00CCAF80000D9E03D
:102B8000BAF1000F02D10C2081461EE0FFF790FC45
:102B9000002817D1DAF80000B0F5805F02D30C20CE
:102BA000814612E06B480068400B400369490860A9
:102BB00068480068DAF80010C904C90C0843654980
:102BC000086002E040F60A208146B3E0BAF1000F47
:102BD00002D10C2081461BE05F480068C0F3410031
:102BE0008346BBF1000F03D10020CAF800000FE0BC
:102BF000BBF1010F03D10120CAF8000008E0BBF1CE
:102C0000100F03D10220CAF8000001E00520814620
:102C100090E0BAF1000F02D10C20814638E0FFF7B6
:102C200047FC002831D1DAF8000000280AD14A48D0
:102C3000006830F00600484908604748464909687E
:102C4000016025E0DAF8000001280CD14248006854
:102C500030F00600404908603F48006850F002002C
:102C60003D49086014E0DAF8000002280AD13A4829
:102C7000006830F00600384908603748364909686E
:102C8000016005E00520814602E040F60A20814609
:102C900050E0BAF1000F02D10C20814624E0274811
:102CA000006850F000602549086024480068000171
:102CB000FBD425480068000607D52348006850F07B
:102CC000800021490860002020601E480068C00381
:102CD00005D52068002804D10120206001E00020F3
:102CE00020602068CAF8000024E01C20CAF8000018
:102CF0000420CAF804004FF41E70CAF8080019E056
:102D00000220FFF7E1FB1048006810F4E00F07D045
:102D10000D48006850F4E0000B490860042081462B
:102D20000948006850F032000749086002E040F6A8
:102D30000920814648460DB0BDE8F08F2C100B40AD
:102D40000F00F0FF24100B4030100B4000800001FA
:102D5000C0100B4004100B4028100B4044100B40D7
:102D600060CC0500EC52FF1F00D0044004D00440AA
:102D700008D004400CD0044010D0044014D00440CB
:102D80003080044034100B40B3007F0040BA000094
:102D900008100B4000100B400C100B4001000E00FF
:102DA00010100B4014100B4018100B401C100B405F
:102DB000E050FF1FE452FF1F48C5000000003040F4
:102DC0000D49096851F001010B4A11600C49086076
:102DD0000C4905220A600949096851F00101074AB6
:102DE0001160064909680906FBD5044909684908C4
:102DF0004900024A116070473880044000000440D6
:102E00000800044004000440DFF81405006850F492
:102E10000020DFF80C150860DFF80805006850F0A6
:102E20000100DFF800150860DFF8FC04006830F4EA
:102E30000020DFF8F414086000BFDFF8F004006839
:102E400050F00100DFF8E414086000BF00BF00BFCD
:102E500000BF00BF00BF00BF00BF00BF00BF00BF7A
:102E6000DFF8C404006850F40020DFF8BC140860E8
:102E700000BF00BF00BF00BF00BF00BF00BF00BF5A
:102E800000BF00BF00BF00BF00BF00BF00BF00BF4A
:102E900000BF00BF00BF00BF00BF00BF00BF00BF3A
:102EA00000BF00BF00BF00BF00BF00BF00BF00BF2A
:102EB00000BF00BF00BF00BF00BF00BF00BF00BF1A
:102EC000DFF86804006840084000DFF8601408601C
:102ED00000BF00BF00BF00BF00BF00BF00BF00BFFA
:102EE00000BF00BF00BF00BF00BF00BF00BF00BFEA
:102EF00000BF00BF00BF00BF00BF00BF00BF00BFDA
:102F000000BF00BF00BF00BF00BF00BF00BF00BFC9
:102F100000BF00BF00BF00BF00BF00BF00BF00BFB9
:102F2000DFF80404006830F40020DFF8FC130860C8
:102F300070470000DFF8E803006850F40020DFF875
:102F4000E0130860DFF8DC03006850F00100DFF8F0
:102F5000D4130860DFF8D003006830F40020DFF8F5
:102F6000C813086000BF00BF00BF00BF00BF00BFA4
:102F700000BF00BF00BF00BF00BFDFF8B0030068A4
:102F800040084000DFF8A413086000BF00BF00BF86
:102F900000BF00BF00BF00BF00BF00BF00BF00BF39
:102FA000E148006850F40020DF49086000BF00BF1E
:102FB00000BF00BF00BF00BF00BF00BF00BF00BF19
:102FC00000BF00BF00BF00BF00BF00BF00BF00BF09
:102FD00000BF00BF00BF00BF00BF00BF00BF00BFF9
:102FE00000BF00BF00BF00BF00BF00BF00BF00BFE9
:102FF00000BF00BF00BF00BF00BF00BFCB480068DC
:1030000050F00100C949086000BF00BF00BF00BF09
:1030100000BF00BF00BF00BF00BF00BF00BF00BFB8
:1030200000BF00BF00BF00BF00BF00BF00BF00BFA8
:1030300000BF00BF00BF00BF00BF00BF00BF00BF98
:1030400000BF00BF00BF00BF00BF00BF00BF00BF88
:1030500000BF00BF00BF00BFB348006830F40020CD
:10306000B149086070470000AD4A126852F400226E
:10307000AB4B1A60AB4A126852F00102A94B1A60BE
:1030800000BF00221100C9B2082958D2A64A12680E
:1030900032F40022A44B1A60C0B210FA01F21206F8
:1030A00006D5A24A126852F00102A04B1A6005E050
:1030B0009E4A1268520852009C4B1A6000BF00BF23
:1030C00000BF00BF00BF00BF00BF00BF00BF00BF08
:1030D00000BF954A126852F40022934B1A6000BF59
:1030E00000BF00BF00BF00BF00BF00BF00BF00BFE8
:1030F00000BF00BF00BF00BF00BF00BF00BF00BFD8
:1031000000BF00BF00BF00BF00BF00BF00BF00BFC7
:1031100000BF00BF00BF00BF00BF00BF00BF00BFB7
:1031200000BF00BF00BF00BF00BF00BF00BF7E4A9E
:10313000126832F400227C4B1A60491CA3E700BFDE
:1031400000BF00BF00BF00BF00BF00BF00BF00BF87
:1031500000BF00BF00BF00BF00BF00BF00BF00BF77
:1031600000BF00BF00BF00BF00BF00BF00BF00BF67
:1031700000BF00BF00BF00BF00BF00BF00BF00BF57
:1031800000BF00BF00BF00BF00BF00BF00BF674A55
:10319000126852F00102654B1A6000BF00BF00BF09
:1031A00000BF00BF00BF00BF00BF00BF00BF00BF27
:1031B0005D4A126852F400225B4B1A6000BF00BFE8
:1031C00000BF00BF00BF00BF00BF00BF00BF00BF07
:1031D00000BF00BF00BF00BF00BF00BF00BF00BFF7
:1031E00000BF00BF00BF00BF00BF00BF00BF00BFE7
:1031F00000BF00BF00BF00BF00BF00BF00BF00BFD7
:1032000000BF00BF00BF00BF00BF00BF464A12683A
:1032100032F40022444B1A6070470000414A1268A1
:10322000520852003F4B1A603D4A126852F4002285
:103230003B4B1A60002210003B4A126832F4002215
:10324000394B1A6000BF00BF00BF00BF00BF00BF06
:1032500000BF00BF00BF00BF00BF00221100C9B205
:10326000082955D200BF00BF00BF00BF00BF00BF8C
:1032700000BF00BF00BF00BF00BF2B4A126832F47E
:103280000022294B1A6000BF00BF00BF00BF00BF73
:1032900000BF00BF00BF00BF00BF00BF00BF00BF36
:1032A00000BF00BF00BF00BF00BF00BF00BF00BF26
:1032B00000BF00BF00BF00BF00BF00BF00BF00BF16
:1032C00000BF00BF00BF00BF00BF00BF00BF00BF06
:1032D00000BF00BF00BF144A126852F40022124B14
:1032E0001A6000BF00BF00BF00BF00BF00BF00BF2B
:1032F00000BF00BF00BF00BF4000DFF84C2B1268CA
:1033000012F00102D2B2002A00D0401C491CA6E7EC
:10331000054A126832F40022034B1A60C0B27047AB
:1033200094F00F40D4F00F4080F00F40C0F00F40F9
:1033300070B504000D001600FFF766FD2000C0B256
:10334000FFF792FE2800C0B2FFF78EFE3000C0B239
:10335000FFF78AFEFFF7EEFD70BD70B504000D00AB
:103360006426FFF751FD2000C0B2FFF77DFE280064
:10337000C0B2FFF779FEFFF747FD601CC0B2FFF750
:1033800073FEFFF74BFF0600FFF7D4FD3000C0B21D
:1033900070BD000080B5002301221321022000F03F
:1033A000D9FD002301220021032000F0D3FD00BF3E
:1033B00000BF00BF00BF00BF00BF00BF00BF00BF15
:1033C00000BF00BF00BF00BF00BF00BF00BF00BF05
:1033D00000BF00BF00BF00BF00BF00BF00BF00BFF5
:1033E00000BF00BF00BF00BF00BF00BF00BF00BFE5
:1033F00000BF00BF00BF00BF00BF00BF00BF00BFD5
:1034000000BF00BF00BF00BF00BF00BF00BF00BFC4
:1034100000BF00BF00BF00BF00BF00BF00BF00BFB4
:1034200000BF00BF00BF00BF00BF00BF00BF00BFA4
:1034300000BF00BF00BF00BF00BF00BF00BF00BF94
:1034400000BF00BF00BF00BF00BF00BF00BF00BF84
:1034500000BF00BF00BF00BF00BF00BF00BF00BF74
:1034600000BF00BF00BF00BF00BF00BF00BF00BF64
:1034700000BF00BF00BF00BF00BF00BF00BF00BF54
:1034800000BF00BF00BF00BF00BF00BF00BF00BF44
:1034900000BF00BF00BF00BF00BF00BF00BF00BF34
:1034A00000BF00BF00BF00BF00BF00BF00BF00BF24
:1034B00000BF00BF00BF00BF00BF00BF00BF00BF14
:1034C00000BF00BF00BF00BF00BF00BF00BF00BF04
:1034D00000BF00BF00BF00BF00BF00BF00BF00BFF4
:1034E00000BF00BF00BF00BF00BF00BF00BF00BFE4
:1034F00000BF00BF00BF00BF00BF00BF00BF00BFD4
:1035000000BF00BF00BF00BF00BF00BF00BF00BFC3
:1035100000BF00BF00BF00BF00BF00BF00BF00BFB3
:1035200000BF00BF00BF00BF00BF00BF00BF00BFA3
:1035300000BF00BF00BF00BF00BF00BF00BF00BF93
:1035400000BF00BF00BF00BF00BF00BF00BF00BF83
:1035500000BF00BF00BF00BF00BF00BF00BF00BF73
:1035600000BF00BF00BF00BF00BF00BF00BF00BF63
:1035700000BF00BF00BF00BF00BF00BF00BF00BF53
:1035800000BF00BF00BF00BF00BF00BF00BF1022D0
:103590002A213820FFF7CCFE00BF00BF00BF00BFCC
:1035A00000BF00BF00BF00BF00BF00BF00BF00BF23
:1035B00000BF00BF00BF00BF00BF00BF00BF00BF13
:1035C00000BF00BF00BF00BF00BF00BF00BF00BF03
:1035D00000BF00BF00BF00BF00BF00BF00BF00BFF3
:1035E00000BF00BF00BF00BF00BF00BF00BF00BFE3
:1035F00000BF00BF00BF00BF00BF00BF00BF00BFD3
:1036000000BF00BF00BF00BF00BF00BF00BF00BFC2
:1036100000BF00BF00BF00BF00BF00BF00BF00BFB2
:1036200000BF00BF00BF00BF00BF00BF00BF00BFA2
:1036300000BF00BF00BF00BF00BF00BF00BF00BF92
:1036400000BF00BF00BF00BF00BF00BF00BF00BF82
:1036500000BF00BF00BF00BF00BF00BF00BF00BF72
:1036600000BF00BF00BF00BF00BF00BF00BF00BF62
:1036700000BF00BF00BF00BF00BF00BF00BF00BF52
:1036800000BF00BF00BF00BF00BF00BF00BF00BF42
:1036900000BF00BF00BF00BF00BF00BF00BF00BF32
:1036A00000BF00BF00BF00BF00BF00BF00BF00BF22
:1036B00000BF00BF00BF00BF00BF00BF00BF00BF12
:1036C00000BF00BF00BF00BF00BF00BF00BF00BF02
:1036D00000BF00BF00BF00BF00BF00BF00BF00BFF2
:1036E00000BF00BF00BF00BF00BF00BF00BF00BFE2
:1036F00000BF00BF00BF00BF00BF00BF00BF00BFD2
:1037000000BF00BF00BF00BF00BF00BF00BF00BFC1
:1037100000BF00BF00BF00BF00BF00BF00BF00BFB1
:1037200000BF00BF00BF00BF00BF00BF00BF00BFA1
:1037300000BF00BF00BF00BF00BF00BF00BF00BF91
:1037400000BF00BF00BF00BF00BF00BF00BF00BF81
:1037500000BF00BF00BF00BF00BF00BF00BF00BF71
:1037600000BF00BF00BF00BF00BF00BF00BF00BF61
:1037700000BF00BF00BF00BF00220E213820FFF7AE
:10378000D7FD00BF00BF00BF00BF00BF00BF00BF2C
:1037900000BF00BF00BF00BF00BF00BF00BF00BF31
:1037A00000BF00BF00BF00BF00BF00BF00BF00BF21
:1037B00000BF00BF00BF00BF00BF00BF00BF00BF11
:1037C00000BF00BF00BF00BF00BF00BF00BF00BF01
:1037D00000BF00BF00BF00BF00BF00BF00BF00BFF1
:1037E00000BF00BF00BF00BF00BF00BF00BF00BFE1
:1037F00000BF00BF00BF00BF00BF00BF00BF00BFD1
:1038000000BF00BF00BF00BF00BF00BF00BF00BFC0
:1038100000BF00BF00BF00BF00BF00BF00BF00BFB0
:1038200000BF00BF00BF00BF00BF00BF00BF00BFA0
:1038300000BF00BF00BF00BF00BF00BF00BF00BF90
:1038400000BF00BF00BF00BF00BF00BF00BF00BF80
:1038500000BF00BF00BF00BF00BF00BF00BF00BF70
:1038600000BF00BF00BF00BF00BF00BF00BF00BF60
:1038700000BF00BF00BF00BF00BF00BF00BF00BF50
:1038800000BF00BF00BF00BF00BF00BF00BF00BF40
:1038900000BF00BF00BF00BF00BF00BF00BF00BF30
:1038A00000BF00BF00BF00BF00BF00BF00BF00BF20
:1038B00000BF00BF00BF00BF00BF00BF00BF00BF10
:1038C00000BF00BF00BF00BF00BF00BF00BF00BF00
:1038D00000BF00BF00BF00BF00BF00BF00BF00BFF0
:1038E00000BF00BF00BF00BF00BF00BF00BF00BFE0
:1038F00000BF00BF00BF00BF00BF00BF00BF00BFD0
:1039000000BF00BF00BF00BF00BF00BF00BF00BFBF
:1039100000BF00BF00BF00BF00BF00BF00BF00BFAF
:1039200000BF00BF00BF00BF00BF00BF00BF00BF9F
:1039300000BF00BF00BF00BF00BF00BF00BF00BF8F
:1039400000BF00BF00BF00BF00BF00BF00BF00BF7F
:1039500000BF00BF00BF00BF00BF00BF00BF00BF6F
:1039600000BF10220F213820FFF7E2FC00BF00BF8C
:1039700000BF00BF00BF00BF00BF00BF00BF00BF4F
:1039800000BF00BF00BF00BF00BF00BF00BF00BF3F
:1039900000BF00BF00BF00BF00BF00BF00BF00BF2F
:1039A00000BF00BF00BF00BF00BF00BF00BF00BF1F
:1039B00000BF00BF00BF00BF00BF00BF00BF00BF0F
:1039C00000BF00BF00BF00BF00BF00BF00BF00BFFF
:1039D00000BF00BF00BF00BF00BF00BF00BF00BFEF
:1039E00000BF00BF00BF00BF00BF00BF00BF00BFDF
:1039F00000BF00BF00BF00BF00BF00BF00BF00BFCF
:103A000000BF00BF00BF00BF00BF00BF00BF00BFBE
:103A100000BF00BF00BF00BF00BF00BF00BF00BFAE
:103A200000BF00BF00BF00BF00BF00BF00BF00BF9E
:103A300000BF00BF00BF00BF00BF00BF00BF00BF8E
:103A400000BF00BF00BF00BF00BF00BF00BF00BF7E
:103A500000BF00BF00BF00BF00BF00BF00BF00BF6E
:103A600000BF00BF00BF00BF00BF00BF00BF00BF5E
:103A700000BF00BF00BF00BF00BF00BF00BF00BF4E
:103A800000BF00BF00BF00BF00BF00BF00BF00BF3E
:103A900000BF00BF00BF00BF00BF00BF00BF00BF2E
:103AA00000BF00BF00BF00BF00BF00BF00BF00BF1E
:103AB00000BF00BF00BF00BF00BF00BF00BF00BF0E
:103AC00000BF00BF00BF00BF00BF00BF00BF00BFFE
:103AD00000BF00BF00BF00BF00BF00BF00BF00BFEE
:103AE00000BF00BF00BF00BF00BF00BF00BF00BFDE
:103AF00000BF00BF00BF00BF00BF00BF00BF00BFCE
:103B000000BF00BF00BF00BF00BF00BF00BF00BFBD
:103B100000BF00BF00BF00BF00BF00BF00BF00BFAD
:103B200000BF00BF00BF00BF00BF00BF00BF00BF9D
:103B300000BF00BF00BF00BF00BF00BF00BF00BF8D
:103B400000BF00BF00BF00BF00BF00BF01222A218D
:103B50003820FFF7EDFB00BF00BF00BF00BF00BF74
:103B600000BF00BF00BF00BF00BF00BF00BF00BF5D
:103B700000BF00BF00BF00BF00BF00BF00BF00BF4D
:103B800000BF00BF00BF00BF00BF00BF00BF00BF3D
:103B900000BF00BF00BF00BF00BF00BF00BF00BF2D
:103BA00000BF00BF00BF00BF00BF00BF00BF00BF1D
:103BB00000BF00BF00BF00BF00BF00BF00BF00BF0D
:103BC00000BF00BF00BF00BF00BF00BF00BF00BFFD
:103BD00000BF00BF00BF00BF00BF00BF00BF00BFED
:103BE00000BF00BF00BF00BF00BF00BF00BF00BFDD
:103BF00000BF00BF00BF00BF00BF00BF00BF00BFCD
:103C000000BF00BF00BF00BF00BF00BF00BF00BFBC
:103C100000BF00BF00BF00BF00BF00BF00BF00BFAC
:103C200000BF00BF00BF00BF00BF00BF00BF00BF9C
:103C300000BF00BF00BF00BF00BF00BF00BF00BF8C
:103C400000BF00BF00BF00BF00BF00BF00BF00BF7C
:103C500000BF00BF00BF00BF00BF00BF00BF00BF6C
:103C600000BF00BF00BF00BF00BF00BF00BF00BF5C
:103C700000BF00BF00BF00BF00BF00BF00BF00BF4C
:103C800000BF00BF00BF00BF00BF00BF00BF00BF3C
:103C900000BF00BF00BF00BF00BF00BF00BF00BF2C
:103CA00000BF00BF00BF00BF00BF00BF00BF00BF1C
:103CB00000BF00BF00BF00BF00BF00BF00BF00BF0C
:103CC00000BF00BF00BF00BF00BF00BF00BF00BFFC
:103CD00000BF00BF00BF00BF00BF00BF00BF00BFEC
:103CE00000BF00BF00BF00BF00BF00BF00BF00BFDC
:103CF00000BF00BF00BF00BF00BF00BF00BF00BFCC
:103D000000BF00BF00BF00BF00BF00BF00BF00BFBB
:103D100000BF00BF00BF00BF00BF00BF00BF00BFAB
:103D200000BF00BF00BF00BF00BF00BF00BF00BF9B
:103D300000BF00BF00BF01BD2DE9F24F80465FFA12
:103D400088F85FEA08209DF8001050FA81F082465A
:103D50005FFA88F8B8F1800F0BD35FF0FF3081462F
:103D60001FFA8AFA7FEA9A00401C8004800C83467E
:103D700006E0012081461FFA8AFA5FEA9A0083462C
:103D8000484600F049F904000D001FFA8BFB584625
:103D900000F04CF900222D4B00F056F922002B00C8
:103DA00000F076FA06000F0030003900BDE8F48F0D
:103DB0002DE9F047060000240025F6B2582E04D164
:103DC00001208046022007000EE0F6B2592E04D1F1
:103DD000032080460420070006E0F6B25A2E03D1E5
:103DE00005208046062007004146C9B23820FFF76B
:103DF000B4FA82463900C9B23820FFF7AEFA8146DC
:103E00004946C9B25046C0B2FFF796FF04000D0004
:103E1000200029000E4A0F4B00F00CFB04D80C4880
:103E20000C4904000D000AE0200029000A4A0B4B4F
:103E300000F018FB03D20648084904000D002000DA
:103E40002900BDE8F0870000D0F00F4000FEAF4031
:103E50001EA7E8482EFFEF3F1DA7E8482EFFEFBF43
:103E600080B5002301221321022000F073F8002303
:103E700001220021032000F06DF80F222021D22022
:103E8000FFF756FA00222121D220FFF751FA08222B
:103E90002221D220FFF74CFA30222321D220FFF733
:103EA00047FA00222421D220FFF742FA01BD2DE972
:103EB000F84F04000D0000275FF00008EDB2582D08
:103EC00004D129208246282083460EE0EDB2592DE8
:103ED00004D12B2082462A20834606E0EDB25A2DDB
:103EE00003D12D2082462C208346002081465FFA94
:103EF00089F9E4B2A14517D25146C9B2D220FFF7E1
:103F00002CFA8DF800005946C9B2D220FFF725FAE5
:103F100006009DF80000000250FA86F0804607FA7D
:103F200088F719F10109E2E7E4B297FBF4F0BDE884
:103F3000F28F50F8041B61B150F8042BD30744BF33
:103F4000A9F101039A18002342F8043B091FFAD192
:103F5000EFE77047F8B504000D0016001F00EDB242
:103F6000202D02D2FFB2022F03D32421274800F0D4
:103F700091FAEDB2E4B2264850F82400F6B24FF4BC
:103F80008071314340F82510F00705D5F6B2032EB5
:103F900002D0F6B2132E0DD1E4B21E4850F8240020
:103FA00040690121A9408843E4B21A4951F824101C
:103FB00048612AE0E4B2174850F824004069012122
:103FC000A9400843E4B2134951F824104861FFB2F4
:103FD000012F0DD1E4B20F4850F8240000680121F0
:103FE000A9400843E4B20B4951F8241008600CE0E2
:103FF000E4B2084850F8240000680121A940884331
:10400000E4B2044951F824100860F1BD64BC00001A
:104010002410FF1F1010FF1F010040F10980F4461B
:10402000404200F005F851F000416047010000BF38
:1040300009D0B0FA80F18840C91CC1F58461090536
:1040400001EBD02140057047F0B540F2FF7581EAE1
:10405000030C0CF0004C15EA11541DBF15EA135760
:10406000AC42AF42E5E0BC41C1F31301C3F313031B
:10407000801A994143F4801304D2641E40004941E0
:1040800080185941C90241EA5051B1FBF3F603FBD4
:104090001611A2FB0675D7EBC020A94102D2761EED
:1040A00080185941C90241EA5051B1FBF3FE03FBAC
:1040B0001E11A2FB0E75D7EBC020A94103D2AEF1B1
:1040C000010E80185941890241EA9051760546EA6D
:1040D0008E2EB1FBF3F603FB1611A2FB0675D7EB90
:1040E0008020A94102D2761E80185941C90241EAB6
:1040F00050514EEA060EB1FBF3F603FB1611A2FB7C
:104100000675D7EBC020A94102D2761E801859410E
:10411000C90241EA5051B1FBF3F703FB1711A2FBAF
:104120000735D3EBC020A94167F100070CBF00425F
:1041300047F0010766F3D5274FEA1E31B80814F59A
:10414000806412DDBD0775F1004250EB0E5051EB5B
:10415000045111F5801F5CBF41EA0C01F0BD4CF029
:104160007F6141F0E0410020F0BDBD076D0840EAED
:104170000E5041F48011D4F10104B4F120060ADAA2
:10418000C4F120060200E04001FA06F3E1401843C2
:10419000B24015430EE0342C13DCC6F1200445EA8E
:1041A00040056D0820FA06F2154321FA06F0A140F9
:1041B0000D43002175F1004250F1000051EB0C015C
:1041C000F0BD00205FEA0C01F0BDCFB992185B4151
:1041D000B3FA83F704BFB2FA82F6BF190B3FB7F107
:1041E00020062FBF02FA06F3BB40C7F1200622FAD1
:1041F00006F638BF3343BA401CB1E419641E33E7F6
:104200007F4231F00041B1FA81F404BFB0FA80F688
:10421000A4190B3CB4F120062FBF00FA06F1A1400F
:10422000C4F1200620FA06F638BF3143A0403C1BFB
:104230001AE7AC421ABF05EA1357AF4212E050EA40
:1042400041061CBF52EA4306BFE750EA4107304629
:1042500061461CBF41EA0551F0BD52EA430C08BF5C
:10426000C143F0BD00204FF4001616EB410F98BF7C
:1042700016EB430F08BF16EB410F24BFC14305E007
:1042800016EB430F0CBF61464CEA0551F0BD000030
:10429000B0B581EA030C0CF0004C40F2FF7515EA52
:1042A00011541DBF15EA1357AC42AF4239E0E4196F
:1042B00023EA455343F48013C90241F0004141EA27
:1042C000505EC7021100A7FB020200284FF0000059
:1042D000EEFB01204FF00001E3FB072118BF42F085
:1042E0000102401800214941E3FB0E01A4F580645E
:1042F0000F0302D252004041494154F101046CDDE8
:10430000470872F1004250F1000051EB0451A1F551
:1043100080115CBF41EA0C01B0BD4CEA05510020A0
:10432000B0BD05EA1357AC4214BFAF4241E050EABA
:10433000410E1CBF52EA430E02E061460020B0BDB0
:1043400024423C441BD15FEA070EF6D0090302BFAA
:1043500001460020AEF1140EB1FA81F7AEEB07046E
:1043600001FA07FE0C37C7F1200100FA07F7C84031
:104370004EEA000E23EA455343F48013A2E733F0DC
:104380000043B3FA83F704BFB2FA82FE77440B3FCF
:10439000E41BB7F1200E2FBF02FA0EF3BB40C7F1AA
:1043A000200E22FA0EFE38BF43EA0E03BA40641C08
:1043B00082E750EA410E14BF52EA430E6FF000014B
:1043C0004FF4001717EB430F8ABF194617EB410F45
:1043D000B5E74CEA05510020B0BDD4F10104B4F1B9
:1043E00020070FDAC4F12007520828BF42F001026B
:1043F00010FA07F501FA07F7E1BF2A43E040384316
:10440000E1400FE0352C98DCC7F1200452EA40026D
:1044100020FA07F218BF42F0010231FA07F0A1407A
:104420000A43002172F1004250F1000051EB0C01EF
:10443000B0BD00004FF4001C1CEB410F94BF1CEBFF
:10444000430F09E041EA030C50EA4C0C52EA0C0C11
:1044500003D28B4208BF8242704714BF99429042F8
:10446000704700004FF4001C1CEB410F94BF1CEB85
:10447000430F09E041EA030C50EA4C0C52EA0C0CE1
:1044800003D2994208BF9042704714BF8B428242C8
:104490007047000038B504000D0000F00BF82A004A
:1044A0002100034800F0F9FA00F02DF8F7E700BF0B
:1044B000C4BC000080B5012301220C210320FFF7BA
:1044C00049FD012301220D210320FFF743FD0123B4
:1044D00001220E210320FFF73DFD012301220F21C0
:1044E0000320FFF737FD01BD1E4AD2681268012381
:1044F00083409A43C9B211F0010383401A43194B18
:10450000DB681A60704710B5012301220C210320DB
:10451000FFF720FD012301220D210320FFF71AFDE3
:10452000012301220E210320FFF714FD01230122A4
:104530000F210320FFF70EFD0C200400E4B2102C25
:104540000ED200212000C0B2FFF7CEFF642000F0A1
:10455000B9FA01212000C0B2FFF7C6FF641CEDE7E5
:1045600010BD00001010FF1F70B504000D001600F4
:104570003068012802D0022805D00AE02000C0B22D
:104580007168884705E0B0680470B068401CB0608E
:10459000FFE72868401C286070BD2DE9F047040043
:1045A0005FF0000A5046A1465FF0000A89F800A0BB
:1045B00019F10109002A1FD0D1F800A05546002D9D
:1045C00005D15FF0300A89F800A0401C38E0002DCA
:1045D00036D095FBF3FA564603FB165A5746002F82
:1045E00002D5FF43313700E03037350089F80070DD
:1045F00019F10109401CEAE7D1F800A0D446BCF14A
:10460000000F05D15FF0300A89F800A0401C17E0C8
:10461000BCF1000F14D0BCFBF3FAD64603FB1ECA54
:10462000D046B8F10A0F02D218F1300801E018F1B3
:104630003708F44689F8008019F10109401CE7E7C2
:10464000BDE8F0872DE9F04104000D0016001F00C1
:10465000A046A84507DA3A0031003020FFF784FF72
:1046600018F10108F5E7BDE8F0812DE9F0410400FB
:104670000D0016001F00A046A84507DA3A003100D9
:104680002020FFF771FF18F10108F5E7BDE8F08180
:104690002DE9F24F92B0040015000020009012980E
:1046A00083469BF800000590002800F0F2810598F1
:1046B000252813D005980A2805D0220000A90598BE
:1046C000FFF752FF09E0220000A90D20FFF74CFF81
:1046D000220000A90A20FFF747FFD7E1002081460A
:1046E000002003900398002822D11BF1010B9BF8B6
:1046F000000020280ED0232812D02B2807D02D28E8
:1047000002D0302809D00EE059F00109EAE759F04B
:104710000209E7E759F00409E4E759F00809E1E77D
:1047200059F01009DEE7BBF1010B01200390D9E736
:1047300000208246002003900398002813D11BF12B
:10474000010B9BF8000005903038092806D80A2094
:10475000059900FB0A10B0F1300AEDE7BBF1010B3F
:1047600001200390E8E71BF1010B9BF800002E28C5
:1047700011D100200390039800280ED11BF1010BEA
:104780009BF800003038092800D8F4E7BBF1010B92
:1047900001200390EFE7BBF1010B1BF1010B9BF82C
:1047A00000004C2806D0682802D06C2801D002E016
:1047B00003E002E001E0BBF1010B1BF1010B9BF8F0
:1047C00000000590582875D0622800F0D580632835
:1047D00000F01D81642813D0692811D06E2800F0E4
:1047E00049816F2800F0BD80702800F0D0807328C8
:1047F00000F01681752800F0D58078285AD040E165
:10480000286806902D1D0A23012206A909A8FFF792
:10481000C4FE070009A8381806000698002803D52A
:104820002D2002907F1C0FE04846800703D52B20E7
:1048300002907F1C08E04846400703D520200290E4
:104840007F1C01E0002002900020049048460007F1
:1048500011D50298002804D0220000A90298FFF781
:1048600083FE01200490230000AA51463800FFF780
:10487000E9FE574612E04846C0070FD4230000AABD
:1048800051463800FFF7F1FE0298002804D02200BC
:1048900000A90298FFF768FE012004900498002800
:1048A00007D10298002804D0220000A90298FFF73F
:1048B0005BFE98E0286801902D1D1023002201A9BD
:1048C00009A8FFF76AFE070009A8381806000020AB
:1048D00004904846000716D54846C0060BD522006E
:1048E00000A93020FFF740FE220000A97820FFF742
:1048F0003BFE01200490230000AA51463800FFF738
:10490000A1FE57461BE04846C00718D44846C006DB
:1049100000D5BF1C230000AA51463800FFF7A5FEB2
:104920004846C0060BD5220000A93020FFF71CFE28
:10493000220000A97820FFF717FE012004904846C6
:10494000C0060DD5049800280AD1220000A9302005
:10495000FFF70AFE220000A97820FFF705FEBF1C22
:1049600041E0286801902D1D0823002201A909A813
:10497000FFF713FE07001FE0286801902D1D02239A
:10498000002201A909A8FFF708FE070014E0286823
:1049900001902D1D1023002201A909A8FFF7FDFD9C
:1049A000070009E0286801902D1D0A23002201A9B3
:1049B00009A8FFF7F2FD070009A8381806004846C5
:1049C000000707D5230000AA51463800FFF73AFE3A
:1049D000574608E04846C00705D4230000AA5146C0
:1049E0003800FFF742FE3078002806D0220000A9E8
:1049F0003078FFF7B9FD761EF5E74846C00705D5C4
:104A0000230000AA51463800FFF72FFE3EE0287829
:104A100007902D1D220000A90798FFF7A5FD35E09E
:104A2000286880462D1DB8F1000F22D0404600F0C6
:104A30005BF807004846C00705D4230000AA51468A
:104A40003800FFF712FE98F80000002808D0220076
:104A500000A998F80000FFF787FD18F10108F2E7B8
:104A60004846C00705D5230000AA51463800FFF785
:104A7000FCFD0BE0286808902D1D08980099016046
:104A800004E0220000A90598FFF76EFD1BF1010B61
:104A900007E6009813B0BDE8F08F0EB47EB50400B1
:104AA000012000900648019007A805002A00210077
:104AB00000A8FFF7EDFD060030007EBC5DF810FB9E
:104AC00065C4000000231900814209D2054B1B6810
:104AD0001A00002A02D000BF521EFAE7491CF3E771
:104AE00070470000F452FF1F01000A000023002A53
:104AF00001D1002007E01000421C0078002801D0FE
:104B00005B1CF8E71800704780B5012301220821DB
:104B10000320FFF71FFA0123012209210320FFF7D9
:104B200019FA012301220A210320FFF713FA0123B6
:104B300001220B210320FFF70DFA012301220C2192
:104B40000320FFF707FA01BD10B50400DFF88C0859
:104B5000006830F40070DFF8841808601420FFF754
:104B6000B1FFDFF8780800684FF400710843DFF800
:104B70006C1808601420FFF7A5FFCB2000F001F9A6
:104B8000392000F0EEF92C2000F0EBF9002000F0C5
:104B9000E8F9342000F0E5F9022000F0E2F9CF2036
:104BA00000F0EFF8002000F0DCF9C12000F0D9F9A6
:104BB000302000F0D6F9E82000F0E3F8852000F07E
:104BC000D0F9002000F0CDF9782000F0CAF9EA20F1
:104BD00000F0D7F8002000F0C4F9002000F0C1F97F
:104BE000ED2000F0CEF8642000F0BBF9032000F0C7
:104BF000B8F9122000F0B5F9812000F0B2F9F720E1
:104C000000F0BFF8202000F0ACF9C02000F0B9F8A7
:104C1000232000F0A6F9C12000F0B3F8102000F026
:104C2000A0F9C52000F0ADF83E2000F09AF9282048
:104C300000F097F9C72000F0A4F8862000F091F961
:104C4000362000F09EF8E4B2002C03D0E82000F0FB
:104C500088F902E0282000F084F93A2000F091F869
:104C6000552000F07EF9B12000F08BF8002000F014
:104C700078F9182000F075F9B62000F082F80820C5
:104C800000F06FF9822000F06CF9272000F069F93C
:104C9000F22000F076F8002000F063F9262000F002
:104CA00070F8012000F05DF9E02000F06AF80F20B4
:104CB00000F057F9312000F054F92B2000F051F9A1
:104CC0000C2000F04EF90E2000F04BF9082000F007
:104CD00048F94E2000F045F9F12000F042F9372064
:104CE00000F03FF9072000F03CF9102000F039F9FE
:104CF000032000F036F90E2000F033F9092000F00F
:104D000030F9002000F02DF9E12000F03AF8002001
:104D100000F027F90E2000F024F9142000F021F90A
:104D2000032000F01EF9112000F01BF9072000F00D
:104D300018F9312000F015F9C12000F012F94820CF
:104D400000F00FF9082000F00CF90F2000F009F92D
:104D50000C2000F006F9312000F003F9362000F0B5
:104D600000F90F2000F0FDF8112000F00AF81420DF
:104D7000FFF7A8FE292000F004F82C2000F001F82D
:104D800010BDDFF85816096831F48071DFF84C2641
:104D90001160DFF84816096831F48061DFF83C26BD
:104DA0001160C0B2C109C9B2DFF83026126861F3E0
:104DB000CB22DFF828160A60DFF82016096831F4E4
:104DC0008051DFF818261160DFF81016096851F4D9
:104DD0008051DFF808261160C0B28109C9B2DFF83E
:104DE000FC25126861F3CB22DFF8F0150A60DFF8CA
:104DF000EC15096831F48051DFF8E0251160DFF827
:104E0000DC15096851F48051DFF8D0251160C0B27B
:104E10004109C9B2DFF8C425126861F3CB22DFF87B
:104E2000BC150A60DFF8B415096831F48051DFF869
:104E3000AC251160DFF8A415096851F48051DFF842
:104E40009C251160C0B20109C9B2DFF89025126833
:104E500061F3CB22DFF884150A60DFF8801509685A
:104E600031F48051DFF874251160DFF8701509689E
:104E700051F48051DFF864251160C0B2C108C9B295
:104E8000DFF85825126861F3CB22DFF850150A606D
:104E9000DFF84815096831F48051DFF840251160CA
:104EA000DFF83815096851F48051DFF830251160BA
:104EB000C0B28108C9B2DFF82425126861F3CB22A1
:104EC000DFF818150A60DFF81415096831F480510D
:104ED000DFF808251160DFF80415096851F48051E6
:104EE000DFF8F8241160C0B24108C9B2DFF8EC2441
:104EF000126861F3CB22DFF8E4140A60DFF8DC14F7
:104F0000096831F48051DFF8D4241160DFF8CC1443
:104F1000096851F48051DFF8C4241160C0B2DFF891
:104F2000BC14096860F3CB21DFF8B0241160DFF80E
:104F3000AC14096831F48051DFF8A0241160DFF867
:104F40009C14096851F48051DFF890241160DFF857
:104F50008C1409684FF480721143DFF880241160CB
:104F60007047DFF87814096831F48071DFF86C2439
:104F70001160DFF86814096851F48061DFF85C247F
:104F80001160C0B2C109C9B2DFF85024126861F3E0
:104F9000CB22DFF848140A60DFF84014096831F4C6
:104FA0008051DFF838241160DFF83014096851F4BB
:104FB0008051DFF828241160C0B28109C9B2DFF83E
:104FC0001C24126861F3CB22DFF810140A60DFF8AA
:104FD0000C14096831F48051DFF800241160DFF807
:104FE000FC13096851F48051DFF8F0231160C0B25E
:104FF0004109C9B2DFF8E423126861F3CB22DFF87C
:10500000DC130A60DFF8D413096831F48051DFF84B
:10501000CC231160DFF8C413096851F48051DFF824
:10502000BC231160C0B20109C9B2DFF8B023126815
:1050300061F3CB22DFF8A4130A60DFF8A01309683C
:1050400031F48051DFF894231160DFF89013096880
:1050500051F48051DFF884231160C0B2C108C9B295
:10506000DFF87823126861F3CB22DFF870130A604F
:10507000DFF86813096831F48051DFF860231160AC
:10508000DFF85813096851F48051DFF8502311609C
:10509000C0B28108C9B2DFF84423126861F3CB22A1
:1050A000DFF838130A60DFF83413096831F48051EF
:1050B000DFF828231160DFF82413096851F48051C8
:1050C000DFF818231160C0B24108C9B2DFF80C2321
:1050D000126861F3CB22DFF804130A60DFF8FC12D8
:1050E000096831F48051DFF8F4221160DFF8EC1226
:1050F000096851F48051DFF8E4221160C0B2DFF892
:10510000DC12096860F3CB21DFF8D0221160DFF8F0
:10511000CC12096831F48051DFF8C0221160DFF849
:10512000BC12096851F48051DFF8B0221160DFF839
:10513000AC1209684FF480721143DFF8A0221160AD
:10514000704710B50400200AC0B2FFF70AFF200024
:10515000C0B2FFF706FF10BDF8B504000D00160041
:105160001F002A20FFF70DFE200AC0B2FFF7F9FE4C
:105170002000C0B2FFF7F5FE280AC0B2FFF7F1FE2B
:105180002800C0B2FFF7EDFE2B20FFF7FAFD300A32
:10519000C0B2FFF7E6FE3000C0B2FFF7E2FE380A09
:1051A000C0B2FFF7DEFE3800C0B2FFF7DAFE2C20F7
:1051B000FFF7E7FDF1BD2DE9F04182B004000D00DD
:1051C00016001F00DDF82080CDF800803B00320083
:1051D000D2B22900200000F032F8BDE8F3812DE9B9
:1051E000F84304000D0016001F00DDF820805FF07A
:1051F00000093078002820D0307880280ED2CDF8F1
:1052000000803B00327829005FFA89F914EBC9006D
:10521000FFF7D1FF761C19F10109EAE7CDF800800C
:105220003B00320029005FFA89F914EBC90000F055
:105230003CF8B61C19F10209DBE7BDE8F1832DE962
:10524000F84F04000D0016001F00DDF8288015F14E
:105250000F032A00E11D2000FFF77EFF002081469A
:10526000B9F1100F1FD2F6B219EB0610DFF80415D2
:1052700010F801B000208246BAF1080F10D25FFA90
:105280008BFB5FEA0B6003D53800FFF75AFF02E0A3
:105290004046FFF756FF5FEA4B0B1AF1010AEBE7B6
:1052A00019F10109DCE7BDE8F18F2DE9F14F0C00A0
:1052B00015001E000A9F14F10F032200009810F140
:1052C0000F010098FFF748FF00208246BAF1400F17
:1052D0003BD22320DFF8A01400FB0A1000782978C5
:1052E00088422FD12320DFF8901400FB0A10407869
:1052F0006978884226D100208046B8F1200F21D25B
:105300002320DFF8741400FB0A1018EB000090F85B
:1053100003B000208146B9F1080F10D21FFA8BFBB1
:105320005FEA0B6003D53000FFF70BFF02E03800A7
:10533000FFF707FF5FEA4B0B19F10109EBE718F1E3
:105340000108DAE71AF1010AC0E7BDE8F18F70B58C
:105350000400EF23002240F23F110020FFF7FCFE83
:1053600000200500F02D0CD2002006004FF4A070A4
:10537000864204D22000FFF7E4FE761CF6E76D1C9F
:10538000F0E770BDF8B504000D001600E4B24C2C37
:105390000ED1EF23002229002800FFF7DDFE0020B8
:1053A0000700F02F19D23000FFF7CBFE7F1CF8E783
:1053B000E4B2482C11D12B002A0040F23F1100200A
:1053C000FFF7CAFE002007004FF4A070874204D206
:1053D0003000FFF7B6FE7F1CF6E7F1BDC0F00F40CE
:1053E0002DE9F04F89B004000D0016009B46129F76
:1053F000DDF84C805FF000095FF0000A0020824673
:105400005FFA8AFA1AF8060000280BD05FFA8AFAC7
:105410001AF806005FFA8AFA01A90AF801001AF1DF
:10542000010AEDE7BBF1000F0BD55FFA8AFA01A87C
:105430002D210AF800101AF1010A5FF0FF3000FB7D
:105440000BFBBBF10A0F0EDA5FFA8AFA01A81BF117
:1054500030010AF800105FFA8AFA01A81AEB00007E
:1054600000214170E1E0BBF10A0F1FDBBBF1640FCB
:105470001CDA0A209BFBF0F030305FFA8AFA01A9AF
:105480000AF801000A209BFBF0F100FB11B030305C
:105490005FFA8AFA01A91AEB010148705FFA8AFAE9
:1054A00001A81AEB000000218170BEE04FF47A7071
:1054B00083452BDA64209BFBF0F030305FFA8AFAE8
:1054C00001A90AF801000A209BFBF0F00A2190FBD9
:1054D000F1F201FB120030305FFA8AFA01A91AEBEF
:1054E000010148700A209BFBF0F100FB11B0303045
:1054F0005FFA8AFA01A91AEB010188705FFA8AFA49
:1055000001A81AEB00000021C1708EE042F2107079
:1055100083453BDA4FF47A709BFBF0F030305FFA52
:105520008AFA01A90AF8010064209BFBF0F00A2125
:1055300090FBF1F201FB120030305FFA8AFA01A908
:105540001AEB010148700A209BFBF0F00A2190FB46
:10555000F1F201FB120030305FFA8AFA01A91AEB6E
:10556000010188700A209BFBF0F100FB11B0303084
:105570005FFA8AFA01A91AEB0101C8705FFA8AFA88
:1055800001A81AEB0000002101714EE0DFF8EC01E8
:1055900083454ADA42F210709BFBF0F030305FFA3C
:1055A0008AFA01A90AF801004FF47A709BFBF0F027
:1055B0000A2190FBF1F201FB120030305FFA8AFA07
:1055C00001A91AEB0101487064209BFBF0F00A214D
:1055D00090FBF1F201FB120030305FFA8AFA01A968
:1055E0001AEB010188700A209BFBF0F00A2190FB66
:1055F000F1F201FB120030305FFA8AFA01A91AEBCE
:105600000101C8700A209BFBF0F100FB11B03030A3
:105610005FFA8AFA01A91AEB010108715FFA8AFAA6
:1056200001A81AEB000000214171002082465FFAB8
:105630008AFA01A81AF8000000282ED05FFA8AFA28
:1056400001A81AF80000802813D2CDF800803B0092
:105650005FFA8AFA01A81AF8002029005FFA89F98E
:1056600014EBC900FFF7A7FD1AF1010A19F10109AE
:10567000DDE7CDF800803B005FFA8AFA01A81AF84E
:10568000002029005FFA89F914EBC900FFF70DFE2D
:105690001AF1020A19F10209C9E709B0BDE8F08F51
:1056A0001CB500244FF4FC6001904FF4784000904A
:1056B0003348C06900F076F80300324A2100002028
:1056C000FFF78EFE14344FF4FC6001904FF47840E5
:1056D00000902B48006A00F065F803002A4A210078
:1056E0000020FFF77DFE14344FF4FC6001904FF46E
:1056F000784000902248406A00F054F80300234AA2
:1057000021000020FFF76CFE14344FF4FC60019080
:105710004FF4784000901E48C06B00F043F803003F
:105720001C4A21000020FFF75BFE14344FF4FC609C
:1057300001904FF4784000901748006900F032F86B
:105740000300164A21000020FFF74AFE14344FF4EC
:10575000FC6001904FF4784000900948806900F0A7
:1057600021F803000E4A21000020FFF739FE14340F
:1057700013BD00002404FF1F240CFF1FA08601009E
:105780001850FF1F80C400008CC4000098C40000A3
:105790004050FF1FA4C400008050FF1FB0C4000091
:1057A000BCC400004100090E7F3915D4D1F11F019E
:1057B00014D4400007D2C00140F00040C84048BFA8
:1057C0006FF000407047C00140F00040C8404CBF3F
:1057D0004FF00040404270470020704700424FF0B9
:1057E000004058BFC0437047008003400090034012
:1057F00000800B400000C8420000C84200000000CA
:105800000000000000000000000000000000000098
:105810000000000000000000000000000000000088
:105820000000000000000000000000000000000078
:105830000000000000000000000000000000000068
:105840000000000000000000000000000000000058
:105850000000000000000000000000000000000048
:105860000000000000000000000000000000000038
:105870000000000000000000000000000000000028
:105880000000000000000000000000000000000018
:105890000000000000000000000000000000000008
:1058A00000000000000000000000000000000000F8
:1058B00000000000000000000000000000000000E8
:1058C00000000000000000000000000000000000D8
:1058D00000000000000000000000000000000000C8
:1058E00000000000000000000000000000000000B8
:1058F00000000000000000000000000000000000A8
:105900000000000000000000000000000000000097
:105910000000000000000000000000000000000087
:105920000000000000000000000000000000000077
:105930000000000000000000000000000000000067
:105940000000000000000000000000000000000057
:105950000000000000000000000000000000000047
:105960000000000000000000000000000000000037
:105970000000000000000000000000000000000027
:105980000000000000000000000000000000000017
:105990000000000000000000000000000000000007
:1059A00000000000000000000000000000000000F7
:1059B00000000000000000000000000000000000E7
:1059C00000000000000000000000000000000000D7
:1059D00000000000000000000000000000000000C7
:1059E00000000000000000000000000000000000B7
:1059F00000000000000000000000000000000000A7
:105A00000000000000000000000000000000001086
:105A100010101010100010100000000000000024F2
:105A2000242400000000000000000000000000240A
:105A3000247E2424247E2424000000000000001082
:105A40007C90907C12127C1000000000000000008E
:105A500062640810204C8C00000000000000000070
:105A6000182420508A844A300000000000000010F2
:105A700010200000000000000000000000000810DE
:105A800020202020202020100800000000002010EE
:105A9000080808080808081020000000000000009E
:105AA00000105438385410000000000000000000BE
:105AB0000010107C1010000000000000000000002A
:105AC0000000000000001010200000000000000096
:105AD0000000007C0000000000000000000000004A
:105AE00000000000000000100000000000000000A6
:105AF00000020408102040000000000000000038F0
:105B000044444C5464444438000000000000001039
:105B10003010101010101038000000000000003885
:105B2000440404081020407C000000000000007CB9
:105B30000408103804040478000000000000000885
:105B4000182848487C080808000000000000007C75
:105B50004040407804040478000000000000003C4D
:105B60004040407844444438000000000000007C7D
:105B7000040408102020202000000000000000384D
:105B800044444438444444380000000000000038D5
:105B90004444443C040404380000000000000000B9
:105BA00000000010000010000000000000000000D5
:105BB0000000000010001010200000000000000095
:105BC000000408102010080400000000000000007D
:105BD0000000007C007C00000000000000000000CD
:105BE00000201008040810200000000000003844C5
:105BF0004404081010001010000000000000000015
:105C00000038445C545C403C000000000000182454
:105C10004242427E424242420000000000007C427A
:105C200042427C424242427C0000000000003C4272
:105C3000404040404040423C0000000000007C42A8
:105C4000424242424242427C0000000000007E404C
:105C5000404078404040407E0000000000007E4010
:105C600040407840404040400000000000003C427E
:105C700040405E424242423C00000000000042427E
:105C800042427E4242424242000000000000381080
:105C900010101010101010380000000000001C0838
:105CA00008080808080848300000000000004244C6
:105CB00048506060504844420000000000004040EE
:105CC000404040404040407E000000000000828292
:105CD000C6C6AAAA92928282000000000000426218
:105CE0006252524A4A4646420000000000003C42CE
