:10000000F8FF002011040000D9C1000007BE000065
:10001000D9C10000D9C10000D9C10000D9C1000078
:10002000D9C10000D9C10000D9C10000D9C1000068
:10003000D9C10000D9C1000015BE000005BE0000F6
:10004000A9BB0000D9C10000D9C10000D9C100007E
:10005000D9C10000D9C10000D9C10000D9C1000038
:10006000D9C10000D9C10000D9C10000D9C1000028
:10007000D9C10000D9C10000D9C10000D9C1000018
:10008000D9C10000D9C10000D9C10000D9C1000008
:10009000D9C10000D9C10000D9C10000D9C10000F8
:1000A000D9C10000D9C10000D9C10000D9C10000E8
:1000B000D9C10000D9C10000D9C10000D9C10000D8
:1000C000D9C10000D9C10000D9C10000D9C10000C8
:1000D000D9C10000D9C10000D9C10000D9C10000B8
:1000E000D9C10000D9C10000D9C10000D9C10000A8
:1000F000D9C10000D9C10000D9C10000D9C1000098
:10010000D9C10000D9C10000D9C10000CFBC000096
:10011000D9C10000D9C10000D9C10000D9C1000077
:10012000D9C10000D9C10000D9C10000D9C1000067
:10013000D9C10000D9C1000017BE000019BE0000DF
:10014000D9C10000D9C10000D9C10000D9C1000047
:10015000C3BB0000D9C10000D9C10000D9C1000053
:10016000D9C10000D9C10000D9C10000D9C1000027
:10017000D9C10000D9C10000D9C10000D9C1000017
:10018000D9C10000D9C10000D9C10000D9C1000007
:10019000D9C10000D9C10000D9C10000D9C10000F7
:1001A000D9C10000D9C1000049BB0000D9C100007D
:1001B000D9C10000D9C10000D9C10000D9C10000D7
:1001C000D9C10000D9C10000D9C10000D9C10000C7
:1001D000D9C10000D9C10000D9C10000D9C10000B7
:1001E000D9C10000D9C10000D9C10000D9C10000A7
:10040000FFFFFFFFFFFFFFFFFFFFFFFFFEFFFFFFFD
:1004100062B64FF000004FF000014FF000024FF0C5
:1004200000034FF000044FF000054FF000064FF0BE
:1004300000074FF000084FF000094FF0000A4FF09E
:10044000000B4FF0000C0BF067FFFEE7008003404D
:100450000090034000800B400000000000000000FE
:10046000000000000000000000000000000000008C
:10047000000000000000000000000000000000007C
:10048000000000000000000000000000000000006C
:10049000000000000000000000000000000000005C
:1004A000000000000000000000000000000000004C
:1004B000000000000000000000000000000000003C
:1004C000000000000000000000000000000000002C
:1004D000000000000000000000000000000000001C
:1004E000000000000000000000000000000000000C
:1004F00000000000000000000000000000000000FC
:1005000000000000000000000000000000000000EB
:1005100000000000000000000000000000000000DB
:1005200000000000000000000000000000000000CB
:1005300000000000000000000000000000000000BB
:1005400000000000000000000000000000000000AB
:10055000000000000000000000000000000000009B
:10056000000000000000000000000000000000008B
:10057000000000000000000000000000000000007B
:10058000000000000000000000000000000000006B
:10059000000000000000000000000000000000005B
:1005A000000000000000000000000000000000004B
:1005B000000000000000000000000000000000003B
:1005C000000000000000000000000000000000002B
:1005D000000000000000000000000000000000001B
:1005E000000000000000000000000000000000000B
:1005F00000000000000000000000000000000000FB
:1006000000000000000000000000000000000000EA
:1006100000000000000000000000000000000000DA
:1006200000000000000000000000000000000000CA
:1006300000000000000000000000000000000000BA
:1006400000000000000000000000000000000000AA
:10065000000000000000000000000000000000009A
:10066000000000000000000000000010101010103A
:1006700010001010000000000000002424240000DE
:10068000000000000000000000000024247E24245C
:10069000247E242400000000000000107C90907C48
:1006A00012127C10000000000000000062640810BC
:1006B000204C8C0000000000000000001824205096
:1006C0008A844A3000000000000000101020000062
:1006D0000000000000000000000008102020202082
:1006E0002020201008000000000020100808080842
:1006F0000808081020000000000000000010543816
:100700003854100000000000000000000010107CB1
:1007100010100000000000000000000000000000B9
:100720000000101020000000000000000000007C0D
:1007300000000000000000000000000000000000B9
:10074000000000100000000000000000000204088B
:1007500010204000000000000000003844444C54C9
:1007600064444438000000000000001030101010F5
:100770001010103800000000000000384404040885
:100780001020407C000000000000007C04081038AD
:1007900004040478000000000000000818284848FD
:1007A0007C080808000000000000007C4040407801
:1007B00004040478000000000000003C4040407841
:1007C00044444438000000000000007C0404081089
:1007D000202020200000000000000038444444385D
:1007E0004444443800000000000000384444443CC5
:1007F00004040438000000000000000000000010A5
:1008000000001000000000000000000000000000D8
:10081000100010102000000000000000000408106C
:100820002010080400000000000000000000007C10
:10083000007C000000000000000000000020100804
:100840000408102000000000000038444404081090
:100850001000101000000000000000000038445C90
:10086000545C403C00000000000018244242427EDC
:10087000424242420000000000007C4242427C4270
:100880004242427C0000000000003C4240404040A8
:100890004040423C0000000000007C424242424294
:1008A0004242427C0000000000007E404040784010
:1008B0004040407E0000000000007E404040784004
:1008C000404040400000000000003C4240405E428A
:1008D0004242423C000000000000424242427E424E
:1008E0004242424200000000000038101010101078
:1008F000101010380000000000001C08080808084C
:100900000808483000000000000042444850606081
:100910005048444200000000000040404040404039
:100920004040407E0000000000008282C6C6AAAAA5
:100930009292828200000000000042626252524A9B
:100940004A4646420000000000003C424242424209
:100950004242423C0000000000007C424242427C95
:10096000404040400000000000003C424242424201
:1009700042424A3C0E00000000007C424242427C5F
:10098000504844420000000000003C4240403C020D
:100990000202423C0000000000007C101010101009
:1009A000101010100000000000004242424242427B
:1009B0004242423C000000000000444444442828D5
:1009C000281010100000000000008282828254541F
:1009D000542828280000000000004242241818185B
:1009E00024244242000000000000444444442828DB
:1009F000101010100000000000007E020204081019
:100A00002040407E000000000000382020202020F0
:100A100020202038000000000000000000004020DE
:100A2000100804020000000000001C040404040478
:100A30000404041C00000000000000001028440012
:100A400000000000000000000000000000000000A6
:100A500000000000FF00000000000010100800006F
:100A60000000000000000000000000000078043CCE
:100A70004444443A0000000000004040405C6242B0
:100A80004242625C0000000000000000003C424066
:100A90004040423C0000000000000202023A464290
:100AA0004242463A0000000000000000003C424282
:100AB0007E40423C0000000000000E1010103C1070
:100AC000101010100000000000000000003E424224
:100AD00042423E02023C000000004040405C624254
:100AE00042424242000000000000000800080808DE
:100AF00008080808000000000000000400040404C6
:100B000004040404443800000000404040424448CB
:100B10005068444200000000000010101010101037
:100B200010101010000000000000000000EC929275
:100B3000929292920000000000000000007C42426D
:100B4000424242420000000000000000003C4242DD
:100B50004242423C0000000000000000005C624293
:100B60004242625C4040000000000000003A464201
:100B70004242463A0202000000000000005C62406F
:100B8000404040400000000000000000003C4240A7
:100B90003C02423C000000000000002020782020A1
:100BA0002020221C00000000000000000042424201
:100BB0004242423E0000000000000000004242426B
:100BC00042422418000000000000000000828282DF
:100BD0009292AA440000000000000000004242245B
:100BE000182442420000000000000000004242427F
:100BF00042423E02023C000000000000007E02046F
:100C00001820407E00000000000008101010204056
:100C1000201010100800000000101010101010100C
:100C200010101010101010000000201010100804F8
:100C300008101010200000000000000000002254E6
:100C4000880000000000000000000000000000001C
:100C50000000000000000000C8AB0001000100021D
:100C6000800440082010102FE8C106010001001F79
:100C7000F00100010001007FFC0000B6AF00004061
:100C800000407C40004001FC0044FE4420442044DD
:100C9000208448844484FD04450402280410B5E7F8
:100CA000000100010001003FF8210821083FF82160
:100CB00008210821083FF821080102010200FE0076
:100CC00000D7D30000003FF000200040008001006A
:100CD00001000104FFFE010001000100010001000C
:100CE00005000200BFC6000608788808480848FECC
:100CF0000818881C482A48280E48788B8808080855
:100D000008080808080808BCBC00102010201020A3
:100D1000FDFE1020142019FC3108D08810901060BE
:100D200010601090110E56042000D3D00001000175
:100D3000007FFE020004000FF0181028104FF0880A
:100D40001008100FF00810089008700820CFDE007F
:100D50000000FBF8920893F8A208A20893F88A8092
:100D60008A48AA50922082208210828E83048200B8
:100D7000B9AB0000000440064004400820081010F1
:100D800018220E430402000420081011F83F181026
:100D9000100000CBBE0000003FFC000400047FE414
:100DA000000400043FC4204420443FC420442004E5
:100DB000001400080000D7A800010001003FF8025D
:100DC000000200FFFE040008200FF0002000400297
:100DD000800100008000400000D2B50004400440C3
:100DE000044004444446244C244814501C501460CD
:100DF000044004400444FFFE00000000BFAA0000BD
:100E0000007FFE0420042004200420FFFE042004B0
:100E1000200420082008201020202040200000B7B7
:100E2000A20002002240223022107FFE2400040093
:100E300007E00C200A200A20114020804160861C17
:100E40001808B0E500101C11E011001100FD0011A0
:100E5000FC398435485548523092101230144810ED
:100E60008E11040000B9A40000003FFC0100010045
:100E7000010001000100010001000100010001006A
:100E80000100FFFE00000000BFD80010001020107D
:100E900010FDFE11041050148C19043000D1FC1008
:100EA0002010201020102053FE2000C9E800400030
:100EB00021F03110211001100110E20E25F8210857
:100EC00021082090209028603090230E0C04B1B8A7
:100ED0000008000FF0082014202240418002400C3E
:100EE00030301EDFF411101FF0111011101FF01020
:100EF00010BCBC00102010201020FDFE102014207B
:100F000019FC3108D0881090106010601090110EFC
:100F100056042000CAF5000100012001100100FF65
:100F2000FE010003800540052009101118210EC1A3
:100F300004010001000000D6A7000100010001002B
:100F40007FFE010001001FF8081004200420024069
:100F5000018002400C30700E0004B3D60010401027
:100F60004013FCFC40104017FE1410181037FED040
:100F700010111010D01090101050502020C2DB0023
:100F80004040204030A0209001080206E5042110D6
:100F9000213821C0210025002904310420FC000053
:100FA000CCB300000011FC100010001000FC001376
:100FB000FE1040106010801C883104C27E07C602FB
:100FC00004000000010000000DC1110009030CD055
:100FD0001240173F185019031A783200A00A63E034
:100FE000ACFF650C6600670029502C782A007E0C47
:100FF0007F16802A814E8261836F847B8586868EF0
:10100000879788A489AF8AC58BD78CE88D204A0042
:10101000491347084B144C17460522992303A6048D
:101020009B009C50AB069E119F0200003100000007
:1010300000000000A0000000780000000000000098
:10104000B400000066660443000004439A99034319
:1010500033330343CDCC02436666024300000243B0
:101060009A99014333330143CDCC00436666004374
:10107000000000433333FF426666FE429A99FD4208
:10108000CDCCFC420000FC423333FB426666FA42A0
:101090009A99F942CDCCF8420000F8423333F74236
:1010A0006666F6429A99F542CDCCF4420000F442CD
:1010B0003333F3426666F2429A99F142CDCCF04264
:1010C0000000F0423333EF426666EE429A99ED42F9
:1010D000CDCCEC420000EC423333EB426666EA4290
:1010E0009A99E942CDCCE8420000E8423333E74226
:1010F0006666E6429A99E542CDCCE4420000E442BD
:101100003333E3426666E2429A99E142CDCCE04253
:101110000000E0423333DF426666DE429A99DD42E8
:10112000CDCCDC420000DC423333DB426666DA427F
:101130009A99D942CDCCD8420000D8423333D74215
:101140006666D6429A99D542CDCCD4420000D442AC
:101150003333D3426666D2429A99D142CDCCD04243
:101160000000D0423333CF426666CE429A99CD42D8
:10117000CDCCCC420000CC423333CB426666CA426F
:101180009A99C942CDCCC8420000C8423333C74205
:101190006666C6429A99C542CDCCC4420000C4429C
:1011A0003333C3426666C2429A99C142CDCCC04233
:1011B0000000C0423333BF426666BE429A99BD42C8
:1011C000CDCCBC420000BC423333BB426666BA425F
:1011D0009A99B942CDCCB8420000B8423333B742F5
:1011E0006666B6429A99B542CDCCB4420000B4428C
:1011F0003333B3426666B2429A99B142CDCCB04223
:101200000000B0423333AF426666AE429A99AD42B7
:10121000CDCCAC420000AC423333AB426666AA424E
:101220009A99A942CDCCA8420000A8423333A742E4
:101230006666A6429A99A542CDCCA4420000A4427B
:101240003333A3426666A2429A99A142CDCCA04212
:101250000000A04233339F4266669E429A999D42A7
:10126000CDCC9C4200009C4233339B4266669A423E
:101270009A999942CDCC98420000984233339742D4
:10128000666696429A999542CDCC9442000094426B
:1012900033339342666692429A999142CDCC904202
:1012A0000000904233338F4266668E429A998D4297
:1012B000CDCC8C4200008C4233338B4266668A422E
:1012C0009A998942CDCC88420000884233338742C4
:1012D000666686429A998542CDCC8442000084425B
:1012E00033338342666682429A998142CDCC8042F2
:1012F0000000804266667E42CDCC7C4233337B4226
:101300009A9979420000784266667642CDCC744262
:10131000333373429A9971420000000000000000CC
:1013200000000000000000000000000000000000BD
:1013300000000000000000000000000000000000AD
:10134000000000000000000000000000000000009D
:10135000000000000000000000000000000000008D
:1021400000000000B4000000460000000000000095
:10215000000000000000000000000000000000007F
:10216000000000000000000000000000000000006F
:10217000000000000000000000000000000000005F
:10218000000000000000000000000000000000004F
:102770000000000000000000200000002000000019
:1027800021000000210000002200000022000000C3
:1027900023000000230000002400000025000000AA
:1027A0002500000026000000260000002700000091
:1027B0002700000028000000280000002900000079
:1027C000290000002A0000002A0000002B00000061
:1027D0002B0000002C0000002C0000002D00000049
:1027E0002E0000002E0000002E0000002F00000030
:1027F0003000000030000000310000003100000017
:1028000032000000320000003300000034000000FD
:1028100034000000340000003500000036000000E5
:1028200036000000370000003700000038000000CC
:102830003800000039000000390000003A000000B4
:102840003A0000003B0000003B0000003C0000009C
:102850003C0000003D0000003D0000003E00000084
:102860003E0000003F0000003F000000400000006C
:102870004000000041000000410000004200000054
:10288000430000004300000043000000440000003B
:102890004400000045000000450000004500000025
:1028A000460000004700000047000000470000000D
:1028B00048000000480000004900000049000000F6
:1028C0004A0000004A0000004A0000004B000000DF
:1028D0004B0000004C0000004C0000004D000000C8
:1028E0004D0000004E0000004E0000004F000000B0
:1028F0004F00000050000000500000005100000098
:10290000510000005200000052000000530000007F
:102910005300000054000000540000005400000068
:102920005500000055000000560000005600000051
:102930000000000000000000000000000000000097
:102940000000000000000000000000000000000087
:102950000000000000000000000000000000000077
:102960000000000000000000000000000000000067
:102970000000000000000000000000000000000057
:102980000000000000000000000000000000000047
:102990000000000000000000000000000000000037
:1029A0000000000000000000000000000000000027
:1029B0000000000000000000000000000000000017
:1029C0000000000000000000000000000000000007
:1029D00000000000000000000000000000000000F7
:1029E00000000000000000000000000000000000E7
:1029F00000000000000000000000000000000000D7
:102A000000000000000000000000000000000000C6
:102A100000000000000000000000000000000000B6
:102A200000000000000000000000000000000000A6
:102A30000000000000000000000000000000000096
:102A40000000000000000000000000000000000086
:102A50000000000000000000000000000000000076
:102A60000000000000000000000000000000000066
:102A70000000000000000000000000000000000056
:102A80000000000000000000000000000000000046
:102A90000000000000000000000000000000000036
:102AA0000000000000000000000000000000000026
:102AB0000000000000000000000000000000000016
:102AC0000000000000000000000000000000000006
:102AD00000000000000000000000000000000000F6
:102AE00000000000000000000000000000000000E6
:102AF00000000000000000000000000000000000D6
:102B000000000000000000000000000000000000C5
:102B100000000000000000000000000000000000B5
:102B200000000000000000000000000000000000A5
:102B300000000000000000005800000058000000E5
:102B40005900000059000000590000005A00000020
:102B50005A0000005B0000005B0000005C00000009
:102B60005C0000005C0000005D0000005D000000F3
:102B70005E0000005E0000005E0000005F000000DC
:102B800060000000600000006000000061000000C4
:102B900061000000620000006200000062000000AE
:102BA0006300000063000000640000006400000097
:102BB0006400000065000000650000006500000082
:102BC000660000006600000067000000670000006B
:102BD0006700000068000000680000006900000055
:102BE00069000000690000006A0000006A0000003F
:102BF0006B0000006B0000006B0000006C00000028
:102C00006C0000006D0000006D0000006D00000011
:102C10006D0000006E0000006E0000006F000000FC
:102C20006F0000006F0000007000000070000000E6
:102C300070000000710000007100000072000000D0
:102C400072000000720000007300000073000000BA
:102C500074000000740000007400000074000000A4
:102C60007400000075000000750000007600000090
:102C7000760000007600000076000000760000007C
:102C80007700000077000000770000007800000067
:102C90007800000078000000780000007900000053
:102CA0007900000079000000790000007A0000003F
:102CB0007A0000007A0000007B0000007B0000002A
:102CC0007B0000007B0000007B0000007C00000017
:102CD0007C0000007C0000007C0000007D00000003
:102CE0007D0000007D0000007D0000007D000000F0
:102CF00000000000000000000000000000000000D4
:102D000000000000000000000000000000000000C3
:102D100000000000000000000000000000000000B3
:102D200000000000000000000000000000000000A3
:102D30000000000000000000000000000000000093
:102D40000000000000000000000000000000000083
:102D50000000000000000000000000000000000073
:102D60000000000000000000000000000000000063
:102D70000000000000000000000000000000000053
:102D80000000000000000000000000000000000043
:102D90000000000000000000000000000000000033
:102DA0000000000000000000000000000000000023
:102DB0000000000000000000000000000000000013
:102DC0000000000000000000000000000000000003
:102DD00000000000000000000000000000000000F3
:102DE00000000000A00000005000000000000000F3
:102DF00000000000000000000000000000000000D3
:102E000000000000000000000000000000000000C2
:102E100000000000000000000000000000000000B2
:102E200000000000000000000000000000000000A2
:1040400000000000A00000005000000000F00F4041
:1040500040F00F4080F00F40C0F00F4000F10F40E3
:104060000090044000A0044000B0044000C00440A0
:1040700000D004400B1F00000009000000000000F9
:104080000000000000000000000000000000000030
:104090000000000000000000000000000000000020
:1040A00000000000000000000000000000A006402A
:1040B00000B0064000C0064000D0064000A00E4000
:1040C00000B00E40000000000000000000000000F2
:1040D00000000000020201002DE9F04FDFF8240C7F
:1040E00085B001784FF0000901290AD1DFF8181CCA
:1040F00043F699220968914203DB407808B901F040
:1041000071F9DFF8400E007801281CBF0628072847
:1041100040F0E880DFF8305E9620DFF8304EA8608F
:1041200004F5B8509621703000F0F2FD686001F09F
:10413000DBFE2878012840F09284DFF8D0ABDAF873
:10414000400DDAF8441D074681422FDA07EB87025B
:1041500004EBC208441A14F003000AD004F003066A
:104160003946404600F0F4FE7F1E761EA8F128086E
:10417000F6D1A4081AD03946404600F0E9FE7F1E69
:104180003946A8F1280000F0E3FE7F1E3946A8F169
:10419000500000F0DDFE7F1E3946A8F1780000F0E7
:1041A000D7FE7F1E641EA8F1A008E4D101F002F83A
:1041B000286110F1010F00F05284832880F24F84AF
:1041C000DAF8401DC846884280F2828005EB810201
:1041D0000F1A0AEB810A02F2140417F003001AD036
:1041E00007F00306484601F041FF81465AF80409EA
:1041F00001F03CFF216801F063FF494601F0CCFF6C
:1042000002F00CF8814654F80409414601F0C4FF5D
:104210008046761EE6D1BF0800F05A8054F80C0C98
:10422000019054F8080C009054F8046C54F810B93C
:10423000484601F01BFF8146DAF8000001F016FF46
:10424000594601F03DFF494601F0A6FF01F0E6FFA7
:1042500001F00CFF81465AF8040C01F007FF3146CB
:1042600001F02EFF494601F097FF01F0D7FF01F062
:10427000FDFE81465AF8080C01F0F8FE009901F0A5
:104280001FFF494601F088FF01F0C8FF01F0EEFE74
:1042900081465AF80C0C01F0E9FE019901F010FF7B
:1042A000494601F079FF01F0B9FF81464046594681
:1042B00001F072FF314601F06FFF009901F06CFFD1
:1042C000019901F069FF80467F1EAAF1100AA5D16D
:1042D000484601F0CBFE414601F0C2FF01F09EFFCF
:1042E0006860BCE3DFF8644CDFF85C5C022840F0F7
:1042F00073818920A86004F5A8508921683000F0F6
:1043000007FD686001F0F0FD2878012840F0A783E0
:10431000DFF8F8A9DAF8400DDAF8441D07468142C3
:104320002FDA07EB870204EBC208441A14F00300EB
:104330000AD004F003063946404600F009FE7F1E0D
:10434000761EA8F12808F6D1A4081AD039464046AE
:1043500000F0FEFD7F1E3946A8F1280000F0F8FDB0
:104360007F1E3946A8F1500000F0F2FD7F1E39464D
:10437000A8F1780000F0ECFD7F1E641EA8F1A008F3
:10438000E4D100F017FF8046C5F8108018F1010F46
:1043900000F06583B8F1790F80F26183DAF8400D9F
:1043A0000026804580F28B800AEB800405EB8001BB
:1043B000A0EB0800009001F2140710F003001CD0DD
:1043C000009800F0030B484601F050FE814654F877
:1043D000040901F04BFE396801F072FE494601F014
:1043E000DBFE01F01BFF814657F80409314601F05E
:1043F000D3FE0646BBF1010BE5D100985FEA900BB6
:1044000000F05D8057F80C0C039057F8080C0290F0
:1044100057F8040C019057F810090090484601F035
:1044200025FE8146206801F021FE009901F048FE3A
:10443000494601F0B1FE01F0F1FE01F017FE8146A0
:1044400054F8040C01F012FE019901F039FE4946BE
:1044500001F0A2FE01F0E2FE01F008FE814654F8F0
:10446000080C01F003FE029901F02AFE494601F012
:1044700093FE01F0D3FE01F0F9FD814654F80C0CD7
:1044800001F0F4FD039901F01BFE494601F084FEA2
:1044900001F0C4FE81460098314601F07DFE01998D
:1044A00001F07AFE029901F077FE039901F074FEA3
:1044B000ABF1010B103C0646BBF1000FA2D1B8F1E5
:1044C000600FC0F27F8005EB880000F214070AEB52
:1044D0008800A8F15F04029014F003001BD004F0E0
:1044E000030A484601F0C2FD81460298406801F087
:1044F000BDFD396801F0E4FD494601F04DFE01F0D3
:104500008DFE814657F80409314601F045FE064606
:10451000BAF1010AE5D15FEA940A53D002984068E3
:1045200001F0A4FD804657F80C0C019057F8080CD8
:10453000009057F8044C57F810B9484601F096FD22
:1045400081464046594601F0BBFD494601F024FE34
:1045500001F064FE01F08AFD81464046214601F0EB
:10456000AFFD494601F018FE01F058FE01F07EFD56
:1045700081460098414601F0A3FD494601F00CFE3A
:1045800001F04CFE01F072FD81460198414601F0B8
:1045900097FD494601F000FE01F040FE814630469D
:1045A000594601F0F9FD214601F0F6FD009901F0B0
:1045B000F3FD019901F0F0FDAAF1010A0646BAF1F6
:1045C000000FABD1484601F051FD314601F048FEE5
:1045D00001F024FE686042E2032840F0B5807D20AF
:1045E000A86004F598507D21883000F091FB686048
:1045F00001F07AFC2878012840F03182DFF80CA71E
:10460000DAF8400DDAF8441D074681422FDA07EB4D
:10461000870204EBC208441A14F003000AD004F025
:1046200003063946404600F093FC7F1E761EA8F133
:104630002808F6D1A4081AD03946404600F088FC74
:104640007F1E3946A8F1280000F082FC7F1E394603
:10465000A8F1500000F07CFC7F1E3946A8F17800DC
:1046600000F076FC7F1E641EA8F1A008E4D100F0E3
:10467000A1FD8046C5F8108018F1010F00F0EF8110
:104680000024BE27B8F1BE0F37DA0AF2F82625E07B
:10469000B02F23DAA12FBCBF922F832F01DB09207B
:1046A0001DE0742FA8BF142019DA652FA8BF1520AC
:1046B00015DA5B2FA8BF102011DA512FB4BF472F96
:1046C0000F200CDA3D2FA8BF0D2008DA332FA8BF2A
:1046D0000A2004DA292FA8BF052000DA0020E860AC
:1046E00056F8041900FB019901F0C0FC214601F0C5
:1046F00053FD7F1E0446B845CADBEE68B8F16A0F69
:1047000020DB47460AEB880AB02FA8BF08260BDA41
:10471000A12FA8BF0A2607DA922FA8BF0D2603DA19
:10472000832FACBF10261226DAF8040006FB00998E
:10473000304601F09BFC214601F02EFD7F1E044611
:104740006A2FE1DAEE6076E1042840F0B680782046
:10475000A860782104F5965000F0DAFA686001F05C
:10476000C3FB2878012840F07A81DFF8A0A5DAF8A9
:10477000400DDAF8441D074681422FDA07EB870225
:1047800004EBC208441A14F003000AD004F0030634
:104790003946404600F0DCFB7F1E761EA8F1280853
:1047A000F6D1A4081AD03946404600F0D1FB7F1E4E
:1047B0003946A8F1280000F0CBFB7F1E3946A8F14E
:1047C000500000F0C5FB7F1E3946A8F1780000F0CC
:1047D000BFFB7F1E641EA8F1A008E4D100F0EAFC34
:1047E0008046C5F8108018F1010F00F038810024D0
:1047F000BE27B8F1BE0F39DA0AF2F82627E0B02F4B
:1048000025DAA12FA8BF0A2022DA922FA8BF0E20F6
:104810001EDA832FA8BF10201ADA742FA8BF132026
:1048200016DA652FA8BF152012DA5B2FB8BF512FFB
:1048300003DA472FB8BF3D2F01DB182008E0332FE4
:10484000A8BF142004DA292FA8BF0F2000DA002007
:10485000E86056F8041900FB019901F007FC2146B5
:1048600001F09AFC7F1E0446B845C8DBEE68B8F13B
:104870006A0F20DB47460AEB880AB02FA8BF08263C
:104880000BDAA12FA8BF0A2607DA922FA8BF0D26A0
:1048900003DA832FACBF10261226DAF8040006FBD9
:1048A0000099304601F0E2FB214601F075FC7F1EC5
:1048B00004466A2FE1DAEE60BDE0052840F0C580CD
:1048C0008220A86004F5A0508221503000F020FA28
:1048D000686001F009FB2878012840F0C080DFF80B
:1048E0002CA4DAF8400DDAF8441D074681422FDA8D
:1048F00007EB870204EBC208441A14F003000AD045
:1049000004F003063946404600F022FB7F1E761E67
:10491000A8F12808F6D1A4081AD03946404600F07C
:1049200017FB7F1E3946A8F1280000F011FB7F1EFF
:104930003946A8F1500000F00BFB7F1E3946A8F164
:10494000780000F005FB7F1E641EA8F1A008E4D1EA
:1049500000F030FC8046C5F8108018F1010F00F01F
:104960007E800024BE27B8F1BE0F3BDA0AF2F8269B
:1049700029E0B02F27DAA12FBCBF922F832F01DBB4
:10498000142021E0742FA8BF19201DDA652FA8BFBD
:104990001E2019DA5B2F0CDA512FB8BF472F04DA2B
:1049A0003D2FBCBF332F292F01DB28200CE01F2F08
:1049B00001DB232008E0152FA8BF0A2004DA0B2F03
:1049C000A8BF052000DA0020E86056F8041900FBB3
:1049D000019901F04BFB214601F0DEFB7F1E0446EE
:1049E000B845C6DBEF68B8F16A0F23DBA8F16906AA
:1049F0001E27304601F044FBDFF8A81901F060FBE8
:104A0000214601F0C9FB04460AEB880016F00301B9
:104A100006D04268C2EB021309EB4309491EFBD1E1
:104A20004268B108C2EB021300F0048009EBC3092D
:104A3000491EFBD1EF60484601F018FB214601F00A
:104A40000FFC01F0EBFB686009E08C20A8608C2172
:104A500004F5AF5000F07CFA686001F045FADFF829
:104A600048492078012802BF207C002800F020FE61
:104A7000DFF838090078012810D1DFF8C804007881
:104A800060B1DFF82C09007840B99F4841F27D51B0
:104A90000068884214DB01F0BBF911E0DFF810096F
:104AA000017801290CD1DFF80C19DFF80C2909680D
:104AB00012685118944A12689142BCBF00210170DB
:104AC000207C08B901F07AFADFF8F018207C097828
:104AD000084302BFDFF8E8084178002908D18A4975
:104AE0004068096800F2E8308842B8BF00F0D3FFA0
:104AF000DFF850040078002840F00081DFF80CA2B5
:104B0000DAF8407DDAF8440D4FF00009C846B842A3
:104B100020DADFF8381407EB87000AEB870501EB92
:104B2000C00480263946204600F012FA286855F85D
:104B30000439811000EB5171C9100A5DA3EBC10368
:104B400046FA03F31A430A55DAF8441D7F1E283C3F
:104B5000B942E7DBDFF8F05300F02CFB286110F1DD
:104B6000010F00F09280DAF8400D2969814280F24D
:104B7000838005EB800101F2140629690AEB8004A9
:104B8000471A17F003001BD007F0030B484601F04B
:104B90006DFA814654F8040901F068FA316801F0B1
:104BA0008FFA494601F0F8FA01F038FB814656F8D1
:104BB0000409414601F0F0FA8046BBF1010BE5D152
:104BC000BF0859D056F80C0C029056F8080C01900A
:104BD00056F8040C009056F810B9484601F046FA11
:104BE0008146206801F042FA594601F069FA4946C7
:104BF00001F0D2FA01F012FB01F038FA814654F8C4
:104C0000040C01F033FA009901F05AFA494601F018
:104C1000C3FA01F003FB01F029FA814654F8080CAD
:104C200001F024FA019901F04BFA494601F0B4FA77
:104C300001F0F4FA01F01AFA814654F80C0C01F074
:104C400015FA029901F03CFA494601F0A5FA01F083
:104C5000E5FA81464046594601F09EFA009901F076
:104C60009BFA019901F098FA029901F095FA7F1EDA
:104C7000103C8046002FA5D1484601F0F7F9414687
:104C800001F0EEFA01F0CAFA68604FF4FC6001909E
:104C90004FF4784000902B690FF23872C821002041
:104CA00001F036FF4FF4FC6001904FF47840009023
:104CB0006B680FF22872DC21002001F029FF01222D
:104CC00069684C2001F0C1FE0122DAF8401D48203D
:104CD00001F0BBFE296911F1010F03D00122482028
:104CE00001F0B3FE0122DAF8441D482001F0ADFEC8
:104CF00005B0BDE8F04F954801F0F0BF05B0BDE844
:104D0000F08F0000486BFF1F8C6BFF1FC813FF1F45
:104D10002DE9F04FDFF8AC468A4694F8441181B093
:104D200000293AD1012184F8441104F2481104F613
:104D3000A0421E23A02541F8045B502542F8045BE5
:104D4000A02541F8045B502542F8045BA02541F8FA
:104D5000045B502542F8045BA02541F8045B502514
:104D600042F8045BA02541F8045B502542F8045B3F
:104D7000A02541F8045B502542F8045BA02541F8CA
:104D8000045B502542F8045BA02541F8045B5025E4
:104D900042F8045B5B1ECDD10AE004EB8A0141F2CC
:104DA0005025D1F848212E19B260D1F8A01CF1602D
:104DB0002246282100230578C3F107065B1C3541F4
:104DC00005F0010502F8015B0578C3F107065B1CDD
:104DD000354105F0010502F8015B0578C3F10706CE
:104DE0005B1C354105F0010502F8015B0578C3F154
:104DF00007065B1C354105F0010502F8015B082B35
:104E0000D9DB401C491ED5D141F250252E19B0687E
:104E100040F23B1301460A19521C01E0491C521C86
:104E20009778012F01BF5778012F1778012F01D0F4
:104E30009942F3DBB1F59D7FDABF29514FF0010BA9
:104E40004FF0000B0119C91E01E0401E491E0A78EF
:104E5000012A01BF4A78012A8A78012A01D006284E
:104E6000F3DA0628A6BF70604FF001094FF0000981
:104E70005BEA090008BFA02049D08BF0010050EA8E
:104E8000090107D1F0682F59391AA7EB4000B1602A
:104E9000706034E04946014207D07268F0688118BA
:104EA00002EB4000B160285129E0484659460842CB
:104EB00025D0D6F804802F59A7EB080001F040FF59
:104EC00002460B460020DFF8001501F047FF02F014
:104ED00017F8502838BF502002D36F2828BF6E2003
:104EE000F06008EB070001F02BFF02460B460020A4
:104EF000DFF8D41401F032FF02F002F8B060B068BD
:104F00003C2838BF3C2002D3FB2801D3FA20B060F4
:104F1000B06804EB8A01C1F84801726801B0C1F8B9
:104F200010252A59C1F8D828F268C1F8A02C41F2FE
:104F300068010AEB040201F80290891881F8F4B0C4
:104F4000BDE8F08FF06AFF1FF40FFF1FA841FF1F9D
:104F50002DE9F047DFF874548846DFF8749495F82B
:104F60000C15C1BB012185F80C1549462A461E23A4
:104F7000A02641F8046B502642F8046BA02641F8A5
:104F8000046B502642F8046BA02641F8046B5026AF
:104F900042F8046BA02641F8046B502642F8046BDB
:104FA000A02641F8046B502642F8046BA02641F875
:104FB000046B502642F8046BA02641F8046B50267F
:104FC00042F8046BA02641F8046B502642F8046BAB
:104FD0005B1ECDD113E0B8F1B40F02BFD9F8D012E7
:104FE000C5F8981CD5F8D01207D009EB880149689C
:104FF000C5F8981C05EB88014968C5F89C1C05F2AA
:10500000C832282100230678C3F107075B1C3E4104
:1050100006F0010602F8016B0678C3F107075B1C76
:105020003E4106F0010602F8016B0678C3F107075E
:105030005B1C3E4106F0010602F8016B0678C3F1E5
:1050400007075B1C3E4106F0010602F8016B082BC6
:10505000D9DB401C491ED5D1D5F8980C40F23B1342
:1050600001464A1902F2C93201E0491C521C9678E5
:10507000012E01BF5678012E1678012E01D09942DB
:10508000F3DBB1F59D7FDABFC5F8901C4FF0010A44
:105090004FF0000A411901F2C53101E0401E491EDE
:1050A0000A78012A01BF4A78012A8A78012A01D0A8
:1050B0000628F3DA0628A6BFC5F8940C01240024BC
:1050C0005AEA040008BFA02057D08AF0010050EA35
:1050D00004010BD1D5F89C0CD5F8907C391AA7EBBC
:1050E0004000C5F8981CC5F8940C3BE004420BD076
:1050F000D5F8946CD5F89C0C811906EB4000C5F8E6
:10510000981CC5F8900C2DE051460C422AD0D5F8D9
:10511000946CD5F8907CB81B01F012FE02460B4649
:105120000020A94901F01AFE01F0EAFE05EB880112
:10513000D1F81025904238BF104604D3D1F8D018CA
:10514000814238BF0846C5F89C0CF01901F0F8FD03
:1051500002460B4600209C4901F000FE01F0D0FE03
:10516000C5F8980CD5F8980C322838BF322004D3F3
:10517000B0F5877F03D94FF48770C5F8980CD5F840
:10518000980C09EB880149F82800D5F8942CC1F84F
:10519000C823D5F8902CC1F89027D5F89C1C45F869
:1051A000281008EB090181F8584B81F84CACBDE898
:1051B000F08700002DE9F04F85484FF0000BD0F844
:1051C000401DD0F844AD83B000275A460126029115
:1051D0000091DE468846019114460D468A4556DA0E
:1051E00005EB000C9CF858CBBCF1010F0ED105EB80
:1051F000000C9CF84CCCBCF1010F1AD1B146012631
:10520000BBF1000F28D1B346029525E0BCF1000F99
:1052100022D105EB000C9CF84CCCBCF1010F12D153
:10522000B1460326BEF1000F16D14FF0010EA8467D
:1052300012E0BCF1000F02BFB1460226002F0BD1D5
:105240000127009508E0BCF1000F02BFB14604261B
:10525000002A04BF012201958D4218BF4E4512D08D
:10526000641C022C0FDB2B46022C56D10D1895F82E
:10527000584B012C7DD195F84C4C012C40F084808A
:10528000012A4FD149E06D1EAA45A9DB5CB90D1872
:1052900095F8586B002E04BF95F84C5C002DE3D0B8
:1052A0000AF101003BE0012CDED10D1895F8584BB6
:1052B000012C22D195F84C4C012C2CD1012FEFD18F
:1052C000009A00EB810100EB8202D1F8C833D2F8DA
:1052D000C823143B9A42B8BF00981ADBBEF1010FF5
:1052E000DED1D1F8901700EB8800D0F89007143188
:1052F000814212DA08F1010011E0002C04BF95F898
:105300004C4C012C09D1BBF1010F47D0012A04D12B
:105310000198401C03E0002CF5D04FF0FF3003B0A3
:10532000BDE8F08F012F03D1BEF1010F11D1F4E7D9
:10533000002F08BFBEF1010FEFD100EB8101D1F8C2
:10534000901700EB8300D0F89007143181420EDAF9
:10535000E3E7BEF1000FE0D100EB830200EB810038
:10536000D0F8C803D2F8C82314388242D5DB581CC1
:10537000D5E7002C04BF95F84C0C0128CDD1012AAB
:10538000CBD0012F07D1C8E7002CC6D1012A18BF06
:10539000BEF1010FC1D0BBF1010FBED10298401C7C
:1053A000BDE700000000F041546BFF1FA26BFF1F20
:1053B0007069FF1F7469FF1FC46AFF1FA06BFF1F86
:1053C000786BFF1FB02DFF1F0000E03F1021FF1F73
:1053D000C813FF1F76615F6661723A0063656E7481
:1053E00072653A002DE9F04FDFF89C9A83B009F519
:1053F000FA500290C821FFF78BFCDFF8903A0325A2
:10540000D3F82033002093FBF5F3DFF8845A5C00D7
:10541000D5F820535E196719DFF8785ADFF8782A33
:10542000D5F820530021EB1A2D1B86468046A6F1A5
:1054300032045070CDF804E0CDF80080DD2C3CBF84
:10544000A5F13204DD2C80F02F814FF0C80ADDF881
:1054500008C0BF1CFC0814F80C4007F0070BCBF188
:10546000070BB61C44FA0BF4E40744BFCDF804A0C4
:10547000BE460DD4F40814F80C4006F0070BCBF12F
:10548000070B44FA0BF4E40704D5CDF804A0B646A4
:10549000012407E00024AAF1020AACF1500CBAF191
:1054A000AA0FD6DAC826029FAD1E4FEAD50C1CF80B
:1054B00007C005F0070ACAF1070A9B1E4CFA0AFC4E
:1054C0005FEACC7C44BF0096A8460ED44FEAD30CCA
:1054D0001CF807C003F0070ACAF1070A4CFA0AFCD5
:1054E0005FEACC7C04D5009698464FF0010C04E0AE
:1054F000B61E503F8446AA2ED6DA14EA0C0F00F0EE
:10550000D380A8EB0E03152BC0F0CE80019FAEF127
:10551000020307E01CF828592541ED071FD537463F
:105520009B1E401C0125A7F19606472E3CBFA3F108
:105530003206DD2E80F0B8809C1003EB547C3E1DBB
:105540004FEAEC0406EB860C04EB090A0AEBCC0CE0
:10555000A3EBC404C4F10704A7F1040A01E0002589
:10556000761E5645D6DA002DE6D1019F0EF10203D4
:1055700009E000BF1CF8285945FA0EF5ED071ED5C5
:1055800037469B1C401C0125A7F19606472E3CBFC1
:10559000A3F13206DD2E80F087809C1003EB54745B
:1055A0003E1D4FEAE40E06EB860C0EEB090404EBFD
:1055B000CC0CA3EBCE0ECEF1070E3C1F01E0002574
:1055C000761EA642D6DA002DE7D1009F08F1020C24
:1055D00009E000BF1EF828592541ED0720D53746C0
:1055E0000CF1020C491C0125A7F19606472E3CBF81
:1055F000ACF13206DD2E57D24FEAAC040CEB547EF0
:105600003E1D4FEAEE0406EB860E04EB090A0AEB98
:10561000CE0EACEBC404C4F10704A7F1040A01E008
:105620000025761E5645D5DA002DE5D1009FA8F15C
:10563000020C09E01EF8285945FA08F5ED071FD5B8
:105640003746ACF1020C491C0125A7F19606472EFE
:105650003CBFACF13206DD2E26D24FEAAC040CEB97
:1056600054743E1D4FEAE40806EB860E08EB09046D
:1056700004EBCE0EACEBC808C8F107083C1F01E0F4
:105680000025761EA642D5DA002DE6D10F2828BFC8
:105690000F2909D3ACEB0300152805DBDFF8FC0765
:1056A000006850600120507003B0BDE8F08F00002A
:1056B0002DE9F04FDFF8E867DFF8E84781B0B07810
:1056C000617811B9012803D1E2E1022800F0E081FC
:1056D0000025DFF8B49700273570BA46A8467570E4
:1056E000A02109F5C850FFF713FBB42109F5E150DB
:1056F000FFF70EFBC82109F5FA50FFF709FBDFF8A9
:10570000A80790F8A010002940F0D280DFF89C177D
:1057100091F8A020012A04BF90F8B420012A40F09B
:10572000958191F8B420012A01BF90F8C8000128A2
:1057300091F8C800012840F08981DFF85817D1F8A6
:105740008002D1F8D012091AC91E0C2980F07E817E
:10575000DFF83C17D1F8D022D1F82013511AC91E16
:105760000C2980F07381A0215FF00F0301EB810C05
:10577000021F09EBCC0C00F1010E01E00027521CC6
:10578000964510D3D70817F80C7002F0070BCBF131
:10579000070B47FA0BF7FF07F0D5891E10460AF1F1
:1057A000010A012700E00FB15B1EDFD1BAF10E0F35
:1057B000C0F24C81DFF8F806D0F8D00201F0B6FA5A
:1057C0000022DFF8F03601F0C1FB02460B46284606
:1057D000DFF8E41601F0C2FA01F092FB821000EB50
:1057E0005272D310A0EBC3024B4403F5C8573F7865
:1057F000C2F10702A0211741FF0708D403F5C053E7
:105800009E21B03313F850791741FF071AD5821043
:1058100000EB527201EB8103D21009EBC303D35C9E
:10582000A0EBC202C2F1070243FA02F2D20713D57B
:105830006D1C491E401C0A29C0F22A81B0F59B7FCD
:10584000E5DD25E113F85079891E1741FF07DED405
:10585000891E1F29D6D2F9E06A1F0B2A80F0188111
:10586000821000EB527201EB8103D21009EBC303EB
:10587000D35CA0EBC202C2F1070243FA02F2D207E4
:105880000AD4491E401C08F101080A29C0F200810F
:10589000B0F59B7FE4DDFBE0A8F10500082880F06F
:1058A000F780681C4045C0F2F38001203070D3E0DF
:1058B000012902BFDFF8F41591F8A020002A40F07A
:1058C000C58090F8B420012A04BF91F8B420012AC1
:1058D00040F0BC8090F8C800012804BF91F8C800CF
:1058E000012840F0B380DFF8A815D1F88002D1F884
:1058F000D012411AC91E0C2980F0A880DFF8941537
:10590000D1F82023D1F8D012511AC91E0C2980F0E9
:105910009D80A0215FF00F0301EB810C021D09EBBC
:10592000CC0CA0F1010E01E00027521E724510D3ED
:10593000D70817F80C7002F0070BCBF1070B47FAEA
:105940000BF7FF07F0D5891E10460AF1010A01275F
:1059500000E00FB15B1EDFD1BAF10E0F76DBDFF88E
:105960005005D0F8800201F0E1F90022DFF844355B
:1059700001F0ECFA02460B462846DFF8401501F02C
:10598000EDF901F0BDFA821000EB5272D310A0EBDA
:10599000C3024B4403F5C8573F78C2F10702A02168
:1059A0001741FF0709D403F5C0539E2113F1B0033B
:1059B00013F850791741FF0718D5821000EB527287
:1059C00001EB8103D21009EBC303D35CA0EBC2024D
:1059D000C2F1070243FA02F2D20711D56D1C491E2B
:1059E000401E0A2954DB0A28E7DA51E013F85079FF
:1059F000891E1741FF07E0D4891E1F29D8D225E050
:105A00006A1F0B2A44D2821000EB527201EB810311
:105A1000D21009EBC303D35CA0EBC202C2F10702B0
:105A200043FA02F2D20708D4491E401E08F10108C9
:105A30000A292DDB0A28E6DA2AE0A8F10500082861
:105A400026D2681C404523DB012070703078012885
:105A50001CBF7078012819D101202074B078401C37
:105A6000B070DFF83804006860603078012808BF43
:105A7000642003D07078012801D1C8206061DFF86C
:105A80004004016821F01001016001E00020207451
:105A900001B0BDE8F08F2DE9F04F83B00020DFF8B2
:105AA000E8430090834604F5F850C721183000F011
:105AB000E6F8B82104F5E65000F0E1F804F5A85046
:105AC0008B21B83000F0DBF87C2104F59B5000F00E
:105AD000D6F8DFF8D40390F8C71000291EBFDFF80E
:105AE000CC1391F8C720002A00F0C68090F8B820A7
:105AF000002A1CBF91F8B820002A00F0BD8090F861
:105B00008B20002A1CBF91F88B20002A00F0B48063
:105B100090F87C0000281CBF91F87C00002800F061
:105B2000AB80DFF88CE3DEF82C12DEF81C03A0EB70
:105B3000010808F10902132AC0F09E80D54CD4F860
:105B4000E052D4F82C62D24AAF1B0197D4F8F0711E
:105B5000D2F82C92F61BDEF8E072D2F8F031D2F8CF
:105B6000E0C2381AA3EB0903A9EB0C0ADEF8F0E156
:105B700018F1090F32DAD4F81C43A1EB0E08641BAC
:105B80000C33AEEB0701019D192B3FBFD2F81C234C
:105B9000ACEB0202521E272A6BD2BAF1290F68DB46
:105BA00008F10902132A3CBF001D092861D20F2900
:105BB000A8BF022E5DDB022CA8BF072D59DB301BCE
:105BC000801D0D283EBFA81B801D16283EBF281B28
:105BD000801D16284DD24FF0010B34E0AEEB0108CA
:105BE000D2F81C23791A0C36DDF80490ACEB0202D3
:105BF000192E3FBFD4F81C43641B641E272C38D2D7
:105C0000B9F1290F35DB08F10904132C3CBF001D45
:105C100009282ED20F29A8BF022B2ADB022AA8BFEF
:105C2000BAF1070F25DB981A801D0D283EBFAAEB9D
:105C30000300801D16283EBFAAEB0200801D162817
:105C400017D201200090009840EA0B00C0B280B14A
:105C50009C48012141709149BBF1000F09684160E6
:105C600018BF016903D1009931B101694942C1608E
:105C700002E094480021417003B0BDE8F08F2DE9A7
:105C8000F047DFF844928846A02132244B46282270
:105C900000260778C6F1070C761C47FA0CF707F0C8
:105CA000010703F8017B0778C6F1070C761C47FA59
:105CB0000CF707F0010703F8017B0778C6F1070C22
:105CC000761C47FA0CF707F0010703F8017B077809
:105CD000C6F1070C761C47FA0CF707F0010703F82A
:105CE000017B082ED5DB401C521ED1D1A02009F229
:105CF000A10240F23B1301E0401C521C9678012E99
:105D000001BF5678012E1678012E01D09842F3DBA0
:105D1000B0F59D7FDABFC9F844014FF0010A4FF09A
:105D2000000AA02009F29D0201E0401E521E1378D5
:105D3000012B01BF5378012B9378012B01D006284A
:105D4000F3DA0628A6BFC9F84801012500255AEA5A
:105D5000050045D08AF0010050EA050208D1D9F8C3
:105D60004471A7F16400A7F13201C9F8480130E09D
:105D7000054208D0D9F8486106F1640006F1320105
:105D8000C9F8440125E05246154229D0D9F84861A6
:105D9000D9F84471B81B00F0D3FF02460B4600202F
:105DA0004A4900F0DBFF01F0ABF80446502C38BF45
:105DB000502402D36F2C28BF6E24F01900F0C0FFCE
:105DC00002460B460020414900F0C8FF01F098F858
:105DD00001463C2938BF3C2102D3FB2928BFFA21C8
:105DE000334840F828102A48D9F8481140F82810BC
:105DF0002848D9F8441140F82810244840F8284091
:105E0000294808F80050294808F800A0BDE8F087A4
:105E10002DE9F04701270024DFF8B4802D4D2E4EE8
:105E2000DFF8B8A0DFF8B89058F8040BA03800F0FD
:105E30007DFF21F0004100221E4B01F0ABF914D987
:105E400014F8090000281CBF14F80A0000280CD020
:105E50002868462809DA3068FB28A1BF56F8040BE9
:105E600055F8041B401AC92801DA002702E0641C17
:105E7000062CD9DB1B4807700178C90702D50749F2
:105E800009684160BDE8F087A841FF1F503AFF1F35
:105E9000C032FF1F8836FF1F486BFF1F8C6BFF1F30
:105EA000A36BFF1F546BFF1F183EFF1F0C3FFF1F0C
:105EB000F82EFF1F00002440000026400000224072
:105EC000C0F00F40786BFF1F7869FF1F0000E03FB4
:105ED0005067FF1FC867FF1F4068FF1F5069FF1F03
:105EE0003069FF1F7069FF1F2DE9F04F4F4850497F
:105EF000504A514BDFF844A1DFF844B15FF00A0487
:105F000000F1080601F1080702F2280C03F2280E3E
:105F10000AF228080BF228095CF8045CCCF800505F
:105F20005EF8045CCEF8005058F8045CC8F80050E5
:105F300059F8045CC9F80050757825547D7865548B
:105F40005CF8085C641E4CF8045C5EF8085CACF11C
:105F5000080C4EF8045C58F8085CAEF1080E48F8DE
:105F6000045C59F8085CA8F1080849F8045C16F8C4
:105F70000259A9F10809255417F802596554641EFD
:105F8000012CC9DA2F4E304F366857F8267017604B
:105F90002E4A52F826201A602D4A52F82620CAF8B6
:105FA00000202C4A52F82620CBF800202A4AB25C66
:105FB00002702A48305C0870BDE8F08FF0B42149C7
:105FC00000200A6802F11401143A8A422ADA244BAA
:105FD00001EB8105002403EBC50505262F7895F814
:105FE00001C05CFA87F795F802C0674495F803C0D2
:105FF000674495F804C0674495F805C0674495F870
:1060000006C0674495F807C0083567443C19761EFA
:10601000E4D124B91349A02201200A6002E0491EFC
:106020008A42D5DB10490870F0BC70473069FF1F09
:106030005069FF1F5067FF1FC867FF1F4068FF1FA1
:10604000B868FF1FFC0FFF1FF82EFF1FC032FF1F95
:106050008836FF1F503AFF1F183EFF1F0C3FFF1FDF
:10606000A841FF1FF80FFF1FA06BFF1F002840F182
:106070000980F446404200F005F850F000406047C7
:10608000002800BF0AD0B0FA80F18840D1F19D010C
:10609000C905020672F1004241EB1020704750F82A
:1060A000041B61B150F8042BD30744BFA9F10103CD
:1060B0009A18002342F8043B091FFAD1EFE7704712
:1060C000FF2212EAD05C1DBF12EAD15394459342DD
:1060D0002BE09C44D30780EA01021A4043EA0020E7
:1060E00043EA0121A1FB0030410038BF40007CF1B0
:1060F0007F010BDBFE294ADA5B0842EAC15153EA11
:10610000006373F1004C51EB10207047D1F1080C83
:10611000DCF120012FDB5B0810FA01F10B4373F176
:10612000004120FA0CF05041704794451CBF02EA30
:10613000D153934280EA010202F000421DD0400098
:1061400019D0490017D05BB9634514D00902B1FAE0
:1061500081F39940BCEB030CC00140F00040C1E763
:106160000002B0FA80FC10FA0CF0B3EB0C0CC90181
:1061700041F00041B6E71000704740000AD04900E6
:1061800008D010F1807F94BF11F1807F02E042F0CF
:10619000FF407047D043704790EA010F44BF81F041
:1061A000004101F017B800BF421A3CBF801A89189D
:1061B0004FF0004CC0F3C752FF2A24D0C1F3C7539D
:1061C00013B3D21AD2F1190327DD4CEA01214CFA9C
:1061D00003F321EA0303D140C20D4CEA002040182A
:1061E00034BF20EA0C004CEA5000D20553EA0063A9
:1061F00073EB0C0C52EB1020420012F1807F38BF81
:106200007047C00DC0057047490212BF9A4200EBAB
:106210005120F8E7D2F11703D9D570474100090E94
:106220007F3915D4D1F11F0114D4400007D2C00129
:1062300040F00040C84048BF6FF000407047C001C8
:1062400040F00040C8404CBF4FF000404042704713
:106250000020704700424FF0004058BFC0437047D5
:1062600010B5FF2313EAD0541DBF13EAD1529C424C
:106270009A4239E0A41ADA0780EA0103134042EA9D
:10628000012142EA0020421A3CBF641E01EB420297
:10629000090AB2FBF1FE01FB1E221202B2FBF1F071
:1062A00001FB10226EF30F201202B2FBF1FE4EEA48
:1062B00000207F3406DDFE2C24DA53EA500050EB38
:1062C000C45010BDD4F1020401FB1E2240F08071C5
:1062D000192C1DDC21FA04F0C4F12004A140114363
:1062E00071F10042584110BD9C421ABF03EAD152DD
:1062F0009A420FE080EA010E0EF00043400004D005
:10630000490016D143F0FF4010BD490008BFD343F8
:10631000180010BD9C4205D1D21AF7D001F00041FF
:10632000484010BD4A0212BF0846484000F00040F5
:1063300010BD4AB90902B1FA81F2914044B1A418E2
:10634000C00140F000409EE7C90141F000415242C7
:106350000002B0FA80F4A040141B94E700B581B0AD
:10636000012301220821032000F0A0FF01231A4687
:106370000921032000F09AFF01231A460A21032075
:1063800000F094FF01231A460B21032000F08EFF3A
:1063900001B001235DF804EB1A460C21032000F044
:1063A00085BF30B581B00446FFF7D8FFDFF81C5930
:1063B000286820F400702860142000F0A5FF2868E9
:1063C0004FF4007108432860142000F09DFFCB209B
:1063D00000F0FDF8392000F071F92C2000F06EF982
:1063E000002000F06BF9342000F068F9022000F082
:1063F00065F9CF2000F0EBF8002000F05FF9C12034
:1064000000F05CF9302000F059F9E82000F0DFF8E6
:10641000852000F053F9002000F050F9782000F0BA
:106420004DF9EA2000F0D3F8002000F047F90020F1
:1064300000F044F9ED2000F0CAF8642000F03EF9C5
:10644000032000F03BF9122000F038F9812000F021
:1064500035F9F72000F0BBF8202000F02FF9C0201C
:1064600000F0B5F8232000F029F9C12000F0AFF8C2
:10647000102000F023F9C52000F0A9F83E2000F01C
:106480001DF9282000F01AF9C72000F0A0F8862096
:1064900000F014F9362000F09AF8002C14BFE82020
:1064A000282000F00BF93A2000F091F8552000F078
:1064B00005F9B12000F08BF8002000F0FFF818205B
:1064C00000F0FCF8B62000F082F8082000F0F6F8A2
:1064D000822000F0F3F8272000F0F0F8F22000F01E
:1064E00076F8002000F0EAF8262000F070F801208D
:1064F00000F0E4F8E02000F06AF80F2000F0DEF889
:10650000312000F0DBF82B2000F0D8F80C2000F050
:10651000D5F80E2000F0D2F8082000F0CFF84E2079
:1065200000F0CCF8F12000F0C9F8372000F0C6F8F0
:10653000072000F0C3F8102000F0C0F8032000F09E
:10654000BDF80E2000F0BAF8092000F0B7F80020DE
:1065500000F0B4F8E12000F03AF8002000F0AEF8C6
:106560000E2000F0ABF8142000F0A8F8032000F093
:10657000A5F8112000F0A2F8072000F09FF83120C4
:1065800000F09CF8C12000F099F8482000F096F83F
:10659000082000F093F80F2000F090F80C2000F095
:1065A0008DF8312000F08AF8362000F087F80F20AF
:1065B00000F084F8112000F00AF8142000F0A4FE86
:1065C000292000F004F801B0BDE830402C20DFF8AD
:1065D000FC160A6822F480720A600A6822F480625B
:1065E0000A600B68C20962F3CB230B600A6822F4CD
:1065F00080520A600A6842F480520A600B6882097D
:1066000062F3CB230B600A6822F480520A600A68A6
:1066100042F480520A600B68420962F3CB230B609C
:106620000A6822F480520A600A6842F480520A60C2
:106630000B68020962F3CB230B600A6822F48052D4
:106640000A600A6842F480520A600B68C20862F36A
:10665000CB230B600A6822F480520A600A6842F475
:1066600080520A600B68820862F3CB230B600A68D1
:1066700022F480520A600A6842F480520A600B6871
:10668000420862F3CB230B600A6822F480520A604E
:106690000A6842F480520A600A6860F3CB220A60FA
:1066A00008684FF4807220F480500860086840F455
:1066B000805008600868104308607047DFF80C16C7
:1066C0000A6822F480720A600A6842F480620A60F2
:1066D0000B68C20962F3CB230B600A6822F4805274
:1066E0000A600A6842F480520A600B68820962F309
:1066F000CB230B600A6822F480520A600A6842F4D5
:1067000080520A600B68420962F3CB230B600A686F
:1067100022F480520A600A6842F480520A600B68D0
:10672000020962F3CB230B600A6822F480520A60EC
:106730000A6842F480520A600B68C20862F3CB23F5
:106740000B600A6822F480520A600A6842F48052A0
:106750000A600B68820862F3CB230B600A6822F49C
:1067600080520A600A6842F480520A600B6842084C
:1067700062F3CB230B600A6822F480520A600A6835
:1067800042F480520A600A6860F3CB220A6008680B
:106790004FF4807220F480500860086840F4805004
:1067A0000860086810430860704710B50446200A66
:1067B000C0B2FFF783FFE0B2BDE810407EE7F0B55E
:1067C000044681B00D4616461F462A20FFF7FFFEFD
:1067D000200AC0B2FFF772FFE0B2FFF76FFF280A8E
:1067E000C0B2FFF76BFFE8B2FFF768FF2B20FFF79F
:1067F000EEFE300AC0B2FFF761FFF0B2FFF75EFFB6
:10680000380AC0B2FFF75AFFF8B2FFF757FF01B0DE
:10681000BDE8F0402C20DAE62DE9F04381B00446D3
:10682000884616469946089D002705E016F8012B74
:10683000414600F015F87F1C317869B1FFB204EBD6
:10684000C700802900954B46F0D33246414600F000
:1068500061F8B61CBF1CEFE701B0BDE8F083000093
:106860002DE9F04F81B006460F4690469946DDF877
:1068700028A007F10F04F51D2A20FFF7A8FE300A13
:10688000C0B2FFF71BFFF0B2FFF718FF280AC0B233
:10689000FFF714FFE8B2FFF711FF2B20FFF797FE79
:1068A000380AC0B2FFF70AFFF8B2FFF707FF200A65
:1068B000C0B2FFF703FFE0B2FFF700FF2C20FFF7A5
:1068C00086FEDFF80C04102700EB08164FEA1A25A5
:1068D0004FEA192B96F800805FF008045FEA086021
:1068E00006D55FFA8BF0FFF7E9FE5FFA89F004E066
:1068F000E8B2FFF7E3FE5FFA8AF0FFF7DFFE4FEA48
:106900004808641EEAD1761C7F1EE3D101B0BDE8C1
:10691000F08F00002DE9F44F82B006468946984674
:106920000C9D09F10F0406F10F072A20FFF74FFE17
:10693000300AC0B2FFF7C2FEF0B2FFF7BFFE380A5E
:10694000C0B2FFF7BBFEF8B2FFF7B8FE2B20FFF78F
:106950003EFE4FEA1920C0B2FFF7B0FE5FFA89F0A1
:10696000FFF7ACFE200AC0B2FFF7A8FEE0B2FFF7C7
:10697000A5FE2C20FFF72BFEDFF8580340260090E1
:106980004FEA18290098029900780978884224D1A2
:10699000009802994078497888421ED1009C2027AF
:1069A00094F803A04FF0080B5FEA0A6006D55FFA7F
:1069B00089F0FFF783FE5FFA88F004E0280AC0B28E
:1069C000FFF77CFEE8B2FFF779FE4FEA4A0ABBF117
:1069D000010BE9D1641C7F1EE2D10098761E00F203
:1069E00023000090CED103B0BDE8F08F70B504460F
:1069F0002A20FFF7ECFD0020FFF760FE0020FFF7E4
:106A00005DFE0120FFF75AFE3F20FFF757FE2B20C7
:106A1000FFF7DDFD0020FFF751FE0020FFF74EFEDF
:106A20000020FFF74BFEEF20FFF748FE2C20FFF77A
:106A3000CEFD4FF49635260AF0B2FFF73FFEE0B2E6
:106A4000FFF73CFE6D1EF7D170BD70B50C461546C4
:106A50004C282CD12A20FFF7BAFD260AF0B2FFF706
:106A60002DFEE0B2FFF72AFEF0B2FFF727FEE0B2FC
:106A7000FFF724FE2B20FFF7AAFD0020FFF71EFEE4
:106A80000020FFF71BFE0020FFF718FEEF20FFF7A6
:106A900015FE2C20FFF79BFDF0242E0AF0B2FFF725
:106AA0000DFEE8B2FFF70AFE641EF7D170BD48285C
:106AB0002CD12A20FFF78BFD0020FFF7FFFD0020DF
:106AC000FFF7FCFD0120FFF7F9FD3F20FFF7F6FD82
:106AD0002B20FFF77CFD260AF0B2FFF7EFFDE0B2B6
:106AE000FFF7ECFDF0B2FFF7E9FDE0B2FFF7E6FDDE
:106AF0002C20FFF76CFD4FF4A0742E0AF0B2FFF7C4
:106B0000DDFDE8B2FFF7DAFD641EF7D170BD0000CD
:106B10002DE9F0478AB080468946DDF848A0139FEA
:106B20000024002001A905E012F8015B401CC0B25E
:106B300001F8015B1578002DF6D1002B05D501A9D0
:106B40002D224254401CC0B25B420A2B09DA01A933
:106B500003F130024254401800214470002501AE78
:106B6000A1E0A3F10A015A2912D20A2293FBF2F101
:106B700001AA01F130058554801801EB8102A3EBD5
:106B800042013031417000218470002501AE8AE05D
:106B90004FF47A718B421DDA642193FBF1F13031AD
:106BA00001AA81540A2293FBF2F101AD284491FB22
:106BB000F2F202EB8205A1EB45023032427001EBAA
:106BC0008102A3EB4201303181700021C4700025A5
:106BD00001AE68E042F210718B4228DA4FF47A710C
:106BE00093FBF1F1303101AA81546421801893FBA9
:106BF000F1F10A2291FBF2FC0CEB8C0EA1EB4E01A1
:106C00003031417093FBF2F191FBF2F202EB82051D
:106C1000A1EB45023032827001EB8102A3EB42010D
:106C20003031C17000210471002501AE3BE0DFF876
:106C3000A82093422FDA93FBF1F1303101AA81545D
:106C40004FF47A71801893FBF1F10A2291FBF2FC68
:106C50000CEB8C05A1EB450130314170642193FBB5
:106C6000F1F191FBF2FC0CEB8C0EA1EB4E013031FB
:106C7000817093FBF2F191FBF2F202EB8205A1EB42
:106C800045023032C27001EB8102A3EB4201303188
:106C9000017100214471002501AE04E0FFF7E0FD21
:106CA000681CC5B2641CAA5D6AB1E4B208EBC400FA
:106CB000802A009753464946F0D3FFF72BFEA81CC5
:106CC000C5B2A41CEFE70AB0BDE8F087C0F00F40E2
:106CD0001C04FF1F1C0CFF1FA08601002DE9F047BC
:106CE0008246EF23002240F23F110020FFF767FDAC
:106CF000DC244FF6FF784FF0800957462825002600
:106D0000387849FA06F1084214BF00204046FFF7E0
:106D10004CFD761C082EF3DB7F1C6D1EEFD10AF2B2
:106D2000280A641EE9D1BDE8F0870000010040F1A7
:106D30000980F446404200F005F851F000416047F8
:106D4000010000BF09D0B0FA80F18840C91CC1F52C
:106D50008461090501EBD02140057047B0B581EA97
:106D6000030C0CF0004C40F2FF7515EA11541DBFE6
:106D700015EA1357AC42AF4239E0E41923EA455310
:106D800043F48013C90241F0004141EA505EC7025A
:106D90001100A7FB020200284FF00000EEFB0120CB
:106DA0004FF00001E3FB072118BF42F00102401839
:106DB00000214941E3FB0E01A4F580640F0302D2D8
:106DC00052004041494154F101046CDD470872F121
:106DD000004250F1000051EB0451A1F580115CBF5D
:106DE00041EA0C01B0BD4CEA05510020B0BD05EAF6
:106DF0001357AC4214BFAF4241E050EA410E1CBFF2
:106E000052EA430E02E061460020B0BD24423C44F9
:106E10001BD15FEA070EF6D0090302BF014600202E
:106E2000AEF1140EB1FA81F7AEEB070401FA07FEDA
:106E30000C37C7F1200100FA07F7C8404EEA000EF0
:106E400023EA455343F48013A2E733F00043B3FA37
:106E500083F704BFB2FA82FE77440B3FE41BB7F11D
:106E6000200E2FBF02FA0EF3BB40C7F1200E22FA0C
:106E70000EFE38BF43EA0E03BA40641C82E750EAB4
:106E8000410E14BF52EA430E6FF000014FF4001799
:106E900017EB430F8ABF194617EB410FB5E74CEAD2
:106EA00005510020B0BDD4F10104B4F120070FDA80
:106EB000C4F12007520828BF42F0010210FA07F57A
:106EC00001FA07F7E1BF2A43E0403843E1400FE011
:106ED000352C98DCC7F1200452EA400220FA07F270
:106EE00018BF42F0010231FA07F0A1400A43002125
:106EF00072F1004250F1000051EB0C01B0BD0000F6
:106F0000F446400D40EAC120490006D200F00EF8D8
:106F1000004248BF6FF00040604700F007F84FF0B4
:106F2000004188428CBF08464042604740F0004024
:106F3000490DA1F58061491C05D4D1F11F0154BF51
:106F4000C840C01770474FF000007047F0B540F2DE
:106F5000FF7581EA030C0CF0004C15EA11541DBFBB
:106F600015EA1357AC42AF42E5E0BC41C1F313014F
:106F7000C3F31303801A994143F4801304D2641EAF
:106F80004000494180185941C90241EA5051B1FBC2
:106F9000F3F603FB1611A2FB0675D7EBC020A9413F
:106FA00002D2761E80185941C90241EA5051B1FB04
:106FB000F3FE03FB1E11A2FB0E75D7EBC020A94107
:106FC00003D2AEF1010E80185941890241EA905175
:106FD000760546EA8E2EB1FBF3F603FB1611A2FBF3
:106FE0000675D7EB8020A94102D2761E8018594140
:106FF000C90241EA50514EEA060EB1FBF3F603FB1B
:107000001611A2FB0675D7EBC020A94102D2761E4D
:1070100080185941C90241EA5051B1FBF3F703FB13
:107020001711A2FB0735D3EBC020A94167F1000778
:107030000CBF004247F0010766F3D5274FEA1E3127
:10704000B80814F5806412DDBD0775F1004250EBFD
:107050000E5051EB045111F5801F5CBF41EA0C0149
:10706000F0BD4CF07F6141F0E0410020F0BDBD0774
:107070006D0840EA0E5041F48011D4F10104B4F1DE
:1070800020060ADAC4F120060200E04001FA06F305
:10709000E1401843B24015430EE0342C13DCC6F136
:1070A000200445EA40056D0820FA06F2154321FA4E
:1070B00006F0A1400D43002175F1004250F100009F
:1070C00051EB0C01F0BD00205FEA0C01F0BDCFB91F
:1070D00092185B41B3FA83F704BFB2FA82F6BF1984
:1070E0000B3FB7F120062FBF02FA06F3BB40C7F1F2
:1070F000200622FA06F638BF3343BA401CB1E41921
:10710000641E33E77F4231F00041B1FA81F404BFDD
:10711000B0FA80F6A4190B3CB4F120062FBF00FA98
:1071200006F1A140C4F1200620FA06F638BF31432B
:10713000A0403C1B1AE7AC421ABF05EA1357AF4206
:1071400012E050EA41061CBF52EA4306BFE750EA8C
:107150004107304661461CBF41EA0551F0BD52EA85
:10716000430C08BFC143F0BD00204FF4001616EBDE
:10717000410F98BF16EB430F08BF16EB410F24BF1A
:10718000C14305E016EB430F0CBF61464CEA0551C5
:10719000F0BD00004FF4001C1CEB410F94BF1CEB32
:1071A000430F09E041EA030C50EA4C0C52EA0C0C84
:1071B00003D28B4208BF8242704714BF994290426B
:1071C0007047000090EA010F44BF81F00041FEF7D4
:1071D000EBBF00BF431A4FF000423EBF5340C01AFE
:1071E000C91800BFD3095FEAD05C13EB400F34BF6E
:1071F000B3EB410F40E07CEBD1530CD342EA0121C9
:1072000022D8D1EB402009D3400A28BF5FEA5001C1
:1072100040EBCC507047401A15D04002B0FA80F2D3
:10722000521C9040400A4FEA3C23B3EB026384BFF8
:1072300000EB730007E040F400001A16DB07C2F110
:107240000102D04018437047182BFCDC31FA03F2DE
:1072500002FA03F3591A38BF42F00102D2EB402080
:107260003CBF4000ACF1010C5FEACC5CC20572F19E
:1072700000414CEB5020704713EB400F0FD24B00F6
:1072800009D0ACEBD153022B03DB4902172BDDDD18
:1072900070479143401A4300D5D10020704713EB4B
:1072A000410FD0D36FF000007047000070B4154C50
:1072B0004FF4807604EB80056D69164345F8216034
:1072C000D50703D5032A18BF132A09D154F8200083
:1072D0000123426903FA01F122EA010141610EE052
:1072E00054F82000012202FA01F142690A43426186
:1072F000012B02680CBF114322EA0101016070BC3E
:10730000704700001040FF1F40B1054909680A009E
:1073100002D000BF521EFCD1401EF8D170470000C1
:10732000986BFF1FDFF8780E416941F4002141613D
:10733000416D41F001014165016821F400210160C6
:1073400000BF016C41F00101016400BF00BF00BF3C
:1073500000BF00BF00BF00BF00BF00BF00BF00BF35
:10736000016841F40021016000BF00BF00BF00BF01
:1073700000BF00BF00BF00BF00BF00BF00BF00BF15
:1073800000BF00BF00BF00BF00BF00BF00BF00BF05
:1073900000BF00BF00BF00BF00BF00BF00BF00BFF5
:1073A00000BF00BF00BF00BF00BF00BF00BF00BFE5
:1073B00000BF00BF00BF00BF016C49084900016465
:1073C00000BF00BF00BF00BF00BF00BF00BF00BFC5
:1073D00000BF00BF00BF00BF00BF00BF00BF00BFB5
:1073E00000BF00BF00BF00BF00BF00BF00BF00BFA5
:1073F00000BF00BF00BF00BF00BF00BF00BF00BF95
:1074000000BF00BF00BF00BF00BF00BF00BF00BF84
:10741000016821F40021016070470000DFF8800D51
:10742000416941F400214161416D41F00101416533
:10743000016821F40021016000BF00BF00BF00BF50
:1074400000BF00BF00BF00BF00BF00BF00BF016C96
:1074500049084900016400BF00BF00BF00BF00BF72
:1074600000BF00BF00BF00BF00BF00BF016841F404
:107470000021016000BF00BF00BF00BF00BF00BF10
:1074800000BF00BF00BF00BF00BF00BF00BF00BF04
:1074900000BF00BF00BF00BF00BF00BF00BF00BFF4
:1074A00000BF00BF00BF00BF00BF00BF00BF00BFE4
:1074B00000BF00BF00BF00BF00BF00BF00BF00BFD4
:1074C00000BF00BF016C41F00101016400BF00BFBB
:1074D00000BF00BF00BF00BF00BF00BF00BF00BFB4
:1074E00000BF00BF00BF00BF00BF00BF00BF00BFA4
:1074F00000BF00BF00BF00BF00BF00BF00BF00BF94
:1075000000BF00BF00BF00BF00BF00BF00BF00BF83
:1075100000BF00BF00BF00BF00BF00BF016821F473
:107520000021016070470000DFF8741C4A6942F4D2
:1075300000224A614A6D42F001024A6500BF002202
:107540000B6823F400230B6000FA02F31B060B6C9C
:107550004EBF43F001035B085B000B6400BF00BF3C
:1075600000BF00BF00BF00BF00BF00BF00BF00BF23
:1075700000BF0B6843F400230B6000BF00BF00BFD7
:1075800000BF00BF00BF00BF00BF00BF00BF00BF03
:1075900000BF00BF00BF00BF00BF00BF00BF00BFF3
:1075A00000BF00BF00BF00BF00BF00BF00BF00BFE3
:1075B00000BF00BF00BF00BF00BF00BF00BF00BFD3
:1075C00000BF00BF00BF00BF00BF0B68521C23F408
:1075D00000230B60082AB3D300BF00BF00BF00BF69
:1075E00000BF00BF00BF00BF00BF00BF00BF00BFA3
:1075F00000BF00BF00BF00BF00BF00BF00BF00BF93
:1076000000BF00BF00BF00BF00BF00BF00BF00BF82
:1076100000BF00BF00BF00BF00BF00BF00BF00BF72
:1076200000BF00BF00BF00BF086C40F0010008644D
:1076300000BF00BF00BF00BF00BF00BF00BF00BF52
:1076400000BF00BF00BF086840F40020086000BF12
:1076500000BF00BF00BF00BF00BF00BF00BF00BF32
:1076600000BF00BF00BF00BF00BF00BF00BF00BF22
:1076700000BF00BF00BF00BF00BF00BF00BF00BF12
:1076800000BF00BF00BF00BF00BF00BF00BF00BF02
:1076900000BF00BF00BF00BF00BF00BF00BF086841
:1076A00020F4002008607047DFF8F41A486D4008A5
:1076B00040004865486940F4002048610A6800209D
:1076C00022F400220A6000BF00BF00BF00BF00BF5D
:1076D00000BF00BF00BF00BF00BF00BF082200BF47
:1076E00000BF00BF00BF00BF00BF00BF00BF00BFA2
:1076F00000BF00BF0B6823F400230B6000BF00BF76
:1077000000BF00BF00BF00BF00BF00BF00BF00BF81
:1077100000BF00BF00BF00BF00BF00BF00BF00BF71
:1077200000BF00BF00BF00BF00BF00BF00BF00BF61
:1077300000BF00BF00BF00BF00BF00BF00BF00BF51
:1077400000BF00BF00BF00BF00BF00BF0B6843F415
:1077500000230B6000BF00BF00BF00BF00BF00BF21
:1077600000BF00BF00BF00BF00BF0B6D4000DB07C4
:1077700048BF401C521EB2D10A68C0B222F4002297
:107780000A60704730B581B004460D46FFF7CAFD68
:107790002046FFF7C9FE2846FFF7C6FEFFF7C2FDE9
:1077A000601CC0B2FFF7C0FEFFF77EFF0446FFF784
:1077B00035FE204601B030BD00B581B00023012266
:1077C00013210220FFF772FD002301220021032074
:1077D000FFF76CFD00BF00BF00BF00BF00BF00BFD0
:1077E00000BF00BF00BF00BF00BF00BF00BF00BFA1
:1077F00000BF00BF00BF00BF00BF00BF00BF00BF91
:1078000000BF00BF00BF00BF00BF00BF00BF00BF80
:1078100000BF00BF00BF00BF00BF00BF00BF00BF70
:1078200000BF00BF00BF00BF00BF00BF00BF00BF60
:1078300000BF00BF00BF00BF00BF00BF00BF00BF50
:1078400000BF00BF00BF00BF00BF00BF00BF00BF40
:1078500000BF00BF00BF00BF00BF00BF00BF00BF30
:1078600000BF00BF00BF00BF00BF00BF00BF00BF20
:1078700000BF00BF00BF00BF00BF00BF00BF00BF10
:1078800000BF00BF00BF00BF00BF00BF00BF00BF00
:1078900000BF00BF00BF00BF00BF00BF00BF00BFF0
:1078A00000BF00BF00BF00BF00BF00BF00BF00BFE0
:1078B00000BF00BF00BF00BF00BF00BF00BF00BFD0
:1078C00000BF00BF00BF00BF00BF00BF00BF00BFC0
:1078D00000BF00BF00BF00BF00BF00BF00BF00BFB0
:1078E00000BF00BF00BF00BF00BF00BF00BF00BFA0
:1078F00000BF00BF00BF00BF00BF00BF00BF00BF90
:1079000000BF00BF00BF00BF00BF00BF00BF00BF7F
:1079100000BF00BF00BF00BF00BF00BF00BF00BF6F
:1079200000BF00BF00BF00BF00BF00BF00BF00BF5F
:1079300000BF00BF00BF00BF00BF00BF00BF00BF4F
:1079400000BF00BF00BF00BF00BF00BF00BF00BF3F
:1079500000BF00BF00BF00BF00BF00BF00BF00BF2F
:1079600000BF00BF00BF00BF00BF00BF00BF00BF1F
:1079700000BF00BF00BF00BF00BF00BF00BF00BF0F
:1079800000BF00BF00BF00BF00BF00BF00BF00BFFF
:1079900000BF00BF00BF00BF00BF00BF00BF00BFEF
:1079A00000BF00BF00BF00BF00BF00BF00BF00BFDF
:1079B00000BF00BFFFF7B6FC3820FFF7B5FD2A2057
:1079C000FFF7B2FD1020FFF7AFFDFFF727FD00BF67
:1079D00000BF00BF00BF00BF00BF00BF00BF00BFAF
:1079E00000BF00BF00BF00BF00BF00BF00BF00BF9F
:1079F00000BF00BF00BF00BF00BF00BF00BF00BF8F
:107A000000BF00BF00BF00BF00BF00BF00BF00BF7E
:107A100000BF00BF00BF00BF00BF00BF00BF00BF6E
:107A200000BF00BF00BF00BF00BF00BF00BF00BF5E
:107A300000BF00BF00BF00BF00BF00BF00BF00BF4E
:107A400000BF00BF00BF00BF00BF00BF00BF00BF3E
:107A500000BF00BF00BF00BF00BF00BF00BF00BF2E
:107A600000BF00BF00BF00BF00BF00BF00BF00BF1E
:107A700000BF00BF00BF00BF00BF00BF00BF00BF0E
:107A800000BF00BF00BF00BF00BF00BF00BF00BFFE
:107A900000BF00BF00BF00BF00BF00BF00BF00BFEE
:107AA00000BF00BF00BF00BF00BF00BF00BF00BFDE
:107AB00000BF00BF00BF00BF00BF00BF00BF00BFCE
:107AC00000BF00BF00BF00BF00BF00BF00BF00BFBE
:107AD00000BF00BF00BF00BF00BF00BF00BF00BFAE
:107AE00000BF00BF00BF00BF00BF00BF00BF00BF9E
:107AF00000BF00BF00BF00BF00BF00BF00BF00BF8E
:107B000000BF00BF00BF00BF00BF00BF00BF00BF7D
:107B100000BF00BF00BF00BF00BF00BF00BF00BF6D
:107B200000BF00BF00BF00BF00BF00BF00BF00BF5D
:107B300000BF00BF00BF00BF00BF00BF00BF00BF4D
:107B400000BF00BF00BF00BF00BF00BF00BF00BF3D
:107B500000BF00BF00BF00BF00BF00BF00BF00BF2D
:107B600000BF00BF00BF00BF00BF00BF00BF00BF1D
:107B700000BF00BF00BF00BF00BF00BF00BF00BF0D
:107B800000BF00BF00BF00BF00BF00BF00BF00BFFD
:107B900000BF00BF00BF00BF00BF00BF00BF00BFED
:107BA00000BF00BF00BF00BF00BF00BF00BFFFF7A6
:107BB000B9FB3820FFF7B8FC0E20FFF7B5FC00201A
:107BC000FFF7B2FCFFF72AFC00BF00BF00BF00BFF9
:107BD00000BF00BF00BF00BF00BF00BF00BF00BFAD
:107BE00000BF00BF00BF00BF00BF00BF00BF00BF9D
:107BF00000BF00BF00BF00BF00BF00BF00BF00BF8D
:107C000000BF00BF00BF00BF00BF00BF00BF00BF7C
:107C100000BF00BF00BF00BF00BF00BF00BF00BF6C
:107C200000BF00BF00BF00BF00BF00BF00BF00BF5C
:107C300000BF00BF00BF00BF00BF00BF00BF00BF4C
:107C400000BF00BF00BF00BF00BF00BF00BF00BF3C
:107C500000BF00BF00BF00BF00BF00BF00BF00BF2C
:107C600000BF00BF00BF00BF00BF00BF00BF00BF1C
:107C700000BF00BF00BF00BF00BF00BF00BF00BF0C
:107C800000BF00BF00BF00BF00BF00BF00BF00BFFC
:107C900000BF00BF00BF00BF00BF00BF00BF00BFEC
:107CA00000BF00BF00BF00BF00BF00BF00BF00BFDC
:107CB00000BF00BF00BF00BF00BF00BF00BF00BFCC
:107CC00000BF00BF00BF00BF00BF00BF00BF00BFBC
:107CD00000BF00BF00BF00BF00BF00BF00BF00BFAC
:107CE00000BF00BF00BF00BF00BF00BF00BF00BF9C
:107CF00000BF00BF00BF00BF00BF00BF00BF00BF8C
:107D000000BF00BF00BF00BF00BF00BF00BF00BF7B
:107D100000BF00BF00BF00BF00BF00BF00BF00BF6B
:107D200000BF00BF00BF00BF00BF00BF00BF00BF5B
:107D300000BF00BF00BF00BF00BF00BF00BF00BF4B
:107D400000BF00BF00BF00BF00BF00BF00BF00BF3B
:107D500000BF00BF00BF00BF00BF00BF00BF00BF2B
:107D600000BF00BF00BF00BF00BF00BF00BF00BF1B
:107D700000BF00BF00BF00BF00BF00BF00BF00BF0B
:107D800000BF00BF00BF00BF00BF00BF00BF00BFFB
:107D900000BF00BF00BF00BF00BF00BF00BF00BFEB
:107DA00000BF00BF00BF00BFFFF7BCFA3820FFF7DD
:107DB000BBFB0F20FFF7B8FB1020FFF7B5FBFFF769
:107DC0002DFB00BF00BF00BF00BF00BF00BF00BF52
:107DD00000BF00BF00BF00BF00BF00BF00BF00BFAB
:107DE00000BF00BF00BF00BF00BF00BF00BF00BF9B
:107DF00000BF00BF00BF00BF00BF00BF00BF00BF8B
:107E000000BF00BF00BF00BF00BF00BF00BF00BF7A
:107E100000BF00BF00BF00BF00BF00BF00BF00BF6A
:107E200000BF00BF00BF00BF00BF00BF00BF00BF5A
:107E300000BF00BF00BF00BF00BF00BF00BF00BF4A
:107E400000BF00BF00BF00BF00BF00BF00BF00BF3A
:107E500000BF00BF00BF00BF00BF00BF00BF00BF2A
:107E600000BF00BF00BF00BF00BF00BF00BF00BF1A
:107E700000BF00BF00BF00BF00BF00BF00BF00BF0A
:107E800000BF00BF00BF00BF00BF00BF00BF00BFFA
:107E900000BF00BF00BF00BF00BF00BF00BF00BFEA
:107EA00000BF00BF00BF00BF00BF00BF00BF00BFDA
:107EB00000BF00BF00BF00BF00BF00BF00BF00BFCA
:107EC00000BF00BF00BF00BF00BF00BF00BF00BFBA
:107ED00000BF00BF00BF00BF00BF00BF00BF00BFAA
:107EE00000BF00BF00BF00BF00BF00BF00BF00BF9A
:107EF00000BF00BF00BF00BF00BF00BF00BF00BF8A
:107F000000BF00BF00BF00BF00BF00BF00BF00BF79
:107F100000BF00BF00BF00BF00BF00BF00BF00BF69
:107F200000BF00BF00BF00BF00BF00BF00BF00BF59
:107F300000BF00BF00BF00BF00BF00BF00BF00BF49
:107F400000BF00BF00BF00BF00BF00BF00BF00BF39
:107F500000BF00BF00BF00BF00BF00BF00BF00BF29
:107F600000BF00BF00BF00BF00BF00BF00BF00BF19
:107F700000BF00BF00BF00BF00BF00BF00BF00BF09
:107F800000BF00BF00BF00BF00BF00BF00BF00BFF9
:107F900000BF00BF00BF00BF00BF00BF00BF00BFE9
:107FA00000BFFFF7BFF93820FFF7BEFA2A20FFF71E
:107FB000BBFA0120FFF7B8FAFFF730FA00BF00BFA5
:107FC00000BF00BF00BF00BF00BF00BF00BF00BFB9
:107FD00000BF00BF00BF00BF00BF00BF00BF00BFA9
:107FE00000BF00BF00BF00BF00BF00BF00BF00BF99
:107FF00000BF00BF00BF00BF00BF00BF00BF00BF89
:1080000000BF00BF00BF00BF00BF00BF00BF00BF78
:1080100000BF00BF00BF00BF00BF00BF00BF00BF68
:1080200000BF00BF00BF00BF00BF00BF00BF00BF58
:1080300000BF00BF00BF00BF00BF00BF00BF00BF48
:1080400000BF00BF00BF00BF00BF00BF00BF00BF38
:1080500000BF00BF00BF00BF00BF00BF00BF00BF28
:1080600000BF00BF00BF00BF00BF00BF00BF00BF18
:1080700000BF00BF00BF00BF00BF00BF00BF00BF08
:1080800000BF00BF00BF00BF00BF00BF00BF00BFF8
:1080900000BF00BF00BF00BF00BF00BF00BF00BFE8
:1080A00000BF00BF00BF00BF00BF00BF00BF00BFD8
:1080B00000BF00BF00BF00BF00BF00BF00BF00BFC8
:1080C00000BF00BF00BF00BF00BF00BF00BF00BFB8
:1080D00000BF00BF00BF00BF00BF00BF00BF00BFA8
:1080E00000BF00BF00BF00BF00BF00BF00BF00BF98
:1080F00000BF00BF00BF00BF00BF00BF00BF00BF88
:1081000000BF00BF00BF00BF00BF00BF00BF00BF77
:1081100000BF00BF00BF00BF00BF00BF00BF00BF67
:1081200000BF00BF00BF00BF00BF00BF00BF00BF57
:1081300000BF00BF00BF00BF00BF00BF00BF00BF47
:1081400000BF00BF00BF00BF00BF00BF00BF00BF37
:1081500000BF00BF00BF00BF00BF00BF00BF00BF27
:1081600000BF00BF00BF00BF00BF00BF00BF00BF17
:1081700000BF00BF00BF00BF00BF00BF00BF00BF07
:1081800000BF00BF00BF00BF00BF00BF00BF00BFF7
:1081900000BF00BF00BF00BF00BF00BF01B000BDF7
:1081A00080F00F4070B5582804BF0124022508D084
:1081B000592804BF0324042503D05A2804BF0524EA
:1081C0000625FFF7AFF83820FFF7AEF9E0B2FFF76A
:1081D000ABF9FFF7A7F83920FFF7A6F9FFF764FA24
:1081E0000446FFF71BF9FFF79DF83820FFF79CF9CD
:1081F000E8B2FFF799F9FFF795F83920FFF794F9FE
:10820000FFF752FA0546FFF709F9200250FA85F008
:1082100080B28110802C23BF4FF0FF30C943491C2E
:1082200001208E04B60CFEF781FD04460D46304653
:10823000FEF786FD00220B4BFEF788FE22462B46FA
:10824000FEF78CFD084A094BFEF7A4FF98BF1046C5
:1082500005D9074A074B00F001F901D20248194637
:1082600070BD000000FEAF401EA7E8482EFFEF3FA4
:108270001DA7E8482EFFEFBF00B581B00023012203
:1082800013210220FFF712F800230122002103200E
:10829000FFF70CF8FFF746F8D220FFF745F920204A
:1082A000FFF742F90F20FFF73FF9FFF7B7F8FFF7A5
:1082B00039F8D220FFF738F92120FFF735F90020EF
