:10000000F85F002011040000396900003969000020
:100010003969000039690000396900003969000058
:100020003969000039690000396900003969000048
:100030003969000039690000396900003969000038
:100040003969000039690000396900003969000028
:10040000FFFFFFFFFFFFFFFFFFFFFFFFFEFFFFFFFD
:1004100062B60BF0D1FAFEE770B5002400208949DE
:100420000860002088490870002088490870002072
:100430000400E4B2052C09DA00208549E4B208552D
:1004400000208449E4B20855641CF2E7032004004C
:10045000E4B2802C41DA8048E4B202216143405A80
:100460007D49E4B2022262438918891F0988401A33
:100470007A49E4B20422624388507848E4B2042105
:1004800061434058012805DB7448E4B2042161430C
:10049000405805E07148E4B20421614341584842A4
:1004A00068490968814216DA6C48E4B20421614364
:1004B0004058012807DB6948E4B2042161434058F1
:1004C0006049086007E06548E4B204216143405890
:1004D00041425C480160641CBAE704200400E4B2B5
:1004E0007F2C64DA5D48E4B20421614340585B49E3
:1004F000E4B2042262438918091F0968884222DB9A
:100500005648E4B204216143401840685349E4B2BC
:10051000042262438958884215DAAD4800784F4971
:10052000E4B204226243895888420CDA46480078D3
:10053000052808DA46484449097844544248007876
:10054000401C414908704548E4B2042161434058C9
:100550004249E4B2042262438918091F09688842AB
:1005600023DA3E48E4B204216143401840683B4925
:10057000E4B2042262438958884216DB3748E4B269
:10058000042161434058924909784A4290420CDA6A
:100590002E480078052808DA2E482C49097844545A
:1005A0002A480078401C29490870641C97E700F02D
:1005B0006FF9AE480078002808D0022817D00FD372
:1005C00004281AD016D305281AD01CE00020A84908
:1005D000086000F0AFF901F017FF01F037FE14E0FA
:1005E00000F082FCA3480068A34908600DE000F019
:1005F0007FFD0AE000F058FE07E000F035FF04E060
:1006000001F01CFC01E000F095F99C480068AB4942
:1006100002F0FEFB05D20020944908700020A84992
:100620000860A848007800281AD19048007800286F
:1006300016D0934800688021C904014390480160A6
:1006400014E000BF50F0FF1F02F4FF1F03F4FF1F70
:1006500070F2FF1F78F2FF1FE8EAFF1F68F0FF1F2C
:1006600087480068874901408548016096480068CE
:10067000401E854908709548006884490870944870
:1006800000789449087092484078934908709348DC
:10069000007893490870934800789349087073482C
:1006A0000078924908708848006891490870874826
:1006B00000689049087084480068401E060083481E
:1006C0000068050087480078002804D18348007836
:1006D000002800D18AE0A81902F0AEFB0022802396
:1006E000DB0502F0C3FB02000B000020824902F090
:1006F00081FC0022814B02F01AFC02F0F2FC5D4901
:1007000008605C4800685C49096802F053FD0021FC
:1007100002F0A8FD06D2574800685749096802F060
:1007200049FD05E0544800685249096802F042FD5D
:10073000734902F097FD55D84C480078042851D0F1
:100740004A48007802284DD04A4800684A4909685A
:1007500002F030FD002102F085FD06D24548006818
:100760004549096802F026FD05E043480068414913
:10077000096802F01FFD634902F074FD17D83E4876
:1007800000683C49096802F043FB08D23A48016816
:10079000FE20800502F0D6FC3649086022E036488B
:1007A0000168594802F0CEFC324908601AE032482C
:1007B00000683049096802F02BFB0BD22E48016813
:1007C0008020C00502F0BEFC2A4908600AE000BF94
:1007D0000EF4FF1F28480168C020000602F0B2FC9A
:1007E00024490860234800682349086037480068A6
:1007F00035490968401A02F049FD02000F214348BB
:1008000002F0E0FA424802680F21424802F0DAFAA8
:10081000184802680A21404802F0D4FA31480078AA
:1008200000280DD02D480078002809D03B480068EA
:10083000142808DA39480068401C3849086002E08A
:100840000020364908602748007800280CD023484B
:100850000078002808D01D4800681B490968401A24
:10086000152801DB02F0C2F870BD00000CF4FF1F78
:100870002CF3FF1F64F0FF1F3CF3FF1F18ECFF1F5A
:1008800000F10F40FFFFFFFBD8EDFF1FD9EDFF1F69
:1008900000B52348007800280FD1224800780028AE
:1008A0000BD121480078002807D101201E4908708B
:1008B0001E4800681E490860FFE700BDCDCCCC3E55
:1008C00030F3FF1FA1E5FF1F54F0FF1F58F0FF1F7B
:1008D00050F0FF1FDCEDFF1FDDEDFF1F06F4FF1FD3
:1008E000DEEDFF1F07F4FF1FDFEDFF1FE0EDFF1F31
:1008F00004F4FF1F05F4FF1F000050400000F03F0C
:100900000100004001004040000080BF80F2FF1F56
:10091000F0EBFF1FBCF2FF1FF8F2FF1F20F3FF1FD9
:1009200002F4FF1F03F4FF1F0CF4FF1F18ECFF1F5E
:100930002CF3FF1F10B5B1480078002861D1B048F2
:10094000007800285DD102F0C9F8AC480078002892
:1009500000D0A9E2AA480078002800D0A4E2002034
:1009600001F020FC002814D0A648A7490968405C83
:10097000A64908600120A1490870A44800682228FF
:100980000ADAA3480078042806D100209B490870A1
:1009900002E0002099490870012001F003FC0028C2
:1009A00014D0B7489B490968405C9B490860012006
:1009B000934908709848006855280ADB94480078E5
:1009C000042806D100208E49087002E000208C49DE
:1009D00008708A480078002800D165E288480078CD
:1009E000002800D160E28C48006888490968884284
:1009F00000DB59E20020814908700020804908701E
:100A000052E27E480078002800D117E1B948017809
:100A1000002001F05DFB002800D1CBE079487A4945
:100A20000968405C7949086001207449087074487D
:100A30000078002800D001E1C8480078002800D1E3
:100A400097E000207349086072480068C34909783C
:100A5000884265DA0020C54908606C48006888490A
:100A60006C4A1268895C884254DA85486949096889
:100A7000405C66490968401A0400E4B2BC4800685A
:100A8000201A012804DBE4B2B9480068201A03E008
:100A9000B7480068E4B2001B02282EDBB4480068A7
:100AA000E4B2A04205DAB2480068401CB0490860D0
:100AB00018E0AF480068401EAD490860544800780F
:100AC00000280FD1AB480068AB49096802F072FBFF
:100AD000FC21890502F09CF904D2A5480068401E5B
:100AE000A349086049480068A149096840184A4973
:100AF000086000204249087008E0614845490968DB
:100B0000405C4549086001203D4908700120974933
:100B1000086005E03F480068401C3E49086093E7D4
:100B200037480078914909680143002900D085E0E1
:100B3000B6480068B64902F095FB12D83348006801
:100B40008B4909684018772805DA89480068401CF5
:100B50008749086005E076202C490968401A8449D5
:100B600008602A4800688249096840182A490860D4
:100B700064E0A6480068A64902F074FB12D8234836
:100B800000687B4909684018772805DA78480068CA
:100B9000401C7749086005E076201C490968401A26
:100BA00073490860194800687149096840181A4972
:100BB000086043E0002011490870002001F0F2FABB
:100BC00000282CD00F4810490968405C4949097831
:100BD000884223D20A48007800282FD10C48007898
:100BE00005282BD00A480078042827D0012008497E
:100BF000087060480068AD4908601FE006F4FF1FF8
:100C000007F4FF1F70F2FF1F68F2FF1F54F0FF1F71
:100C10000CF4FF1F6CF2FF1F58F0FF1F0EE0A448FA
:100C2000007800280AD1A3480078042806D00120C3
:100C3000A04908704F4800689C4908609C480078AB
:100C4000002800D11AE19C480178012001F040FA07
:100C5000002800D1DEE00A4898490968405C9849BC
:100C6000086001209249087096480078002800D05A
:100C700004E195480078002800D1A6E0924801E000
:100C800078F2FF1F0078401E904908608F48006886
:100C9000002873D400208E4908608E488B4909686B
:100CA000405C8749096888425ADA85480068894962
:100CB000864A1268895C401A0400E4B22C48006835
:100CC000201A012804DBE4B229480068201A03E056
:100CD00027480068E4B2001B022831DB2448006882
:100CE000E4B2A04208DA22480068401C20490860AB
:100CF0001BE000BF04F4FF1F1D480068401E1C4994
:100D000008606C48007800280FD11A4800681A491A
:100D1000096802F04FFAFC21890502F079F804D243
:100D200013480068401E1249086065480068104971
:100D30000968401A6849086000206249087008E0A4
:100D4000644862490968405C6349086001205D4964
:100D5000087001205E49086010E000BF03F4FF1F27
:100D60005A480068401E594908608FE760F0FF1F2D
:100D700090E8FF1F18ECFF1F30F3FF1F5148007869
:100D8000534909680143002978D120480068204967
:100D900002F068FA11D84A48006850490968401AB8
:100DA0000A2805DB4D480068401C4C49086004E0F7
:100DB000434800680A384949086041480068474983
:100DC0000968401A4449086058E010480068104912
:100DD00002F048FA11D83A48006840490968401AB8
:100DE0000A2805DB3D480068401C3C49086004E0D7
:100DF000334800680A383949086031480068374983
:100E00000968401A3449086038E000BF08ECFF1F49
:100E100001002040002026490870012001F0C2F99D
:100E200000281CD0244800782D49244A1268895C87
:100E3000884213D22348007800281FD11D4800782B
:100E400005281BD01B480078042817D00120194919
:100E5000087024480068154908600FE00EE0194842
:100E6000007800280AD113480078042806D0012011
:100E7000104908701B4800680C4908600C4800784D
:100E8000002811D00F48007800280DD00C480068C9
:100E900011490968401A1149086010480068232860
:100EA00002DA23200D49086010BD00002CF3FF1F5B
:100EB00007F4FF1F0CF4FF1F05F4FF1F6CF2FF1F68
:100EC00058F0FF1F06F4FF1F02F4FF1F68F2FF1F18
:100ED0005CF0FF1F70F2FF1F54F0FF1F90E8FF1F30
:100EE00078F2FF1F18ECFF1F80B500206B490870D7
:100EF00000206B4908706B480068002102F0B2F9CD
:100F000002D26848006804E066480068802109064B
:100F10004840654902F0A6F91BD8624800680021E4
:100F200002F0A0F906D25F480168604802F00AF9B1
:100F30005C4908605B480068002101F069FF0BD242
:100F400058480168FE20800502F0FCF85549086009
:100F500002E000205349086001F0C0FE002818D0CC
:100F6000534800685349096802F024F9524901F0D6
:100F70004FFF0ED2042051490870002050490860EC
:100F800000205049087000204F49087000204F4948
:100F900008604F480078002813D14548006845494B
:100FA000096802F007F94B4902F05CF909D84A4890
:100FB0000078002805D001204549087001204749E4
:100FC00008703B4800683B49096802F0F3F844495F
:100FD00001F01EFF02D200204249087001F07EFDA0
:100FE0002E48007800283AD02D480078002836D0C6
:100FF0003D4800683D490968401A46282FDA9A485A
:10100000007805282BDB2A480068984902F02AF965
:1010100019D8274800682749096802F0CBF8264903
:1010200001F0F6FE0FD20420244908700020244964
:101030000860002023490870002023490870002020
:10104000224908600BE027480078401C25490870B9
:1010500024480078032802D1002018490870174856
:101060000078012803D000207F49087014E07E48F2
:1010700000780A2804DA7C480078401C7A49087015
:1010800079480078032807DA002005490870002015
:101090000249087001F0A2FB01BD000007F4FF1F28
:1010A00006F4FF1F64F0FF1F01000040000080BF36
:1010B00018ECFF1F2CF3FF1F9A99193E0CF4FF1F29
:1010C00028F3FF1F08F4FF1F09F4FF1F34F3FF1F6D
:1010D000A1E5FF1F9A99193F18E4FF1FF4F3FF1FC2
:1010E0009A99993E0FF4FF1F58F0FF1F54F0FF1F0D
:1010F00010B55F480068002851D15E480178012092
:1011000000F0E6FF002809D05B485C490968405CB4
:101110005B49086001205B49087002E000205949E2
:101120000870594800685949096802F043F8FA21E3
:10113000890501F06DFE1DD2002055490870554803
:10114000007800287CD053480078401E0400002C12
:1011500076D45148005D0A3049490968884207DA67
:101160004D48005D4D49086001204949087067E01D
:10117000641EECE74A480178002000F0A9FF00282F
:1011800009D0454847490968405C44490860012046
:101190003F49087054E000203D49087050E0404845
:1011A0000178002000F094FF002809D03A483D491A
:1011B0000968405C3949086001203549087002E03F
:1011C000002033490870304800683049096801F050
:1011D000F1FFFA21890501F01BFE1DD200202949EB
:1011E00008708D48007800282AD0002004008A4822
:1011F0000078844224DA294800680A301E49095DD3
:10120000884207DA1C48005D1D49086001201D491D
:10121000087015E0641CEAE716480178012000F028
:1012200057FF002809D0144814490968405C144944
:10123000086001201349087002E00020114908707D
:1012400076480068401C754908600F4800680F49DF
:10125000096801F0AFFF724902F004F802D80020DB
:101260007049087010BD000010F4FF1F0100803F9E
:1012700024F3FF1F05F4FF1F78F2FF1F6CF2FF1F1E
:1012800058F0FF1F07F4FF1F18ECFF1F2CF3FF1F80
:1012900006F4FF1F02F4FF1F70F2FF1F54F0FF1F40
:1012A00004F4FF1F68F2FF1F70B5002400251E26FE
:1012B0005D4800685D4908605D4800685D490860F8
:1012C00000205D49087000205C490870574800689C
:1012D000C01F040055480068C01DE4B2A0422CDBCA
:1012E0005748E4B20421614340585549E4B204220E
:1012F00062438918091F096888421CDA5048E4B221
:1013000004216143401840684D49E4B2042262431D
:10131000895888420FDB4A48E4B2042161434058AF
:10132000F6B27142884206DAE4B23F480460012016
:101330004149087001E0641CCCE73E480068C01FCA
:1013400005003C480068C01DEDB2A8422BDB3C48BC
:10135000EDB20421694340583949EDB204226A4391
:101360008918091F096888421BDB3548EDB2042142
:101370006943401840683249EDB204226A438958F3
:1013800088420EDAF6B22E48EDB204216943405885
:10139000864206DAEDB2264805600120274908702A
:1013A00001E06D1CCDE724480078002830D12348A7
:1013B000007800282CD123480068401C214908608F
:1013C00020480068052826DB1F4800681F49096877
:1013D00001F0F0FE1E4901F01BFD0ED20420114960
:1013E000087000201B49086000201B49087000207D
:1013F0001A49087000201A4908600020094908703D
:10140000114800681749086000200E49086002E092
:1014100000200C49086070BD03F4FF1F38F3FF1F64
:101420000100003F0CF4FF1F54F0FF1F40F3FF1FAB
:1014300058F0FF1F44F3FF1F06F4FF1F07F4FF1FC0
:1014400068F0FF1F48F3FF1F18ECFF1F2CF3FF1F6E
:10145000CDCC4C3E28F3FF1F08F4FF1F09F4FF1FFB
:1014600034F3FF1F30F3FF1F70B500240025A1489F
:101470000068A149096801F09DFEA04901F0C8FC7F
:1014800002D200209E4908709E480068002800D0C3
:1014900098E29D480068002800D1CBE19A48006896
:1014A000012800D0D1E099480178002000F010FE1A
:1014B000002809D0964897490968405C9649086019
:1014C00001209649087045E08A4800688A49096801
:1014D00001F070FE894901F0C5FE02D8012088495B
:1014E0000870844800688449096801F063FE8C49EB
:1014F00001F08EFC2BD28B480078401E8549086095
:1015000084480068002815D4814882490968405CF5
:101510005A2809DA0120814908707D487D49096807
:10152000405C7D49086005E07A480068401E7949C2
:101530000860E5E76F48006801F0C4FEBBA20CCA72
:1015400001F0F5FC01F0CDFD6B49086002E00020E0
:1015500072490870B4480078002861D17148007859
:10156000002826D0CD480078401ECD490860CC48E0
:10157000006800281DD468480068CA49C84A126833
:10158000895C88420FDAA8480078012802D101203E
:1015900005000EE0C348C2490968405CC2490860C2
:1015A0000120A1490870BE480068401EBC4908607F
:1015B000DDE7EDB2002D11D15148007800280DD1A2
:1015C00055480068CB4909684018B74908600020B1
:1015D000C9490870002094490870B2E19248007827
:1015E000012800D0ADE1C4480078401CC249087011
:1015F000C148007803280FDB3E48006801F062FE16
:101600008AA20CCA01F093FC01F06BFD3A49086014
:1016100001208549087094E100208349087090E119
:10162000B6480178012000F053FD002809D09D48FC
:101630009B490968405C9C49086001207A49087010
:101640007FE10020784908707BE1AC4801780120F7
:1016500000F03EFD002809D0924891490968405C9D
:101660009149086001207049087060E021480068D5
:101670002149096801F09EFD204901F0F3FD02D8DF
:1016800001201F4908701B4800681B49096801F0C8
:1016900091FD234901F0BCFB46D20020804908603F
:1016A0007F4800687D490978884215DA7D487C4981
:1016B0000968405C1F2809DB01205B4908707948F4
:1016C00077490968405C7849086005E0744800681B
:1016D000401C73490860E3E70648006801F0F2FD2A
:1016E00052A20CCA01F023FC01F0FBFC0249086085
:1016F0001DE000BF18ECFF1F2CF3FF1FCDCCCC3D2D
:1017000011F4FF1F34F3FF1F28F3FF1F04F4FF1F22
:1017100070F2FF1F68F2FF1F54F0FF1F06F4FF1F57
:10172000CDCC4C3F02F4FF1F00203F490870C84851
:101730000078002862D1C7480078002827D0002010
:10174000C5490860C3480078401EC34909688842FB
:101750001DDBC248C0490968405C5349096888429A
:101760000FDABB480078012802D1012005000EE005
:10177000BA48B9490968405CB94908600120B449D0
:101780000870B5480068401CB3490860DAE7EDB25C
:10179000002D11D1B348007800280DD142480068CF
:1017A00054490968401AAE4908600020524908703F
:1017B0000020A7490870C4E0A5480078012800D09F
:1017C000BFE04D480078401C4B4908704A480078FB
:1017D00003280FDBC848006801F074FD13A20CCA8F
:1017E00001F0A5FB01F07DFCC44908600120984987
:1017F0000870A6E0002096490870A2E0C048017871
:10180000002000F065FC002809D09448924909683E
:10181000405C9349086001208D49087091E00020E8
:101820008B4908708DE000BF07F4FF1F9A999999C2
:101830009999B9BFB0480068B049096801F0BAFC8D
:10184000C94901F00FFD00D97BE0002080490870F4
:101850000020C64908707F480078002826D07D48BF
:101860000078401E7C4908607B48006800281DD431
:101870007A4879490968405C402809DA01207449AE
:101880000870764874490968405C754908600DE045
:1018900071480068401E70490860E5E703F4FF1FC7
:1018A0006CF2FF1F78F2FF1F58F0FF1FC648007848
:1018B000002825D00020C5490860C4480068C249F6
:1018C000097888421CDAC648C0490968405C41284A
:1018D00009DB0120A5490870C148BC490968405C82
:1018E000C04908600CE0B9480068401CB74908606E
:1018F000E3E700BF90E8FF1F14F4FF1F05F4FF1F8C
:101900003220B94908609948007801280AD1504826
:101910000078002806D1B3480068B3490968401A26
:101920004F4908609148007800280AD1484800785B
:10193000012806D14A480068AB4909684018A949FE
:1019400008606D4800686D49096801F033FCA749DB
:1019500001F088FC02D80020C6490870664800687B
:101960006649096801F026FCC34901F07BFC29D8CF
:1019700037480078002803D07C480078002821D11F
:101980000120BE4908600020BD4908700120040004
:101990000120BC4908700020BB490860304800683D
:1019A000BA4908608F480068B9490860284800783B
:1019B000002803D10120B749086003E00020C0439C
:1019C000B4490860AD480068012800D01DE1E4B2C8
:1019D000002C00D019E1AF480068012800D091E048
:1019E000012000F0DFFB00283ED07D4877490968E0
:1019F000405CA7490968884225DA79487349096833
:101A0000405C78490860012058490870BD4800785A
:101A10007449096888420EDBBB480078401CBA490B
:101A20000870B9480078032808DB02209349086051
:101A30000120040002E00020B349087069480068F2
:101A4000B049087016E000204849087012E000BF55
:101A500006F4FF1F02F4FF1F68F2FF1F70F2FF1F62
:101A600054F0FF1F11F4FF1F0020A7490870002049
:101A70003E490870002000F095FB002834D0C5488E
:101A8000C5490968405C81490968884225DAC1482E
:101A9000C1490968405CC14908600120C04908701B
:101AA000BE480068BF49097888420EDB7448007858
:101AB000401C7349087072480078032808DB022034
:101AC0006E4908600120040002E000206C490870A3
:101AD000B2480068B34908708DE00020B049087032
:101AE00000206749087086E00020654908700020E2
:101AF000AB4908707FE000BF18ECFF1F2CF3FF1FFD
:101B000004F4FF1F002000F04DFB002833D0A14853
:101B1000A1490968405C3D282ADB9E489E49096826
:101B2000405C9E49086001209D4908709B48006800
:101B30009C49097888420EDB51480078401C504986
:101B400008704F480078032808DB02204B490860E2
:101B50000120040002E00020494908708F48006815
:101B60009049087007E000BFCDCCCC3D07F4FF1FC3
:101B700000208B490870012000F014FB00283AD0A7
:101B8000174812490968405C512831DB14480F4955
:101B90000968405C1349086001209A490870594857
:101BA000007810490968884212DB57480078401CC9
:101BB000554908705448007803280CDB02202F494F
:101BC00008600120040006E003F4FF1F6CF2FF1F11
:101BD00000204D490870034800684A4908700AE02F
:101BE00078F2FF1F58F0FF1F90E8FF1FCDCCCC3FCD
:101BF000002084490870E4B2012C06D182480078A4
:101C0000142802DA01201D4908601C4800680228D7
:101C100000D081E0E4B2002C00D07DE0FEF78AFE27
:101C2000042014490870794800687949096801F06E
:101C3000C1FA784901F016FB68D8594800780028A5
:101C400047D070480078002843D073480068534953
:101C50000968401A060071480068002837D06F48AC
:101C60000068801B022817DB6D480078401C6C4917
:101C7000087014E00CF4FF1FCDCC4C3F34F3FF1F71
:101C800014F4FF1F09F4FF1F34ECFF1F4CF3FF1F78
:101C900050F3FF1F24F3FF1F0020614908706048C4
:101CA0000078022804D05D480068801B03280EDB02
:101CB00003205C490860012004005448006854492E
:101CC000086000203649087000204E4908705348CB
:101CD000066033480078002803D04A48007800287E
:101CE0001AD103204F4908600120040047480068CA
:101CF0004749086000202A490870002041490870BF
:101D00000AE000BF13F4FF1F15F4FF1F0020434932
:101D100008600020424908704248006803286CD1DE
:101D2000E4B2002C69D1394800683949096801F0EA
:101D300041FA3D4901F096FA4CD800F0CFFE184820
:101D40000078002846D02F480078002842D032483A
:101D5000006812490968401A1A283BDB2E480068BF
:101D60000E490968401A3C2834DA2B4800680B49B0
:101D700009684018022101F0D4FA4038012813DB29
:101D800025480068054909684018022101F0C9FA90
:101D9000403814E070F2FF1F68F2FF1F54F0FF1F7D
:101DA00006F4FF1F12F4FF1F1B4800681F49096853
:101DB0004018022101F0B5FA0100403948420F28CD
:101DC00008DA00201A49087000201649086000202F
:101DD000184908700D4800680D49096801F0EAF9D2
:101DE000154901F03FFA08D8002011490870002079
:101DF0000C49086000200F4908700A480068A9498A
:101E0000087070BD07F4FF1F08F4FF1F18ECFF1FD8
:101E10002CF3FF1F0100004058F0FF1F54F3FF1F79
:101E200016F4FF1F34F3FF1FCDCC4C3E54F0FF1FC0
:101E30000CF4FF1F14F4FF1F9A99993E7CB50025FE
:101E4000002499480078002833D1FEF773FD9748A5
:101E50000078052826DA96480078002815D095489D
:101E60000078002811D094480068002101F0FAF9A8
:101E700002D29148006804E08F480068802109067A
:101E800048408E4901F0EEF906D800208C490870D0
:101E900000208649087008E084480078401C834987
:101EA000087002E001208049087000208549087010
:101EB000E3E000207E49087000207E4908708248D7
:101EC000007806007A48007800284BD1F6B230003E
:101ED00000F0BCFF00227D4B01F07DFA02000B00F8
:101EE000009201937848007800F0B0FF009A019BBF
:101EF00001F033FB36D2A7480078001F0500A54843
:101F00000078C01CEDB2A8422ADBA348EDB2042140
:101F100069434058A049EDB204226A438918091F59
:101F2000096888421ADB9C48EDB2042169434018D5
:101F300040689949EDB204226A43895888420DDA13
:101F4000F6B29548EDB2042169434058864205DA5D
:101F5000EDB2924805600120554908706D1CCEE72E
:101F6000B61EAFE7584800780600524800780028AF
:101F70004CD1F6B2300000F069FF0022534B01F063
:101F80002AFA02000B00009201934F48007800F0FB
:101F90005DFF009A019B01F0E0FA37D2804800789B
:101FA000001D0400E4B27E480078C01E84422BDB92
:101FB0007948E4B20421614340587749E4B20422ED
:101FC00062438918091F096888421BDA7248E4B223
:101FD00004216143401840686F49E4B2042262431F
:101FE000895888420EDB6C48E4B2042161434058B2
:101FF000F6B27142884205DAE4B28C4804600120EE
:102000002C490870641ECDE7B61EAEE7284800785C
:10201000002803D02748007800282BD129480078D1
:10202000401C28490870814800685C490968401ACA
:10203000292815DA23480078032806DB7B48006846
:1020400056490968401A1F280ADA1E4800780528F0
:1020500013DB7648006851490968401A14280CDAE5
:1020600000201749087000201049087000200E4910
:10207000087002E00020134908706D4800686D493F
:10208000096801F097F86C4901F0ECF808D80020D5
:102090000B490870002005490870002002490870AB
:1020A00073BD0000E1EDFF1F0DF4FF1F18F4FF1FCB
:1020B00006F4FF1F07F4FF1F64F0FF1F0100A0409C
:1020C0000CF4FF1F17F4FF1F0EF4FF1F0000F83F72
:1020D00010B502000020D2B2002A2CD1574B1B7839
:1020E000002B55D00023564C2360554B1B68534C96
:1020F0002478A3424CDAC9B2524B514C24681B5D80
:10210000CB1A012B06DBC9B24E4B4D4C24681B5D2C
:10211000CB1A05E04B4B4A4C24681B5DC9B25B1AD5
:10212000042B02DA0123180032E0454B1B685B1CCC
:10213000434C2360D9E7444B1B78002B28D0002365
:10214000AF4C2360AE4B1B683F4C2478A3421FDA90
:10215000C9B29B4BAA4C24681B5DCB1A012B06DB32
:10216000C9B2974BA64C24681B5DCB1A05E0944B73
:10217000A34C24681B5DC9B25B1A042B02DA01234D
:10218000180005E09E4B1B685B1C9D4C2360D9E743
:10219000C0B210BD04F4FF1F68F0FF1F54F0FF1F12
:1021A00005F4FF1F00B501000020C9B200291FD1AE
:1021B000224A1278002A37D0204A1278521E204B29
:1021C0001A601F4A1268002A2ED41E4A1C4B1B6834
:1021D000D25C4B2A02DA0122100025E0184A12686C
:1021E000002A21D0164A1268521E154B1A60E8E7E1
:1021F000154A1278002A17D00022814B1A60804AB3
:102200001268114B1B789A420EDA6D4A7C4B1B68A0
:10221000D25C362A02DB0122100005E0784A1268FF
:10222000521C774B1A60EAE7C0B200BD58F0FF1F9E
:1022300018ECFF1F2CF3FF1FCDCC4C4002F4FF1F06
:1022400068F2FF1F70F2FF1F03F4FF1FF0B585B0A7
:102250000025624800688021C90501F097F9050052
:1022600058480078002800D1A6E057480078002898
:1022700000D1A1E000200190002000905348007898
:1022800000281AD00020040050480078844214DA54
:10229000564800784A49095D88420CD24848005D9A
:1022A000083051490978884205DA4548005D0390B5
:1022B0000120009001E0641CE6E745480078002812
:1022C0001AD043480078401E0400002C14D4414822
:1022D000005D4549097888420CD2444800783D4960
:1022E000095D0839884205DA3A48005D029001200C
:1022F000019001E0641EE8E7019800285AD0009898
:10230000002857D0029800F097FD0022324B01F0D0
:1023100062F806000F00039800F08EFD00222E4B9D
:1023200001F059F802000B003000390000F062FEA5
:1023300006000F002948006800F0C4FF02000B00EF
:102340003000390000F092FD25A20CCA01F073F9AB
:1023500032D8254800780299401A00F097FF010012
:10236000280000F055FD0CD2022021490870002001
:102370002049086000202049086020480068214961
:102380000860039819490978401A00F07FFF01009E
:10239000280000F03DFD0FD20220154908700020F2
:1023A0001449086001201449086014480068154960
:1023B000086001E00098002805B0F0BD00000000B2
:1023C00078F2FF1F06F4FF1F07F4FF1F03F4FF1F3F
:1023D00002F4FF1F70F2FF1F0000F03F80F2FF1FAA
:1023E0009B9999999999C93F05F4FF1F04F4FF1F20
:1023F0000CF4FF1F38F3FF1F24F3FF1F18ECFF1F1F
:102400006CF2FF1F2CF3FF1FF0B583B000250020F6
:102410009F49086000269F480078002800D1BBE053
:102420009D480078002800D1B6E09C4800689C498F
:102430000978491E884254DA9A4800689A4909681E
:10244000401A00909948954909684018407804005E
:1024500000989749096888423BDA964800688442A8
:1024600037DA90480068201A1E2832DA8D48006852
:10247000201A09282DDBC2480068401CC0490860AA
:10248000BF480068042827DBBE480068BE490978B9
:10249000491E88420ADABD48BA490968401840789E
:1024A0008049086001207C4908700CE07E207D494D
:1024B00008607C4800687C490968401AB449086093
:1024C000002075490870012005000120704908604E
:1024D00002E00020AA490860009875490860754824
:1024E0000460A8480068012800DAECE06D48006844
:1024F0006D490968401A0190A448A249096840182A
:10250000401E007807000198A249096888423ADA1B
:10251000A1480068B84236DA63480068C01B1E282C
:1025200031DA61480068C01B09282CDB9B48006831
:10253000401C9A49086099480068032826DB5748E0
:10254000006801280BDB5948544909684018401EAF
:1025500000785549086001204E4908700CE00A20B7
:10256000514908604F4800684F490968401A884936
:102570000860002047490870012005000020C04382
:102580004349086002E000208449086001988149BD
:1025900008608148076096E03E480078002804D132
:1025A0003D480078002800D18DE03E4800683E4953
:1025B0000968401A372800DB85E03A4800686E2831
:1025C00000DB80E03848006813287CDB3148007865
:1025D00000282FD17248007800282BD1714800784C
:1025E000062827DA3048006806002E480068864230
:1025F00005DA6D48805D3D2801DA761CF5E72A484A
:1026000000680A30B04215DA30000A3025490968FE
:1026100088420FDA24480068301A012803DB224878
:102620000068301A02E020480068801B0B2801DB9C
:102630000120050018480078002844D15B48007844
:10264000002840D15A48007806283CDA154800682E
:10265000060015480068B04205DA5348805D3D2801
:1026600001DA761EF5E7104800680A30B0422ADA2F
:1026700030000A300B490968884224DA09480068AA
:10268000301A012818DB07480068301A17E000BF2D
:1026900028F3FF1F06F4FF1F07F4FF1F68F2FF1F58
:1026A00002F4FF1F58F0FF1F54F0FF1F70F2FF1FCE
:1026B00068F3FF1F6CF3FF1F3E480068801B0B2868
:1026C00001DB012005003C48007800281AD13B4876
:1026D0000078002816D100F001FB002812D0042059
:1026E00037490870002037490870002036490860D3
:1026F00000203649087000203549086035480068D8
:1027000035490860EDB2012D0FD104202C49087025
:1027100000202C49087000202C49087000202C490A
:1027200008602C4800682C490860234800781C4940
:102730000870224800781D49087019480078002860
:1027400009D1184800780A2808DA16480078401C91
:102750001449087002E000201249087013480078FC
:10276000002809D1124800780A2808DA10480078B1
:10277000401C0F49087002E000200D490870F7BDA9
:1027800064F3FF1F6CF2FF1F03F4FF1F78F2FF1FBB
:1027900090E8FF1F5CF3FF1F60F3FF1F58F3FF1F5C
:1027A00019F4FF1F1BF4FF1F58EDFF1F1AF4FF1F42
:1027B0001CF4FF1F58F0FF1F06F4FF1F07F4FF1F54
:1027C0000CF4FF1F08F4FF1F28F3FF1F09F4FF1F7D
:1027D00034F3FF1F18ECFF1F2CF3FF1F70B500210F
:1027E00000222D2300240A200100C9B2782900DB31
:1027F000F9E07D48C9B204254D4340597A4DC9B22C
:1028000004264E43AD192D1F2D68A84200DBD1E0F0
:102810007548C9B204254D4340194068724DC9B28C
:1028200004264E43AD59A84200DAC3E06E48C9B24F
:1028300004254D434059DBB25D42A84200DBB9E0BC
:102840000800801C0200C9B208000A30D2B29042CF
:1028500000DAAFE06448D2B2042555434059624DD6
:10286000D2B204265643AD192D1F2D68A84200DAB6
:102870009EE05D48D2B204255543401940685A4D48
:10288000D2B204265643AD59A84200DB90E0DBB239
:102890005548D2B2042555434059834200DB87E0B6
:1028A0005148C9B204254D4340594F4DD2B2042678
:1028B0005643AD59401901280BDB4B48C9B20425DA
:1028C0004D434059484DD2B204265643AD594019A4
:1028D0000BE04548C9B204254D434059424DD2B2A0
:1028E00004265643AD594519684214285FDA7548E5
:1028F0000078002812D07448007800280ED0734861
:1029000000680A30C9B2884208DAD2B210000A3030
:102910006F4D2D68A84201DA012004006948007853
:10292000002811D06848007800280DD1C9B2674846
:102930000068081A0B2807DBC9B264480068081A47
:10294000322801DA012004005E480078002824D1F2
:102950005D480078002820D05D48006846280EDADF
:102960005B480068D2B2801A0B2816DB5848006812
:10297000D2B2801A322810DA012004000DE0544847
:102980000068D2B2801A0B2807DB51480068D2B227
:10299000801A282801DA012004004A48007800281B
:1029A00005D149480078002801D10120040001E048
:1029B000521C48E7E4B2002C13D0C9B2434801606E
:1029C000D2B2434802600320424D287001203D4DA1
:1029D000287001203C4D28703F480068BE4D28609B
:1029E00001E0491C01E770BD68F0FF1FF0B583B03E
:1029F0000024002635480068050035480068EDB21F
:102A0000A84207DBAA48EDB202216943405A2418C4
:102A10006D1CF2E7200000F019FA0022A54B00F02F
:102A2000DAFC009001912A48006828490968401A98
:102A300000F002FA02000B000098019900F016FA6B
:102A400000F04FFB06009C4800889D490978401A19
:102A500000F01CFC310000F007FE00F033FC002207
:102A6000964B00F003FA06000F009548007800F03E
:102A7000EDF932003B0000F05AFA00F032FB06009C
:102A80009448008800F0E2F98EA20CCA00F0A3FC82
:102A900000900191300000F015FC8CA20CCA00F0EF
:102AA0009AFC009A019B00F042FA00F037FE894937
:102AB000088088480078B449087086484078B3494F
:102AC0000870F7BD06F4FF1F07F4FF1F54F0FF1F47
:102AD00058F0FF1F0CF4FF1F18ECFF1F30B500214A
:102AE000002200233C200200D2B2152A25DBA84890
:102AF000D2B2042454430059A54CD2B20425554304
:102B00006419241F2468A04215DBA148D2B2042412
:102B10005443001940689E4CD2B204255543645971
:102B2000A04208DA9B480078994CD2B2042555435C
:102B30006459A04201DB521ED6E746200100C9B20B
:102B40006E2926DA9248C9B204244C430059904CAD
:102B5000C9B204254D436419241F2468A04216DA23
:102B60008B48C9B204244C4300194068884CC9B250
:102B700004254D436459A04209DB8548C9B20424A9
:102B80004C430059834C24786542A84201DB491C20
:102B9000D5E7D2B21A2A11DBC9B269290EDA0120AF
:102BA0000300D2B27C480260C9B27C4801600120B7
:102BB0007B4C207001207B4C20706EE00A200200CC
:102BC000D2B2502A69DA7248D2B20424544300596E
:102BD0006F4CD2B2042555436419241F2468A042C7
:102BE00056DB6B48D2B20424544300194068684C49
:102BF000D2B2042555436459A04249DA65480078A9
:102C0000634CD2B2042555436459A04240DA100007
:102C1000401C0100C9B279293ADA5D48C9B20424DE
:102C20004C4300595A4CC9B204254D436419241F22
:102C30002468A0422ADA5648C9B204244C43001939
:102C40004068534CC9B204254D436459A0421DDB72
:102C50004F48C9B204244C4300594E4C2478654275
:102C6000A84213DAC9B2D2B2881A1A280DDB0120A1
:102C70000300D2B248480260C9B24848016001204E
:102C8000474C20700120474C207001E0491CC1E7EF
:102C9000DBB2002B01D1521C92E7DBB2002B05D135
:102CA00000203F4C207000203E4C207030BD0000C2
:102CB000E8EAFF1F0000F03FD4F3FF1F00C05F40B1
:102CC000E6F3FF1F666666666666EE3F9A99999917
:102CD0009999A93FD6F3FF1F2CF3FF1FF0B583B0DE
:102CE00000260024002736200500EDB24A2D0EDA1A
:102CF0002D48EDB202216943405A0B2805DB2A48D2
:102D0000EDB202216943405A24186D1CEDE7200002
:102D100000F09CF80022254B00F05DFB0022244BC4
:102D200000F0A4F800F0DDF90700224800882249ED
:102D30000978401A00F0AAFA390000F095FC00F07A
:102D4000C1FA00221D4B00F091F8009001911A4841
:102D5000007800F07BF8009A019B00F0E8F800F0A2
:102D6000DDFC04001648018802204843032100F0DE
:102D7000D8FA844202D20120060001E000200600B9
:102D80003000C0B2FEBD0000E4EDFF1FE5EDFF1F07
:102D900068F0FF1F0EF4FF1F54F0FF1F58F0FF1FD5
:102DA00006F4FF1F07F4FF1FE8EAFF1F0000F03FD3
:102DB00000003440D4F3FF1FE6F3FF1F00C05F4064
:102DC000D6F3FF1F30B54C1E2300012B09DB042472
:102DD0005C430419241F246804255D4344515B1E91
:102DE000F3E7026030BD30B4012100220368001D0A
:102DF000002B0BD00468001D0C4202D04D466D1E06
:102E000064192260241D1B1FF0D0FAE730BC704704
:102E10000CB4012212060318DA4207D84B18DA4222
:102E200004D802000A43921802D288420CBC7047B0
:102E3000FCD08142FAE70000010009D5F446404287
:102E400000F006F80122D20711436047010000BFDD
:102E500042221201D21E004207D002D4521E001894
:102E6000FCD5C10A4005120589187047F0B40E0060
:102E70005E400125ED072E40B446AE0ADF184C181F
:102E8000F4423BD2F74241D2640D43D07F0D38D09B
:102E9000E41BC902DB0229432B43CF0ADB0A0600ED
:102EA000B61A9F4104D2641EB6197F41B6185F411D
:102EB0006812800D24180018844222DAE80C0021E0
:102EC000B6197F41B61A9F4102D2B6185F413F1C26
:102ED00040414941F4D3241C21DD2405B6197F412A
:102EE000B61A9F4105D33743C60737430026012F43
:102EF0007041614166463143F0BC7047FCD1F742F6
:102F000005D20020C14349054908F3E704D0002059
:102F1000C143F1E77F0DFAD000206146ECE724427F
:102F2000FAD1401C61410F03F6D30020E2E7F0B470
:102F30000125ED070F005F404FD48B4200D1824244
:102F400005D98446100062468C4619006346DF1896
:102F50004C18640D7F0D3AD0661C760537D0E61B01
:102F6000352E34DCDB022B43DB0A0C0DC90229436E
:102F7000C912202E0DDB1700203E06D01F00F7419E
:102F8000F3405F400026012A7741C01871410DD2FD
:102F900017E01700F741F2405740F3415A40B34061
:102FA000F3405A400026801859410AD3A21C52050A
:102FB0000FD0C207012F724117004008CB071843FA
:102FC0004908641C24054208AF4170416141F0BCCE
:102FD0007047641C21050020F9E76B4010E06B404E
:102FE000ABE7F742F3D1E943F1E72442EFD1002008
:102FF0000021ECE7F0B40125ED070F005F40EED4AF
:103000000C00871A9C4105D2C01BA141D219634113
:1030100069406B40AE0ADF184C18F442E1D2640DEF
:103020007F0DE2D0E61B362ED1DCDB022B43DB0A20
:10303000A4460C0DC9022943C90A012E28DC04D17B
:10304000D6075208DF073A435B08EF0A7642904101
:10305000994114D039423BD1B61940414941761CBF
:10306000394204D1761C001849413942FAD0B9439B
:103070006746B74208D9A41B24052143A7E70042AD
:10308000EAD13642E8D1A2E7E40AE10700209EE750
:10309000202E0BDD203E1F00F340F7415F40012A48
:1030A000002257417E42984191410BE01700F741C1
:1030B000F2405740F3415A40B340F3405A407E42F9
:1030C000904199410A0303D2641EB6194041494117
:1030D0000027641E24054208AE4178416141F0BCDE
:1030E0007047012252054B18DA4201D95815704732
:1030F0005B0D0722D2019B1A10D9FF2B1DD2DB05D5
:103100000122D2070A4013430903020D1143490A61
:10311000C200524100D9491CC81870470AD1800A20
:103120000A0302435212921C04D9D3070B40D00564
:1031300018437047C80FC0077047C80F0002FF3020
:10314000C00570470122D20703004B402ED4431A1A
:1031500001D2C01AC91830B44B180418240E1B0E23
:1031600022D0FF2C20D0E31A182B1DDC09021143BA
:10317000C40D641E0002104394461925ED1A0A007E
:10318000AA40D940451801D36D08A41CE405D20912
:10319000280A2D062A436546AA41604103181B0EE2
:1031A000FF2B01D3C00DC00530BC7047514006E075
:1031B0005140CCE70122D20703004B40F8D4431A18
:1031C00003D2C01AC9185040514030B44B180902FC
:1031D00011430418240E1B0E40D0FF2C3AD02500BA
:1031E0009D410BD31ED8C50D4002401A0BD3ED05EF
:1031F0000100400AC90591416841D5E7C50D40026B
:103200004918401AD0D001214008491C0018FCD5AB
:103210008C4204D36D1A000AED054019C4E7E80595
:103220001040C1E7182DBFDCAC1C0D00E140E541AA
:103230004D40012D4941C40D00021043451A01D4EF
:103240006D199543641EE405280A2D0695416041D9
:1032500030BC7047FF2BA7D1D843A5E72442A3D1A8
:103260000020A1E70CB4012212060318DA4207D8A5
:103270004B18DA4204D802000A43921802D2814263
:103280000CBC7047FCD088420CBC70479D210200EA
:103290000AD5F446524200F007F80122D207104343
:1032A000604700009D2102000AD002D4491E9218F6
:1032B000FCD5C905100A1206524100D3012A484123
:1032C00070470000012212060118CA420AD28A423F
:1032D0000DD83822120609098918C20FD2071143E6
:1032E0004007704700D049080909014301E0C10FB8
:1032F000C90700207047F446002804D4494200F072
:1033000013F8404260474042002905D45FD000F0E6
:103310000BF8404249426047494200F005F84942F3
:10332000604703460B43E6D40022030A8B420BD2CC
:1033300003098B4219D243088B422ED2411A00D284
:103340000146524110467047FF2209023FD0120643
:103350008B4205D3121209028B4201D312120902C9
:1033600003098B4219D300E0090AC3098B4201D338
:10337000CB01C01A524183098B4201D38B01C01A81
:10338000524143098B4201D34B01C01A52410309F8
:103390008B4201D30B01C01A5241C3088B4201D3A7
:1033A000CB00C01A524183088B4201D38B00C01A54
:1033B000524143088B4201D34B00C01A524188420C
:1033C00000D3401A5241CFD201461046704708B58B
:1033D00000F0CEF908BDF0B50E005E400125ED0706
:1033E0002E40B446AE0ADF184C18F44208D2F74219
:1033F0000ED2640D01D07F0D12D100206146F0BDC8
:1034000005D1F74201D87F0D05D10020C143F0BDA1
:10341000FBD1640DF9D00020C143490549088FE074
:10342000E419C902DB0229432B43DB0A460DC00223
:1034300031438E4630B487B295B27D432E0CADB287
:10344000140C7C43A419260C240425439CB27C4311
:10345000A419190C7943270CC919A4B20F043C43D1
:10346000090C000C97B247432E0CBE193543ADB280
:10347000170C4743360CBF19A6B2BF193E0435439B
:10348000240C3E0C36199FB24743BF19BCB23E0C08
:1034900089191F0C47437F183E043443390C70468A
:1034A00080B297B247432E0CBE193543ADB2170C0C
:1034B0004743360CBF19A6B2BF193E043543240C4E
:1034C0003E0C36199FB24743BF19BCB23E0C891956
:1034D0001F0C47437F183E043443390C77463F0C9A
:1034E00090B278432E0C80190604ADB22E43050C21
:1034F000A0B22D18120C7A435019020C80B2240C81
:10350000A4189AB27A43121914042043120C891891
:103510001B0C7B43C91830BCEF0A394203D1B619E2
:1035200040414941641E6F12BF0DE41B0BDBFF19C4
:10353000BC4211DA240500274208AE4178416141BE
:1035400066463143F0BD641C05D1401C6141CF0289
:1035500001D34908F4E750E75DE730B4012464057E
:103560004D00EC420BD85D00EC4208D80C001C4327
:1035700064000443144304D2994200D1904230BC09
:103580007047FCD08B42FAD18242F8E730B4050094
:103590004D400122D20715404B180418240E28D0A4
:1035A0001B0E2FD0FF2C34D0FF2B37D0E41A000293
:1035B00009021043114343084808D10D1B1A02D2D7
:1035C000641EDB181B18DB18834200D31B1A494109
:1035D000F9D37F3426DDFE2C08DAE4054808C90754
:1035E000194391416041284330BC7047FF20C0051A
:1035F000F9E728001B0E03D0FF2BF5D14902F3D0C9
:10360000D043F1E7FF2C01D14002F9D1FF20C005E2
:10361000E9E74002F4D1FF2BF8D1F1E72800490295
:10362000E2D0EDE70B0200202442DCD15B129B1CB0
:10363000D9D9D805D7E730B4012464054D00EC4250
:103640000BD85D00EC4208D80C001C436400044316
:10365000144304D28B4200D1824230BC7047FCD06C
:103660009942FAD19042F8E730B405004D4001226A
:10367000D20715404B180418240E30D01B0E34D03E
:10368000FF2C36D0FF2B3CD0E41800020902104377
:103690001143000A090A9446C2B24A43000AC3B25F
:1036A0004B43000A4843110A5B18190A12061B0C07
:1036B0001A43120A091801D44918641E080A7F3CEB
:1036C00023DBFE2C08DAE405090611436346994121
:1036D0006041284330BC7047FF20C005F9E728004F
:1036E0001B0EFF2BF6D1D043F4E72800FF2CF1D1BD
:1036F000F9E74002F7D1FF2B01D14902F3D1E005F0
:10370000E7E7D8054902E4D0EDE743020020641C56
:10371000DFD15B129B1CDCD9D805DAE7F4464A18E6
:1037200005D200F00FF801D580174008604700F07F
:1037300009F80121C907884200D9080040426047C2
:103740004A1812D2400DC90208430121C907084393
:10375000520D40210901521A521C06D452421F3206
:1037600001D4D0407047C017704700207047000058
:103770007047000010B58F480078052845D08D4867
:103780000078042841D08C4A0021002001F01BFE63
:1037900002238A4802680021302001F04FFF0523F0
:1037A000874888490978042251434258002148201B
:1037B00001F044FF7F480078002807D07D4800785A
:1037C000012803D07B48007802280FD1C748007831
:1037D00007280BD10120C6490870C6A20021742019
:1037E00001F0F1FD0020C249087004E0C1A20021EF
:1037F000742001F0E8FD07217A2001F08DFC6D486E
:1038000000783030C0B201F0BAFD6A480078002874
:1038100061D100200400E4B2072C00DB76E3B3485A
:103820000078E4B2844219D1B3480078012815D158
:10383000D0480078002811D10120AD490870CE4849
:10384000E4B20C21614342182100491CC9B2002096
:1038500001F0B9FD0020A64908700AE0C648E4B2AC
:103860000C21614342182100491CC9B2002001F01B
:10387000AAFD9E480078E4B2844217D1BD48007882
:10388000002813D001209A4908700523BB48E4B2F0
:1038900004216143405802682100491CC9B24820F4
:1038A00001F0CCFE0020924908700CE00523B348DB
:1038B000E4B204216143405802682100491CC9B2A6
:1038C000482001F0BBFE2100491CC9B2742001F060
:1038D00023FC641C9FE737480078012800D00DE1E5
:1038E00000200400E4B2072C2BDA80480078E4B210
:1038F000844219D180480078012815D19D4800786C
:10390000002811D101207A490870B648E4B20C2190
:10391000614342182100491CC9B2002001F053FD47
:103920000020734908700AE0AE48E4B20C216143FC
:1039300042182100491CC9B2002001F044FD641C5A
:10394000D0E72100491CC9B2742001F0E5FB6748AB
:103950000078002811D18748007800280DD0012078
:10396000634908700523A04802680121482001F03E
:1039700065FE00205E49087006E005239A4802684B
:103980000121482001F05AFE5848007801281BD137
:1039900078480078002817D0012055490870052381
:1039A000924802680221482001F048FE0020504958
:1039B000087010E040E4FF1FECBE0000F8EDFF1FB0
:1039C000A4E5FF1FBCE5FF1F05238848026802210C
:1039D000482001F033FE45480078022811D165489F
:1039E000007800280DD00120414908700323804849
:1039F00002680321482001F021FE00203C490870A4
:103A000006E003237A4802680321482001F016FEED
:103A100036480078032810D15648007800280CD08A
:103A2000012033490870734802780421482001F0CE
:103A300015FD00202E49087005E06E48027804212B
:103A4000482001F00BFD29480078042810D149488E
:103A5000007800280CD001202549087066480278BB
:103A60000521482001F0FAFC00202149087005E0FA
:103A7000614802780521482001F0F0FC1B480078DD
:103A8000052810D13B48007800280CD001201849A7
:103A90000870BC4802780621482001F0DFFC0020B5
:103AA0001349087005E0B74802780621482001F064
:103AB000D5FC0E480078062810D12E480078002842
:103AC0000CD001200A490870AF480278072148202D
:103AD00001F0C4FC00200649087017E2AA480278E9
:103AE0000721482001F0BAFC10E200BF41E4FF1FAB
:103AF000FCF3FF1F45450000ECF3FF1FA3480078CF
:103B0000022800D052E100200400E4B2072C37DA8A
:103B10009F480078E4B2844219D19E480078012879
:103B200015D114480078002811D101209A49087055
:103B30009A48E4B20C21614342182100491CC9B2E1
:103B4000002001F040FC0020934908700AE09348EF
:103B5000E4B20C21614342182100491CC9B2002083
:103B600001F031FC2100491CC9B2742001F0D4FAE3
:103B7000641CCAE7EBF3FF1FA4E4FF1FC0E5FF1FAF
:103B800083480078002811D18548007800280DD09E
:103B900001208149087003238248026801214820DE
:103BA00001F04CFD00207C49087006E003237D48AD
:103BB00002680121482001F041FD75480078012884
:103BC0001CD177480078002818D00120724908706D
:103BD000754802780221482001F040FC00206E491F
:103BE000087011E0F8E4FF1F40ECFF1F44ECFF1FDA
:103BF00000ECFF1F0AF4FF1F0BF4FF1F6A48027856
:103C00000221482001F02AFC61480078022811D1E5
:103C10006348007800280DD001205F490870BC4837
:103C20000021425E0321482001F018FC00205A497F
:103C3000087006E0B6480021425E0321482001F0EA
:103C40000DFC53480078032814D15548007800280B
:103C500010D0012050490870AE48AF4909780C22B5
:103C6000514342180421482001F0ADFB00204A498D
:103C7000087009E0A748A84909780C225143421866
:103C80000421482001F09FFB41480078042814D10A
:103C900043480078002810D001203F4908709F4811
:103CA0009F4909780B22514342180521482001F011
:103CB0008AFB00203849087009E09848984909783B
:103CC0000B22514342180521482001F07CFB30486B
:103CD0000078052819D132480078002815D0012035
:103CE0002D4908708F480078002805D18E4A06219A
:103CF000482001F068FB04E08C4A0621482001F0CE
:103D000062FB0020244908700EE0864800780028F5
:103D100005D1854A0621482001F055FB04E0834A7D
:103D20000621482001F04FFB19480078062819D1D8
:103D30001B480078002815D00120174908707C48DE
:103D40000078002805D0784A0721482001F03BFB85
:103D500004E0764A0721482001F035FB00200E4997
:103D60000870D3E072480078002805D06E4A072119
:103D7000482001F028FBC9E06C4A0721482001F0E7
:103D800022FBC3E0E6F3FF1F0EF4FF1F40E4FF1F1A
:103D900041E4FF1FECF3FF1FFCF3FF1F4CE5FF1F87
:103DA000EBF3FF1F14ECFF1FE8F3FF1F61480078DF
:103DB000032800D0A4E0604A0121002001F003FBA9
:103DC00003235E4802680121482001F037FC5C4A69
:103DD0000221002001F0F7FA03235A480268022169
:103DE000482001F02BFC584A0321002001F0EBFA97
:103DF0000323564802680321482001F01FFC544A5F
:103E00000421002001F0DFFA042352480268042153
:103E1000482001F013FC504A0521002001F0D3FA9C
:103E200004234E4802680521482001F007FC4C4A53
:103E30000621002001F0C7FA04234A48026806213F
:103E4000482001F0FBFB48480078012806D147488C
:103E50000078002802D10120B3490870444A0721A4
:103E6000002001F0B0FA0020AF4908704148007806
:103E7000002827D13D480078002823D00120AA49F6
:103E80000870AA480078002805D1A94A07214820CF
:103E900001F099FA12E0A5480078012805D1A54A59
:103EA0000721482001F08FFA08E0A0480078022896
:103EB00004D1A14A0721482001F085FA00209A493F
:103EC000087023E099480078002805D1984A072116
:103ED000482001F078FA19E094480078012805D1CB
:103EE000944A0721482001F06EFA0FE08F480078CD
:103EF00002280BD1904A0721482001F064FA05E01E
:103F00000C480078042801D100F036F810BD00BF3D
:103F1000DEF3FF1F48E4FF1FEEF3FF1F78E4FF1FEF
:103F2000EAF3FF1F18E4FF1F70BF000078BF000016
:103F3000A0E5FF1F40E4FF1FF8BE0000F0EBFF1FED
:103F400004BF0000ECEBFF1F10BF000008ECFF1FD8
:103F50001CBF000018ECFF1F80BF0000ACECFF1F6F
:103F600028BF000010ECFF1FECF3FF1FEBF3FF1F57
:103F700034BF000041E4FF1FF0B583B000260020ED
:103F80000500EDB2802D6ADA20209549EDB2495D39
:103F9000C9B28908401A0600F6B230000821FFF7BE
:103FA000C0F969460871F6B230000821FFF7B9F987
:103FB0000F0000200400E4B2042C4EDA2100C9B244
:103FC0002800C0B201F0A8F886480078002832D056
:103FD00085480078002804D083480078EDB2A842D4
:103FE00008D082480078802825D080480078EDB23B
:103FF000A84220D17C480078EDB2A8420DD17C487F
:104000000078002804D00021FF2001F015F822E0FC
:104010000021AA2001F010F81DE076480078002861
:1040200004D00021FF2001F007F814E00021AA20AD
:1040300001F002F80FE068460079E4B2844206D14C
:1040400000210120B840C0B200F0F6FF03E00021DB
:10405000002000F0F1FF641CADE76D1C91E7904A71
:104060000421012001F0AFF9032300938D4800687B
:10407000FFF70CF90200009B04211F2001F0DEFA7B
:10408000894A0421402001F09EF9032300938748C8
:104090000068FFF7FBF80200009B0421642001F098
:1040A000CDFA834A0521002001F08DF903238148D0
:1040B00002680521482001F0C1FA7F4A062100204C
:1040C00001F081F9032300937C480068FFF7DEF8D4
:1040D0000200009B0621482001F0B0FA78480278DF
:1040E00006216E2001F0BAF94D2001F048F9732045
:1040F00001F045F9734A0721002001F064F9042317
:10410000009371480088FFF7CDF80200009B07215B
:10411000482001F093FA07217A2000F0FDFF4C209F
:1041200001F02DF9F7BD0000FCF3FF1FE9F3FF1FBD
:1041300088BF000090BF000098BF000080B56348B2
:10414000006801000907C90F00290CD160480078F8
:10415000002812D101F0B8F801205E490870012052
:104160005B49087009E05A480078012805D1002011
:1041700057490870002000F0E4FF5448006801002F
:104180000906C90F002903D101205349087002E034
:104190000020514908704D4800680100C905C90F49
:1041A000002907D14D480078002806D101204B494D
:1041B000087002E000204949087044480068010086
:1041C0008905C90F002907D145480078002806D184
:1041D00001204349087002E000204149087001BDF8
:1041E00058EDFF1F44E4FF1FD8EDFF1FD9EDFF1F5F
:1041F00006F4FF1F07F4FF1F80B53A48006801006E
:104200000906C90F00294AD1374801686420414393
:10421000012001F084FB3348006801000906C90F42
:10422000002935D12B48007801282BD1FA20C00075
:104230002E49086001202E49087000202549087089
:1042400000202C49086000202B49086000202B49E1
:10425000086000202A49886100202A49086000205F
:104260002949086000202949087000202849086071
:10427000002028490870002027490870002027499D
:10428000087005E0012013490870012024490870D6
:104290001448006801000906C90F0029F8D001BDC3
:1042A000A0BF000054F0FF1FA8BF000058F0FF1F80
:1042B00040BF000064F0FF1F4CBF000050F0FF1F24
:1042C000E7F3FF1F58BF0000D4F3FF1F50F00F406B
:1042D000EDF3FF1FA1E5FF1F43E4FF1FEFF3FF1FF7
:1042E000FEF3FF1F10F00F4080F3FF1FF4EDFF1FE0
:1042F000F5F3FF1FF8EBFF1FF4EBFF1FFCEBFF1FB5
:1043000064ECFF1F18ECFF1FACECFF1F0CF4FF1F49
:104310000CECFF1F06F4FF1F07F4FF1FF0F3FF1F55
:10432000F4F3FF1F10B5914800680100C906C90FDA
:10433000002931D18E4801680A204143012001F053
:10434000EEFA8A4800680100C906C90F00291CD18D
:1043500088480078072805D101F0A8FB002085498E
:10436000087012E084480078002803D101208249B7
:1043700008700AE081480078002803D101207F49B5
:10438000087002E000207D4908707848006801004C
:10439000C906C90F0029F8D0744800680100C90493
:1043A000C90F002931D1724801680A204143012018
:1043B00001F0B5FA6D4800680100C904C90F002971
:1043C0001CD16D480078012802D100206A4908708C
:1043D0006A480078012802D10020684908706848BE
:1043E000007804280AD167480078002803D000200C
:1043F0006449087002E00120624908705B48006867
:104400000100C904C90F0029F8D05848006801000C
:104410008906C90F002939D1554801680A2041434E
:10442000012001F07CFA5148006801008906C90F9B
:10443000002924D15148007800280DD05248007836
:10444000052803D105205049087018E04E4800782F
:10445000401C4D49087012E0002046490870484849
:104460000078002803D104204549087004E044483E
:104470000078401E42490870002000F062FE3B4870
:10448000006801008906C90F0029F8D03748006884
:1044900001008904C90F002939D1354801680A2073
:1044A0004143012001F03BFA3048006801008904D3
:1044B000C90F002924D13148007800280DD0324896
:1044C0000078002803D100202F49087018E02E48FA
:1044D0000078401E2C49087012E000202549087021
:1044E00027480078042803D100202549087004E0FB
:1044F00023480078401C22490870002000F021FE6B
:104500001A48006801008904C90F0029F8D017482B
:10451000006801004906C90F002900D07EE1144857
:1045200001680A204143012001F0F9F90F480068B1
:1045300001004906C90F002900D058E10E48007853
:10454000012800D053E10D48007800281ED1094809
:104550000078002804D19B4800780649087046E19D
:1045600004480078401E0349087040E110F00F40F5
:1045700080F3FF1F41E4FF1FECF3FF1FEBF3FF1F6E
:1045800040E4FF1F44E4FF1FBCE5FF1FBB48007869
:10459000002819D1BA480078072815DAB948B8496F
:1045A00009780422514340580068B749B74A127845
:1045B00004235A438958FEF7C5FDB249B04A127820
:1045C00004235A4389580860AC480078012800D079
:1045D00080E0AB48007807287CDAA94800780028FA
:1045E0000BD1AB480068A849A84A127804235A4363
:1045F0008958FEF7A7FDA6490860A1480078012860
:104600000BD1A4480068A049A04A127804235A4359
:104610008958FEF797FD9F4908609948007802285D
:104620000BD19D4800689849984A127804235A4350
:104630008958FEF787FD984908609148007803285B
:104640000FD196480078FEF72DFE8F498F4A1278D9
:1046500004235A438958FEF775FD01F0CDFB8F49BD
:1046600008708748007804280FD18D480078FEF73D
:1046700019FE8549854A127804235A438958FEF762
:1046800061FD01F0B9FB864908707D480078052876
:104690000FD184480078FEF705FE7B497B4A1278EB
:1046A00004235A438958FEF74DFD01F0A5FB7D49CF
:1046B00008707348007806280CD17B48047872484B
:1046C0007249097804225143405801F095FB2018A3
:1046D0007549087069480078022878D168480078E0
:1046E000072874DA6648007800280BD16F48006804
:1046F0006549664A127804235A438958FEF722FD19
:104700006A4908605E48007801280CD1684804783E
:104710005D485E49097804225143405801F06CFB22
:104720002018634908705648007802280CD1614867
:10473000048855485549097804225143405801F0EE
:104740005BFB20185B4908804D48007803280CD19A
:1047500059480078032803D100205749087004E025
:1047600055480078401C5449087045480078042892
:104770000CD152480078032803D100204F4908701B
:1047800004E04E480078401C4C4908703C480078D2
:1047900005280AD14A480078002803D0002048495B
:1047A000087002E001204649087035480078062864
:1047B0000DD144480078002806D0002041490870F7
:1047C00005E000BF42E4FF1F01203E4908702B486E
:1047D000007803280BD1CA480078401CC8490870EB
:1047E000C7480078032802DB0020C5490870234829
:1047F000007804280BD1C3480078401CC1490870D8
:10480000C0480078062802DB0520BE490870BE4873
:10481000006801004906C90F0029F8D0BA480068AD
:1048200001000906C90F002900D099E1CD480168AF
:104830000A204143012001F072F8B34800680100EA
:104840000906C90F002900D073E1C7480078012884
:1048500000D06EE1C5480078002835D108480078BE
:10486000C3490978884203D100200549087060E1F6
:1048700003480078401C024908705AE140E4FF1FD9
:1048800041E4FF1FC0E5FF1FA4E5FF1FBCE5FF1FBC
:1048900040ECFF1F44ECFF1F00ECFF1F0AF4FF1F5A
:1048A0000BF4FF1FE6F3FF1F0EF4FF1F14ECFF1FB6
:1048B000E8F3FF1FDEF3FF1FEEF3FF1FEAF3FF1F16
:1048C00018E4FF1FA0E5FF1FAA480078002819D1AF
:1048D000A9480078072815DAA848A74909780422CA
:1048E000514340580068A649A64A127804235A4307
:1048F0008958FEF75FFCA1499F4A127804235A4366
:10490000895808609B480078012800D080E09A48C8
:10491000007807287CDA9848007800280BD19A485C
:1049200000689749974A127804235A438958FEF73A
:1049300041FC954908609048007801280BD19348C4
:1049400000688F498F4A127804235A438958FEF72A
:1049500031FC8E4908608848007802280BD18C48C9
:1049600000688749874A127804235A438958FEF71A
:1049700021FC874908608048007803280FD18548CA
:104980000078FEF78FFC7E497E4A127804235A4352
:104990008958FEF70FFC01F02FFA7E49087076481F
:1049A000007804280FD17C480078FEF77BFC74491E
:1049B000744A127804235A438958FEF7FBFB01F02E
:1049C0001BFA754908706C48007805280FD17348A8
:1049D0000078FEF767FC6A496A4A127804235A4352
:1049E0008958FEF7E7FB01F007FA6C490870624846
:1049F000007806280CD16A48047861486149097832
:104A000004225143405801F0F7F9201A6449087014
:104A10005848007802287CD157480078072878DA6F
:104A20005548007800280BD15E4800685449554A23
:104A3000127804235A438958FEF7BCFB5949086091
:104A40004D48007801280CD1574804784C484D490E
:104A5000097804225143405801F0CEF9201A5249F6
:104A600008704548007802280CD150480488444812
:104A70004449097804225143405801F0BDF9201AF5
:104A80004A4908803C48007803280CD148480078FF
:104A9000002803D103204649087004E04448007808
:104AA000401E434908703448007804280CD141481E
:104AB0000078002803D103203E49087004E03D48F7
:104AC0000078401E3B4908702B48007805280AD121
:104AD00039480078002803D000203749087002E0E8
:104AE00001203549087024480078062811D1334840
:104AF000007800280AD000203049087009E000BF83
:104B0000E9F3FF1FE7F3FF1F10F00F4001202B49CF
:104B100008701848007803280BD19C4800780028BA
:104B200002D103209949087098480078401E97499F
:104B300008701048007804280BD1A8480078401E5F
:104B4000A6490870A5480078002802D10120A34991
:104B50000870A348006801000906C90F0029F8D0B1
:104B600010BD00BF80F3FF1FECF3FF1FEBF3FF1F2F
:104B700042E4FF1F40E4FF1F41E4FF1FC0E5FF1FA9
:104B8000A4E5FF1FBCE5FF1F40ECFF1F44ECFF1F27
:104B900000ECFF1F0AF4FF1F0BF4FF1FE6F3FF1FDB
:104BA0000EF4FF1F14ECFF1FE8F3FF1FDEF3FF1FDF
:104BB000EEF3FF1FEAF3FF1F18E4FF1FA0E5FF1F3E
:104BC00080B5002001F0E8FA012803D185490020D2
:104BD00001F097FA84480078002803D183480078D0
:104BE00000284ED08048007800281FD0AF480078B9
:104BF00028280BDA7B480078AD49AC4A12788854F3
:104C0000AA480078401CA94908700FE00020A74975
:104C1000087000207449087072480078AB2805D1EC
:104C2000A34800F0B5F80120A24908706F48007849
:104C3000002800D1A1E09D480078022815DB6948D2
:104C4000007836280AD19C4800789C4908709A4818
:104C500040789A49487001209949087000206349BA
:104C6000087000209149087087E05E4800789249FA
:104C70008E4A127888548D480078401C8B49087001
:104C80007BE05848007830280CD0312812D03328E7
:104C900018D0342823D035282ED0AD2846D0AF28C0
:104CA00039D04AE083480078002802D101208149A8
:104CB000087062E0B2480078002802D10120B049B3
:104CC00008705AE0AF480078002807D07B48008879
:104CD000401C7A4908800120794908704DE0A948B4
:104CE0000078002807D075480088401E7349088066
:104CF00001207349087040E0A2480078002809D0DC
:104D00003A480078002805D1012038490870002071
:104D10006649087031E0C3480078AA2805D101200F
:104D20003149087000206149087026E0BD480078CC
:104D3000AC2801D100F0BAFE1FE02A48007805280F
:104D400015DAB048007827490978884207D3AD487A
:104D5000007824490978401AAB49087007E0A9484F
:104D60000078401D1F490978401AA74908700020A3
:104D7000524908800120524908701A480078A94910
:104D80000870002001F026FA01BD0000E9F3FF1FC2
:104D900038B50021002200231900C9B20A291CDA03
:104DA0006B46D2B2845C1C70521CD2B2835C6C46DF
:104DB0006370521CD2B2835C6C46A370521CD2B298
:104DC000835C6C46E370521C009B904CC9B2042576
:104DD0004D4364592360491CDFE731BDE7F3FF1FF2
:104DE00010F00F40F6F3FF1FFAF3FF1FF9F3FF1F58
:104DF00038B500240025002000905521C94300202B
:104E000001F0B0F95521C943002001F0ABF955215B
:104E1000C943002001F0A6F900200400E4B20A2CE6
:104E20003FDA7A48E4B204216143405800680090B8
:104E300000987749FDF7ECFF07D200987549FEF717
:104E400011FA02D80020009009E00098FEF73AFA23
:104E500075A20CCAFEF76BF8FEF743F9009068469E
:104E600000780500290049B2002001F07BF968466E
:104E700040780500290049B2002001F073F9684626
:104E800080780500290049B2002001F06BF96846DE
:104E9000C0780500290049B2002001F063F9641CC4
:104EA000BCE70A21002001F05DF931BDF8F3FF1FD6
:104EB00000EEFF1FF1F3FF1FFCEDFF1FE4F3FF1FE8
:104EC000F2F3FF1F38B50024002500200090522186
:104ED000C943002001F046F95221C943002001F0E6
:104EE00041F95221C943002001F03CF9002004009F
:104EF000E4B2142C3FDA4848E4B20421614340583C
:104F00000068009000984249FDF782FF07D20098A0
:104F10004049FEF7A7F902D80020009009E0009868
:104F2000FEF7D0F940A20CCAFEF701F8FEF7D9F857
:104F30000090684600780500290049B2002001F081
:104F400011F9684640780500290049B2002001F0B7
:104F500009F9684680780500290049B2002001F06F
:104F600001F96846C0780500290049B2002001F027
:104F7000F9F8641CBCE70D21002001F0F3F831BD05
:104F8000F3F3FF1FFDF3FF1F10B55421C9430020A9
:104F900001F0E8F85421C943002001F0E3F854215E
:104FA000C943002001F0DEF800200400E4B2962C92
:104FB00008DA1F48E4B2015D49B2002001F0D2F8DE
:104FC000641CF3E70B21002001F0CCF810BD10B5F4
:104FD000124800880C490978114A51434118154874
:104FE00001F00CFB0020040080208000844207DADE
:104FF0001048015D49B2002001F0B4F8641CF3E7E9
:1050000010BD0000FFF3FF1F00F4FF1FC0E5FF1FEE
:10501000ADC52737ACC527B700E6FF1FE4F3FF1F78
:10502000A0860100F7F3FF1F8DEDB5A0F7C6B03ED7
:1050300058EDFF1F50EEFF1F10B50823584A1268A5
:10504000802424021443564A1460554A1268554C71
:105050001440534A1460C9B2002902D00200D2B2EF
:10506000D0431A00531ED2B2002A1FD0020607D521
:105070004B4A12688024A4021443494A146005E094
:10508000474A1268484C1440454A1460444A126822
:10509000802464021443424A146000BF404A1268EC
:1050A000404C14403E4A14604000DAE710BD000056
:1050B00000B508213A4A12683C4B1340384A136045
:1050C000374A1268374B1340354A13600A00511EA5
:1050D000D2B2002A1FD0020607D5314A12688023B7
:1050E0009B0213432E4A136005E02D4A12682E4B93
:1050F00013402B4A13602A4A126880235B02134331
:10510000274A136000BF264A1268264B1340244AE0
:1051100013604000DAE700BD38B505000C00200040
:105120005038C0B2FFF7C4FF2900C9B209091020E6
:105130000843C0B2FFF7BCFF2807000FFFF7B8FF16
:1051400031BD70B5060000200400E4B2082C18DA66
:1051500020005038C0B2FFF7ABFF0020FFF7A8FFD8
:105160001020FFF7A5FF00200500EDB2802D06DA24
:1051700000213000C0B2FFF75FFF6D1CF5E7641C33
:10518000E3E770BD00B5002808D0B34A11000A005B
:10519000511E92B2002AFAD1401EF4E700BD000071
:1051A00000F00F40FFFFFEFFFFFFFDFFFF7FFFFF4F
:1051B00010B504002020FFF77BFF2000C0B2FFF7EE
:1051C00077FF10BD10B5040040202043C0B2FFF7A8
:1051D0006FFF10BD10B504008120FFF769FF2000AC
:1051E000C0B2FFF765FF10BD10B504008D20FFF7BA
:1051F0005FFF10202043C0B2FFF75AFF10BD10B56B
:105200000400A0202043C0B2FFF752FF10BD10B52C
:105210000400A4202043C0B2FFF74AFF10BD10B520
:105220000400A6202043C0B2FFF742FF10BD10B516
:105230000400A820FFF73CFF2000C0B2FFF738FFB2
:1052400010BD10B50400AE202043C0B2FFF730FF00
:1052500010BD10B50400C0202043C0B2FFF728FFE6
:1052600010BD10B50400D320FFF722FF2000C0B20C
:10527000FFF71EFF10BD10B50400D520FFF718FF83
:105280002000C0B2FFF714FF10BD10B50400D920F4
:10529000FFF70EFF2000C0B2FFF70AFF10BD10B5E8
:1052A0000400DA20FFF704FF02202043C0B2FFF71A
:1052B000FFFE10BD10B50400DB20FFF7F9FE200053
:1052C000C0B2FFF7F5FE10BD80B500210F2001F040
:1052D000B8FA0021112001F0B4FA0021102001F0E9
:1052E000B0FA00210E2001F0ACFA3220FFF74AFF9D
:1052F0000121102001F0A5FA00210E2001F0A1FAF1
:105300003220FFF73FFF01210E2001F09AFA002022
:10531000FFF797FF8020FFF7AEFF3F20FFF787FFE3
:105320000020FFF79EFF0020FFF74CFF0420FFF74F
:105330005BFF0220FFF73CFF0120FFF760FF082022
:10534000FFF787FF1020FFF7AAFFCF20FFF742FFEC
:10535000F120FFF79AFF4020FFF7ACFF0020FFF796
:1053600056FF0020FFF75BFF0120FFF76AFF0020D8
:10537000FFF7E7FE00210020FFF7CEFE01BDF8B5E4
:10538000040000270025002620002038070072486E
:105390000078002804D0FFB2002F01D001200600C1
:1053A00000200500EDB2062D0CDA3100C9B26B48C1
:1053B000FFB206227A438018EDB2405DFFF73CFE53
:1053C0006D1CEFE7F1BDF4B582B004000F000020C2
:1053D000694648700025002600206946087002983A
:1053E000F6B28057002836D068460299F6B289573F
:1053F0002039417058480078002807D06846407826
:10540000002803D001206946087002E000206946A8
:105410000870E4B27F2C02DB002004007F1C3900FE
:10542000C9B22000C0B2FFF777FE00200500EDB240
:10543000062D0DDA6846017848486A4652780623F8
:105440005A438018EDB2405DFFF7F6FD6D1CEEE7A4
:10545000A41D761CC3E7F7BD131A0000FEB50700B4
:105460000E0014003100C9B23800C0B2FFF754FE7C
:10547000002520003A49FDF754FF69464871200095
:105480003749FDF74EFF0800FA218900FDF749FF73
:10549000694608712000FA218900FDF742FF0800E3
:1054A0006421FDF73EFF6946C87120006421FDF7C5
:1054B00038FF08000A21FDF734FF69468871684605
:1054C000009020000A21FDF72CFF00980172002CAB
:1054D00004D52D20FFF753FF604204006846407951
:1054E000002807D0684640793030C0B2FFF747FF48
:1054F0000120050068460079002802D1EDB2002D98
:1055000007D0684600793030C0B2FFF738FF01207D
:1055100005006846C079002802D1EDB2002D07D001
:105520006846C0793030C0B2FFF729FF012005007E
:1055300068468079002802D1EDB2002D05D068467A
:1055400080793030C0B2FFF71AFF6846007A3030F9
:10555000C0B2FFF714FFF7BDFCF3FF1F7CB50000DE
:1055600010270000F8B504000E002E20FFF707FFFB
:105570002000FA218900FDF7D7FE69464870200017
:10558000FA218900FDF7D0FE08006421FDF7CCFE6A
:105590006946087020006421FDF7C6FE08000A2154
:1055A000FDF7C2FE070020000A21FDF7BDFE0D0039
:1055B000F6B2012E06D03DD3032E14D008D3042E0C
:1055C00022D037E028003030C0B2FFF7D8FE31E0FB
:1055D00038003030C0B2FFF7D2FE28003030C0B201
:1055E000FFF7CDFE26E0684600783030C0B2FFF706
:1055F000C6FE38003030C0B2FFF7C1FE28003030A0
:10560000C0B2FFF7BCFE15E0684640783030C0B24B
:10561000FFF7B5FE684600783030C0B2FFF7AFFE46
:1056200038003030C0B2FFF7AAFE28003030C0B2D8
:10563000FFF7A5FE2020FFF7A2FEF1BDFBB584B069
:105640001400062720000021FDF70CFE09D22000DF
:10565000FDF738FE8EA20CCAFDF769FCFDF741FD8F
:105660000400200000F0C8FB0500200000F0C4FB8F
:10567000FDF70CFE01002000FDF79CFD8649FDF7BB
:10568000F3FF00F0B9FB06006846017D6846007C28
:10569000FFF742FD20008149FDF7BAFB02D22D2021
:1056A000FFF76DFE002D01D56842050028007C49FA
:1056B000FDF737FE6946087228007949FDF731FE8B
:1056C0000800FA218900FDF72CFE6946C871280000
:1056D000FA218900FDF725FE08006421FDF721FE6F
:1056E0006946887128006421FDF71BFE08000A2125
:1056F000FDF717FE694648716846009028000A21A8
:10570000FDF70FFE009801716846007A002820D04E
:10571000052007006846007A3030C0B2FFF72FFE40
:105720006846C0793030C0B2FFF729FE68468079FC
:105730003030C0B2FFF723FE684640793030C0B247
:10574000FFF71DFE684600793030C0B2FFF717FE44
:1057500052E06846C07900281AD004200700684645
:10576000C0793030C0B2FFF70AFE68468079303029
:10577000C0B2FFF704FE684640793030C0B2FFF790
:10578000FEFD684600793030C0B2FFF7F8FD33E027
:1057900068468079002814D0032007006846807985
:1057A0003030C0B2FFF7EBFD684640793030C0B210
:1057B000FFF7E5FD684600793030C0B2FFF7DFFD46
:1057C0001AE06846407900280ED00220070068469B
:1057D00040793030C0B2FFF7D2FD684600793030F2
:1057E000C0B2FFF7CCFD07E0012007006846007952
:1057F0003030C0B2FFF7C3FD002E01D57042060065
:105800006846007EFFB2C01B002806D0022815D0D3
:1058100007D304282DD01FD337E02020FFF7AFFD9A
:1058200033E06846007EC11BC9B2009130001C49BC
:10583000FDF777FD0099FFF795FE26E06846007EAC
:10584000C11BC9B200913000FA218900FDF769FD42
:105850000099FFF787FE18E06846007EC11BC9B2B9
:10586000009130006421FDF75CFD0099FFF77AFE9E
:105870000BE06846007EC11BC9B2009130000A21CE
:10588000FDF74FFD0099FFF76DFE07B0F0BD00007A
:10589000F168E388B5F8E43E0050C347ACC527B7CC
:1058A0001027000038B504000D00002D03D124217D
:1058B0004D4801F02DF84D4800688021090401434E
:1058C0004A48016000204A490860681E494964B29C
:1058D000102262438850474864B210216143401847
:1058E000C06801210143434864B21022624380181A
:1058F000C160404864B210216143401880680121B2
:1059000088433C4964B210226243891888600320AE
:10591000384964B2102262438918886031BD38B5B5
:1059200004000D00002D03D147212F4800F0F0FFA7
:105930002E4800688021090401432C4801602C484E
:105940000068022188432A4908602A4864B210216D
:1059500061434018806801218843264964B21022BF
:10596000624389188860681E224964B2102262432B
:105970008850204864B2102161434018C06801215A
:1059800001431C4864B2102262438018C160194868
:1059900064B2102161434018806801218843154991
:1059A00064B210226243891888600120114964B2F0
:1059B00010226243891888600E4864B21021614346
:1059C0004018C068C007F7D50A4864B21021614387
:1059D0004018C06801210143064864B210226243A6
:1059E0008018C16031BD000014BD00003C8004403F
:1059F000007003400071034008B4024B9C4608BC91
:105A00006047C04617E9FF1F08B4024B9C4608BC1C
:105A10006047C04629E9FF1F08B4024B9C4608BCFA
:105A20006047C0460DEAFF1F08B4024B9C4608BC05
:105A30006047C0467DE9FF1F70B50025FFF7DCFF1A
:105A4000FF208002007806008448016864204143FA
:105A50000120FFF764FFF6B2AA2E08D0FF20FFF75F
:105A6000D3FF0020E249087000F020F81DE000207C
:105A7000DF4908700F200400002C11D4402060433F
:105A8000FF218902405C0600F6B2AA2E06D1200052
:105A9000401CD74908700120050001E0641EEBE7B7
:105AA000EDB2012D01D100F0DBF870BD70B590B002
:105AB000002468463C2100F06DFFAA20694608706A
:105AC000CB4800781021FDF72CFC491C684641703A
:105AD0000220040000200500EDB20A2D29DAB748A3
:105AE000EDB204216943405800786946E4B2085594
:105AF000641CB248EDB204216943405840786946BD
:105B0000E4B20855641CAD48EDB204216943405825
:105B100080786946E4B20855641CA848EDB20421B7
:105B200069434058C0786946E4B20855641C6D1C4E
:105B3000D2E7A34800786946E4B20855641CA0483F
:105B400040786946E4B20855641C9E48007869466E
:105B5000E4B20855641C9C4800786946E4B20855D4
:105B6000641C9A4800786946E4B20855641C984859
:105B70000068FDF7A7FB97A20CCAFDF7D8F9002231
:105B8000964BFDF728FCFDF7C9FD6946E4B20855C0
:105B9000641C934800786946E4B20855641C914837
:105BA00000786946E4B20855641C8F48007869465D
:105BB000E4B20855641C8E480078102823DA6B463E
:105BC0003C228B4800784021414389B2FF20FFF7F7
:105BD00023FF8748007840214843FF218902405C29
:105BE000C0B2AA2809D0009E320081480078402126
:105BF000414389B2FF20FFF717FF7D480078401C22
:105C00007B49087028E0FF20FFF7FEFE002078495E
:105C100008706B463C22764800784021414389B2A7
:105C2000FF20FFF7F9FE7248007840214843FF212A
:105C30008902405CC0B2AA2809D0009E32006C489C
:105C400000784021414389B2FF20FFF7EDFE68480C
:105C50000078401C6649087010B070BD80F3FF1FCB
:105C600038B50025022400200500EDB20A2D34DAF3
:105C70005F48007840214843E4B200195D49405C28
:105C800069460870641C5A48007840214843E4B2D1
:105C900000195849405C69464870641C54480078B3
:105CA00040214843E4B200195249405C694688707B
:105CB000641C4F48007840214843E4B200194D4924
:105CC000405C6946C870641C00983C49EDB20422EF
:105CD0006A43895808606D1CC7E745480078402131
:105CE0004843E4B200194349405C35490870641CDC
:105CF0003F48007840214843E4B200193D49405CE8
:105D00002F494870641C3A48007840214843E4B267
:105D100000193849405C2B490870641C34480078ED
:105D200040214843E4B200193249405C26490870DA
:105D3000641C2F48007840214843E4B200192D49E3
:105D4000405C22490870641C29480078402148437F
:105D5000E4B200192749405CC0B2FDF777F8002291
:105D6000224BFDF738FB00221C4BFDF77FF8FDF7B7
:105D7000B8F917490860641C1D4800784021484361
:105D8000E4B200191B49405C15490870641C1848AE
:105D9000007840214843E4B200191649405C11499B
:105DA0000870641C1248007840214843E4B200198E
:105DB0001049405C0C490870641C31BDC0E5FF1FF0
:105DC000DEF3FF1FEAF3FF1FE8F3FF1F0EF4FF1FD0
:105DD00000ECFF1F2D431CEBE2361A3F0000594038
:105DE0000AF4FF1F0BF4FF1FE6F3FF1F0000F03F54
:105DF000FBF3FF1FC0FB03000122D2070118090EAD
:105E00007F3910D449421F310FD4001805D2C00188
:105E10001043C84000D5D0437047C0011043C8406C
:105E200005D440427047002070470042F3D510006F
:105E3000704700000121C206D20E9140BF4A116096
:105E40007047F1B584B00F00BD4869468881694646
:105E500010200856002803D0022825D012D335E0A0
:105E6000B84800688021C9000143B648016080211C
:105E70008900012000F090FD80218900022000F0BF
:105E80008BFD23E0AF480068802109010143AD4844
