:10000000F85F0020110400001928000019280000E2
:1000100019280000192800001928000019280000DC
:1000200019280000192800001928000019280000CC
:1000300019280000192800001928000019280000BC
:1000400019280000192800001928000019280000AC
:10040000FFFFFFFFFFFFFFFFFFFFFFFFFEFFFFFFFD
:1004100062B602F0BFF8FEE7F8B504000D00022D49
:1004200002D3E068854201D30120F2BD2078012883
:1004300004D078D3032854D039D374E068082F1837
:10044000A069790A4618606A864209D00123320001
:1004500021002831607800F0C4FC002863D1666276
:10046000F805C00D2018283006787F1CA069790A8D
:1004700040180090616A88420AD001230246210098
:100480002831607800F0ADFC00284CD10098606203
:10049000F805C00D2018283000780002304306000F
:1004A000E80701D53009F2BD3005000DF2BDA069A5
:1004B000090A4618606A864209D0012332002100E9
:1004C0002831607800F08DFC00282CD1666268002D
:1004D000C005C00D2118283148780002097808436A
:1004E000F2BDA069C9094618606A864209D0012395
:1004F000320021002831607800F073FC002812D10E
:100500006662A800C005C00D21182831C878000611
:100510008A781204024348780002104309780143A4
:1005200008010009F2BD0020C043F2BD10B5020071
:10053000D469241D480A1168897800F07CFC01E028
:10054000401A241D2168241D002901D1002010BD5E
:100550008842F5D22168401810BDF8B504000D009E
:10056000E580A06801282AD02168CA68904226D276
:10057000002803D10878032802D1C869002806D1D1
:100580000020E0600889854219D2C86925E0897891
:100590000F010026F64300E0ED1B2268ADB2BD421C
:1005A0000FD301001000FFF737FFB04201D1012047
:1005B000F2BD022803D32168C9688842ECD3022027
:1005C000F2BDE060801ED168891E884201D3002000
:1005D00003E091784843116A4018290940182061C6
:1005E00020682907C90D4018283060610020F2BD3D
:1005F0000200C87E00028B7E18431278032A06D1BF
:100600000200487D0002097D084300041043704742
:100610007AB584B009680191002202E00199491C71
:100620000191019989562F29F8D05C29F6D080696B
:10063000009020220B2100F055FC00230021002017
:10064000082205E0082A61D108210B229B061B0E17
:10065000019C2456E4B2401C212C03DB2F2C01D03A
:100660005C2C07D1019D2818049D2860212C4ADAB2
:10067000042449E02E2CE5D0914247D2802C03DBA4
:100680001D0003232B43DBB2812C17DBFF2C15D07D
:10069000019D2D56EDB2401C2E00403E3F2E03D34F
:1006A000802D33DBFF2D31D0561EB1422ED2009E5D
:1006B0007454491C009C6554491CC9E7029400BF4E
:1006C00022A500E06D1C0026AE57002E01D0A642E8
:1006D000F8D10026AD57002D18D12500413D1A2D27
:1006E00004D21D0002232B43DBB209E02500613D4B
:1006F0001A2D05D21D0001232B43DBB2203CE4B2AE
:10070000009D6C54D8E70024002901D106201AE08E
:1007100000980078E52802D1052000990870082A81
:1007200000D19B009807800F012802D120001024DF
:1007300004430C201840042802D12000082404435C
:100740000098C472002006B070BD0000222A2B2C35
:100750003A3B3C3D3E3F5B5D7C7F0000F2B50400D0
:100760000846002140562F2801D05C2802D100986D
:10077000401C00900027A76000984056202814D203
:100780002000FFF7EAFE6761F2BDC17E0902827EAA
:10079000114322681278032A06D10A00417D09021A
:1007A000007D014309041143A16069462000FFF761
:1007B0002FFF002800D0B1E00025E780A0680128C5
:1007C00039D02168CA68904235D2002803D1087810
:1007D000032802D1C869002805D1E76008890028EC
:1007E00029D0C86925E089780E0106E0022822D3C5
:1007F0002168C96888421ED2AD1BADB2B54209D38B
:1008000001002068FFF708FE0021C9438842EDD1AE
:10081000012059E0E0602168801ECA68921E904263
:1008200001D3002003E08A785043096A401829095F
:100830004018206107E0022046E08A785043096AA8
:1008400040182061E58020682907C90D401828302C
:10085000606126692568686A864209D001233200F2
:1008600029002831687800F0BCFA0028D0D16E62E7
:10087000002061690A78002A25D0CA7A12070FD4AD
:100880000B23A26900251E00731E002E06D00D78D2
:100890001678AD1B521C491C002DF4D0002D13D02E
:1008A000E5886D1CADB2002D0DD0206900280AD05E
:1008B0002907C7D1401C2061E168206800290CD1BC
:1008C00000898542BEDB0420A169C97A00281DD0B9
:1008D000042823D1490721D41FE02A0983785B1E0D
:1008E0001340AFD1FFF798FD0228A4D30021C943DC
:1008F00088428DD02168CA689042E4D2E060801EB0
:10090000CA68921E904298D300209AE7490705D4FE
:100910006069C17AC90600D537E70520F2BD10B578
:10092000040001230A0021002831607800F059FA00
:10093000002801D0032010BDA848201841780902E2
:1009400000780143A648814201D0022010BD5E34E8
:10095000A448A1780904627812020A43217811435D
:10096000814208D0A17F0904627F12020A43217FDD
:100970001143814201D1002010BD012010BDF0B50E
:1009800083B002680023D356303B0A2B0FD20124D8
:1009900014573A2C0BD1921C026000200860002BE7
:1009A00008D191484468002C06D10C20EBE00020CF
:1009B0000860F6E70B20E6E00C602078002806D0FF
:1009C00060780020C046C00701D40020DBE000258D
:1009D0000020207060700020C046C00701D50320B1
:1009E000D1E0009500212000FFF799FF012814D1E4
:1009F000F321490061180A79002A0ED0C87A00064E
:100A00008A7A12040243487A00021043097A0143A9
:100A1000009100992000FFF782FF032801D10120F7
:100A2000B1E0002800D0A2E03420205C0002332195
:100A3000615C084380218900884200D097E03F2014
:100A4000205C06023E20205C06430DD14F20205C36
:100A500000064E21615C090401434D20205C000228
:100A600008434C21665C064326613820205CE07018
:100A7000012801D002287AD146433520205C0100AC
:100A8000A07074D0411E014071D13A20205C070251
:100A90003920205C07432781380768D13C20205C3F
:100AA00000023B21615C08430DD14B20205C010614
:100AB0004A20205C000408434921615C090201438B
:100AC0004820205C08433721615C09023622A25C81
:100AD000114302914BD089193A0989180191884232
:100AE00045D3401AA17800F0A6F901003FD00122B9
:100AF00001203E4B994200D302203D4B994200D346
:100B00000320891CE160009961610099029BC9186A
:100B1000A1610099019BC9182162032812D1002FFD
:100B200025D15721615C09065622A25C12040A43B2
:100B30005521615C090211435422A35C0B43E16817
:100B400089000DE0002F12D0A3699B19E6680228E6
:100B500001D1710004E071008919490832408918F7
:100B6000E3612269234BC918490A8A4201D20D2048
:100B700009E020701C480088401C1B490880E08068
:100B800065622571002003B0F0BD80B5002809D052
:100B90000168002906D00A78002A03D0CA88808814
:100BA000824201D0092002BD48780020C046C0071B
:100BB00001D5032002BD002002BD002801D00B207A
:100BC000704709484268002A01D0002313700029A9
:100BD00001D000220A704160002070472602000008
:100BE00055AA0000464154009CE9FF1FF60F000083
:100BF000F6FF0000FF010000F2B58AB0040001D149
:100C0000092037E000202060D707FF0F0022694647
:100C10000AA8FFF7B4FE05002BD107A806900A9991
:100C20006846FFF79BFD0500059E22D1002E01D1ED
:100C300006251EE0F07AC00601D5042519E0A7714B
:100C400031000098FFF7D4FC2061F07F0006B17FEF
:100C500009040143707F00020843317F0143E160D2
:100C60000020A060A061E061009820600098C0882A
:100C7000A08028000BB0F0BDFEB504001500019166
:100C80000020029908602000FFF77FFF002800D0B5
:100C90008BE0A079010661D4C00701D4072084E06D
:100CA000E068A168401AA84223D8050021E0A661A7
:100CB000A068C105C90D80208000401A854200D877
:100CC0002800019A61182031002806D003000E7810
:100CD0001670491C521C5B1EF9D10199091801912B
:100CE000A1680918A160029909680918029A11609F
:100CF0002D1A002D58D0A168C805D9D120684A0AFC
:100D000083785B1E1340DBB2002B009314D10029C3
:100D100001D1206909E0E269002A03D02000FFF731
:100D200005FC02E06169FFF777FB022812D300217E
:100D3000C943884232D0606120686269921E030014
:100D40000C331E68B61EB24204D281784A435B69F6
:100D5000D21805D1A07980210143A171022024E09D
:100D6000009BD6186F0A0DD0DA19914200D2CF1A23
:100D7000FBB232000199407800F033F800280DD121
:100D80007802AAE7A169B14291D001233200210083
:100D90002031407800F025F8002888D0A079802103
:100DA0000143A171012000E0002003B0F0BD10B5A7
:100DB000040014D02068002811D0017800290ED03A
:100DC000C188A28891420AD140780020C046C0075D
:100DD00001D5032010BD00210020216010BD092095
:100DE00010BD10B50400080011001A00002C07D136
:100DF00000F0ADF9401E8041C043C00F40B210BDAD
:100E0000042010BDF446002804D4494200F013F831
:100E1000404260474042002905D45FD000F00BF803
:100E2000404249426047494200F005F84942604764
:100E300003460B43E6D40022030A8B420BD203097C
:100E40008B4219D243088B422ED2411A00D201465E
:100E5000524110467047FF2209023FD012068B42D2
:100E600005D3121209028B4201D31212090203099F
:100E70008B4219D300E0090AC3098B4201D3CB018D
:100E8000C01A524183098B4201D38B01C01A5241CF
:100E900043098B4201D34B01C01A524103098B42D3
:100EA00001D30B01C01A5241C3088B4201D3CB00BE
:100EB000C01A524183088B4201D38B00C01A5241A1
:100EC00043088B4201D34B00C01A5241884200D3E1
:100ED000401A5241CFD201461046704708B5C0466D
:100EE000C04608BD1206130A1A43130C1A4300BF6A
:100EF000094205D0830705D00270401C491EF9D174
:100F000070470000130030B414001500103902D3EC
:100F100010393CC0FCD2490700D30CC000D504C036
:100F2000890002D30280801C002900D5027030BCE9
:100F3000704700000022DBE70022E3E780B5AA4803
:100F4000016810220A430260FF2000F032F901BD5F
:100F500070B50400A54D2E0003E0B6B2002E07D0F8
:100F60007619FF2000F025F9A042F6D1360401D110
:100F7000FF2070BD002070BD38B505000C00FE20BC
:100F8000FFF7E6FF002810D1002C06D0FF2000F06C
:100F900010F928706D1C641EF8D1FF2000F009F9CB
:100FA000FF2000F006F9002032BD012032BD70B5EF
:100FB00004000D001600FFF7C1FF8B4801681022E6
:100FC000914301604020204300F0F3F8280E00F028
:100FD000F0F82802000E00F0ECF82804000E00F0F3
:100FE000E8F8E8B200F0E5F8300000F0E2F81F247D
:100FF0008025FF2000F0DDF8284203D021004C1EA0
:101000000906F6D170BDF8B5002569460D70FFF7E9
:1010100095FF0A24FF2000F0CCF8641EFAD11424B6
:10102000714F952200210020FFF7C1FF06003868AC
:10103000102101433960FF2000F0BBF8012E56D18A
:101040006B4805708722D52149000820FFF7AFFFC4
:10105000012873D1674C8025FFF770FF3868102195
:1010600088433860772000F0A4F8002000F0A1F851
:10107000002000F09EF8002000F09BF8002000F017
:1010800098F8012000F095F81F26FF2000F091F855
:10109000284203D03000461E0006F6D1FFF74EFF6F
:1010A0003868102188433860692000F082F84020B9
:1010B00000F07FF8002000F07CF8002000F079F8C4
:1010C000002000F076F8012000F073F81F26FF20C2
:1010D00000F06FF8284203D031004E1E0906F6D109
:1010E00000280BD02000441E0004B5D109E02000E8
:1010F000441E000495D13E4805701FE0012069465A
:101100000870012200213A20FFF751FF002815D175
:10111000FF2000F04EF80400FF2000F04AF8FF2006
:1011200000F047F8FF2000F044F8FFF707FF6006E3
:1011300001D5062000E004202D490870FFF7FEFECF
:101140002849012000F05CF868460078F2BD70B5CF
:101150000500160026480078062800D04902012E16
:101160000BD11120FFF723FF04001ED1802189003D
:101170002800FFF701FF040017E001221220FFF70B
:1011800016FF802189002800FFF7F6FE040080206A
:1011900080002D18761EF6B2002E01D0002CF0D063
:1011A000012200210C20FFF702FFFFF7C7FE2000FD
:1011B00070BD10B4C92220230F490C781C4202D103
:1011C000521E08D0F9E788710C4880220B78134230
:1011D00003D1401EFAD1002000E0887910BC70478E
:1011E0000000000040420F0000F10F40FFFF000030
:1011F000B9E9FF1FFEFF000000700740D1070000A3
:10120000F2B585B04F4A8300D258049200250024DD
:101210000022D2430092002801D14B4802E001286D
:1012200005D14A480068FA21890048430190022705
:10123000AF40019805997943FFF7FDFD0600082EA0
:101240001AD2019877433900FFF7F5FD0599421A44
:1012500000D55242009FBA4205D200920295741EF8
:101260000390002A0CD000998A4205D20092029580
:10127000741E0390002A03D06D1CEDB2092DD6DB3D
:1012800002980007000F210170220A4002430498CF
:101290004270039806B0F0BDF9B581B00C0017009C
:1012A000694604200856274982008D58002818D125
:1012B000274801688022D2030A430260460D3100AC
:1012C000612000F047F83100622000F043F831005F
:1012D000632000F03FF8E00720D5012201216020C3
:1012E0001AE001281AD11A480168802212040A4320
:1012F0000260410D822000F02DF8A026F60031009A
:10130000832000F027F83100812000F023F8E00767
:1013100004D501220121842000F05AF80020002F7A
:1013200009D15021E970A87002996A46042010562C
:10133000FFF766FF02E04021E970A87003B0F0BD3E
:101340000000000084E5FF1FB4E9FF1FACE9FF1FA8
:101350003480044030B41B4A1368540D4509AC4036
:101360001C431460184A43099B00D2581F230124D0
:101370001F250540AC40A025545103409800115052
:1013800030BC704730B40F4A1368540D4509AC4067
:101390001C4314600C4A43099B00D2581F230124AC
:1013A0001F250540AC40A02554510340980010185B
:1013B0000268064B0B40E021C9001140194301604F
:1013C00030BC70473880044070E5FF1FFFF8FFFF16
:1013D00038B5224B4409A4001B590124C506ED0E63
:1013E000AC400029596902D1A143596109E0214368
:1013F0005961002A196802D1A143196001E00C4328
:101400001C6080214900FFF7A5FF31BD134A430945
:101410009B00D2580123C006C00E834000291068EB
:1014200002D19843106070470343136070470B4923
:101430004209920089580122C006C00E8240CA604B
:10144000704706494209920089580969C006C00ED2
:10145000C140C807C00F70470000000024E5FF1F0F
:1014600008B4024B9C4608BC6047C04611E4FF1F0D
:1014700008B4024B9C4608BC6047C04621E4FF1FED
:1014800008B4024B9C4608BC6047C046A9E4FF1F55
:1014900080B5A020C0014168006862B6784A11603A
:1014A000A021C901774B196080F3088880F309886F
:1014B0001068804701BD38B50A24734D01219D2075
:1014C000FFF7A4FF00219E20FFF7A0FF00219F202F
:1014D000FFF79CFF28680101091A4900012000F06C
:1014E000D3FA00219D20FFF791FF01219E20FFF7F5
:1014F0008DFF00219F20FFF789FF28680101091A4D
:101500004900012000F0C0FA00219D20FFF77EFF76
:1015100000219E20FFF77AFF01219F20FFF776FF31
:1015200028680101091A4900012000F0ADFA641E83
:10153000C4D100219D20FFF769FF00219E20FFF705
:1015400065FF00219F20FFF761FF2968C820414304
:10155000012000F099FA31BD10B54B4C01219D20BE
:10156000FFF754FF01219E20FFF750FF01219F202C
:10157000FFF74CFF2168C8204143012000F084FAA6
:1015800000219D20FFF742FF00219E20FFF73EFF34
:1015900000219F20FFF73AFF2168C8204143012026
:1015A00000F072FA01219D20FFF730FF01219E20FB
:1015B000FFF72CFF01219F20FFF728FF2168C8209B
:1015C0004143012000F060FA00219D20FFF71EFF3B
:1015D00000219E20FFF71AFF00219F20FFF716FF32
:1015E0002168C8204143012000F04EFA01219D20CE
:1015F000FFF70CFF01219E20FFF708FF01219F202C
:10160000FFF704FF2168C8204143012000F03CFAA5
:1016100000219D20FFF7FAFE00219E20FFF7F6FE35
:1016200000219F20FFF7F2FE2168C82041430120DE
:1016300000F02AFA01219D20FFF7E8FE01219E20FB
:10164000FFF7E4FE01219F20FFF7E0FE2168C8209C
:101650004143012000F018FA00219D20FFF7D6FE3B
:1016600000219E20FFF7D2FE00219F20FFF7CEFE33
:101670002168C8204143012000F006FA10BD000097
:1016800098E9FF1F08ED00E0B4E9FF1FF0B5CA4C70
:10169000A54400200190002200210420FFF798FEBD
:1016A00003210420FFF76EFEC44F39683220414306
:1016B000012000F0E9F90420FFF7C3FE012801D161
:1016C000FFF7E6FE002201219D20FFF781FE0122A7
:1016D00001219E20FFF77CFE002201219F20FFF7C1
:1016E00077FE0420FFF7ADFE0028FAD0002201218A
:1016F0000E20FFF76DFE002201210F20FFF768FE8C
:10170000002201211020FFF763FE00220121112099
:10171000FFF75EFEAA4B002201210120FFF7BCFD6E
:1017200000F060FAABA20021002000F001FBFFF7FF
:10173000C2FEFFF795FEFFF766FC002800D131E1FD
:10174000A9A20121002000F0F3FA8DA90020FFF7E3
:1017500034FA002800D02BE1012200BFA7A105A880
:10176000FFF74AFA002800D018E100BFA5A2022125
:1017700000F0DEFAA8A20321002000F0D9FA914C73
:1017800008982100FFF757FB3030C0B200F09EFAF6
:10179000FA26B60008982100FFF74DFB080031003B
:1017A000FFF749FB3030C0B200F090FA08983100E2
:1017B000FFF741FB08006421FFF73DFB3030C0B26A
:1017C00000F084FA08986421FFF735FB08000A212D
:1017D000FFF731FB3030C0B200F078FA08980A21E8
:1017E000FFF729FB3031C8B200F070FA202000F07A
:1017F0006DFA4B2000F06AFA422000F067FA00BF51
:1018000089A20421002000F093FA3968700841434E
:10181000012000F039F90898810A03918005800DB4
:101820000090A027FF011836674D20E0641C427825
:101830004B789A4248D1641C891C801CB4423FDB1F
:10184000B4423AD10198642148430399FFF7F3FA6F
:10185000C2B20421462000F0D1FB202000F036FA6D
:10186000252000F033FA0198401C0190BF1901981F
:101870000399884234D29F20FFF7D9FD0198143094
:101880006946088168460089FFF7F2FD04AB320023
:10189000290005A8FFF7F0F9002807D065A2042168
:1018A000002000F045FAFFF757FEFEE72B0032005C
:1018B000002168460089FFF7E3FD00243800290075
:1018C00002780B789A42B1D068460089FFF7D0FDC4
:1018D0002B003200002168460089FFF7D1FDAFE7F9
:1018E0000098002841D00E461436B0B2FFF7C0FD74
:1018F00004AB009A290005A8FFF7BEF9002807D01D
:101900004CA20421002000F013FAFFF725FEFEE7A9
:101910002B00009A92B20021B0B2FFF7B1FD0398FC
:10192000143087020DE0395D027891420CD0B0B2DC
:10193000FFF79EFD2B008022D2000021B0B2FFF7FE
:101940009FFD0024280001E0641C401C00998C428B
:10195000E9DBF6D164220421462000F04FFB202071
:1019600000F0B4F9252000F0B1F900BF35A205213F
:10197000002000F0DDF900BF36A20621002000F0B3
:10198000D7F9FFF798FD05A8FFF711FABFF34F8FBE
:101990000E480F490860BFF34F8FFEE731A20221C6
:1019A000002001E033A2012100F0C2F9FFF7D4FDCD
:1019B000FFF76EFDFEE70000A4FBFFFFB4E9FF1F89
:1019C000400D03001027000098E5FF1F0400FA05F2
:1019D0000CED00E0426F6F744C6F616465722045DE
:1019E0006E746572656421005344204465746563B8
:1019F0007420537563636565642100006170702E07
:101A000062696E0042696E6172792066696C652058
:101A100066696E640000000053697A65206F662075
:101A200066696C653D00000050726F6772616D6998
:101A30006E673A0046696C65207265616420657264
:101A4000726F720050726F6772616D2053756363BD
:101A5000656564004A756D70696E6720746F2061FA
:101A60007070000043616E27742066696E642066A2
:101A7000696C650053442044657465637420466155
:101A8000696C65642100000010B4124A1368802458
:101A900024041C431460104A13680224A3431360F7
:101AA0000E4A00011018826801239A438260491E81
:101AB00001600121C2680A43C26082689A43826061
:101AC0008160C2680A40FCD0C2681143C16010BC8A
:101AD000704700003C8004400070034000710340E8
:101AE00030B408228E4B1C68150325431D608D4CB5
:101AF00025401D60002900D0C043521E196805060C
:101B000003D58025AD020D4301E0874D0D401D60DA
:101B1000196880256D020D431D6000BF00BF00BF26
:101B200000BF00BF1968214019604000002AE4D1BD
:101B300030BC7047F0B47A490A687C4B13400B60A4
:101B4000784A13400B600825AB0380246D1E0E6895
:101B5000204202D01E430E6002E0734F37400F60F8
:101B60000E6880277F0237430F6000BF00BF00BFB1
:101B700000BF00BF0E6816400E604000002DE5D18A
:101B8000F0BC704710B5040008005038C0B2FFF731
:101B9000D1FF210910200843FFF7CCFF2007000FD9
:101BA00018E070B50600002420005038C0B2FFF7DE
:101BB000C1FF0020FFF7BEFF1020FFF7BBFF80250D
:101BC00000213000FFF78CFF6D1EF9D1641C082C3A
:101BD000EADB70BDFFF7AEFF10BD01430800FFF761
:101BE000A9FF01BD80B500210F20FFF70FFC0021E8
:101BF0001120FFF70BFC00211020FFF707FC00214C
:101C00000E20FFF703FC01211020FFF7FFFB00214E
:101C10000E20FFF7FBFB01210E20FFF7F7FBAE20A4
:101C2000FFF788FFD520FFF785FF8020FFF782FFB1
:101C3000A820FFF77FFF3F20FFF77CFFD320FFF7AF
:101C400079FF0020FFF776FF4020FFF773FF8D201C
:101C5000FFF770FF1420FFF76DFF2020FFF76AFFEA
:101C60000220FFF767FFA120FFF764FFC820FFF7FE
:101C700061FFDA20FFF75EFF1220FFF75BFF812094
:101C8000FFF758FFCF20FFF755FFD920FFF752FF8E
:101C9000F120FFF74FFFDB20FFF74CFF4020FFF75D
:101CA00049FFA420FFF746FFA620FFF743FFAF2020
:101CB000FFF740FF0020FFF774FFB020FFF73AFF67
:101CC0001020FFF737FF002089E7000038B5002417
:101CD0002038C0B23E490978002902D0002800D03F
:101CE000012400BF3BA14200101840000D18210044
:101CF0002878FFF7F5FE21006878FFF7F1FE210054
:101D0000A878FFF7EDFE2100E878FFF7E9FE210053
:101D10002879FFF7E5FE21006879FFF7E1FE31BD84
:101D200000F00F40FFFFFEFFFFFFFDFFFF7FFFFF03
:101D3000F7B50400002738E00026E4B27F2C05DB6D
:101D4000002468460079401C69460871684600799D
:101D50005038C0B2FFF7EEFE210910200843FFF70C
:101D6000E9FE2007000FFFF7E5FE00BF19A069009C
:101D700049194900451831002878FFF7B1FE3100B4
:101D80006878FFF7ADFE3100A878FFF7A9FE3100B3
:101D9000E878FFF7A5FE31002879FFF7A1FE3100B2
:101DA0006879FFF79DFEA41D7F1C0298FFB2C557FE
:101DB000002D0AD0203DEDB2054800780028BBD0A8
:101DC0006E1EB641F643F60FB7E703B0F0BD000054
:101DD000B8E9FF1F0000000000000000002F000015
:101DE00000000700070000147F147F1400242A7FDE
:101DF0002A1200626408132300364955225000005D
:101E00000503000000001C224100000041221C00CC
:101E10000014083E08140008083E0808000000A04E
:101E2000600000080808080800006060000000204A
:101E300010080402003E5149453E0000427F400028
:101E4000004261514946002141454B3100181412AE
:101E50007F10002745454539003C4A49493000017B
:101E60007109050300364949493600064949291ECA
:101E7000000036360000000056360000000814222C
:101E8000410000141414141400004122140800022C
:101E90000151090600324959513E007C1211127C51
:101EA000007F49494936003E41414122007F41417E
:101EB000221C007F49494941007F09090901003E70
:101EC0004149497A007F0808087F0000417F4100AE
:101ED000002040413F01007F08142241007F404024
:101EE0004040007F020C027F007F0408107F003E0C
:101EF0004141413E007F09090906003E4151215EF2
:101F0000007F091929460046494949310001017FEE
:101F10000101003F4040403F001F2040201F003F84
:101F20004038403F00631408146300070870080736
:101F300000615149454300007F414100000204080F
:101F40001020000041417F00000402010204004013
:101F500040404040000001020400002054545478E6
:101F6000007F484444380038444444200038444406
:101F7000487F00385454541800087E0901020018A4
:101F8000A4A4A47C007F080404780000447D4000E1
:101F9000004080847D00007F102844000000417FC5
:101FA0004000007C04180478007C080404780038A1
:101FB0004444443800FC242424180018242418FC29
:101FC000007C0804040800485454542000043F4492
:101FD0004020003C4040207C001C2040201C003C55
:101FE0004030403C004428102844001CA0A0A07CA5
:101FF000004464544C44141414141414F0B583B005
:102000001500FFF7BFFD00242C4E28003100FEF71D
:102010000FFFC0B20190FA27BF0028003100FEF781
:1020200007FF08003900FEF703FFC0B20090280048
:102030003900FEF7FDFE08006421FEF7F9FEC7B285
:1020400028006421FEF7F4FE08000A21FEF7F0FEE6
:10205000C6B228000A21FEF7EBFEC9B20291002D9C
:1020600002D52D20FFF732FE0198000605D0019819
:102070003030C0B2FFF72AFE01240098204300064A
:1020800005D000983030C0B2FFF720FE01243C4359
:1020900001D1002004E03037F8B2FFF717FE01202D
:1020A000304303D03036F0B2FFF710FE02983030E4
:1020B000C0B2FFF70BFE03B0F0BD00001027000018
:1020C000020074489100405A521E0C2A00D37047F7
:1020D00010B5792801DA002146E0F12801DA012162
:1020E00042E0FF226A32904201DA02213CE078327B
:1020F000904201DA032137E07832904201DA04217C
:1021000032E07832904201DA05212DE078329042B7
:1021100001DA062128E07832904201DA072123E033
:102120007832904201DA08211EE07832904201DADA
:10213000092119E07832904201DA0A2114E078325C
:10214000904201DA0B210FE07832904201DA0C2143
:102150000AE07832904201DA0D2105E078329042AF
:1021600001DA0E2100E00F214B4C21702178491C2F
:10217000FEF75EFE81B2292901DA002042E05129F2
:1021800001DA01203EE0792901DA02203AE0A129B2
:1021900001DA032036E0C92901DA042032E0F1290E
:1021A00001DA05202EE0FF201A30814201DA0620F4
:1021B00028E02830814201DA072023E028308142DC
:1021C00001DA08201EE02830814201DA092019E0F6
:1021D0002830814201DA0A2014E02830814201DAF5
:1021E0000B200FE02830814201DA0C200AE0283071
:1021F000814201DA0D2005E02830814201DA0E200B
:1022000000E00F20607010BD70B50400FFF758FFAC
:102210002248416B420D0A4342631F490A78120764
:1022200049780904E023DB020B40134303648C214B
:102230001B4A11701B4924224A70BA220A701022CC
:102240008B791342FCD10C228B791340082BFAD1E5
:10225000104BA4001B191F259C782C400C714024A6
:10226000DE78354025434D7120258E792E42FCD0F5
:102270008D792542FCD002240C708C7914400C2CF2
:10228000FBD10168802252020A4302601888C0B262
:1022900070BD000038E5FF1F6CE5FF1F048004409F
:1022A0000050064000400640F2B584B005006B487F
:1022B0000290002D03D0022D4AD00FD357E068487A
:1022C000016B020D0A430263450D29000120FFF74F
:1022D00041F829000220FFF73DF84AE06048016B11
:1022E000C20C0A430263C024A40021004320FFF76C
:1022F00031F821004420FFF72DF85A48A90045186D
:102300002868C178F3220A40C270002029688870CA
:1023100055480068FA218900484304990901FEF7ED
:102320008AFD84B280208001844200DB441E28683C
:102330000178E0220A40E104C90E114301702868C7
:1023400044702868C1780C220A43C27005B0F0BD01
:102350004348016B802252010A430263C024A40057
:1023600021006220FEF7F6FF21006320C3E7002D65
:10237000C3D13B4801683D4A0A40026001683C4ABB
:102380000A4302603B4DE878F3210140E9700020E8
:10239000A8703948006839494843C10F08184010EF
:1023A0000190042601980499721C5143FEF743FDE5
:1023B00087B2390080208001814236DA701C039098
:1023C0000198039A5143FEF736FD0499411A0129F9
:1023D00002DB0499401A00E0484280B200281CD079
:1023E0000299884202DA02903C0000967F1CBFB23C
:1023F000390080208001814217DA0198039A514305
:10240000FEF719FD0499411A012902DB0499401ACB
:1024100000E0484280B2002802D13C00009608E06B
:102420000299884201DA3C000096761CF6B2212E11
:10243000B8DB2878E0211F22084023041B0E13403C
:1024400003432B706C70A87A0140009802400A4345
:10245000AA72E8780C210143E97077E7FFFF0000DA
:10246000048004408CE5FF1FB4E9FF1FFFFFFFF36A
:102470000000010400A00640A8E9FF1F40420F0031
:10248000802042490A780242FCD0F0200870704750
:1024900038B4810200913D490922CA716A46927896
:1024A0008A716A4652784A716A4612780A71F02235
:1024B0000A7080230C781C42FCD071240D782542D0
:1024C00001D0002026E0002823D1314800900020D0
:1024D0008871684640784871684600780871012024
:1024E000C0430090FF20C8726846807888726846B2
:1024F000407848726846007808720620C8710A70F1
:1025000008781842FCD008780440601E8041C00F53
:1025100000E0012032BC7047FCB40C0011001D002B
:1025200080020019009019480622C271002671220B
:102530008023F02404E0009F3F1D00972D1D361DD1
:102540008E421FD26F46BF7887716F467F78477182
:102550006F463F7807712F68019701AFFF78C77208
:1025600001AFBF78877201AF7F7847726F463F79BE
:102570000772047007781F42FCD007781742DAD040
:10258000002000E00120F6BC70470000000002407F
:102590000C04000080B500F069F800F02BF800F0A2
:1025A00003F8FFF773F8FEE738B5082022490A78E8
:1025B000024202D00A7810430870204C0B20FFF72B
:1025C00023FE20601E4D2968090F491CFEF733FCCD
:1025D000A060FA2189004843606029684903490FD7
:1025E000491CFEF728FCE060E12149020020FFF7CA
:1025F0005BFE31BD10B51349134C8C4204D08222CE
:10260000D200200000F054F8200000F06BF80F49D1
:102610000F48421A02D00F4800F036F80E480F4912
:10262000091A01D0FEF786FC0D490E48421A02D065
:102630000D4800F029F810BD02D00740A8E9FF1F9F
:10264000448004400000000000E0FF1FF02600006E
:102650006427000024E5FF1F98E5FF1FBCE9FF1F6A
:10266000802400009425000010E4FF1F0548016845
:10267000034A116001680C22914301607047000019
:10268000A4E9FF1F00810440124207D08B0706D047
:102690000B78491C0370401C521EF7D87047830703
:1026A00006D00B78491C0370401C521EF9D17047AC
:1026B00070B4103A03D378C9103A78C0FBD25307EC
:1026C00001D318C918C001D508C908C0D20704D35E
:1026D0000B880380891C801C002A01D50B780370AD
:1026E00070BC7047014908607047000008ED00E0C9
:1026F00000F00FF840F00FF880F00FF8C0F00FF87E
:1027000000F10FF800000A1D300003004000020035
:10271000420003094400030A480002035000020675
:1027200060000100800002188800010A9400010D79
:10273000C800011ADC00011F0001000000900440E5
:1027400000A0044000B0044000C0044000D0044099
:10275000006007400070074000A0064000B006403F
:1027600000C0064030B4012100220368001D002B88
:102770000BD00468001D0C4202D04D466D1E64193A
:102780002260241D1B1FF0D0FAE730BC7047000008
:1027900010B5074979441831064C7C44163404E0DE
:1027A000081D0A68891888470100A142F8D110BDA8
:1027B0000800000014000000ADFFFFFF240400002B
:1027C00098E5FF1F000000000120C046002801D04E
:1027D000FFF7DEFF0020C046C046FEF757FF00F0BF
:1027E00000F880B500F002F801BD00000746384649
:1027F00000F002F8FBE7000080B5C046C046024A80
:1028000011001820ABBEFBE726000200C046C04600
:0A281000C046C046FFF7D8FF70472E
:040000050000280DC2
:00000001FF
