:10000000F8FF002011040000EDDF000081D60000A1
:10001000EDDF0000EDDF0000EDDF0000EDDF0000B0
:10002000EDDF0000EDDF0000EDDF0000EDDF0000A0
:10003000EDDF0000EDDF00000DD700007FD60000EF
:10004000D5D30000EDDF0000EDDF0000EDDF0000A4
:10005000EDDF0000EDDF0000EDDF0000EDDF000070
:10006000EDDF0000EDDF0000EDDF0000EDDF000060
:10007000EDDF0000EDDF0000EDDF0000EDDF000050
:10008000EDDF0000EDDF0000EDDF0000EDDF000040
:10009000EDDF0000EDDF0000EDDF0000EDDF000030
:1000A000EDDF0000EDDF0000EDDF0000EDDF000020
:1000B000EDDF0000EDDF0000EDDF0000EDDF000010
:1000C000EDDF0000EDDF0000EDDF0000EDDF000000
:1000D000EDDF0000EDDF0000EDDF0000EDDF0000F0
:1000E000EDDF0000EDDF0000EDDF0000EDDF0000E0
:1000F000EDDF0000EDDF0000EDDF0000EDDF0000D0
:10010000EDDF0000EDDF0000EDDF000053D5000063
:10011000EDDF0000EDDF0000EDDF0000EDDF0000AF
:10012000EDDF0000EDDF0000EDDF0000EDDF00009F
:10013000EDDF0000EDDF00000FD7000011D7000059
:10014000EDDF0000EDDF0000EDDF0000EDDF00007F
:10015000F5D30000EDDF0000EDDF0000EDDF000073
:10016000EDDF0000EDDF0000EDDF0000EDDF00005F
:10017000EDDF0000EDDF0000EDDF0000EDDF00004F
:10018000EDDF0000EDDF0000EDDF0000EDDF00003F
:10019000EDDF0000EDDF0000EDDF0000EDDF00002F
:1001A000EDDF0000EDDF000055D30000EDDF0000C3
:1001B000EDDF0000EDDF0000EDDF0000EDDF00000F
:1001C000EDDF0000EDDF0000EDDF0000EDDF0000FF
:1001D000EDDF0000EDDF0000EDDF0000EDDF0000EF
:1001E000EDDF0000EDDF0000EDDF0000EDDF0000DF
:10040000FFFFFFFFFFFFFFFFFFFFFFFFFEFFFFFFFD
:1004100062B64FF000004FF000014FF000024FF0C5
:1004200000034FF000044FF000054FF000064FF0BE
:1004300000074FF000084FF000094FF0000A4FF09E
:10044000000B4FF0000C0BF0AFF8FEE730B40300E8
:100450000C0015006A1E002D04D025781D70641C48
:100460005B1CF6E730BC704710B403001400621E3A
:10047000002C02D019705B1CF8E710BC704770B4F8
:1004800003001C000D0000201600721E002E06D076
:1004900020782E78801B6D1C641C0028F4D070BC62
:1004A00070470278002A04D002788A4201D0401CAA
:1004B000F7E700787047F8B504000D00E06A060021
:1004C000AE4232D02079002821D00123320014F12D
:1004D0003001607801F0F4FD002801D0012025E012
:1004E00000202071206AE169081886420FD2E07866
:1004F0000700FFB2022F0AD3E069861901233200F8
:1005000014F13001607801F0DBFD7F1EF1E7002D72
:100510000BD001232A0014F13001607801F035FD81
:10052000002801D0012001E0E5620020F2BD38B5CD
:10053000040000212000FFF7BEFF0500EDB2002DF2
:100540005ED12078032852D1607900284FD0002056
:10055000E0624FF40072002114F13000FFF784FFD5
:10056000552084F82E02AA2084F82F02522084F805
:100570003000522084F83100612084F8320041209C
:1005800084F83300722084F81402722084F8150273
:10059000412084F81602612084F81702206984F84B
:1005A0001802206980B2000A84F819022069000C40
:1005B00084F81A022069000E84F81B02E06884F8AF
:1005C0001C02E06880B2000A84F81D02E068000C9A
:1005D00084F81E02E068000E84F81F02012362699D
:1005E00014F13001607801F06BFD00206071002291
:1005F0000021607801F0F8FD002801D001200500FD
:100600002800C0B232BD0200891E9069801E81425E
:1006100001D3002003E09078926A00FB012070472C
:100620002DE9F04104000D00022D02D3A06985429E
:1006300001D3012073E02078012804D06DD3032872
:100640004BD031D369E0A84618EB5808206A10EB6C
:1006500058212000FFF72FFF00285ED14FF40070D3
:10066000B8FBF0F101FB1081081990F8300006008A
:1006700018F10108206A10EB58212000FFF71BFF3A
:1006800000284AD14FF40070B8FBF0F101FB108153
:10069000081990F8300056EA0026E80701D530091D
:1006A00001E03005000D3AE0206A10EB1521200032
:1006B000FFF701FF002830D168004FF40071B0FB54
:1006C000F1F202FB1102101900F2300007007878F5
:1006D000397851EA002080B221E0206A10EBD51170
:1006E0002000FFF7E8FE002817D1A8004FF40071A2
:1006F000B0FBF1F202FB1102101900F2300007000A
:10070000F878B978090451EA0060797850EA012054
:10071000397808430001000901E05FF0FF30BDE8CF
:10072000F0812DE9F84304000D001600022D02D3DC
:10073000A069854202D302208146A6E020780128E4
:1007400005D0C0F09E80032870D050D399E02F00D0
:1007500017EB5707206A10EB57212000FFF7ABFE7D
:1007600081465FFA89F9B9F1000F40F08C804FF4AF
:100770000070B7FBF0F101FB1071081900F23000B6
:1007800080462800C00706D598F8000010F00F003A
:1007900050EA061000E0300088F800007F1C0120BD
:1007A0002071206A10EB57212000FFF784FE81465C
:1007B0005FFA89F9B9F1000F65D14FF40070B7FB0A
:1007C000F0F101FB1071081900F23000804628009A
:1007D000C00701D5300907E098F8000010F0F000DC
:1007E000310A11F00F01084388F800004BE0206A3D
:1007F00010EB15212000FFF75EFE81465FFA89F9B4
:10080000B9F1000F3FD168004FF40071B0FBF1F275
:1008100002FB1102101900F23000804688F80060D7
:10082000300080B2000A88F801002CE0206A10EB4A
:10083000D5112000FFF73FFE81465FFA89F9B9F133
:10084000000F20D1A8004FF40071B0FBF1F202FBC1
:100850001102101900F23000804698F803000006DB
:1008600010F07040064388F80060300080B2000A43
:1008700088F80100300C88F80200300E88F8030078
:1008800001E002208146012020714846C0B2BDE847
:10089000F283F8B504000D00022D02D3A069854251
:1008A00002D3022006002AE000200600A06985424B
:1008B00025D229002000FFF7B3FE0700002F1ED02D
:1008C000012F02D10220060019E017F1010F02D119
:1008D0000120060013E0002229002000FFF721FF7D
:1008E0000600F6B2002E0AD1206910F1010F04D0E3
:1008F0002069401C2061012060713D00D6E7300076
:10090000C0B2F2BD2DE9F84304000D00002D0AD15C
:10091000E0688046B8F1000F02D0A069804511D38D
:10092000012080460EE029002000FFF779FE060036
:10093000022E01D2012051E0A069864201D230008E
:100940004CE0A84647467F1CA069874205D3022099
:100950000700B84501D2002040E039002000FFF731
:100960005FFE0600002E0CD17FF07042390020009F
:10097000FFF7D7FE81465FFA89F9B9F1000F13D16D
:100980000AE016F1010F01D0012E01D1300025E05F
:100990004745D8D1002021E0002D05D03A0029009C
:1009A0002000FFF7BEFE81465FFA89F9B9F1000F1A
:1009B0000AD1E760206910F1010F0ED02069401EB6
:1009C00020610120607108E05FFA89F9B9F1010F37
:1009D00002D15FF0FF3700E001273800BDE8F28365
:1009E000F8B504000D00E580A0680600012E03D0D4
:1009F00020688069864201D302204CE0002E06D197
:100A000020680078032802D12068406A0600002E82
:100A10000ED1E66020680089ADB2854201D3022084
:100A200039E02068406AADB210EB1510206125E076
:100A30002068807880B200010700ADB2BFB2BD422D
:100A400013D331002068FFF7EBFD060016F1010F0C
:100A500001D101201FE0022E03D320688069864265
:100A600001D3022017E0ED1BE7E7E66031002068C4
:100A7000FFF7C9FDADB210EB15102061ADB210202B
:100A8000B5FBF0F101FB1051206810EB411000F2B2
:100A9000300060610020F2BD2DE9F04104000F003C
:100AA000E088401C0600B6B2002E02D02069002863
:100AB00001D104208FE0B6B21020B6FBF0F101FBAB
:100AC0001061002979D12069401C2061E06800286C
:100AD00006D120680089B6B286426ED304207AE03F
:100AE000B6B2300921688978491E084265D1E168AB
:100AF0002068FFF795FD0500022D01D202206AE073
:100B000015F1010F01D1012065E02068806985425F
:100B10004DD3002F01D104205DE0E1682068FFF78C
:100B2000F1FE0500002D01D1072054E0012D01D177
:100B3000022050E015F1010F01D101204BE000210E
:100B40002068FFF7B8FC002801D0012043E04FF4F3
:100B50000072002120683030FFF786FC29002068F1
:100B6000FFF751FD2168C862002080462068807828
:100B70005FFA88F8804512D22068012101710021B6
:100B80002068FFF798FC002801D0012023E02068AE
:100B9000C06A401C2168C86218F10108E6E72068B5
:100BA000C06A5FFA88F8B0EB08002168C862E560A7
:100BB00029002068FFF727FD2061E680B6B21020EB
:100BC000B6FBF0F101FB1061206810EB411000F260
:100BD000300060610020BDE8F081F8B5040000211C
:100BE0002000FFF7FDFE0700FFB2002F02D0380003
:100BF000C0B225E021692068FFF75DFC0700FFB265
:100C0000002F1BD16069060030780500EDB2002D81
:100C100002D10420070011E0F07A000706D40B226D
:100C2000A1693000FFF72BFC002807D0002120002D
:100C3000FFF732FF0700FFB2002FDBD03800C0B251
:100C4000F2BDF8B5040000212000FFF7C9FE050041
:100C5000EDB2002D19D121692068FFF72CFC0500A9
:100C6000EDB2002D11D1606900780600F6B2E52ED4
:100C700002D0F6B2002E00D107E001212000FFF7DC
:100C80000BFF0500EDB2002DE5D0EDB2002D16D121
:100C900021692068FFF70FFC0500EDB2002D0ED191
:100CA00060690700202200213800FFF7DDFB0B22DE
:100CB000A1693800FFF7CAFB2068012101712800F3
:100CC000C0B2F2BD2DE9F34F81B0029800688346AF
:100CD0009BF800002F2803D09BF800005C2802D16D
:100CE0001BF1010BF4E70198806907000B2220211A
:100CF0003800FFF7B9FB00200400C0B282468146ED
:100D00000820804619F80B00050019F10109EDB221
:100D1000212D05D3EDB22F2D02D0EDB25C2D07D1E0
:100D200019EB0B0002990860EDB2212D61D25EE053
:100D3000EDB22E2D01D0C2450DD3B8F1080F02D16E
:100D4000EDB22E2D01D0062072E0082082460B2045
:100D50008046A400D6E7EDB2802D01D354F0030401
:100D6000EDB2812D22D3EDB2FF2D1FD219F80B0069
:100D7000060019F10109F6B2402E02D3F6B27F2E19
:100D800005D3F6B2802E06D3F6B2FF2E03D2B8F109
:100D90000100824501D306204AE00AF807501AF103
:100DA000010A0AF807601AF1010AABE7EDB229005F
:100DB000DFF83006FFF775FB002801D0062037E08A
:100DC000EDB2412D05D3EDB25B2D02D254F00204F9
:100DD00008E0EDB2612D05D3EDB27B2D02D254F0C7
:100DE0000104203D0AF807501AF1010A8AE7042598
:100DF00000E00025BAF1000F01D1062018E0387894
:100E0000E52801D105203870B8F1080F00D1A40001
:100E1000E4B214F00300012801D155F01005E4B24A
:100E200014F00C00042801D155F00805FD720020D3
:100E3000BDE8FE8FF2B50400009800782F2803D09B
:100E4000009800785C2802D10098401C0090002097
:100E5000A06000980078202807D200212000FFF72A
:100E6000BFFD05000020606131E000A92000FFF710
:100E700029FF0500EDB2002D29D12000FFF7ADFEBE
:100E80000500A069C07A0700EDB2002D07D0EDB2D1
:100E9000042D1CD1780701D40520050017E0780740
:100EA00015D460690600F07AC00602D4052005005A
:100EB0000DE0707D317D51EA002080B2F17EB27E7E
:100EC00052EA012189B251EA0040A060CDE7280032
:100ED000C0B2F2BD38B504000D0001232A0014F1A0
:100EE0003001607801F051F8002801D003202DE096
:100EF00094F82F0294F82E1251EA00204AF6552158
:100F000080B2884201D0022020E094F8680094F872
:100F10006710090251EA004094F866100843DFF8B0
:100F2000C814884201D1002010E094F8840094F89D
:100F30008310090251EA004094F882100843DFF858
:100F4000A814884201D1002000E0012032BD2DE923
:100F5000F74F86B00698D0F8009099F80000303826
:100F6000019001980A2809D299F801003A2805D180
:100F700019F102090698C0F8009001E000200190E4
:100F80000198002801D00B20F8E10198DFF85C14EB
:100F900051F82000824607990860BAF1000F01D18C
:100FA0000C20EBE19AF80000002815D09AF8010017
:100FB00001F077F98DF800009DF80000C0070BD410
:100FC0009DF82000002805D09DF80000400701D5BD
:100FD0000A20D3E10020D1E100208AF80000019826
:100FE0008AF801009AF8010000F01CFE8DF800005C
:100FF0009DF80000C00701D50320BFE19DF8200047
:10100000002805D09DF80000400701D50A20B5E171
:1010100000218B465046FFF75DFF0400E4B2012C2F
:1010200023D100200600F6B2002E00D0761EF6B2C4
:101030001AEB061000F2EE100290029800790028D8
:1010400013D00298C07A0299897A090451EA0060A3
:101050000299497A50EA01200299097A08438346A5
:1010600059465046FFF736FF0400E4B2032C01D185
:10107000012083E1E4B2002C01D00D207EE19AF83A
:101080003C009AF83B1051EA00204FF4007180B206
:10109000884201D00D2071E19AF847009AF8461075
:1010A00051EA002080B20700002F0ED19AF85700B5
:1010B0009AF85610090451EA00609AF8551050EA5F
:1010C00001209AF8541008430700CAF81C709AF8D7
:1010D000400005008AF80300EDB2012D04D0EDB206
:1010E000022D01D00D2049E1EDB26F439AF83D0089
:1010F00005008AF80200EDB2002D04D0691E280018
:10110000C0B2084201D00D2038E19AF842009AF8A6
:10111000411051EA0020AAF80800BAF8080010218E
:10112000B0FBF1F202FB1102002A01D00D2025E1F3
:101130009AF844009AF8431051EA002080B20490D3
:10114000049800280ED19AF853009AF85210090416
:1011500051EA00609AF8511050EA01209AF85010B4
:10116000084304909AF83F009AF83E1051EA002094
:10117000ADF80200BDF80200002801D10D20FDE00D
:10118000BDF8020017FA80F0BAF8081010EB111041
:10119000059004980599884201D20D20EEE004984C
:1011A0000599401A9AF80210B0FBF1F003900398E9
:1011B000002801D10D20E1E001200400039840F651
:1011C000F671884201D30220040003984FF6F671AD
:1011D000884201D3032004000398801CCAF8180039
:1011E000059810EB0B00CAF82800BDF802001BFAA6
:1011F00080F0CAF82000E4B2032C1AD1BAF8080033
:10120000002801D00D20B9E09AF85F009AF85E102E
:10121000090451EA00609AF85D1050EA01209AF83A
:101220005C100843CAF82400DAF8180080008046F1
:101230001CE0BAF80800002801D10D209EE0DAF881
:1012400020003818CAF82400E4B2022C04D1DAF8DD
:1012500018005FEA400809E0DAF818000321484363
:101260009AF8181011F0010111EB5008DAF81C007F
:1012700008F2FF11B0EB512F01D20D207EE05FF09C
:10128000FF30CAF810000020CAF80C00E4B2032CAA
:1012900064D100208AF805009AF861009AF860107D
:1012A00051EA00201BFA80F0CAF814000123DAF892
:1012B00014201AF130019AF8010000F066FE0028AF
:1012C0004CD19AF82F029AF82E1251EA00204AF6D1
:1012D000552180B2884241D19AF833009AF83210F1
:1012E000090451EA00609AF8311050EA01209AF896
:1012F000301008433E49884230D19AF817029AF8D4
:101300001612090451EA00609AF8151250EA0120F9
:101310009AF814120843374988421FD19AF81F02DD
:101320009AF81E12090451EA00609AF81D1250EA58
:1013300001209AF81C120843CAF80C009AF81B0204
:101340009AF81A12090451EA00609AF8191250EA40
:1013500001209AF818120843CAF810008AF80040D1
:1013600025480088401C24490880AAF8060000206F
:10137000CAF82C0000208AF80400002009B0BDE85B
:10138000F08F38B504000D00002C06D0207800281E
:1013900003D0E088ADB2A84201D0092007E0607810
:1013A00000F07FFFC00701D5032000E0002032BD20
:1013B0000200D2B2012A01D30B2011E0D2B20B48B5
:1013C00050F822000300002B01D0002018700029E3
:1013D00001D000200870D2B2044840F8221000204A
:1013E00070470000DCE2000046415400046FFF1F1C
:1013F00052526141727241610872FF1F2DE9F2433E
:101400008AB0040017000020206017F01F0717F0B3
:10141000FE0200A90AA8FFF79AFD050007A806909A
:10142000EDB2002D04D10A9900A8FFF703FD0500D5
:1014300005980600EDB2002D03D1002E01D1062043
:1014400005001C20074267D0EDB2002D0BD0EDB295
:10145000042D03D100A8FFF7F4FB050057F008079F
:10146000059806000AE0F07A1121084202D0072010
:10147000050003E0780701D508200500EDB2002D36
:101480005AD1380758D500F02BFF804686F80E80D9
:10149000404680B2000AF0735FEA184030745FEA99
:1014A000186070740020F072002030770020707790
:1014B0000020B0770020F077707D317D51EA002068
:1014C00080B2F17EB27E52EA012189B251EA004037
:1014D00081460020B0760020F07600203075002094
:1014E0007075009801210171B9F1000F24D00098A6
:1014F000C06A804649460098FFF7CBF90500EDB277
:10150000002D19D10098B9F10101C1604146009840
:10151000FEF7D1FF05000FE0EDB2002D0CD1F07AFF
:10152000C00602D50420050006E0B80704D5F07A0D
:10153000C00701D507200500EDB2002D07D13807FF
:1015400001D557F020070098C06AE0612662EDB22D
:10155000002D21D1A771707D317D51EA002080B22C
:10156000F17EB27E52EA012189B251EA0040206147
:10157000F07FB17F090451EA0060717F50EA0120D9
:10158000317F0843E0600020A0600020A061009847
:1015900020600098C088A0802800C0B20BB0BDE8D1
:1015A000F0832DE9FB4F04001500DDF804B002982C
:1015B00000210160A1882068FFF7E3FE8DF800009C
:1015C0009DF80000002802D09DF8000007E1A079F6
:1015D000000601D5022002E1A079800701D407208E
:1015E000FDE0E0682818E168884201D2002005008B
:1015F000002D00F0E980A0684FF40071B0FBF1F21B
:1016000002FB1102002A40F0A480A068400A216871
:101610008978491E084082465FFA8AFABAF1000FBB
:1016200027D1A06800280AD120690600002E0BD11E
:1016300000212068FFF766F90600206104E0616977
:101640002068FFF75FF90600002E00F0BD80012E34
:1016500005D1A07950F08000A0710220BFE016F102
:10166000010F05D1A07950F08000A0710120B6E0F3
:1016700066612068C06AA16988420BD10021206898
:10168000FEF719FF002805D0A07950F08000A07166
:101690000120A4E061692068FEF7B5FF0700002F74
:1016A00005D1A07950F08000A071022097E057FA90
:1016B0008AF7680A8146B9F1000F37D02068807830
:1016C00059FA8AF1884206D2206880785FFA8AFA4D
:1016D000B0EB0A0081464B46DBB23A00594620681F
:1016E000407800F0EDFC002805D0A07950F0800093
:1016F000A071012073E02068C06AC01B48450FD26A
:101700004FF400722068C06AC01B4FF4007101FBE7
:1017100000B120683030FEF799FE20680021017189
:101720004FF4007000FB09F080463EE0A068E168DD
:1017300088420DD300212068FEF7BDFE002805D0A9
:10174000A07950F08000A071012048E02068C762B5
:10175000A7614FF40070A1684FF40072B1FBF2F37F
:1017600003FB1213C01A8046454500D2A846A16962
:101770002068FEF7A0FE002805D0A07950F0800078
:10178000A07101202BE042465946A0684FF4007337
:10179000B0FBF3FC0CFB130C20681CEB000030309A
:1017A000FEF754FE20680121017118EB0B0BA068B5
:1017B00018EB0000A0600298006818EB0000029986
:1017C0000860B5EB080513E7E068A168884201D21C
:1017D000A068E060A07950F02000A0710020BDE872
:1017E000FE8FF8B50400A1882068FFF7CAFD050048
:1017F000EDB2002D41D1A07980063ED5E169206887
:10180000FEF759FE0500EDB2002D36D1206A070023
:10181000F87A50F02000F872E0683877E06880B21B
:10182000000A7877E068000CB877E068000EF87777
:101830002069B876206980B2000AF8762069000C29
:1018400038752069000C80B2000A787500F048FDF8
:101850000600BE75300080B2000AF875300C38768C
:10186000300E7876A07910F0DF00A0712068012199
:1018700001712068FEF75BFE05002800C0B2F2BDD2
:1018800038B504002000FFF7ACFF0500EDB2002DD5
:1018900001D1002020602800C0B232BD7CB5040018
:1018A0000D00E4B20A2C03D129000D20FFF7F6FF4A
:1018B0008DF800400120060001AB320000A928008D
:1018C000FFF76FFE0198B04201D1012001E05FF007
:1018D000FF3076BD70B504000D00002006002078B2
:1018E00000280CD029002078FFF7D8FF10F1010F55
:1018F00002D15FF0FF3003E0641C761CEFE730009C
:1019000070BD0DB42DE9F04F88B00C0012A8060090
:10191000002083460190019810F1010F00F07581BD
:1019200020788DF80000641C9DF80000002800F06D
:101930006C819DF8000025280CD011999DF80000BD
:10194000FFF7ACFF0190019810F1010F01D00120C9
:10195000019056E100208DF80100C0B2029020787D
:101960008DF80000641C9DF80000302807D101208C
:101970008DF8010020788DF80000641C0AE09DF8C5
:1019800000002D2806D102208DF8010020788DF866
:101990000000641C9DF80000302810D39DF8000062
:1019A0003A280CD202980A219DF8002001FB002061
:1019B0003038029020788DF80000641CEAE79DF82A
:1019C00000006C2803D09DF800004C2809D19DF838
:1019D000010050F004008DF8010020788DF800001F
:1019E000641C9DF80000002800F00F819DF80000A5
:1019F00080465FFA88F8B8F1610F06D35FFA88F87D
:101A0000B8F17B0F01D2B8F120085FFA88F84046A0
:101A100042284ED0432843D0442852D04F284CD09F
:101A2000532804D055284CD058284ED051E0306867
:101A30000390361D0020824603981AF80000002803
:101A400002D01AF1010AF7E7002005009DF8010015
:101A500080070CD4504610F1010A0299884206D240
:101A600011992020FFF71AFF01904519F2E711990B
:101A70000398FFF72FFF01904519504610F1010A16
:101A80000299884206D211992020FFF707FF0190A2
:101A90004519F2E7019810F1010F00D00195B0E06F
:101AA0003000061D11990068C0B2FFF7F7FE0190E3
:101AB000A7E002208DF8020012E008208DF8020055
:101AC0000EE00A208DF802000AE010208DF80200D6
:101AD00006E011999DF80000FFF7E0FE019090E00C
:101AE0009DF80100400702D53768361D09E05FFA0E
:101AF00088F8B8F1440F02D13768361D01E0376825
:101B0000361D5FFA88F8B8F1440F08D1002F06D5CA
:101B10007F429DF8010050F008008DF80100002080
:101B200081469DF80200B7FBF0F100FB1170804682
:101B30009DF80200B7FBF0F75FFA88F8B8F10A0FDA
:101B400008D39DF80000782801D1272000E0072065
:101B500010EB080804A818F1300109F8001019F179
:101B60000109002F02D0B9F1100FDAD39DF801005E
:101B7000000705D504A82D2109F8001019F1010965
:101B8000CA469DF80100C00702D55FF0300801E0A9
:101B90005FF02008002083469DF8010080070ED4E6
:101BA000504610F1010A0299884208D21199404624
:101BB000C0B2FFF773FE019010EB0B0BECE7B9F12D
:101BC0000109119904A819F80000FFF767FE0190B8
:101BD00010EB0B0BB9F1000FF1D1504610F1010AD7
:101BE0000299884207D211992020FFF757FE0190F1
:101BF00010EB0B0BF1E7019810F1010F01D0CDF8BC
:101C000004B0019810EB0B0B85E6019810F1010F61
:101C100002D1DDF804B0FFE7584608B0BDE8F00F88
:101C20005DF810FB2DE9F04389B00400DFF88476FD
:101C3000DFF88486DFF88406C8F80000E4B2002CE0
:101C400001D0012050E1DFF878060078800703D545
:101C5000DFF86C06007847E1DFF8640600780321BE
:101C6000084201D100203FE1B8F1000F03D0D8F8BD
:101C70000000002801D1002036E1DFF84806386076
:101C8000012078600020C8F804000020C8F808008F
:101C90000020C8F81000002088F80C00002088F808
:101CA0000D00DFF82406006850F40030DFF8181645
:101CB0000860002141F2013000F0D2FC002801D080
:101CC000002011E10020009000A941F2033000F053
:101CD000C7FC002801D0002006E10098022808D0A7
:101CE0000098032805D00098052802D000980628FF
:101CF0001DD10098032802D00098062802D10120A7
:101D000088F80C0002208DF8040000208DF80500F2
:101D10000020029000208DF80C000020049001A902
:101D200041F2023000F09CFC002802D103E00020C8
:101D3000DAE00020D8E003208DF8040000208DF8C0
:101D400005000020029000208DF80C000020049077
:101D500001A941F2023000F083FC002801D00020EC
:101D6000C2E00598000C0004C8F8100009208DF8A6
:101D7000040000208DF80500D8F810000290002023
:101D80008DF80C000020049001A941F2023000F00F
:101D900067FC002801D00020A6E0089810F4400F4E
:101DA0001ED10798C0F3032006009DF81C0010F018
:101DB000030081460698800D50EA89290698C0F3F1
:101DC000C210050019F101000121AA1C91404843ED
:101DD00001213200093A91404843C8F808000BE05D
:101DE000012088F80D000698C0F31520814619F1EE
:101DF00001008002C8F8080007208DF804000020C8
:101E00008DF80500D8F81000029000208DF80C0025
:101E10000020049001A941F2023000F021FC0028CA
:101E200001D0002060E010208DF8040000208DF823
:101E300005004FF40070029000208DF80C00002087
:101E4000049001A941F2023000F00AFC002801D000
:101E5000002049E0D8F800000068012837D1372079
:101E60008DF8040000208DF80500D8F810000290CD
:101E700000208DF80C000020049001A941F20230EE
:101E800000F0EEFB002801D000202DE046208DF868
:101E9000040000208DF805000220029000208DF83B
:101EA0000C000020049001A941F2023000F0D8FBA0
:101EB000002801D0002017E00120009000A941F285
:101EC000073000F0CDFB002801D000200CE0DFF847
:101ED000F003007810F0FE00DFF8E4130870DFF87C
:101EE000E003007810F0030009B0BDE8F083F0B41F
:101EF00002001600DFF8D4030700002F01D10020F4
:101F000041E03868022808D03868032805D03868CE
:101F1000072802D03868082804D1DFF8B403006825
:101F20004007FAD40B00002B2CD0B3F5007F02D968
:101F30004FF4007400E01C00E01C80080500002D38
:101F40001ED0DFF89003006810F4E00F0CD0DFF82B
:101F50008403006840F4E00050F02000DFF874C310
:101F6000CCF8000000200EE0DFF8640300680005F4
:101F7000FAD5DFF8640300683060361D6D1EDEE7B9
:101F80001B1BD0E70120F0BC70472DE9F04188B061
:101F900004000D0090461E00C74FE4B2002C02D191
:101FA000F6B2002E01D1042058E0C5480078C007E1
:101FB00001D5032052E0002D01D104204EE0387BF2
:101FC000002803D14FF4007000FB08F8F6B2012E90
:101FD0001DD111208DF8000000208DF80100CDF8F2
:101FE000048001208DF80800F6B2039600A941F2A2
:101FF000023000F035FB002829D14FF40071280091
:10200000FFF775FF002822D0002006001FE01220F5
:102010008DF8000000208DF80100CDF8048001202B
:102020008DF80800F6B2039600A941F2023000F0E4
:1020300017FB00280BD1F6B24FF4007000FB06F13D
:102040002800FFF754FF002801D000200600F6B258
:10205000002E01D0012000E00020C0B208B0BDE891
:10206000F08170B4020013000C00002C25D0B4F5F0
:10207000007F02D94FF4007500E02500641BE81CC6
:102080008508002DF1D09348006810F4E00F0AD0C5
:102090009048006840F4E00050F010008D4E306031
:1020A0005FF0FF300AE08A4800684005FBD58A48A7
:1020B0001E6806601B1D6D1EE3E7012070BC7047A3
:1020C0002DE9F04188B004000D0090461E007A4FC3
:1020D000E4B2002C02D1F6B2002E01D1042080E03F
:1020E00077480078C00701D503207AE0744800786B
:1020F000400701D5022074E0002D01D1042070E0DA
:10210000387B002803D14FF4007000FB08F8F6B2CA
:10211000012E1DD118208DF8000000208DF801003F
:10212000CDF8048000208DF80800F6B2039600A9CF
:1021300041F2023000F094FA002829D14FF40071E6
:102140002800FFF78EFF002822D0002006001FE0A5
:1021500019208DF8000000208DF80100CDF80480D2
:1021600000208DF80800F6B2039600A941F2023073
:1021700000F076FA00280BD1F6B24FF4007000FBA5
:1021800006F12800FFF76DFF002801D000200600AF
:102190000D208DF8000000208DF8010038690190B5
:1021A00000208DF808000020039000A941F20230C1
:1021B00000F056FA002801D0012012E004984749A7
:1021C000084201D001200CE0049810F4F850B0F55A
:1021D000106FDDD1F6B2002E01D0012000E000200A
:1021E000C0B208B0BDE8F0812DE9F04188B004002C
:1021F0000D001600DFF8C080E4B2002C01D00420EE
:102200004CE0012007002E480078C00701D50320CC
:1022100044E0EDB2002D05D0022D0CD005D3032DE6
:102220000FD037E00020070036E0D8F80800306013
:102230000020070030E04FF40070308000200700DD
:102240002AE009208DF8000000208DF80100D8F860
:102250001000019000208DF808000020039000A9D4
:1022600041F2023000F0FCF9002801D0012015E015
:10227000079810F4400F0AD10698C0F38640401C1E
:102280000799090A11F00301491E884030600020B7
:10229000070001E0042007003800C0B208B0BDE824
:1022A000F0810100C9B2002901D0012001E00448F9
:1022B00000787047F071FF1FD46FFF1FE86FFF1F9A
:1022C000681BFF1F44E4000030800440EC6FFF1FD8
:1022D00024100B4030100B4020100B400880D9FF19
:1022E00000207047F0B580230F245FF0FF3C62466A
:1022F0005FF0020C6746B7F5807F16D85FF0010CDF
:102300006646112E0FD206FB07FC01FB0CFCBCEB52
:10231000000C6546002D04D4954202D22A003B00F1
:102320003400761CEDE77F00E5E7DFF810CADCF843
:1023300000C03CF0080CDFF804EACEF800C0DFF87B
:10234000FCC9DCF800C0DFF8F8E91EEA0C0C6646B0
:102350005FEAC31C1CF47F4C5CEA060CB4F1010E6E
:102360005FEA0E1E1EF0F00E5EEA0C0C5CF4602CB0
:10237000DFF8C8E9CEF800C0DFF8C8C9DCF800C053
:102380005FEA0C7CF8D5DFF8B4C9DCF800C05CF07B
:10239000080CDFF8A8E9CEF800C0DFF8ACC9DCF81B
:1023A00000C05CF4801CDFF8A0E9CEF800C0F0BDEE
:1023B00038B504000D0000202060DFF88009DFF848
:1023C0008C190160DFF874090068C001FAD4DFF8E5
:1023D000800900210160DFF87C095FF48131016030
:1023E000DFF8740928210160DFF870095FF001113E
:1023F0000160DFF86C19DFF86C0900684FF47A723D
:102400005043FFF76FFFDFF83C09006810F003004E
:102410000028F8D1DFF8500940F243410160DFF8AD
:102420004C0940F243410160DFF844094FF48861F0
:102430000160DFF8400940F243410160DFF83809EC
:1024400040F243410160DFF8340940F2434101604A
:10245000DFF82C09006850F40030DFF82419086018
:10246000DFF8E4084FF6FF710160DFF81809DFF8C4
:1024700018190160DFF8C408006850F00060DFF848
:10248000BC180860DFF8B40800680001FAD4DFF86F
:10249000B4080068C00301D501202060DFF8A80857
:1024A000006850F08000DFF8A0180860002032BDFE
:1024B000DFF89008006840F20731084201D001209F
:1024C00000E00020C0B270470100DFF87C281268ED
:1024D0000A4010000028F8D0704738B50400207872
:1024E00010F03F00DFF8A41851F820000500002D7F
:1024F00004D12078002801D00120B0E0DFF848089E
:10250000006850F08000DFF840180860DFF83408F9
:102510000068C007FAD46068DFF87418086035F402
:1025200040056078800510F440000543607802287B
:1025300001D155F40015607804280DD115F4403010
:10254000B0F5003F04D135F4403555F4403503E093
:1025500035F4403555F40035DFF8F807006880B2EF
:10256000DFF8F0170860E06800281FD015F440304D
:10257000B0F5403F01D055F40015207A002801D075
:1025800055F01005E068022801D355F02005E068F9
:1025900010F1010F0AD0DFF8BC070068E16850EACB
:1025A0000140DFF8B017086055F00205DFF8E407D6
:1025B00000210160DFF8E0070560DFF8E007FFF7C2
:1025C00083FF01280BD0DFF88007006840F47020FB
:1025D00050F00100DFF87017086001203FE0DFF8DD
:1025E00068070068000609D5DFF85C07006850F04E
:1025F0000110DFF854170860012030E0DFF84807C9
:102600000068C0030AD5DFF84007006850F00110E9
:10261000DFF8341708605FF0FF3020E015F4403F2A
:1026200014D0DFF87C070068206115F44030B0F565
:10263000803F0BD1DFF86C0700686061DFF8680746
:102640000068A061DFF864070068E061DFF8F80661
:10265000006850F00100DFF8F0160860002032BD7D
:102660002DE9F34F8BB05FF00009DDF830A0DFF803
:1026700040070400002C02D140F601205BE3DFF8A4
:1026800034070A900A98002802D140F60B2052E342
:102690000A98006809900998002802D140F60B209A
:1026A00049E30B98C01E00F02B83801F00F01D83B0
:1026B00041F2F821401A18D0401E00F0D981401E86
:1026C00000F0E782401E00F0E281401E00F0FC8135
:1026D000401E00F07B82401E00F09B82401E00F0F6
:1026E0004282401E00F04C8221E3DFF8CC1620002D
:1026F000FFF75EFE8146B9F1000F40F01B8300201A
:102700000500002006000020070000208DF80100D1
:102710000020804600208DF8000000208DF8040085
:1027200000208DF805000020029000208DF80C009C
:102730000020049001A8FFF7D0FE002802D001205D
:102740008146F7E240F24C4000F03AFB08208DF859
:10275000040000208DF805004FF4D5700290002091
:102760008DF80C000020049001A8FFF7B6FE834608
:10277000BBF1000F08D105980299884202D00120D0
:102780008146D7E20120804601208DF800009DF8A7
:102790000000002800F0F98037208DF804000020A8
:1027A0008DF805000020029000208DF80C0000201C
:1027B000049001A8FFF791FE8346BBF1010F02DBF5
:1027C00001208146B6E2BBF1000F6CD50020060067
:1027D000002005000020804601208DF80400002024
:1027E0008DF80500DFF8D405029000208DF80C006C
:1027F0000020049001A8FFF770FE002802D00120FD
:10280000814697E2059810F0C040B0F1005F01D119
:10281000012080460120070027208DF804000020B9
:102820008DF805004FF44060029000208DF80C00F8
:102830000020049001A8FFF750FE002802D00120DC
:10284000814677E20598000ACE2801D1012000E0F8
:102850000020C0B2002800F0988027208DF80400E6
:1028600000208DF805004FF45060029000208DF894
:102870000C000020049001A8FFF72FFE002802D0D2
:102880000120814656E20598000AAA2801D10120BC
:1028900000E00020C0B2002877D00020070001200F
:1028A0008DF8010071E069208DF8040000208DF89A
:1028B00005000020029000208DF80C0000200490FC
:1028C00001A8FFF70AFE002802D00120814631E26C
:1028D000059810F4401F58D0002083460A2000F0CD
:1028E0006FFA1BF1010B37208DF8040000208DF8E2
:1028F00005000020029000208DF80C0000200490BC
:1029000001A8FFF7EAFD002802D00120814624E05B
:1029100069208DF8040000208DF805005FFA88F822
:10292000B8F1000F03D0DFF89404029002E05FF4E6
:102930004010029000208DF80C000020049001A8A7
:10294000FFF7CBFD002802D00120814605E0059865
:10295000002802D4BBF1640FC0DBB9F1000F40F0D6
:10296000E981BBF1640F02DB002080460DE001200D
:1029700005005FFA88F8B8F1000F06D00020804605
:102980000598400001D501208046FFB2002F01D0FC
:10299000072020609DF80100002801D00820206059
:1029A000F6B2002E01D004202060EDB2002D08D038
:1029B000022020605FFA88F8B8F1000F01D00320F0
:1029C0002060F6B2002E0BD0EDB2002D08D005200D
:1029D00020605FFA88F8B8F1000F01D0062020606F
:1029E000DFF8840300210160DFF88003002101602B
:1029F000DFF87C0300210160DFF87803002101602B
:102A0000DFF8740300210160DFF87003002101602A
:102A100009984168DFF84C0300684FF47A7250431C
:102A2000FFF760FCDFF8400340F243410160DFF84C
:102A30003C0340F243410160DFF834034FF4886106
:102A40000160DFF8300340F243410160DFF8280302
:102A500040F243410160DFF8240340F2434101604A
:102A6000DFF81C03006850F40030C549086061E1DC
:102A70005046FFF732FD8346BBF1010F01DB022018
:102A80008146BBF1000F01D50320814652E1BAF126
:102A9000000F02D10C20814615E0A8480068C0094B
:102AA00010F4FF708346A5480068C0F30310401C73
:102AB00000FB0BFBAB4800684FF47A714843B0FB56
:102AC000FBF0CAF8000035E1BAF1000F02D10C208A
:102AD000814647E0DAF80000002802D10C20814648
:102AE00040E0FFF7E5FC002839D19F480021016054
:102AF0009E48002101609E48002101609D48002100
:102B000001609D48002101609C4800210160DAF8C5
:102B10000010944800684FF47A725043FFF7E2FBCC
:102B2000914840F243410160904840F243410160C6
:102B30008F484FF4886101608E4840F24341016044
:102B40008D4840F2434101608C4840F243410160AE
:102B50008B48006850F400308949086002E040F674
:102B60000A208146E6E0BAF1000F02D10C2081462E
:102B700005E078480068C004C00CCAF80000D9E03D
:102B8000BAF1000F02D10C2081461EE0FFF790FC45
:102B9000002817D1DAF80000B0F5805F02D30C20CE
:102BA000814612E06B480068400B400369490860A9
:102BB00068480068DAF80010C904C90C0843654980
:102BC000086002E040F60A208146B3E0BAF1000F47
:102BD00002D10C2081461BE05F480068C0F3410031
:102BE0008346BBF1000F03D10020CAF800000FE0BC
:102BF000BBF1010F03D10120CAF8000008E0BBF1CE
:102C0000100F03D10220CAF8000001E00520814620
:102C100090E0BAF1000F02D10C20814638E0FFF7B6
:102C200047FC002831D1DAF8000000280AD14A48D0
:102C3000006830F00600484908604748464909687E
:102C4000016025E0DAF8000001280CD14248006854
:102C500030F00600404908603F48006850F002002C
:102C60003D49086014E0DAF8000002280AD13A4829
:102C7000006830F00600384908603748364909686E
:102C8000016005E00520814602E040F60A20814609
:102C900050E0BAF1000F02D10C20814624E0274811
:102CA000006850F000602549086024480068000171
:102CB000FBD425480068000607D52348006850F07B
:102CC000800021490860002020601E480068C00381
:102CD00005D52068002804D10120206001E00020F3
:102CE00020602068CAF8000024E01C20CAF8000018
:102CF0000420CAF804004FF41E70CAF8080019E056
:102D00000220FFF7E1FB1048006810F4E00F07D045
:102D10000D48006850F4E0000B490860042081462B
:102D20000948006850F032000749086002E040F6A8
:102D30000920814648460DB0BDE8F08F2C100B40AD
:102D40000F00F0FF24100B4030100B4000800001FA
:102D5000C0100B4004100B4028100B4044100B40D7
:102D600060CC0500F871FF1F00D0044004D004407F
:102D700008D004400CD0044010D0044014D00440CB
:102D80003080044034100B40B3007F0090D9000025
:102D900008100B4000100B400C100B4001000E00FF
:102DA00010100B4014100B4018100B401C100B405F
:102DB000EC6FFF1FF071FF1F44E400000000304083
:102DC0000D49096851F001010B4A11600C49086076
:102DD0000C4905220A600949096851F00101074AB6
:102DE0001160064909680906FBD5044909684908C4
:102DF0004900024A116070473880044000000440D6
:102E00000800044004000440008003400090034098
:102E100000800B400000C8420000C84200000000D3
:102E200000000000000000000000000000000000A2
:102E30000000000000000000000000000000000092
:102E40000000000000000000000000000000000082
:102E50000000000000000000000000000000000072
:102E60000000000000000000000000000000000062
:102E70000000000000000000000000000000000052
:102E80000000000000000000000000000000000042
:102E90000000000000000000000000000000000032
:102EA0000000000000000000000000000000000022
:102EB0000000000000000000000000000000000012
:102EC0000000000000000000000000000000000002
:102ED00000000000000000000000000000000000F2
:102EE00000000000000000000000000000000000E2
:102EF00000000000000000000000000000000000D2
:102F000000000000000000000000000000000000C1
:102F100000000000000000000000000000000000B1
:102F200000000000000000000000000000000000A1
:102F30000000000000000000000000000000000091
:102F40000000000000000000000000000000000081
:102F50000000000000000000000000000000000071
:102F60000000000000000000000000000000000061
:102F70000000000000000000000000000000000051
:102F80000000000000000000000000000000000041
:102F90000000000000000000000000000000000031
:102FA0000000000000000000000000000000000021
:102FB0000000000000000000000000000000000011
:102FC0000000000000000000000000000000000001
:102FD00000000000000000000000000000000000F1
:102FE00000000000000000000000000000000000E1
:102FF00000000000000000000000000000000000D1
:1030000000000000000000000000000000000000C0
:1030100000000000000000000000000000000000B0
:103020000000000000000000000000000000001090
:1030300010101010100010100000000000000024FC
:103040002424000000000000000000000000002414
:10305000247E2424247E242400000000000000108C
:103060007C90907C12127C10000000000000000098
:1030700062640810204C8C0000000000000000007A
:10308000182420508A844A300000000000000010FC
:1030900010200000000000000000000000000810E8
:1030A00020202020202020100800000000002010F8
:1030B00008080808080808102000000000000000A8
:1030C00000105438385410000000000000000000C8
:1030D0000010107C10100000000000000000000034
:1030E00000000000000010102000000000000000A0
:1030F0000000007C00000000000000000000000054
:1031000000000000000000100000000000000000AF
:1031100000020408102040000000000000000038F9
:1031200044444C5464444438000000000000001043
:10313000301010101010103800000000000000388F
:10314000440404081020407C000000000000007CC3
:10315000040810380404047800000000000000088F
:10316000182848487C080808000000000000007C7F
:103170004040407804040478000000000000003C57
:103180004040407844444438000000000000007C87
:103190000404081020202020000000000000003857
:1031A00044444438444444380000000000000038DF
:1031B0004444443C040404380000000000000000C3
:1031C00000000010000010000000000000000000DF
:1031D000000000001000101020000000000000009F
:1031E0000004081020100804000000000000000087
:1031F0000000007C007C00000000000000000000D7
:1032000000201008040810200000000000003844CE
:10321000440408101000101000000000000000001E
:103220000038445C545C403C00000000000018245E
:103230004242427E424242420000000000007C4284
:1032400042427C424242427C0000000000003C427C
:10325000404040404040423C0000000000007C42B2
:10326000424242424242427C0000000000007E4056
:10327000404078404040407E0000000000007E401A
:1032800040407840404040400000000000003C4288
:1032900040405E424242423C000000000000424288
:1032A00042427E424242424200000000000038108A
:1032B00010101010101010380000000000001C0842
:1032C00008080808080848300000000000004244D0
:1032D00048506060504844420000000000004040F8
:1032E000404040404040407E00000000000082829C
:1032F000C6C6AAAA92928282000000000000426222
:103300006252524A4A4646420000000000003C42D7
:10331000424242424242423C0000000000007C42E5
:103320004242427C404040400000000000003C42DD
:103330004242424242424A3C0E00000000007C42AF
:103340004242427C504844420000000000003C429F
:1033500040403C020202423C0000000000007C10A1
:103360001010101010101010000000000000424259
:10337000424242424242423C0000000000004444BB
:103380004444282828101010000000000000828209
:103390008282545454282828000000000000424231
:1033A000241818182424424200000000000044445D
:1033B00044442828101010100000000000007E0275
:1033C000020408102040407E000000000000382069
:1033D00020202020202020380000000000000000D5
:1033E00000004020100804020000000000001C043F
:1033F000040404040404041C000000000000000095
:103400001028440000000000000000000000000040
:103410000000000000000000FF000000000000109D
:103420001008000000000000000000000000000084
:103430000078043C4444443A00000000000040404E
:10344000405C62424242625C0000000000000000FA
:10345000003C42404040423C0000000000000202AC
:10346000023A46424242463A000000000000000094
:10347000003C42427E40423C0000000000000E1032
:1034800010103C1010101010000000000000000090
:10349000003E424242423E02023C000000004040E8
:1034A000405C6242424242420000000000000008CC
:1034B00000080808080808080000000000000004D0
:1034C00000040404040404044438000000004040E4
:1034D0004042444850684442000000000000101080
:1034E000101010101010101000000000000000005C
:1034F00000EC929292929292000000000000000074
:10350000007C4242424242420000000000000000B3
:10351000003C42424242423C0000000000000000E9
:10352000005C62424242625C4040000000000000D9
:10353000003A46424242463A0202000000000000C1
:10354000005C62404040404000000000000000007D
:10355000003C42403C02423C0000000000000020D1
:10356000207820202020221C000000000000000005
:10357000004242424242423E000000000000000081
:1035800000424242424224180000000000000000B5
:10359000008282829292AA44000000000000000093
:1035A00000424224182442420000000000000000B3
:1035B0000042424242423E02023C00000000000043
:1035C000007E02041820407E000000000000081069
:1035D00010102040201010100800000000101010E3
:1035E00010101010101010101010100000002010FB
:1035F0001010080408101010200000000000000047
:1036000000002254880000000000000000000000BC
:10361000000000000000000000000000C8AB000136
:1036200000010002800440082010102FE8C10601AC
:103630000001001FF00100010001007FFC0000B646
:10364000AF00004000407C40004001FC0044FE44CC
:1036500020442044208448844484FD0445040228F6
:103660000410B5E7000100010001003FF821082126
:10367000083FF82108210821083FF821080102012C
:103680000200FE0000D7D30000003FF00020004001
:103690000080010001000104FFFE010001000100A3
:1036A0000100010005000200BFC600060878880876
:1036B000480848FE0818881C482A48280E48788B75
:1036C0008808080808080808080808BCBC0010207A
:1036D00010201020FDFE1020142019FC3108D08885
:1036E0001090106010601090110E56042000D3D07E
:1036F00000010001007FFE020004000FF0181028F6
:10370000104FF0881008100FF0081008900870088B
:1037100020CFDE000000FBF8920893F8A208A20870
:1037200093F88A808A48AA50922082208210828E42
:1037300083048200B9AB0000000440064004400846
:103740002008101018220E43040200042008101153
:10375000F83F1810100000CBBE0000003FFC000432
:1037600000047FE4000400043FC4204420443FC41C
:1037700020442004001400080000D7A80001000124
:10378000003FF802000200FFFE040008200FF000D6
:1037900020004002800100008000400000D2B500FF
:1037A00004400440044004444446244C244814503B
:1037B0001C501460044004400444FFFE000000005C
:1037C000BFAA0000007FFE0420042004200420FF84
:1037D000FE0420042004200820082010202020407F
:1037E000200000B7A20002002240223022107FFEFB
:1037F0002400040007E00C200A200A201140208049
:103800004160861C1808B0E500101C11E011001181
:1038100000FD0011FC398435485548523092101291
:10382000301448108E11040000B9A40000003FFCC1
:103830000100010001000100010001000100010080
:10384000010001000100FFFE00000000BFD80010D1
:103850000010201010FDFE11041050148C190430BB
:1038600000D1FC102010201020102053FE2000C991
:10387000E800400021F03110211001100110E20E8B
:1038800025F8210821082090209028603090230EF0
:103890000C04B1B80008000FF008201420224041A9
:1038A0008002400C30301EDFF411101FF011101197
:1038B000101FF01010BCBC00102010201020FDFEC6
:1038C0001020142019FC3108D0881090106010606E
:1038D0001090110E56042000CAF5000100012001CD
:1038E000100100FFFE0100038005400520091011B2
:1038F00018210EC104010001000000D6A70001003C
:10390000010001007FFE010001001FF808100420E3
:1039100004200240018002400C30700E0004B3D637
:10392000001040104013FCFC40104017FE1410180B
:103930001037FED010111010D010901010505020E1
:1039400020C2DB004040204030A020900108020649
:10395000E5042110213821C021002500290431046B
:1039600020FC0000CCB300000011FC10001000107F
:1039700000FC0013FE1040106010801C883104C24F
:103980007E07C60204000000010000000DC1110006
:1039900009030CD01240173F185019031A7832004F
:1039A000A00A63E0ACFF650C6600670029502C7824
:1039B0002A007E0C7F16802A814E8261836F847B71
:1039C0008586868E879788A489AF8AC58BD78CE831
:1039D0008D204A00491347084B144C17460522997D
:1039E0002303A6049B009C50AB069E119F0200007F
:1039F00031000000A000000078000000B4000000CA
:103A0000B4000000460000000000000000000000BC
:103A100000000000000000000000000000000000A6
:103A20000000000000000000000000000000000096
:103A30000000000000000000000000000000000086
:103A40000000000000000000000000000000000076
:103A50000000000000000000000000000000000066
:103A60000000000000000000000000000000000056
:103A70000000000000000000000000000000000046
:103A80000000000000000000000000000000000036
:103A90000000000000000000000000000000000026
:103AA0000000000000000000000000000000000016
:103AB0000000000000000000000000000000000006
:103AC00000000000000000000000000000000000F6
:103AD00000000000000000000000000000000000E6
:103AE00000000000000000000000000000000000D6
:103AF00000000000000000000000000000000000C6
:103B000000000000000000000000000000000000B5
:103B100000000000000000000000000000000000A5
:103B20000000000020000000200000002100000034
:103B300021000000220000002200000023000000FD
:103B400023000000240000002500000025000000E4
:103B500026000000260000002700000027000000CB
:103B600028000000280000002900000029000000B3
:103B70002A0000002A0000002B0000002B0000009B
:103B80002C0000002C0000002D0000002E00000082
:103B90002E0000002E0000002F000000300000006A
:103BA0003000000031000000310000003200000051
:103BB0003200000033000000340000003400000038
:103BC0003400000035000000360000003600000020
:103BD0003700000037000000380000003800000007
:103BE00039000000390000003A0000003A000000EF
:103BF0003B0000003B0000003C0000003C000000D7
:103C00003D0000003D0000003E0000003E000000BE
:103C10003F0000003F0000004000000040000000A6
:103C2000410000004100000042000000430000008D
:103C30004300000043000000440000004400000076
:103C4000450000004500000045000000460000005F
:103C50004700000047000000470000004800000047
:103C60004800000049000000490000004A00000030
:103C70004A0000004A0000004B0000004B0000001A
:103C80004C0000004C0000004D0000004D00000002
:103C90004E0000004E0000004F0000004F000000EA
:103CA00050000000500000005100000051000000D2
:103CB00052000000520000005300000053000000BA
:103CC00054000000540000005400000055000000A3
:103CD00055000000560000005600000000000000E3
:103CE00000000000000000000000000000000000D4
:103CF00000000000000000000000000000000000C4
:103D000000000000000000000000000000000000B3
:103D100000000000000000000000000000000000A3
:103D20000000000000000000000000000000000093
:103D30000000000000000000000000000000000083
:103D40000000000000000000000000000000000073
:103D50000000000000000000000000000000000063
:103D60000000000000000000000000000000000053
:103D70000000000000000000000000000000000043
:103D80000000000000000000000000000000000033
:103D90000000000000000000000000000000000023
:103DA0000000000000000000000000000000000013
:103DB0000000000000000000000000000000000003
:103DC00000000000000000000000000000000000F3
:103DD00000000000000000000000000000000000E3
:103DE00000000000000000000000000000000000D3
:103DF00000000000000000000000000000000000C3
:103E000000000000000000000000000000000000B2
:103E100000000000000000000000000000000000A2
:103E20000000000000000000000000000000000092
:103E30000000000000000000000000000000000082
:103E40000000000000000000000000000000000072
:103E50000000000000000000000000000000000062
:103E60000000000000000000000000000000000052
:103E70000000000000000000000000000000000042
:103E80000000000000000000000000000000000032
:103E90000000000000000000000000000000000022
:103EA0000000000000000000000000000000000012
:103EB0000000000000000000000000000000000002
:103EC00000000000000000000000000000000000F2
:103ED00000000000000000000000000000000000E2
:103EE00000000000580000005800000059000000C9
:103EF00059000000590000005A0000005A0000005C
:103F00005B0000005B0000005C0000005C00000043
:103F10005C0000005D0000005D0000005E0000002D
:103F20005E0000005E0000005F0000006000000016
:103F300060000000600000006100000061000000FF
:103F400062000000620000006200000063000000E8
:103F500063000000640000006400000064000000D2
:103F600065000000650000006500000066000000BC
:103F700066000000670000006700000067000000A6
:103F8000680000006800000069000000690000008F
:103F9000690000006A0000006A0000006B00000079
:103FA0006B0000006B0000006C0000006C00000063
:103FB0006D0000006D0000006D0000006D0000004D
:103FC0006E0000006E0000006F0000006F00000037
:103FD0006F00000070000000700000007000000022
:103FE000710000007100000072000000720000000B
:103FF00072000000730000007300000074000000F5
:1040000074000000740000007400000074000000E0
:1040100075000000750000007600000076000000CA
:1040200076000000760000007600000077000000B7
:1040300077000000770000007800000078000000A2
:10404000780000007800000079000000790000008E
:1040500079000000790000007A0000007A0000007A
:104060007A0000007B0000007B0000007B00000065
:104070007B0000007B0000007C0000007C00000052
:104080007C0000007C0000007D0000007D0000003E
:104090007D0000007D0000007D00000000000000A9
:1040A0000000000000000000000000000000000010
:1040B0000000000000000000000000000000000000
:1040C00000000000000000000000000000000000F0
:1040D00000000000000000000000000000000000E0
:1040E00000000000000000000000000000000000D0
:1040F00000000000000000000000000000000000C0
:1041000000000000000000000000000000000000AF
:10411000000000000000000000000000000000009F
:10412000000000000000000000000000000000008F
:10413000000000000000000000000000000000007F
:10414000000000000000000000000000000000006F
:10415000000000000000000000000000000000005F
:10416000000000000000000000000000000000004F
:10417000000000000000000000000000000000003F
:1041800000000000000000006666044300000443D5
:104190009A99034333330343CDCC0243666602430B
:1041A000000002439A99014333330143CDCC0043CD
:1041B00066660043000000433333FF426666FE42FA
:1041C0009A99FD42CDCCFC420000FC423333FB42C5
:1041D0006666FA429A99F942CDCCF8420000F8425C
:1041E0003333F7426666F6429A99F542CDCCF442F3
:1041F0000000F4423333F3426666F2429A99F14288
:10420000CDCCF0420000F0423333EF426666EE421E
:104210009A99ED42CDCCEC420000EC423333EB42B4
:104220006666EA429A99E942CDCCE8420000E8424B
:104230003333E7426666E6429A99E542CDCCE442E2
:104240000000E4423333E3426666E2429A99E14277
:10425000CDCCE0420000E0423333DF426666DE420E
:104260009A99DD42CDCCDC420000DC423333DB42A4
:104270006666DA429A99D942CDCCD8420000D8423B
:104280003333D7426666D6429A99D542CDCCD442D2
:104290000000D4423333D3426666D2429A99D14267
:1042A000CDCCD0420000D0423333CF426666CE42FE
:1042B0009A99CD42CDCCCC420000CC423333CB4294
:1042C0006666CA429A99C942CDCCC8420000C8422B
:1042D0003333C7426666C6429A99C542CDCCC442C2
:1042E0000000C4423333C3426666C2429A99C14257
:1042F000CDCCC0420000C0423333BF426666BE42EE
:104300009A99BD42CDCCBC420000BC423333BB4283
:104310006666BA429A99B942CDCCB8420000B8421A
:104320003333B7426666B6429A99B542CDCCB442B1
:104330000000B4423333B3426666B2429A99B14246
:10434000CDCCB0420000B0423333AF426666AE42DD
:104350009A99AD42CDCCAC420000AC423333AB4273
:104360006666AA429A99A942CDCCA8420000A8420A
:104370003333A7426666A6429A99A542CDCCA442A1
:104380000000A4423333A3426666A2429A99A14236
:10439000CDCCA0420000A04233339F4266669E42CD
:1043A0009A999D42CDCC9C4200009C4233339B4263
:1043B00066669A429A999942CDCC984200009842FA
:1043C00033339742666696429A999542CDCC944291
:1043D0000000944233339342666692429A99914226
:1043E000CDCC90420000904233338F4266668E42BD
:1043F0009A998D42CDCC8C4200008C4233338B4253
:1044000066668A429A998942CDCC884200008842E9
:1044100033338742666686429A998542CDCC844280
:104420000000844233338342666682429A99814215
:10443000CDCC80420000804266667E42CDCC7C427C
:1044400033337B429A99794200007842666676421D
:10445000CDCC7442333373429A997142000000000C
:10446000000000000000000000000000000000004C
:10447000000000000000000000000000000000003C
:10448000000000000000000000000000000000002C
:10449000000000000000000000000000000000001C
:1044A000000000000000000000000000000000000C
:1044B00000000000000000000000000000000000FC
:1044C00000000000000000000000000000000000EC
:1044D00000000000000000000000000000000000DC
:1044E00000000000000000000000000000000000CC
:1044F00000000000000000000000000000000000BC
:1045000000000000000000000000000000000000AB
:10451000000000000000000000000000000000009B
:10452000000000000000000000000000000000008B
:10453000000000000000000000000000000000007B
:104540000000000000000000A0000000500000007B
:10455000A000000050000000A00000003200000099
:104560000100000000F00F4040F00F4080F00F40CD
:10457000C0F00F4000F10F400090044000A0044044
:1045800000B0044000C0044000D004400B1F0000F5
:104590000009000000A0064000B0064000C0064030
:1045A00000D0064000A00E4000B00E40F0B583B031
:1045B0000024DFF8080B007801280DD1DFF8000B8C
:1045C000006843F69921884206DBDFF8F00A40785C
:1045D000002801D101F070FADFF8E80A007801281C
:1045E00009D0DFF8E00A0078062804D0DFF8D40A02
:1045F0000078072878D1DFF8D00A96210160DFF82B
:10460000C80A0168DFF8C00A00682822DFF8803D88
:1046100002FB003000F062FDDFF8B01A086002F023
:1046200095FADFF8AC0A0078012840F02884DFF81A
:10463000A40A00680500DFF8A00A0068A84209DAA9
:1046400029002820DFF8482D00FB052000F0AAFEF5
:104650006D1EF0E701F028F8DFF8381D0860DFF87C
:10466000340D006810F1010F00F00984DFF8240D0B
:104670000068832880F20384002004000026DFF80D
:10468000540A00680500DFF80C0D0068A8421FDA24
:10469000200002F003FB0400DFF8FC0C50F82500BA
:1046A00002F0FCFADFF8F41C51F8251002F01EFBB2
:1046B000210002F087FB02F0C7FB0400DFF8DC0CEE
:1046C00050F82500310002F07DFB06006D1EDAE790
:1046D000200002F0E3FA310002F0D8FB02F0B4FB54
:1046E000DFF8E8190860CAE3DFF8D8090078022883
:1046F00040F0A880DFF8D00989210160DFF8C809FF
:104700000168DFF8C40900682822DFF8843C02FB56
:10471000003000F0E3FCDFF8B419086002F016FA8C
:10472000DFF8AC090078012840F0A983DFF8A4097C
:1047300000680500DFF8A0090068A84209DA29002E
:104740002820DFF84C2C00FB052000F02BFE6D1E0E
:10475000F0E700F0A9FFDFF83C1C0860DFF8340C3C
:10476000006810F1010F00F08A83DFF8280C006860
:10477000792880F28483002004000026DFF85409A1
:1047800000680500DFF80C0C0068A8421FDA200062
:1047900002F084FA0400DFF8000C50F8250002F063
:1047A0007DFADFF8F81B51F8251002F09FFA21007E
:1047B00002F008FB02F048FB0400DFF8E00B50F8C1
:1047C0002500310002F0FEFA06006D1EDAE7DFF880
:1047D000C40B0068602829DBDFF8B80B006805000F
:1047E000602D23DB200002F059FA0400DFF8A40B4F
:1047F0000068DFF8A41B11EB8000406802F04EFA5D
:10480000DFF8981B51F8251002F070FA210002F031
:10481000D9FA02F019FB0400DFF8800B50F82500EC
:10482000310002F0CFFA06006D1ED9E7200002F039
:1048300035FA310002F02AFB02F006FBDFF88C1893
:1048400008601CE3DFF87C080078032840F0008152
:10485000DFF874087D210160DFF86C080168DFF87B
:10486000680800682822DFF8283B02FB003000F0CF
:1048700035FCDFF85818086002F068F9DFF85008D6
:104880000078012840F0FB82DFF848080068050046
:10489000DFF844080068A84209DA29002820DFF878
:1048A000F02A00FB052000F07DFD6D1EF0E700F012
:1048B000FBFEDFF8E01A0860DFF8D80A006810F1A4
:1048C000010F00F0DC82002004000026BE2005005D
:1048D000DFF8C00A0068A8426BDAB02D04DBDFF80D
:1048E000C00A0021016050E0A12D04DBDFF8B00A0E
:1048F0000921016049E0922D04DBDFF8A40A0921B7
:10490000016042E0832D04DBDFF8940A0921016095
:104910003BE0742D04DBDFF8880A1421016034E0E9
:10492000652D04DBDFF8780A152101602DE05B2D91
:1049300004DBDFF86C0A1021016026E0512D04DB56
:10494000DFF85C0A0F2101601FE0472D04DBDFF870
:10495000500A0F21016018E03D2D04DBDFF8400A0A
:104960000D21016011E0332D04DBDFF8340A0A2148
:1049700001600AE0292D04DBDFF8240A052101602B
:1049800003E0DFF81C0A00210160DFF80C0A50F890
:104990002500DFF80C1A096801FB0044DFF8000A63
:1049A000006802F07BF9310002F00CFA06006D1E7F
:1049B0008EE7DFF8E00900686A283DDBDFF8D409FC
:1049C000006805006A2D37DBB02D04DBDFF8D00965
:1049D0000821016018E0A12D04DBDFF8C4090A21D9
:1049E000016011E0922D04DBDFF8B4090D210160B4
:1049F0000AE0832D04DBDFF8A8091021016003E041
:104A0000DFF89C0912210160DFF888090068DFF8EF
:104A1000881911EB80004068DFF88419096801FBF0
:104A20000044DFF87C09006802F038F9310002F038
:104A3000C9F906006D1EC5E7200002F02FF931000C
:104A400002F024FA02F000FADFF88016086016E29D
:104A5000DFF870060078042840F00081DFF868066F
:104A600078210160DFF860060168DFF85C06006805
:104A70002822DFF81C3902FB003000F02FFBDFF8A2
:104A80004C16086002F062F8DFF84406007801284E
:104A900040F0F581DFF83C0600680500DFF83806D5
:104AA0000068A84209DA29002820DFF8E42800FB82
:104AB000052000F077FC6D1EF0E700F0F5FDDFF853
:104AC000D4180860DFF8CC08006810F1010F00F07E
:104AD000D681002004000026BE200500DFF8B408BF
:104AE0000068A8426BDAB02D04DBDFF8B4080021BF
:104AF000016050E0A12D04DBDFF8A4080A21016069
:104B000049E0922D04DBDFF898080E21016042E0B5
:104B1000832D04DBDFF88808102101603BE0742D51
:104B200004DBDFF87C081321016034E0652D04DB31
:104B3000DFF86C08152101602DE05B2D04DBDFF848
:104B400060081821016026E0512D04DBDFF85008D1
:104B5000182101601FE0472D04DBDFF8440818210D
:104B6000016018E03D2D04DBDFF8340818210160F6
:104B700011E0332D04DBDFF82808142101600AE07E
:104B8000292D04DBDFF818080F21016003E0DFF8AE
:104B9000100800210160DFF8000850F82500DFF858
:104BA0000018096801FB0044DFF8F407006802F010
:104BB00075F8310002F006F906006D1E8EE7DFF889
:104BC000D40700686A283DDBDFF8C80700680500E5
:104BD0006A2D37DBB02D04DBDFF8C4070821016044
:104BE00018E0A12D04DBDFF8B8070A21016011E00D
:104BF000922D04DBDFF8A8070D2101600AE0832D68
:104C000004DBDFF89C071021016003E0DFF8900768
:104C100012210160DFF87C070068DFF87C1711EBD8
:104C200080004068DFF87817096801FB0044DFF86E
:104C30007007006802F032F8310002F0C3F8060095
:104C40006D1EC5E7200002F029F8310002F01EF9C0
:104C500002F0FAF8DFF87414086010E1DFF8640479
:104C60000078052840F0F980DFF85C0482210160BB
:104C7000DFF854040168DFF8500400682822DFF8E8
:104C8000103702FB003000F029FADFF8401408600A
:104C900001F05CFFDFF838040078012840F0EF8075
:104CA000DFF8300400680500DFF82C040068A84233
:104CB00009DA29002820DFF8D82600FB052000F0BB
:104CC00071FB6D1EF0E700F0EFFCDFF8C81608601E
:104CD000DFF8C006006810F1010F00F0D08000205E
:104CE00004000026BE200500DFF8A8060068A842E0
:104CF00080F28180B02D04DBDFF8A4060021016082
:104D000065E0A12D04DBDFF89806142101605EE068
:104D1000922D04DBDFF888061421016057E0832D13
:104D200004DBDFF87C061421016050E0742D04DB05
:104D3000DFF86C061921016049E0652D04DBDFF81E
:104D400060061E21016042E05B2D04DBDFF85006A7
:104D5000232101603BE0512D04DBDFF844062821CC
:104D6000016034E0472D04DBDFF8340628210160C0
:104D70002DE03D2D04DBDFF828062821016026E028
:104D8000332D04DBDFF81806282101601FE0292DF0
:104D900004DBDFF80C062821016018E01F2D04DB7E
:104DA000DFF8FC052321016011E0152D04DBDFF89D
:104DB000F0050A2101600AE00B2D04DBDFF8E005B5
:104DC0000521016003E0DFF8D80500210160DFF86C
:104DD000C80550F82500DFF8C815096801FB004434
:104DE000DFF8BC05006801F059FF310001F0EAFF6F
:104DF00006006D1E78E7DFF89C0500686A2821DB55
:104E0000DFF89005006805006A2D1BDBDFF89005D0
:104E10001E210160DFF87C050068DFF87C1511EBCE
:104E200080004068DFF87815096801FB0044DFF86E
:104E30007005006801F032FF310001F0C3FF060089
:104E40006D1EE1E7200001F029FF310002F01EF89D
:104E500001F0FAFF9D49086011E09B488C21016038
:104E600099480168984800682822DFF8243502FB39
:104E7000003000F097FA9549086001F067FEDFF80E
:104E8000A00B0078012806D1DFF8940B007C0028E5
:104E900001D101F020F8DFF88C0B0078012811D146
:104EA0008848007800280DD0DFF87C0B00780028B7
:104EB00008D18348006841F27D51884202DB01F04D
:104EC000B5FD13E0DFF8600B007801280ED1DFF8A4
:104ED0005C0B0068DFF8581B0968081878490968F6
:104EE000884203DADFF8400B00210170DFF8300B55
:104EF000007C002801D101F083FEDFF8240B007C48
:104F0000DFF8301B09780843C0B200280FD1DFF862
:104F1000280B407800280AD1DFF81C0B406800F20B
:104F2000E83067490968884201DA01F087FADFF85A
:104F30000C0B0078012807D16148006840F6B931B0
:104F4000884201DB02F028F85E480078002840F033
:104F5000B4800020040000265E48006805005E481A
:104F60000068A84231DA29002820DFF8242400FB59
:104F7000052000F017FADFF8200450F8250008217A
:104F800090FBF1F02821DFF8082401FB0521DFF870
:104F9000082452F82520082392FBF3F22823DFF897
:104FA000F07303FB0573D25C8023DFF8EC7357F8D2
:104FB00025705FF0080C97FBFCFE0EFB1C7E53FA7D
:104FC0000EF31A4342546D1EC9E700F06DFBDFF883
:104FD000C4130860DFF8BC03006810F1010F30D083
:104FE0003C4800680500DFF8AC030068A8421EDA00
:104FF000200001F053FE0400DFF89C0350F8250068
:1050000001F04CFEDFF8941351F8251001F06EFE0C
:10501000210001F0D7FE01F017FF0400DF4850F82F
:105020002500310001F0CEFE06006D1EDBE72000FA
:1050300001F034FE310001F029FF01F005FF2349A2
:1050400008604FF4FC6001904FF478400090D14824
:105050000368DFF8EC29C821002002F0FFFD4FF4BF
:10506000FC6001904FF47840009018480368DFF826
:10507000D429DC21002002F0F1FD0122134801684F
:105080004C2002F0BDFD012212480168482002F0C8
:10509000B7FDC048006810F1010F05D00122BD48DE
:1050A0000168482002F0ACFD01220B48016848204D
:1050B00002F0A6FDB64802F037FFF7BD8C6FFF1F68
:1050C000D06FFF1F346FFF1F0010FF1FFC0FFF1F6B
:1050D0001172FF1F0810FF1F0C10FF1F2DE9F84F62
:1050E000824689460520009040F23B1B00250026A1
:1050F000DFF854090078002815D1DFF84C09007852
:10510000401CDFF8441908700020F02819DADFF895
:105110003C19A02241F82020DFF83419502241F830
:105120002020401CF1E7DFF8240950F82900DFF8BF
:1051300024190860DFF8180950F82900DFF8181959
:10514000086000200400282C12DA002008280DDA5C
:1051500014F80A10D0F10702114111F0010110EB0F
:10516000C402DFF8F838D154401CEFE7641CEAE7CA
:10517000DFF8E00800688046DFF8E00818EB000080
:10518000C07801280DD1DFF8D40818EB0000807832
:10519000012806D1DFF8C40818EB00004078012888
:1051A00004D0D84502DA18F10108E5E7D84506DA57
:1051B000DFF8AC08C0F800800120060001E0002004
:1051C0000600DFF8900800680700DFF8900838183C
:1051D00010F8030C01280DD1DFF88008381810F8FA
:1051E000020C012806D1DFF87408381810F8010CF9
:1051F000012804D00098B84201DA7F1EE5E7009844
:10520000B84205DADFF85C0807600120050001E01C
:105210000020050056EA0500C0B2002804D1DFF8DE
:105220003408A021016076E0EDB2012D18D0F6B26D
:10523000012E15D1DFF828080068DFF81C1809686E
:10524000401ADFF810180860DFF814080068DFF86B
:1052500008180968B0EB4100DFF8081808605AE048
:10526000EDB2012D18D1F6B2012E15D0DFF8F407FA
:105270000068DFF8E41709680818DFF8D817086035
:10528000DFF8E0070068DFF8D017096810EB41008D
:10529000DFF8CC1708603EE0EDB2012D3BD1F6B24D
:1052A000012E38D1DFF8B8070068DFF8B8170968B1
:1052B000401A02F06FFE00225FF0804302F078FE99
:1052C00002F09AFFDFF890170860DFF88C0700689B
:1052D000502804D2DFF880075021016008E0DFF891
:1052E000780700686F2803D3DFF86C076E21016030
:1052F000DFF86C070068DFF86C170968081802F01F
:1053000049FE00225FF0804302F052FE02F074FF7B
:10531000DFF840170860DFF83C0700683C2804D23B
:10532000DFF830073C21016008E0DFF8280700685B
:10533000FB2803D3DFF81C07FA210160DFF80C0714
:10534000DFF81017096840F82910DFF81C07DFF8AC
:105350001417096840F82910DFF81007DFF8001764
:10536000096840F82910DFF8E806DFF8EC1609684C
:1053700040F82910DFF8F80609F80050DFF8F406C5
:1053800009F80060DFF8CC060068BDE8F28F000085
:10539000741EFF1F0410FF1F1C44FF1F9017FF1FE8
:1053A0002C66FF1F2DE9F84F82460C000520009067
:1053B00040F23B1B5FF000090026DFF8BC060078D6
:1053C000002815D1DFF8B0060078401CDFF8A816D9
:1053D00008700020F0282CDADFF8A016A02241F88F
:1053E0002020DFF89C16502241F82020401CF1E7D5
:1053F000B42C0ED1DFF88406D0F8D002DFF8841682
:105400000860DFF87C06D0F8D002DFF87C16086070
:105410000FE0DFF8680610EB84004068DFF86416E0
:105420000860DFF85C0610EB84004068DFF858166F
:10543000086000200500282D12DA002008280DDA67
:1054400015F80A10D0F10702114111F0010110EB1B
:10545000C502DFF83836D154401CEFE76D1CEAE78F
:10546000DFF8200600688046DFF8200618EB000011
:10547000C07801280DD1DFF8140618EB0000807801
:10548000012806D1DFF8040618EB00004078012857
:1054900004D0D84502DA18F10108E5E7D84506DA64
:1054A000DFF8EC05C0F800800120060001E00020D4
:1054B0000600DFF8D00500680700DFF8D0053818CF
:1054C00010F8030C01280DD1DFF8C005381810F8CA
:1054D000020C012806D1DFF8B405381810F8010CC9
:1054E000012804D00098B84201DA7F1EE5E7009851
:1054F000B84205DADFF89C0507600120814601E02B
:105500000020814656EA0900C0B2002804D1DFF825
:105510007405A02101608AE05FFA89F9B9F1010FF1
:1055200018D0F6B2012E15D1DFF864050068DFF857
:1055300058150968401ADFF84C150860DFF8500567
:105540000068DFF844150968B0EB4100DFF8441546
:1055500008606CE05FFA89F9B9F1010F18D1F6B271
:10556000012E15D0DFF82C050068DFF81C1509683E
:105570000818DFF810150860DFF818050068DFF874
:105580000815096810EB4100DFF8041508604EE0CB
:105590005FFA89F9B9F1010F49D1F6B2012E46D16E
:1055A000DFF8EC040068DFF8EC140968401A02F038
:1055B000F1FC00225FF0804302F0FAFC02F01CFED6
:1055C000DFF8C4140860DFF8C0040068DFF8C8140E
:1055D00051F82410884207D2DFF8BC0450F82400A8
:1055E000DFF8A41408600FE0DFF8B00450F82400DE
:1055F000DFF894140968884206D2DFF8A00450F856
:105600002400DFF884140860DFF884040068DFF801
:1056100084140968081802F0BDFC00225FF0804382
:1056200002F0C6FC02F0E8FDDFF858140860DFF86D
:1056300054040068322804D2DFF8480432210160A3
:105640000AE0DFF840040068B0F5877F04D9DFF88E
:1056500034044FF487710160DFF82004DFF824146C
:10566000096840F82410DFF83804DFF828140968C6
:1056700040F82410DFF82C04DFF81414096840F80F
:105680002410DFF8FC03DFF80014096840F8241048
:10569000DFF8140404F80090DFF810042654DFF853
:1056A000E4030068BDE8F28F2DE9F84F0024DFF82D
:1056B0000004D0F800900025DFF8F403D0F800E0F3
:1056C0000026DFF8EC03D0F800800027DFF8E003C5
:1056D000D0F800A001235FF0000CDFF8D4030068CD
:1056E000DFF8D0B3DBF800B0834568DADFF8B8B391
:1056F00010F80BB0BBF1010F0ED1DFF8B0B310F80A
:105700000BB0BBF1010F07D119005FF0010B5B4635
:10571000002C01D1641C8146DFF88CB310F80BB06B
:10572000BBF1010F0ED1DFF884B310F80BB0BBF161
:10573000000F07D119005FF0020B5B46002D01D16D
:105740006D1C8646DFF860B310F80BB0BBF1000F9C
:105750000ED1DFF858B310F80BB0BBF1010F07D131
:1057600019005FF0030B5B46002E01D1761C8046CA
:10577000DFF834B310F80BB0BBF1000F0ED1DFF837
:105780002CB310F80BB0BBF1000F07D119005FF07C
:10579000040B5B46002F01D17F1C8246DFF810B35B
:1057A000DBF800B0584508D08B4206D01CF1010C44
:1057B000BCF1020F01DB020001E0401E90E7BCF1EA
:1057C000000F13D1BA480068DFF8DCB210F80B0004
:1057D000002807D1B6480068DFF8D0B210F80B00F7
:1057E000002803D0B3480068401C16E1BCF1010F4B
:1057F00040F08B80AE480068DFF8ACB210F80B00C8
:10580000012837D1AA480068DFF8A0B210F80B00D1
:1058100001282FD1012D14D1A14850F82E0000905D
:10582000A348D0F800B09E4850F82B001438DDF89B
:1058300000B0834502DA1EF10100EEE0012E15D121
:1058400003E09C480068401CE7E099480068DFF8E6
:1058500054B25BF820001430DFF848B25BF828B08F
:10586000584580F2D88018F10100D6E091480068D0
:10587000401CD2E08E480068DFF82CB210F80B0014
:10588000012812D18A480068DFF820B210F80B0016
:1058900000280AD1012C02D119F10100BDE0012F2D
:1058A00040F0B9801AF10100B7E081480068DFF8E4
:1058B000F8B110F80B00002812D17D480068DFF81D
:1058C000ECB110F80B0001280AD1012C02D119F11A
:1058D0000100A2E0012F40F09E801AF101009CE03F
:1058E00073480068DFF8C0B110F80B00002840F0E2
:1058F00092806F480068DFF8B4B110F80B00002800
:1059000040F089805FF0FF3087E0BCF1020F40F08B
:10591000828067480068DFF890B110F80B0001281A
:1059200041D163480068DFF884B110F80B0001280A
:1059300039D1012F02D15FF0FF306EE0012D04D18B
:10594000012E02D15FF0FF3067E0012D15D1002E4E
:1059500013D1534850F8220000905548D0F800B0B9
:105960004F4850F82B001438DDF800B0834502DAB8
:105970005FF0FF3051E0501C4FE0002D4BD1012E65
:1059800049D14B480068DFF81CB15BF820001430A7
:10599000DFF810B15BF822B0584502DA5FF0FF3053
:1059A0003BE0501C39E042480068DFF8FCB010F8DA
:1059B0000B00012813D13E480068DFF8F0B010F862
:1059C0000B0000280BD1012F01D0012E02D15FF076
:1059D000FF3022E0012C1ED119F101001DE03448F6
:1059E0000068DFF8C4B010F80B00002813D130486D
:1059F0000068DFF8B8B010F80B0001280BD1012FB8
:105A000001D0012D02D15FF0FF3006E0012C02D160
:105A100019F1010001E05FF0FF30BDE8F28F0000F6
:105A2000986FFF1F1972FF1F1A72FF1FFC6EFF1F76
:105A3000006FFF1F1772FF1FBC6FFF1F1572FF1F44
:105A40002CE4000034E400001272FF1F2455FF1FF5
:105A50007C60FF1F501BFF1F541BFF1F5868FF1F58
:105A60005068FF1F5468FF1FEC58FF1FB45CFF1FF6
:105A70004464FF1F3865FF1F1372FF1F1C44FF1F84
:105A8000744FFF1F581BFF1F5C1BFF1FA469FF1FE4
:105A90009C69FF1FA069FF1F1010FF1FD013FF1F7D
:105AA000E447FF1FAC4BFF1F3C53FF1F3054FF1F49
:105AB0000810FF1F0C10FF1F2DE9F04F8BB0C821FD
:105AC000DFF86809FFF70AFB00200400002005004A
:105AD00000208DF8000000208DF80100DFF8380D5F
:105AE00000214170DFF84809D0F82003032190FB22
:105AF000F1F00790DFF83C09D0F820030799081867
:105B00000290DFF83009D0F82003079910EB41002C
:105B10000490DFF82409D0F820030799401A039075
:105B2000DFF81409D0F820030799B0EB4100019089
:105B30000020099000200690002008900020059089
:105B4000029832280AD30298B0F5877F06D80198C8
:105B5000322803D30198B0F5877F00D9B8E1C82077
:105B60008346BBF1AA0F41DB0498801C0490029885
:105B7000801C02900498C0082821DFF8A02C01FBAB
:105B80000B21405C04990822B1FBF2F303FB1213D2
:105B9000D3F107010841C00707D5CDF824B0049818
:105BA000069001208DF8000020E00298C00828210E
:105BB000DFF8682C01FB0B21405C02990822B1FB45
:105BC000F2F303FB1213D3F107010841C00707D515
:105BD000CDF824B00298069001208DF8000005E071
:105BE00000208DF80000BBF1020BBAE7C820834605
:105BF000BBF1AA0F41DB0398801E03900198801E21
:105C000001900198C0082821DFF8102C01FB0B211E
:105C1000405C01990822B1FBF2F303FB1213D3F1AC
:105C200007010841C00707D5CDF820B001980590BD
:105C300001208DF8010020E00398C0082821DFF83A
:105C4000DC2B01FB0B21405C03990822B1FBF2F332
:105C500003FB1213D3F107010841C00707D5CDF8A4
:105C600020B00398059001208DF8010005E0002088
:105C70008DF80100BBF1020BBAE79DF80000012886
:105C800040F00F819DF80100012840F00A8105983D
:105C90000699401A1528C0F0048109980600069854
:105CA000801E0700012082465FFA8AFABAF1010FCE
:105CB00031D1962E06DBDD2E04DA322F02DBB7F56A
:105CC000877F00DD04E1301D8346301F83451DDBE7
:105CD000082097FBF0F02821DFF8402B01FB0B2177
:105CE000405C082197FBF1F202FB1172D2F107012F
