:10000000F8FF00201104000039C000007FBB000091
:1000100039C0000039C0000039C0000039C00000FC
:1000200039C0000039C0000039C0000039C00000EC
:1000300039C0000039C000008DBB00007DBB00004E
:100040007FB7000039C0000039C0000039C000008F
:1000500039C0000039C0000039C0000039C00000BC
:1000600039C0000039C0000039C0000039C00000AC
:1000700039C0000039C0000039C0000039C000009C
:1000800039C0000039C0000039C0000039C000008C
:1000900039C0000039C0000039C0000039C000007C
:1000A00039C0000039C0000039C0000039C000006C
:1000B00039C0000039C0000039C0000039C000005C
:1000C00039C0000039C0000039C0000039C000004C
:1000D00039C0000039C0000039C0000039C000003C
:1000E00039C0000039C0000039C0000039C000002C
:1000F00039C0000039C0000039C0000039C000001C
:1001000039C0000039C0000039C0000093B80000B9
:1001100039C0000039C0000039C0000039C00000FB
:1001200039C0000039C0000039C0000039C00000EB
:1001300039C0000039C000008FBB000091BB000037
:1001400039C0000039C0000039C0000039C00000CB
:100150009DB7000039C0000039C0000039C0000060
:1001600039C0000039C0000039C0000039C00000AB
:1001700039C0000039C0000039C0000039C000009B
:1001800039C0000039C0000039C0000039C000008B
:1001900039C0000039C0000039C0000039C000007B
:1001A00039C0000039C0000011B7000039C000009C
:1001B00039C0000039C0000039C0000039C000005B
:1001C00039C0000039C0000039C0000039C000004B
:1001D00039C0000039C0000039C0000039C000003B
:1001E00039C0000039C0000039C0000039C000002B
:10040000FFFFFFFFFFFFFFFFFFFFFFFFFEFFFFFFFD
:1004100062B64FF000004FF000014FF000024FF0C5
:1004200000034FF000044FF000054FF000064FF0BE
:1004300000074FF000084FF000094FF0000A4FF09E
:10044000000B4FF0000C0BF0BBFEFEE7F0B50446CE
:10045000E56A81B0002D1CBF207900284CD0012313
:100460002A4604F13001607802F0C8F9002840F013
:100470009B802071206AE169081885423CD2E078AF
:10048000022839D3461EF6B216F003000CD006F04F
:100490000307E069012345192A4604F13001607819
:1004A00002F0ACF97F1EF4D1B60825D0E069012333
:1004B00045192A4604F13001607802F09FF9E0699D
:1004C000012345192A4604F13001607802F096F9BB
:1004D000E069012345192A4604F13001607802F0F1
:1004E0008DF9E069012345192A4604F1300160784D
:1004F00002F084F9761ED9D12078002503284DD149
:10050000607900284AD0E5624FF4007104F13000B0
:1005100002F080FA552084F82E02AA2084F82F02D7
:10052000522084F8300084F83100612084F83200D1
:10053000412084F83300722084F8140284F81502F4
:10054000412084F81602612084F8170220690123F3
:1005500084F81802206904F130010004000E84F8C8
:1005600019022069000C84F81A022069000E84F830
:100570001B02E06884F81C02E0680004000E84F8A6
:100580001D02E068000C84F81E02E068000E84F88A
:100590001F026269607802F031F96571002211462C
:1005A000607802F0DBF900B10125284601B0F0BD0A
:1005B0002DE9F04F884681B00446B8F1020F02D30E
:1005C000A069804501D30120D2E12078012807D01D
:1005D000C0F0CC81032800F05581C0F0E480C5E173
:1005E000206A08EB5806E56A00EB5627BD425FD04B
:1005F0002079002850D001232A4604F13001607888
:1006000002F0FCF8002840F0B1812071206AE16915
:100610000818854240D2E07802283DD3401E5FFA98
:1006200080F919F003000DD009F0030AE0690123F5
:1006300045192A4604F13001607802F0DFF8BAF17A
:10064000010AF3D15FEA990926D0E069012345192F
:100650002A4604F13001607802F0D0F8E069012305
:1006600045192A4604F13001607802F0C7F8E069C4
:10067000012345192A4604F13001607802F0BEF8E2
:10068000E069012345192A4604F13001607802F03F
:10069000B5F8B9F10109D8D157B101233A4604F1AF
:1006A0003001607802F010F8002840F05F81E762C6
:1006B000F00514EBD05090F83070206A761CD4F816
:1006C0002C9000EB5625A9455FD02079002850D00A
:1006D00001234A4604F13001607802F08FF80028C7
:1006E00040F044812071206AE1690818814540D2B8
:1006F000E07802283DD3401E5FFA80FA1AF003002A
:100700000DD00AF0030BE069012381444A4604F14D
:100710003001607802F072F8BBF1010BF3D15FEAAF
:100720009A0A26D0E069012381444A4604F1300147
:10073000607802F063F8E069012381444A4604F1DD
:100740003001607802F05AF8E069012381444A469A
:1007500004F13001607802F051F8E069012381442E
:100760004A4604F13001607802F048F8BAF1010A13
:10077000D8D155B101232A4604F13001607801F047
:10078000A3FF002840F0F280E562F00514EBD050A2
:1007900090F8300047EA00275FEAC8705ABF380572
:1007A000000D3809E4E0206AE76A00EB1826B7423A
:1007B0005CD0207900284DD001233A4604F1300165
:1007C000607802F01BF8002840F0D0802071206A89
:1007D000E169081887423DD2E07802283AD3401EEA
:1007E000C5B215F003000DD005F00309E06901233F
:1007F000C7193A4604F13001607801F0FFFFB9F102
:100800000109F3D1AD0825D0E0690123C7193A46A3
:1008100004F13001607801F0F1FFE0690123C719AC
:100820003A4604F13001607801F0E8FFE069012305
:10083000C7193A4604F13001607801F0DFFFE06942
:100840000123C7193A4604F13001607801F0D6FF60
:100850006D1ED9D156B10123324604F130016078C2
:1008600001F032FF002840F08180E6624FEA480044
:10087000C00514EBD05000F230004178007840EA17
:10088000012075E0206AE76A00EBD816B74259D01C
:10089000207900284CD001233A4604F130016078D9
:1008A00001F0ACFF002861D12071206AE1690818CD
:1008B00087423DD2E07802283AD3401EC5B215F0F7
:1008C00003000DD005F00309E0690123C7193A467A
:1008D00004F13001607801F091FFB9F10109F3D121
:1008E000AD0825D0E0690123C7193A4604F130016B
:1008F000607801F083FFE0690123C7193A4604F1EB
:100900003001607801F07AFFE0690123C7193A46A7
:1009100004F13001607801F071FFE0690123C7192B
:100920003A4604F13001607801F068FF6D1ED9D1BC
:1009300046B10123324604F13001607801F0C4FE73
:10094000A0B9E6624FEA8800C00514EBD05000F26F
:1009500030008278C178120442EA0161427800785E
:1009600041EA022108430001000901E04FF0FF3095
:1009700001B0BDE8F08F2DE9F04F894681B0044603
:100980001646B9F1020F02D3A069814501D30220B6
:10099000EDE12078012807D0C0F0E681032800F0BF
:1009A0006781C0F0F280DFE1206A09EB590AE56A4D
:1009B00000EB5A2845455ED0207900284CD0012311
:1009C0002A4604F13001607801F018FF00284ED16A
:1009D0002071206AE169081885423DD2E07802283A
:1009E0003AD3401EC7B217F003000DD007F0030B37
:1009F000E069012345192A4604F13001607801F0CD
:100A0000FDFEBBF1010BF3D1BF0825D0E069012346
:100A100045192A4604F13001607801F0EFFEE069E3
:100A2000012345192A4604F13001607801F0E6FE01
:100A3000E069012345192A4604F13001607801F08C
:100A4000DDFEE069012345192A4604F13001607892
:100A500001F0D4FE7F1ED9D1B8F1000F0BD00123D5
:100A6000424604F13001607801F02EFE08B1012009
:100A70007BE1C4F82C804FEACA5014EBD05000F24E
:100A800030015FEAC97043BF087800F00F0040EA08
:100A900006103046087001202071206A0AF1010A10
:100AA000E56A00EB5A2845455AD001232A4604F14D
:100AB0003001607801F0A2FE0028D8D12071206AB0
:100AC000E169081885423DD2E07802283AD3401EF9
:100AD000C7B217F003000DD007F0030BE069012344
:100AE00045192A4604F13001607801F087FEBBF118
:100AF000010BF3D1BF0825D0E069012345192A462F
:100B000004F13001607801F079FEE06901234519B4
:100B10002A4604F13001607801F070FEE06901239B
:100B200045192A4604F13001607801F067FEE0695A
:100B3000012345192A4604F13001607801F05EFE78
:100B40007F1ED9D1B8F1000F0AD00123424604F12B
:100B50003001607801F0B8FD002888D1C4F82C80FD
:100B60004FEACA51002014EBD15101F230015FEA83
:100B7000C97248BF320906D40A78330A03F00F035A
:100B800002F0F0021A430A70EFE0206AD4F82C80D9
:100B900000EB192AD0455ED0207900284CD00123E3
:100BA000424604F13001607801F028FE00287FF40D
:100BB0005EAF2071206AE169081880453CD2E07878
:100BC000022839D3401EC5B215F003000CD005F041
:100BD0000307E06901238044424604F13001607854
:100BE00001F00CFE7F1EF4D1AD0825D0E069012391
:100BF0008044424604F13001607801F0FFFDE06975
:100C000001238044424604F13001607801F0F6FD92
:100C1000E06901238044424604F13001607801F02C
:100C2000EDFDE06901238044424604F13001607823
:100C300001F0E4FD6D1ED9D1BAF1000F0BD00123F4
:100C4000524604F13001607801F03EFD00287FF447
:100C50000EAFC4F82CA04FEA4901C90514EBD151DD
:100C600001F230010E703604320E00204A707CE032
:100C7000206AD4F82C8000EBD91AD0455ED02079B8
:100C800000284CD00123424604F13001607801F085
:100C9000B5FD00287FF4EBAE2071206AE1690818E9
:100CA00080453CD2E078022839D3401EC5B215F009
:100CB00003000CD005F00307E0690123804442469D
:100CC00004F13001607801F099FD7F1EF4D1AD0888
:100CD00025D0E06901238044424604F13001607868
:100CE00001F08CFDE06901238044424604F13001AB
:100CF000607801F083FDE06901238044424604F1FD
:100D00003001607801F07AFDE069012380444246B9
:100D100004F13001607801F071FD6D1ED9D1BAF196
:100D2000000F0BD00123524604F13001607801F02E
:100D3000CBFC00287FF49BAEC4F82CA04FEA8901BD
:100D4000C90514EBD15101F23001CA780020120616
:100D500002F07042164332040E70120E4A70320CCA
:100D60008A70320ECA7000E002200121217101B0A8
:100D7000BDE8F08FF0B581B004460E0006D1E768FB
:100D800017B1A06987420AD3012708E0FFF710FCDA
:100D9000022832BF0120A169884234D337463D463C
:100DA000A0696D1C854202D30225022F23D3294658
:100DB0002046FFF7FDFBB8B96FF070422946204688
:100DC000FFF7D9FD28B92EB12A4631462046FFF754
:100DD000D2FD90B9E560206910F1010F12D0401EDC
:100DE0002061012060710DE010F1010F18BF012892
:100DF00009D0BD42D4D1002005E001280CBF4FF03E
:100E0000FF350125284601B0F0BD70B504460D46FA
:100E1000E580A068012827D021688A69904223D202
:100E200018B90878032801D1486A30B90020E06079
:100E30000889854218D2486A23E089780E0100E0CB
:100E4000AD1BADB22268B54210D301461046FFF784
:100E5000AFFB10F1010F01D1012070BD022803D3B7
:100E6000216889698842EBD3022070BDE0609169F6
:100E7000801E891E88422FBF00209178926A01FB54
:100E8000002000EB15102061216805F00F0001EB38
:100E9000401000F230006061002070BD2DE9F04F7D
:100EA0000446E08881B00F46401C1FFA80F8B8F174
:100EB000000F1CBF2069002823D018F00F0140F05C
:100EC0001581401C2061E168206829B900898045AE
:100ED000C0F20C81042014E18278521E12EA181F1D
:100EE00040F00481FFF764FB0646022E15D316F18D
:100EF000010F00F0E980206881698E42C0F0E9802E
:100F00000FB90420FDE0E168FFF734FF060008BFD9
:100F1000072000F0F680012E01D10220F1E016F149
:100F2000010F00F0D1802768FD6A002D1CBF3879C1
:100F3000002850D001232A4607F13001787801F0CB
:100F40005DFC002840F0C0803871386AF9690818E3
:100F5000854240D2F87802283DD3401E5FFA80F9DE
:100F600019F003000DD009F0030AF86901234519AF
:100F70002A4607F13001787801F040FCBAF1010A05
:100F8000F3D15FEA990926D0F869012345192A4669
:100F900007F13001787801F031FCF8690123451937
:100FA0002A4607F13001787801F028FCF86901231E
:100FB00045192A4607F13001787801F01FFCF869DD
:100FC000012345192A4607F13001787801F016FC13
:100FD000B9F10109D8D120684FF40071303001F027
:100FE00019FD2068B21E83699B1E9A422FBF002103
:100FF0008378816A03FB0211C16200274BE02871EC
:10100000286AE9690818814540D2E87802283DD36A
:10101000401E5FFA80FA1AF003000DD00AF0030BAD
:10102000E869012381444A4605F13001687801F0FE
:10103000E5FBBBF1010BF3D15FEA9A0A26D0E86920
:10104000012381444A4605F13001687801F0D6FB5E
:10105000E869012381444A4605F13001687801F0CE
:10106000CDFBE869012381444A4605F130016878E7
:1010700001F0C4FBE869012381444A4605F13001CF
:10108000687801F0BBFBBAF1010AD8D120687F1C57
:10109000C16A491CC1622068FFB281788F4215D2B3
:1010A000012101712568D5F82C90B9F1000F1CBF02
:1010B00028790028EAD001234A4605F130016878F2
:1010C00001F09CFB00289AD001201AE0C16AC91BDC
:1010D000C162E6602068B11E8269921E91422FBFF4
:1010E00000208278806A02FB01002061A4F806805B
:1010F000216808F00F0001EB401000F23000606141
:10110000002001B0BDE8F08F2DE9F04381B0044626
:101110000021FFF77AFE002840F07F8026682569CD
:10112000D6F82C80A8455BD0307900284CD001231C
:10113000424606F13001707801F060FB00284CD186
:101140003071306AF169081880453DD2F078022884
:101150003AD3401EC7B217F003000DD007F00309C1
:10116000F06901238044424606F13001707801F0B5
:1011700045FBB9F10109F3D1BF0825D0F06901237E
:101180008044424606F13001707801F037FBF06987
:1011900001238044424606F13001707801F02EFBB5
:1011A000F06901238044424606F13001707801F075
:1011B00025FBF06901238044424606F13001707836
:1011C00001F01CFB7F1ED9D155B101232A4606F13F
:1011D0003001707801F078FA08B101201DE0F56265
:1011E000616900200A780AB9042016E0CA7A120759
:1011F0000CD40B22A36900251646721E2EB111F8DD
:10120000015B13F8016BAD1BF6D035B10021204610
:10121000FFF744FE00283FF481AF01B0BDE8F08342
:101220002DE9F04704460021FFF7EFFD050070D1DE
:1012300026682569F76AAF425ED0307900284FD022
:1012400001233A4606F13001707801F0D7FA002800
:101250004FD13071306AF1690818874240D2F07876
:1012600002283DD3401E5FFA80F818F003000DD02D
:1012700008F00309F0690123C7193A4606F1300165
:10128000707801F0BBFAB9F10109F3D15FEA98086F
:1012900026D0F0690123C7193A4606F1300170786B
:1012A00001F0ACFAF0690123C7193A4606F13001A2
:1012B000707801F0A3FAF0690123C7193A4606F1E4
:1012C0003001707801F09AFAF0690123C7193A46A3
:1012D00006F13001707801F091FAB8F10108D8D127
:1012E00055B101232A4606F13001707801F0ECF97E
:1012F00008B1012599E0F562606900250078E528CC
:1013000018BF002808D001212046FFF7C7FD0500BF
:101310008ED0002D40F0898027682669D7F82C8070
:10132000B0455DD0387900284FD00123424607F1FF
:101330003001787801F062FA0028DAD13871386A21
:10134000F9690818804540D2F87802283DD3401E3C
:101350005FFA80F919F003000DD009F0030AF8696B
:1013600001238044424607F13001787801F046FAC3
:10137000BAF1010AF3D15FEA990926D0F86901238D
:101380008044424607F13001787801F037FAF86975
:1013900001238044424607F13001787801F02EFAAB
:1013A000F86901238044424607F13001787801F062
:1013B00025FAF86901238044424607F13001787824
:1013C00001F01CFAB9F10109D8D14EB1012332461E
:1013D00007F13001787801F077F9002889D1FE62B1
:1013E00066692021304601F015FBA06910F8011B49
:1013F00006F8011B5FF0020110F8012B491E06F8E8
:10140000012B10F8012B06F8012B10F8012B06F820
:10141000012B10F8012B06F8012B10F8012B06F810
:10142000012BE9D12068012101712846BDE8F08730
:101430002DE9F0438846D8F8005000E06D1C29786B
:101440002F2918BF5C29F9D0866920220B2130464C
:1014500001F0E4FA002100220F4608200FF2F00C00
:1014600007E0082808BF2E2B57D1890608220B2039
:10147000090E7B5D7F1C212B03DB2F2B18BF5C2B00
:1014800007D17D19C8F80050212BB4BF04230023D5
:1014900042E02E2BE5D08242E3D2802BA8BF41F060
:1014A0000301A3F181047E2C12D217F805E07F1C02
:1014B000AEF140043F2C27BFAEF180047F2C441EC8
:1014C000A2422AD29355521C02F806E0521CD0E7E1
:1014D000644600E0641C94F80090B9F1000F18BF56
:1014E0009945F7D1CE46BEF1000F16D1A3F1410EBA
:1014F000BEF11A0F3CBF41F00201C9B209D3A3F1FA
:10150000610EBEF11A0F04D241F00101203BC9B2B5
:10151000DBB29355521CACE70AB9062015E03278CD
:10152000E52A04BF05223270082808BF890001F0AF
:101530000300012808BF43F0100301F00C00042849
:1015400008BF43F00803F3720020BDE8F0830000F9
:10155000222A2B2C3A3B3C3D3E3F5B5D7C7F0000CA
:1015600012B50446087881B02F2812BF5C28481CA9
:1015700001900020A06001980078202811D200215D
:101580002046FFF742FC0021616121E0417D027DA0
:1015900042EA0121C27E807E40EA022040EA014008
:1015A000A06001A92046FFF743FF88B92046FFF756
:1015B000ABFDA169C97A20B1042809D1490707D434
:1015C00005E0490704D46069C17AC906DED4052064
:1015D00002B010BD2DE9F041164602681378303B89
:1015E0000A2B07D254783A2C04D1921C02600BB11A
:1015F0000B209AE1D54C65680D600DB90C2094E183
:10160000287848B1687801F0EDF9C10704D40EB12B
:1016100040070ED4002088E100202870687000F098
:1016200053FFC10748BF032000F17F811EB140076F
:1016300001D50A2079E14FF000080123002205F1CD
:101640003001687801F040F8002840F0EE8095F80D
:101650002F0295F82E124AF6552641EA0020B04294
:1016600040F0F88095F8671095F86800B84F0902C7
:1016700041EA004095F866100843B84248D095F812
:10168000831095F88400090241EA004095F8821021
:101690000843B8423CD005F2EE100179002900F071
:1016A000D980827AC17A0123120442EA0161427A26
:1016B000007A41EA022140EA0108424605F1300180
:1016C000687801F001F8002840F0AF8095F82F020B
:1016D00095F82E1241EA0020B04240F0BB8095F808
:1016E000671095F86800090241EA004095F8661015
:1016F0000843B8420CD095F8831095F8840009028D
:1017000041EA004095F882100843B84240F0A280B8
:1017100095F83C0095F83B1041EA00204FF4007129
:10172000884240F0978095F8470095F8461051EAB6
:1017300000200DD195F8561095F85700090441EA9C
:10174000006095F8551040EA012095F854100843C0
:10175000E86195F84010E970012918BF022979D194
:10176000484395F83D10A970002973D04A1E1142D4
:1017700070D195F8421095F8412042EA01210F22DC
:101780002981114266D195F8442095F8433053EAF7
:10179000022C0ED195F8523095F853201B0443EAE1
:1017A000026295F8513042EA032295F8503043EA3C
:1017B000020C95F83F2095F83E3053EA022249D0BA
:1017C000831803EB11139C4544D395F802E0ACEB6E
:1017D000030CBCFBFEFCBCF1000F3BD0012740F624
:1017E000F67EF44528BF02274FF6F67EF44528BF63
:1017F00003270CF1020CC5F818C04344AB62424405
:101800002A62032F13D129BB95F85E1095F85F006B
:10181000090441EA006095F85D1040EA012095F85E
:101820005C100843A96989000DE001207DE089B1C1
:101830008018A969022F0FBF490001EB410201F096
:10184000010101EB52016862E86901F2FF11B0EB9E
:10185000512F01D20D2068E04FF0FF3028610020A9
:10186000E860032F59D1687195F8610095F8601010
:10187000012341EA002018FA80F26A6105F1300183
:10188000687800F021FF002801BF95F82F0295F835
:101890002E1241EA0020B0423FD195F8321095F85F
:1018A0003300090441EA006095F8311040EA012054
:1018B00095F830100843274988422ED195F8161222
:1018C00095F81702090441EA006095F8151240EAFC
:1018D000012095F8141208431F4988421DD195F83C
:1018E0001E1295F81F02090441EA006095F81D12C6
:1018F00040EA012095F81C120843E86095F81A1296
:1019000095F81B02090441EA006095F8191240EAB3
:10191000012095F81812084328612F702088401C78
:101920002080E8800020E8622871BDE8F08108B1DD
:101930000B207047054842680AB10023137009B1B3
:1019400000220A7041600020704700008450FF1F91
:101950004641540052526141727241612DE9F24F89
:10196000054600208CB0286002F01F0909F0FE0235
:1019700001A90CA8FFF72EFE040008A8079004D1C7
:101980000C9901A8FFF7ECFD0446069F002C04BF4C
:10199000002F06241C2019EA000F00F0E980002C1B
:1019A00054D0042C03D101A8FFF73AFC044649F0B7
:1019B0000809069F002C40F0E8805FEA097040F1BA
:1019C000EA800020C04601460004B973000EF87397
:1019D000080C3874080E78740020F872387778771D
:1019E000B877F877787D397DBA7E41EA0020F97EB4
:1019F00042EA012141EA004000900020B876F876E2
:101A0000387578750198012101710098002800F05F
:101A1000BD800198DDF800B0D0F82C800646BBF1FF
:101A2000020F31D3B06983452ED200245946304687
:101A3000FEF7BEFD8246BAF1000F26D0BAF1010FC3
:101A400022D01AF1010F0BD101241EE0F87A1121E6
:101A5000084240F098805FEA4970AED50824BEE0A5
:101A6000002259463046FEF786FF04000DD130694A
:101A700010F1010F03D0401C306101207071B0697A
:101A8000D3468345D2D300E00224002C7DD10099B7
:101A90000198491EC160019ED6F82CA0C24575D0A0
:101AA0003079002854D00123524606F13001707875
:101AB00000F0A4FE002856D13071306AF169081890
:101AC000824545D2F078022842D3401EC0B2009031
:101AD000009810F003000ED0009800F0030BF0699E
:101AE00001238244524606F13001707800F086FEF0
:101AF000BBF1010BF3D100984FEA900B5FFA8BF02A
:101B000030B3F06901238244524606F13001707807
:101B100000F074FEF06901238244524606F1300160
:101B2000707800F06BFEF06901238244524606F1A2
:101B30003001707800F062FEF06901238244524661
:101B400006F13001707800F059FEBBF1010BD8D1DD
:101B5000B8F1000F1AD00123424606F13001707827
:101B600000F0B2FD08B1012439E0C6F82C800DE088
:101B70005CB9F87AC10648BF042430D45FEA8971A1
:101B800004D5C00702D5072429E044BB5FEA0970E9
:101B900048BF49F020090198C06AE8612F6285F8C2
:101BA0000690787D397DBA7E41EA0020F97E42EACE
:101BB000012141EA00402861B97FF87F090441EA28
:101BC0000060797F40EA0120397F0843E860002007
:101BD000A860A861019828600198C088A880204664
:101BE0000DB0BDE8F08F00002DE9F84F8A460021C6
:101BF00007461960396882B09046B88800291CBF32
:101C00000A78002A10D0CA8882420DD1487800F0A4
:101C1000E9FEC00748BF03201BD4B879010605D4EC
:101C2000800705D4072014E0092012E0022010E00C
:101C3000F86808EB0001814280F0BE81F868B9685D
:101C4000884238BF0846F860B87940F02000B87183
:101C5000002003B0BDE8F08F7969FFF78BF80146EB
:101C60000029EBD001296AD011F1010F00F0C381E6
:101C700079613C68B969E06A884253D10546002D14
:101C80001CBF207900284DD001232A4604F13001E1
:101C9000607800F0B3FD002840F0AD812071206A2B
:101CA000E169081885423DD2E07802283AD3401E07
:101CB000C6B216F003000DD006F0030BE069012355
:101CC00045192A4604F13001607800F097FDBBF118
:101CD000010BF3D1B60825D0E069012345192A4646
:101CE00004F13001607800F089FDE06901234519B5
:101CF0002A4604F13001607800F080FDE06901239C
:101D000045192A4604F13001607800F077FDE0695A
:101D1000012345192A4604F13001607800F06EFD78
:101D2000761ED9D13C687969A269891E921E9142BA
:101D30002FBF0025A278A06A02FB01052DB9B87952
:101D400040F08000B871022083E74D445FEA5826D6
:101D500041D0A07806EB0901884238BFA0EB090604
:101D6000F3B22A465146607800F048FD002840F062
:101D700042813868C16A491BB1422AD200F2300060
:101D80000AEB41215FF0400211F8013B521E00F8BE
:101D9000013B11F8013B00F8013B11F8013B00F851
:101DA000013B11F8013B00F8013B11F8013B00F841
:101DB000013B11F8013B00F8013B11F8013B00F831
:101DC000013B11F8013B00F8013BDDD138680021EF
:101DD00001717402E5E0B868F96888425ED304F2E4
:101DE0001C06D6F81090B9F1000F1EBF04F1010BCC
:101DF0009BF8030000284FD001234A4604F130012C
:101E0000607800F0FBFC002840F0F5808BF80300C0
:101E10007068E169081881453ED29BF802000228EB
:101E20003AD3401EC6B216F003000DD006F0030BE5
:101E3000E069012381444A4604F13001607800F0F2
:101E4000DDFCBBF1010BF3D1B60825D0E06901231D
:101E500081444A4604F13001607800F0CFFCE0692B
:101E6000012381444A4604F13001607800F0C6FC49
:101E7000E069012381444A4604F13001607800F0B2
:101E8000BDFCE069012381444A4604F130016078D9
:101E900000F0B4FC761ED9D13868C562BD61B9685E
:101EA0004FF40070C905B0EBD1504446804588BF5F
:101EB0000446B86900903D68D5F82C9081455DD006
:101EC000287900284DD001234A4605F13001687871
:101ED00000F094FC002840F08E802871286AE9699F
:101EE000081881453DD2E87802283AD3401EC6B290
:101EF00016F003000DD006F0030BE86901238144BE
:101F00004A4605F13001687800F078FCBBF1010B1E
:101F1000F3D1B60825D0E869012381444A4605F18A
:101F20003001687800F06AFCE869012381444A4680
:101F300005F13001687800F061FCE8690123814413
:101F40004A4605F13001687800F058FCE869012341
:101F500081444A4605F13001687800F04FFC761E56
:101F6000D9D1009850B10246012305F130016878BB
:101F700000F0AAFB00283ED10098E862B9683A68F0
:101F8000C90512EBD151204601F23001524628B169
:101F900012F8013B401E01F8013BF9D138680121DC
:101FA0000171B868A2442018B860029802990068CC
:101FB000A8EB040820180860B8F1000F3FF43EAE0B
:101FC000B968C8057FF46BAF386883785B1E13EA85
:101FD00051225FFA82F9B9F1000F7FF44AAE00296D
:101FE0007FF43AAE396900297FF43AAEFEF7C2FEBB
:101FF0000146396134E6B87940F08000B8710120BB
:1020000027E62DE9F0430446216881B0A088002925
:102010001CBF0A78002A72D0CA8882426FD14878E1
:1020200000F0E0FCC00748BF032000F1A280A179C6
:102030000020890640F19D802668E569D6F82C804D
:10204000A84561D0307900284CD00123424606F1E2
:102050003001707800F0D2FB00284CD13071306A2A
:10206000F169081880453DD2F07802283AD3401E25
:10207000C7B217F003000DD007F00309F069012380
:102080008044424606F13001707800F0B7FBB9F1A8
:102090000109F3D1BF0825D0F069012380444246ED
:1020A00006F13001707800F0A9FBF069012380444B
:1020B000424606F13001707800F0A0FBF069012380
:1020C0008044424606F13001707800F097FBF069D9
:1020D00001238044424606F13001707800F08EFB07
:1020E0007F1ED9D185B101232A4606F130017078CF
:1020F00000F0EAFA38B1012001B0BDE8F083092010
:1021000001B0BDE8F083F562256AE87A40F020006E
:10211000E872E0682877E0680004000E6877E068FD
:10212000000CA877E068000EE8772069A87620699F
:102130000004000EE8762069000C28752069000C68
:10214000000A68750020C0460104A875090EE975EB
:10215000010C2976000E6876A079012101B000F00B
:10216000DF00A071206801712068BDE8F043FEF730
:102170006DB901B0BDE8F08310B50446FFF741FF2B
:1021800008B90021216010BD30B5044683B00D466A
:102190000A2C04BF0D20FFF7F7FF8DF8004001ABBC
:1021A000012200A92846FFF71FFD0198012818BF4A
:1021B0004FF0FF3003B030BD0CB42DE9F04F89B0C3
:1021C00081468A460DF1480B4FF0000814E00446A2
:1021D0000A2C03D149460D20FFF7D6FF8DF80440A5
:1021E00000AB012201A94846FFF7FEFC0098012838
:1021F00040F0508108F101081AF8010B002800F0A6
:102200004C812528E3D11AF8010B00210024302845
:1022100008BF012102D02D2802D102211AF8010B9A
:10222000A0F130020A2A0BD204EB840200EB420038
:10223000A0F130041AF8010BA0F130020A2AF3D3FE
:102240006C2812BF4C2841F004011AF8010B002839
:1022500000F023810646A6F161021A2A3CBFA6F1CE
:102260002002D6B2422E00F08980432E70D0442E38
:1022700000F08C804F2E00F08580532E07D0552E15
:1022800000F08480582E00F08580044663E05BF8FF
:10229000046B0027304690F8002022B110F8012F7F
:1022A0007F1C002AFAD10025880714D4A74211D236
:1022B00020208DF800007F1C01AB012200A94846B8
:1022C000FFF792FC0198012818BF4FF0FF30451925
:1022D000A742EDD37F1C0096002603E00098761CF1
:1022E000401C009000980078B0B18DF80C000A28CE
:1022F00003D149460D20FFF747FF9DF80C0001ABC5
:1023000001228DF8080002A94846FFF76DFC0198EC
:102310000128E3D04FF0FF367519A74212D22020D2
:102320008DF804007F1C00AB012201A94846FFF78D
:102330005BFC009801280CBF01264FF0FF36751991
:10234000A742ECD316F1010F00F09F802E469CE0CF
:102350005BF8040BC4B20A2C03D149460D20FFF7E9
:1023600013FF8DF8044000AB012201A94846FFF796
:102370003BFC0098012840F08D803BE702225BF88F
:10238000043B0AE008225BF8043B06E00A225BF803
:10239000043B02E010225BF8043B442E04D1002BE6
:1023A00044BF5B4241F008015FF000050DF11008E9
:1023B000B3FBF2FC02FB1C36F6B263460A2E07D3CF
:1023C00078280CBF4FF0270C4FF0070C6644F6B28C
:1023D000303608F8016B6D1C0BB1102DE8D30807DF
:1023E00003D504A82D222A546D1C2F46C8074CBFC4
:1023F000302620264FF00008880718D56D1E04A847
:102400002E5C0A2E03D149460D20FFF7BDFE8DF844
:10241000046000AB012201A94846FFF7E5FB0098E4
:1024200001280CBF01264FF0FF3612E080443846E9
:10243000471CA042E2D28DF8046000AB012201A942
:102440004846FFF7D1FB0098012818BF4FF0FF3036
:10245000ECE7B044002DD1D1A74212D220208DF854
:1024600004007F1C00AB012201A94846FFF7BCFB1A
:10247000009801280CBF01264FF0FF36B044A74258
:10248000ECD316F1010F18BF4646B04416F1010F08
:102490007FF4B2AE4FF0FF3000E0404609B0BDE837
:1024A000F00F5DF80CFB50F8041B61B150F8042BE1
:1024B000D30744BFA9F101039A18002342F8043B53
:1024C000091FFAD1EFE77047F0B5DFF82445DFF8D0
:1024D000241589B0216008B10120F2E0DFF8185519
:1024E00028788007287800F1EC800321084200F06A
:1024F000DF80DFF80805DFF8081501600121416081
:1025000000206060A0602061A081DFF8F80401680D
:1025100041F400310160002141F2013000F0C6FBBE
:10252000002840F0C580009000A941F2033000F07F
:10253000BDFB002840F0BC800098022808D003288A
:1025400004D0052804D0062840F0B2800120207372
:1025500002208DF8040000208DF8050002908DF80F
:102560000C00049041F2023601A9304600F09EFBB7
:10257000002840F09D8003208DF8040000208DF895
:10258000050002908DF80C00049001A9304600F07F
:102590008DFB002840F08C80059801A9000C0004F8
:1025A000206109208DF8040000208DF805002069C5
:1025B000029000208DF80C000490304600F076FB6D
:1025C000002875D10898069A10F4400F16D1079884
:1025D000970DD20900F0030302F00702012147EA38
:1025E0008323921C5B1C01FA02F25A43000A00F09A
:1025F0000F00093801FA00F0504306E00120607333
:1026000002F200108000800A8002A06007208DF88E
:10261000040000208DF80500206901A90290002027
:102620008DF80C000490304600F040FB00283FD1AC
:1026300010208DF8040000208DF805004FF4007084
:10264000029000208DF80C00049001A9304600F0A3
:102650002DFB68BB2068006801282BD137208DF83E
:10266000040000208DF80500206901A902900020D7
:102670008DF80C000490304600F018FBC0B94620DD
:102680008DF8040000208DF8050002200290002043
:102690008DF80C00049001A9304600F007FB38B912
:1026A0000120009000A941F2073000F0FFFA08B1C4
:1026B000002006E0287800F0FE002870287800F05E
:1026C000030009B0F0BD0000F0B589B00C461D460E
:1026D00040B93DB1DFF820030078C00748BF0320B0
:1026E00047D40CB9042044E0C148007B00B9520231
:1026F00041F20230012D3ED111218DF80010002150
:102700008DF8011001218DF808100391019200A9A4
:1027100000F0CCFA00286FD1BB480068022818BF2F
:10272000032803D0072818BF082803D1B7484068FA
:102730004007FBD44FF400710B4640F20122B3482E
:102740001D4604E0934201D21D4600E00D46EE1CFA
:10275000B6080BD0076917F4E00F47D147683F056B
:10276000FCD50768761E44F8047BF3D15B1BE9D1E6
:10277000002009B0F0BD12218DF8001000218DF865
:10278000011001218DF808100192039500A900F0B5
:102790008DFA88BB9C486B020068022818BF03288A
:1027A00004D0072818BF082840F0048097484068E4
:1027B0004007FBD440F2012294484FF4007108E036
:1027C00047683F05FCD507686D1E44F8047B09D1B6
:1027D0009B1B002BCCD093422CBF0E461E46F51CF3
:1027E000AD08F5D0076917F4E00FE9D0016941F4AD
:1027F000E00141F0200101610120BAE7F0B589B0A4
:102800000F461C4670B96CB17B480178C90748BFB8
:10281000032000F1A0800078400748BF022000F1AB
:102820009A800FB9042096E0714D287B00B95202BE
:1028300041F20236012C52D118208DF80000002000
:102840008DF801008DF8080001200390019200A985
:10285000304600F02BFAC8B94FF400710B4640F235
:1028600001226A481C4600E00C461B1BE41CA4081D
:1028700000F02F80D0F810C01CF4E00F1ED00169CA
:1028800041F4E00141F01001016100240D208DF8B8
:10289000000000208DF80100286900A901900020A7
:1028A0008DF808000390304600F000FA002802BFBF
:1028B00004985749084245D001204CE0D0F804C0A4
:1028C0005FEA4C5CFAD557F804CB641EC0F800C030
:1028D000D0D1002BD9D09342C6D21C46C5E71920CF
:1028E0008DF8000000208DF801008DF8080001929D
:1028F000039400A9304600F0D9F90028C6D163023C
:1029000040F2012241484FF40071002BBDD09342A8
:102910002CBF0C461C461B1BE41CA4083FF4F5AF5F
:10292000D0F810C01CF4E00F7FF4A9AFD0F804C0B9
:102930005FEA4C5CFAD557F804CB641EC0F800C0BF
:10294000EED1E2E700F4F850B0F5106F9ED1601EB2
:102950008041C043C00F09B0F0BD000010B588B081
:10296000144600283BD124480078C00748BF032004
:1029700036D4032933D8DFE801F03002070C1C48B5
:102980008068206000202BE04FF400702080002041
:1029900026E009208DF8000000208DF80100144881
:1029A00000A90069019000208DF80800039041F211
:1029B000023000F07BF908B1012011E0079810F413
:1029C000400F0AD10699000AC1F3864100F00300C6
:1029D000491C401E01FA00F02060002000E00420A5
:1029E00008B010BD08B10120704703480078704757
:1029F0003C51FF1F5051FF1FDC1FFF1F5853FF1F8B
:102A000090310000308004405451FF1F20100B40D3
:102A10000880D9FF002200F005B8000062F30F2201
:102A200062F31F42401810F0030308D0C91A1FD3E5
:102A3000DB0748BF00F8012D28BF20F8022D130046
:102A400030B414461546103928BF20E93C00FAD8A6
:102A5000490728BF20E90C0048BF40F8042D890031
:102A600028BF20F8022D48BF00F8012D30BC704768
:102A7000C91818BF00F8012DCB0728BF00F8012D99
:102A8000704700002DE9F04100210160DFF8D41605
:102A9000DFF8D4268A628A6AD201FCD40022C1F807
:102AA000BC204FF481320A6028224A624FF00112A2
:102AB0000A64DFF8B8264FF47A7312684FF0FF35D6
:102AC00003FB02F480220F235FF0020640F201189C
:102AD000DFF89CC64FF0010E0EFB06F70CFB07F764
:102AE0003F1B04D4AF4202D23D46324673460EF13C
:102AF000010EBEF1110FEFD376004645EAD38C6A82
:102B0000DFF85C5624F008048C628C6AD2015B1EEC
:102B10002C4002F47F421B01224303F0F0031A43CE
:102B200042F460228A620A6A1207FCD58A6A42F07D
:102B300008028A62CA6A42F48012CA620A6A12F001
:102B40000302FBD1DFF82C2640F2434313605360AD
:102B50004FF488649460D36013615361DFF81826E2
:102B6000136843F4003313604FF6FF72CA62DFF854
:102B70000C260A638A6A42F000628A628A6A12013B
:102B8000FCD40A6AD20344BF01220260C86A40F042
:102B90008000C8620020BDE8F081000001780FF2DB
:102BA000F85301F03F0253F822200AB900295AD104
:102BB000DFF8CC150B6B43F080030B634B6ADB072C
:102BC000FCD443688B60437863F39752022B08BFB1
:102BD00042F400120CD0042B0AD102F44033B3F5B6
:102BE000003F0EBF42F4403222F4403242F4003241
:102BF0004B689BB24B60C368DBB102F4403CBCF550
:102C0000403F18BF42F4001290F808C0BCF1000F1A
:102C100018BF42F01002022B28BF42F0200213F12D
:102C2000010F06D0D1F804C042F002024CEA03437F
:102C30004B6000230B60CA60DFF84835D1F830C024
:102C400013EA0C0CFAD0BCF1010F1EBF086B40F464
:102C5000702040F0010005D10B6B1B0605D5086BF9
:102C600040F001100863012070470B6BDB0306D5B1
:102C7000086B40F0011008634FF0FF30704712F40A
:102C8000403F0CD00B6902F440320361B2F5803F43
:102C900005D14A6942618A698261CA69C261086B69
:102CA00040F0010008630020704700002DE9F04764
:102CB000DFF8D46488B00025D6F8044214B940F691
:102CC0000B204AE2C01E00F03382801F00F02882F1
:102CD00041F2F822801A18D0401E00F02A81401ECE
:102CE00000F0FF81401E00F03181401E00F0458160
:102CF000401E00F0C981401E00F0D181401E00F04E
:102D0000A481401E00F0A98124E20FF284413046E4
:102D1000FFF7B8FE050040F01F820027ADF80070F5
:102D200001978DF80870039700A8FFF737FF002878
:102D300040F0A98040F24C4000F0AEFA08208DF837
:102D400000004FF4D57001908DF801708DF8087077
:102D5000039700A8FFF722FF28B904980199884239
:102D600040F09180012737208DF8000000208DF879
:102D7000010001908DF80800039000A8FFF70EFFF6
:102D8000012880F2808000283FD501208DF80000C6
:102D900000208DF80100DFF8F403019000208DF889
:102DA0000800039000A8FFF7F9FE00286BD1272048
:102DB0008DF8000000208DF801004FF44060019074
:102DC00000208DF80800039000A8FFF7E7FE002818
:102DD00059D10498000ACE2867D127208DF8000029
:102DE00000208DF801004FF45060019000208DF814
:102DF0000800039000A8FFF7D1FE002843D10498F3
:102E0000000AAA2851D1082055E069208DF8000059
:102E100000208DF8010001908DF80800039000A8B3
:102E2000FFF7BCFE78BB049810F4401F44D04FF06D
:102E3000000A4FF44018DFF854930A2000F02CFAEF
:102E400037208DF8000000208DF8010001908DF8EA
:102E5000080003900AF1010A00A8FFF79FFE90B94D
:102E600069208DF8000000208DF80100002F14BFAC
:102E7000CDF80490CDF804808DF80800039000A8E8
:102E8000FFF78CFE08B1012566E10498002802D402
:102E9000BAF1640FD1DBBAF1640F0DDA3FB100274C
:102EA000400004D50220306004E0072003E0022047
:102EB00030600FB103203060AE48002101604160F6
:102EC0008160C16001614161A8494FF47A7309686A
:102ED000626803FB01F680235FF00F044FF0FF37B9
:102EE0004FF0020C40F201114FF0010E02FB0CF802
:102EF0000EFB08F8B8EB060804D4B84502D24746E2
:102F0000634674460EF1010EBEF1110FEED34FEA87
:102F10004C0C8C45E8D3934A914E916ADB0121F029
:102F200008019162916A03F47F4331401943631EA3
:102F300069E00846FFF732FE0128A8BF022580F2AB
:102F40000B81002840F10881032505E1002900F0EC
:102F5000C980844A854B906A926A1B684FF47A74E0
:102F60006343C009C2F3031200F4FF70521C12FB4A
:102F700000F0B3FBF0F00860EEE000291CBF086829
:102F8000002800F0AF80774A40F20733106A1842F9
:102F900040F0A48077484FF47A74056045608560FE
:102FA000C560056145610B6870490F2609684FF0DF
:102FB000FF3C04FB01F780244FF0020E40F20111A8
:102FC0004FF0010803FB0EF908FB09F9B9EB0709FB
:102FD00004D4E14502D2CC467446464608F10108C5
:102FE000B8F1110FEED34FEA4E0E8E45E8D3916A39
:102FF0005B4B21F008019162916A1940E30103F4EF
:103000007F431943731E1B0103F0F003194341F47E
:1030100060219162116A0907FCD5916A41F00801AB
:103020009162D16A41F48011D16240F24341016062
:1030300041604FF488628260C160016141614E4825
:10304000016841F40031016086E000294AD045481A
:103050000068C004C00C08607EE0002942D0414AEC
:1030600040F20733106A184238D10868B0F5805F23
:1030700038D21068400B4003106010680968C9041A
:1030800050EAD140106067E061B33648406AC0F34F
:103090004102002A18BF012A1ED10A605CE009B370
:1030A000304A40F20733106A184217D1086860B1FD
:1030B000012808D1506A20F006005062506A40F0A2
:1030C0000200506248E0022806D1506A20F0060053
:1030D0005062506A50623FE005253DE040F60A2507
:1030E0003AE009B90C2537E01E4A906A40F00060CA
:1030F0009062906A0001FCD4D06A000604D5D06AC0
:1031000040F08000D0623560106AC00304D530689A
:1031100018B90120306000E03560306808601BE0BD
:103120001C200860042048604FF41E70886013E083
:103130000C4AD06A8007FBD5D06A10F4E00F04D0A7
:10314000D06A042540F4E000D062D06A40F032003A
:10315000D06201E040F60925284608B0BDE8F087B6
:103160000F00F0FF04100B40008000016053FF1FB0
:1031700060CC050000D0044030800440B3007F00E4
:1031800000100B4001000E005451FF1F00003040A2
:103190000000000040787D010000000000000001F8
:1031A0000000090200001A030000000400000205EC
:1031B00000001A0600001B0700001A080000090999
:1031C0000000090A00001A0B0000DB0C00001A0DB9
:1031D000000000000000000F00001A1000001A118B
:1031E00000001A120000000000001A140000000085
:1031F00000001A1600001A1700001A1800001A1909
:1032000000001A1A00001A1B00001B1C00001B1DE6
:1032100000001A1E0000000000001A2000001A2101
:1032200000001A2200001A2300001A2400001A25A8
:1032300000001B260000022700001A2800000229B7
:1032400000001B2A00000000000000000000000039
:10325000000000000000000000000000000000006E
:103260000000000000001A3300001A3400001A3574
:103270000000000000001A3700001B3800000000AA
:10328000000000000000000000001B3C00001B3D8F
:1032900000000000000000000A490A6842F0010234
:1032A0000A600949886005204860086840F001000C
:1032B000086008680006FCD50868400840000860FF
:1032C0007047000038800440000004400080034044
:1032D0000090034000800B40000000000000000050
:1032E00000000000000000000000000000000000DE
:1032F00000000000000000000000000000000000CE
:1033000000000000000000000000000000000000BD
:1033100000000000000000000000000000000000AD
:10332000000000000000000000000000000000009D
:10333000000000000000000000000000000000008D
:10334000000000000000000000000000000000007D
:10335000000000000000000000000000000000006D
:10336000000000000000000000000000000000005D
:10337000000000000000000000000000000000004D
:10338000000000000000000000000000000000003D
:10339000000000000000000000000000000000002D
:1033A000000000000000000000000000000000001D
:1033B000000000000000000000000000000000000D
:1033C00000000000000000000000000000000000FD
:1033D00000000000000000000000000000000000ED
:1033E00000000000000000000000000000000000DD
:1033F00000000000000000000000000000000000CD
:1034000000000000000000000000000000000000BC
:1034100000000000000000000000000000000000AC
:10342000000000000000000000000000000000009C
:10343000000000000000000000000000000000008C
:10344000000000000000000000000000000000007C
:10345000000000000000000000000000000000006C
:10346000000000000000000000000000000000005C
:10347000000000000000000000000000000000004C
:10348000000000000000000000000000000000003C
:10349000000000000000000000000000000000002C
:1034A000000000000000000000000000000000001C
:1034B000000000000000000000000000000000000C
:1034C00000000000000000000000000000000000FC
:1034D00000000000000000000000000000000000EC
:1034E000000000000000000000000010101010108C
:1034F0001000101000000000000000242424000030
:10350000000000000000000000000024247E2424AD
:10351000247E242400000000000000107C90907C99
:1035200012127C100000000000000000626408100D
:10353000204C8C00000000000000000018242050E7
:103540008A844A30000000000000001010200000B3
:1035500000000000000000000000081020202020D3
:103560002020201008000000000020100808080893
:103570000808081020000000000000000010543867
:103580003854100000000000000000000010107C03
:10359000101000000000000000000000000000000B
:1035A0000000101020000000000000000000007C5F
:1035B000000000000000000000000000000000000B
:1035C00000000010000000000000000000020408DD
:1035D00010204000000000000000003844444C541B
:1035E0006444443800000000000000103010101047
:1035F00010101038000000000000003844040408D7
:103600001020407C000000000000007C04081038FE
:10361000040404780000000000000008182848484E
:103620007C080808000000000000007C4040407852
:1036300004040478000000000000003C4040407892
:1036400044444438000000000000007C04040810DA
:1036500020202020000000000000003844444438AE
:103660004444443800000000000000384444443C16
:1036700004040438000000000000000000000010F6
:10368000000010000000000000000000000000002A
:1036900010001010200000000000000000040810BE
:1036A0002010080400000000000000000000007C62
:1036B000007C000000000000000000000020100856
:1036C00004081020000000000000384444040810E2
:1036D0001000101000000000000000000038445CE2
:1036E000545C403C00000000000018244242427E2E
:1036F000424242420000000000007C4242427C42C2
:103700004242427C0000000000003C4240404040F9
:103710004040423C0000000000007C4242424242E5
:103720004242427C0000000000007E404040784061
:103730004040407E0000000000007E404040784055
:10374000404040400000000000003C4240405E42DB
:103750004242423C000000000000424242427E429F
:1037600042424242000000000000381010101010C9
:10377000101010380000000000001C08080808089D
:1037800008084830000000000000424448506060D3
:10379000504844420000000000004040404040408B
:1037A0004040407E0000000000008282C6C6AAAAF7
:1037B0009292828200000000000042626252524AED
:1037C0004A4646420000000000003C42424242425B
:1037D0004242423C0000000000007C424242427CE7
:1037E000404040400000000000003C424242424253
:1037F00042424A3C0E00000000007C424242427CB1
:10380000504844420000000000003C4240403C025E
:103810000202423C0000000000007C10101010105A
:1038200010101010000000000000424242424242CC
:103830004242423C00000000000044444444282826
:103840002810101000000000000082828282545470
:1038500054282828000000000000424224181818AC
:10386000242442420000000000004444444428282C
:10387000101010100000000000007E02020408106A
:103880002040407E00000000000038202020202042
:103890002020203800000000000000000000402030
:1038A000100804020000000000001C0404040404CA
:1038B0000404041C00000000000000001028440064
:1038C00000000000000000000000000000000000F8
:1038D00000000000FF0000000000001010080000C1
:1038E0000000000000000000000000000078043C20
:1038F0004444443A0000000000004040405C624202
:103900004242625C0000000000000000003C4240B7
:103910004040423C0000000000000202023A4642E1
:103920004242463A0000000000000000003C4242D3
:103930007E40423C0000000000000E1010103C10C1
:10394000101010100000000000000000003E424275
:1039500042423E02023C000000004040405C6242A5
:10396000424242420000000000000008000808082F
:103970000808080800000000000000040004040417
:10398000040404044438000000004040404244481D
:103990005068444200000000000010101010101089
:1039A00010101010000000000000000000EC9292C7
:1039B000929292920000000000000000007C4242BF
:1039C000424242420000000000000000003C42422F
:1039D0004242423C0000000000000000005C6242E5
:1039E0004242625C4040000000000000003A464253
:1039F0004242463A0202000000000000005C6240C1
:103A0000404040400000000000000000003C4240F8
:103A10003C02423C000000000000002020782020F2
:103A20002020221C00000000000000000042424252
:103A30004242423E000000000000000000424242BC
:103A40004242241800000000000000000082828230
:103A50009292AA44000000000000000000424224AC
:103A600018244242000000000000000000424242D0
:103A700042423E02023C000000000000007E0204C0
:103A80001820407E000000000000081010102040A8
:103A9000201010100800000000101010101010105E
:103AA000101010101010100000002010101008044A
:103AB0000810101020000000000000000000225438
:103AC000880000000000000000000000000000006E
:103AD0000000000000000000C8AB0001000100026F
:103AE000800440082010102FE8C106010001001FCB
:103AF000F00100010001007FFC0000B6AF000040B3
:103B000000407C40004001FC0044FE44204420442E
:103B1000208448844484FD04450402280410B5E749
:103B2000000100010001003FF8210821083FF821B1
:103B300008210821083FF821080102010200FE00C7
:103B400000D7D30000003FF00020004000800100BB
:103B500001000104FFFE010001000100010001005D
:103B600005000200BFC6000608788808480848FE1D
:103B70000818881C482A48280E48788B88080808A6
:103B800008080808080808BCBC00102010201020F5
:103B9000FDFE1020142019FC3108D0881090106010
:103BA00010601090110E56042000D3D000010001C7
:103BB000007FFE020004000FF0181028104FF0885C
:103BC0001008100FF00810089008700820CFDE00D1
:103BD0000000FBF8920893F8A208A20893F88A80E4
:103BE0008A48AA50922082208210828E830482000A
:103BF000B9AB000000044006400440082008101043
:103C000018220E430402000420081011F83F181077
:103C1000100000CBBE0000003FFC000400047FE465
:103C2000000400043FC4204420443FC42044200436
:103C3000001400080000D7A800010001003FF802AE
:103C4000000200FFFE040008200FF00020004002E8
:103C5000800100008000400000D2B5000440044014
:103C6000044004444446244C244814501C5014601E
:103C7000044004400444FFFE00000000BFAA00000E
:103C8000007FFE0420042004200420FFFE04200402
:103C9000200420082008201020202040200000B709
:103CA000A20002002240223022107FFE24000400E5
:103CB00007E00C200A200A20114020804160861C69
:103CC0001808B0E500101C11E011001100FD0011F2
:103CD000FC3984354855485230921012301448103F
:103CE0008E11040000B9A40000003FFC0100010097
:103CF00001000100010001000100010001000100BC
:103D00000100FFFE00000000BFD8001000102010CE
:103D100010FDFE11041050148C19043000D1FC1059
:103D20002010201020102053FE2000C9E800400081
:103D300021F03110211001100110E20E25F82108A8
:103D400021082090209028603090230E0C04B1B8F8
:103D50000008000FF0082014202240418002400C8F
:103D600030301EDFF411101FF0111011101FF01071
:103D700010BCBC00102010201020FDFE10201420CC
:103D800019FC3108D0881090106010601090110E4E
:103D900056042000CAF5000100012001100100FFB7
:103DA000FE010003800540052009101118210EC1F5
:103DB00004010001000000D6A7000100010001007D
:103DC0007FFE010001001FF80810042004200240BB
:103DD000018002400C30700E0004B3D60010401079
:103DE0004013FCFC40104017FE1410181037FED092
:103DF00010111010D01090101050502020C2DB0075
:103E00004040204030A0209001080206E504211027
:103E1000213821C0210025002904310420FC0000A4
:103E2000CCB300000011FC100010001000FC0013C7
:103E3000FE1040106010801C883104C27E07C6024C
:103E400004000000010000000DC1110009030CD0A6
:103E50001240173F185019031A783200A00A63E085
:103E6000ACFF650C6600670029502C782A007E0C98
:103E70007F16802A814E8261836F847B8586868E41
:103E8000879788A489AF8AC58BD78CE88D204A0094
:103E9000491347084B144C17460522992303A604DF
:103EA0009B009C46AB069E119F0200003100000063
:103EB0000000000000000000000000000000000002
:103EC00000000000000000000000000000000000F2
:103ED00000000000000000000000000000000000E2
:103EE00000000000000000000000000000000000D2
:104E7000000000000000000000000000A000000092
:104E8000000000000000000000000000A000000082
:104E900050000000C80000000100000000F00F40BA
:104EA00040F00F4080F00F40C0F00F4000F10F4085
:104EB0000090044000A0044000B0044000C0044042
:104EC00000D004400B1F000000090000000000009B
:104ED00000000000000000000000000000000000D2
:104EE00000000000000000000000000000000000C2
:104EF00000000000000000000000000000A00640CC
:104F000000B0064000C0064000D0064000A00E40A1
:104F100000B00E4002020100DFF8780E416941F452
:104F200000214161416D41F001014165016821F4B9
:104F30000021016000BF016C41F00101016400BF6C
:104F400000BF00BF00BF00BF00BF00BF00BF00BF69
:104F500000BF00BF016841F40021016000BF00BF35
:104F600000BF00BF00BF00BF00BF00BF00BF00BF49
:104F700000BF00BF00BF00BF00BF00BF00BF00BF39
:104F800000BF00BF00BF00BF00BF00BF00BF00BF29
:104F900000BF00BF00BF00BF00BF00BF00BF00BF19
:104FA00000BF00BF00BF00BF00BF00BF016C4908C9
:104FB0004900016400BF00BF00BF00BF00BF00BFC9
:104FC00000BF00BF00BF00BF00BF00BF00BF00BFE9
:104FD00000BF00BF00BF00BF00BF00BF00BF00BFD9
:104FE00000BF00BF00BF00BF00BF00BF00BF00BFC9
:104FF00000BF00BF00BF00BF00BF00BF00BF00BFB9
:1050000000BF00BF016821F400210160704700006B
:10501000DFF8800D416941F400214161416D41F0AB
:1050200001014165016821F40021016000BF00BF5A
:1050300000BF00BF00BF00BF00BF00BF00BF00BF78
:1050400000BF016C49084900016400BF00BF00BFF8
:1050500000BF00BF00BF00BF00BF00BF00BF00BF58
:10506000016841F40021016000BF00BF00BF00BF24
:1050700000BF00BF00BF00BF00BF00BF00BF00BF38
:1050800000BF00BF00BF00BF00BF00BF00BF00BF28
:1050900000BF00BF00BF00BF00BF00BF00BF00BF18
:1050A00000BF00BF00BF00BF00BF00BF00BF00BF08
:1050B00000BF00BF00BF00BF016C41F001010164EF
:1050C00000BF00BF00BF00BF00BF00BF00BF00BFE8
:1050D00000BF00BF00BF00BF00BF00BF00BF00BFD8
:1050E00000BF00BF00BF00BF00BF00BF00BF00BFC8
:1050F00000BF00BF00BF00BF00BF00BF00BF00BFB8
:1051000000BF00BF00BF00BF00BF00BF00BF00BFA7
:10511000016821F40021016070470000DFF8741C71
:105120004A6942F400224A614A6D42F001024A652E
:1051300000BF00220B6823F400230B6000FA02F387
:105140001B060B6C4EBF43F001035B085B000B6456
:1051500000BF00BF00BF00BF00BF00BF00BF00BF57
:1051600000BF00BF00BF0B6843F400230B6000BF0B
:1051700000BF00BF00BF00BF00BF00BF00BF00BF37
:1051800000BF00BF00BF00BF00BF00BF00BF00BF27
:1051900000BF00BF00BF00BF00BF00BF00BF00BF17
:1051A00000BF00BF00BF00BF00BF00BF00BF00BF07
:1051B00000BF00BF00BF00BF00BF00BF00BF0B6843
:1051C000521C23F400230B60082AB3D300BF00BF96
:1051D00000BF00BF00BF00BF00BF00BF00BF00BFD7
:1051E00000BF00BF00BF00BF00BF00BF00BF00BFC7
:1051F00000BF00BF00BF00BF00BF00BF00BF00BFB7
:1052000000BF00BF00BF00BF00BF00BF00BF00BFA6
:1052100000BF00BF00BF00BF00BF00BF086C40F070
:105220000100086400BF00BF00BF00BF00BF00BF97
:1052300000BF00BF00BF00BF00BF086840F40020EF
:10524000086000BF00BF00BF00BF00BF00BF00BFBD
:1052500000BF00BF00BF00BF00BF00BF00BF00BF56
:1052600000BF00BF00BF00BF00BF00BF00BF00BF46
:1052700000BF00BF00BF00BF00BF00BF00BF00BF36
:1052800000BF00BF00BF00BF00BF00BF00BF00BF26
:1052900000BF086820F4002008607047DFF8F41AA7
:1052A000486D400840004865486940F40020486166
:1052B0000A68002022F400220A6000BF00BF00BF7D
:1052C00000BF00BF00BF00BF00BF00BF00BF00BFE6
:1052D000082200BF00BF00BF00BF00BF00BF00BF6B
:1052E00000BF00BF00BF00BF0B6823F400230B60AA
:1052F00000BF00BF00BF00BF00BF00BF00BF00BFB6
:1053000000BF00BF00BF00BF00BF00BF00BF00BFA5
:1053100000BF00BF00BF00BF00BF00BF00BF00BF95
:1053200000BF00BF00BF00BF00BF00BF00BF00BF85
:1053300000BF00BF00BF00BF00BF00BF00BF00BF75
:105340000B6843F400230B6000BF00BF00BF00BF29
:1053500000BF00BF00BF00BF00BF00BF00BF0B6D9C
:105360004000DB0748BF401C521EB2D10A68C0B2E1
:1053700022F400220A60704730B581B004460D4621
:10538000FFF7CAFD2046FFF7C9FE2846FFF7C6FE15
:10539000FFF7C2FD601CC0B2FFF7C0FEFFF77EFF43
:1053A0000446FFF735FE204601B030BD00B581B0A0
:1053B000002301221321022000F04AFE00230122D3
:1053C0000021032000F044FE00BF00BF00BF00BF6B
:1053D00000BF00BF00BF00BF00BF00BF00BF00BFD5
:1053E00000BF00BF00BF00BF00BF00BF00BF00BFC5
:1053F00000BF00BF00BF00BF00BF00BF00BF00BFB5
:1054000000BF00BF00BF00BF00BF00BF00BF00BFA4
:1054100000BF00BF00BF00BF00BF00BF00BF00BF94
:1054200000BF00BF00BF00BF00BF00BF00BF00BF84
:1054300000BF00BF00BF00BF00BF00BF00BF00BF74
:1054400000BF00BF00BF00BF00BF00BF00BF00BF64
:1054500000BF00BF00BF00BF00BF00BF00BF00BF54
:1054600000BF00BF00BF00BF00BF00BF00BF00BF44
:1054700000BF00BF00BF00BF00BF00BF00BF00BF34
:1054800000BF00BF00BF00BF00BF00BF00BF00BF24
:1054900000BF00BF00BF00BF00BF00BF00BF00BF14
:1054A00000BF00BF00BF00BF00BF00BF00BF00BF04
:1054B00000BF00BF00BF00BF00BF00BF00BF00BFF4
:1054C00000BF00BF00BF00BF00BF00BF00BF00BFE4
:1054D00000BF00BF00BF00BF00BF00BF00BF00BFD4
:1054E00000BF00BF00BF00BF00BF00BF00BF00BFC4
:1054F00000BF00BF00BF00BF00BF00BF00BF00BFB4
:1055000000BF00BF00BF00BF00BF00BF00BF00BFA3
:1055100000BF00BF00BF00BF00BF00BF00BF00BF93
:1055200000BF00BF00BF00BF00BF00BF00BF00BF83
:1055300000BF00BF00BF00BF00BF00BF00BF00BF73
:1055400000BF00BF00BF00BF00BF00BF00BF00BF63
:1055500000BF00BF00BF00BF00BF00BF00BF00BF53
:1055600000BF00BF00BF00BF00BF00BF00BF00BF43
:1055700000BF00BF00BF00BF00BF00BF00BF00BF33
:1055800000BF00BF00BF00BF00BF00BF00BF00BF23
:1055900000BF00BF00BF00BF00BF00BF00BF00BF13
:1055A00000BF00BF00BF00BFFFF7B6FC3820FFF709
:1055B000B5FD2A20FFF7B2FD1020FFF7AFFDFFF782
:1055C00027FD00BF00BF00BF00BF00BF00BF00BF7E
:1055D00000BF00BF00BF00BF00BF00BF00BF00BFD3
:1055E00000BF00BF00BF00BF00BF00BF00BF00BFC3
:1055F00000BF00BF00BF00BF00BF00BF00BF00BFB3
:1056000000BF00BF00BF00BF00BF00BF00BF00BFA2
:1056100000BF00BF00BF00BF00BF00BF00BF00BF92
:1056200000BF00BF00BF00BF00BF00BF00BF00BF82
:1056300000BF00BF00BF00BF00BF00BF00BF00BF72
:1056400000BF00BF00BF00BF00BF00BF00BF00BF62
:1056500000BF00BF00BF00BF00BF00BF00BF00BF52
:1056600000BF00BF00BF00BF00BF00BF00BF00BF42
:1056700000BF00BF00BF00BF00BF00BF00BF00BF32
:1056800000BF00BF00BF00BF00BF00BF00BF00BF22
:1056900000BF00BF00BF00BF00BF00BF00BF00BF12
:1056A00000BF00BF00BF00BF00BF00BF00BF00BF02
:1056B00000BF00BF00BF00BF00BF00BF00BF00BFF2
:1056C00000BF00BF00BF00BF00BF00BF00BF00BFE2
:1056D00000BF00BF00BF00BF00BF00BF00BF00BFD2
:1056E00000BF00BF00BF00BF00BF00BF00BF00BFC2
:1056F00000BF00BF00BF00BF00BF00BF00BF00BFB2
:1057000000BF00BF00BF00BF00BF00BF00BF00BFA1
:1057100000BF00BF00BF00BF00BF00BF00BF00BF91
:1057200000BF00BF00BF00BF00BF00BF00BF00BF81
:1057300000BF00BF00BF00BF00BF00BF00BF00BF71
:1057400000BF00BF00BF00BF00BF00BF00BF00BF61
:1057500000BF00BF00BF00BF00BF00BF00BF00BF51
:1057600000BF00BF00BF00BF00BF00BF00BF00BF41
:1057700000BF00BF00BF00BF00BF00BF00BF00BF31
:1057800000BF00BF00BF00BF00BF00BF00BF00BF21
:1057900000BF00BF00BF00BF00BF00BF00BF00BF11
:1057A00000BFFFF7B9FB3820FFF7B8FC0E20FFF76A
:1057B000B5FC0020FFF7B2FCFFF72AFC00BF00BFDA
:1057C00000BF00BF00BF00BF00BF00BF00BF00BFE1
:1057D00000BF00BF00BF00BF00BF00BF00BF00BFD1
:1057E00000BF00BF00BF00BF00BF00BF00BF00BFC1
:1057F00000BF00BF00BF00BF00BF00BF00BF00BFB1
:1058000000BF00BF00BF00BF00BF00BF00BF00BFA0
:1058100000BF00BF00BF00BF00BF00BF00BF00BF90
:1058200000BF00BF00BF00BF00BF00BF00BF00BF80
:1058300000BF00BF00BF00BF00BF00BF00BF00BF70
:1058400000BF00BF00BF00BF00BF00BF00BF00BF60
:1058500000BF00BF00BF00BF00BF00BF00BF00BF50
:1058600000BF00BF00BF00BF00BF00BF00BF00BF40
:1058700000BF00BF00BF00BF00BF00BF00BF00BF30
:1058800000BF00BF00BF00BF00BF00BF00BF00BF20
:1058900000BF00BF00BF00BF00BF00BF00BF00BF10
:1058A00000BF00BF00BF00BF00BF00BF00BF00BF00
:1058B00000BF00BF00BF00BF00BF00BF00BF00BFF0
:1058C00000BF00BF00BF00BF00BF00BF00BF00BFE0
:1058D00000BF00BF00BF00BF00BF00BF00BF00BFD0
:1058E00000BF00BF00BF00BF00BF00BF00BF00BFC0
:1058F00000BF00BF00BF00BF00BF00BF00BF00BFB0
:1059000000BF00BF00BF00BF00BF00BF00BF00BF9F
:1059100000BF00BF00BF00BF00BF00BF00BF00BF8F
:1059200000BF00BF00BF00BF00BF00BF00BF00BF7F
:1059300000BF00BF00BF00BF00BF00BF00BF00BF6F
:1059400000BF00BF00BF00BF00BF00BF00BF00BF5F
:1059500000BF00BF00BF00BF00BF00BF00BF00BF4F
:1059600000BF00BF00BF00BF00BF00BF00BF00BF3F
:1059700000BF00BF00BF00BF00BF00BF00BF00BF2F
:1059800000BF00BF00BF00BF00BF00BF00BF00BF1F
:1059900000BF00BF00BF00BF00BF00BFFFF7BCFAE1
:1059A0003820FFF7BBFB0F20FFF7B8FB1020FFF7F5
:1059B000B5FBFFF72DFB00BF00BF00BF00BF00BF5E
:1059C00000BF00BF00BF00BF00BF00BF00BF00BFDF
:1059D00000BF00BF00BF00BF00BF00BF00BF00BFCF
:1059E00000BF00BF00BF00BF00BF00BF00BF00BFBF
:1059F00000BF00BF00BF00BF00BF00BF00BF00BFAF
:105A000000BF00BF00BF00BF00BF00BF00BF00BF9E
:105A100000BF00BF00BF00BF00BF00BF00BF00BF8E
:105A200000BF00BF00BF00BF00BF00BF00BF00BF7E
:105A300000BF00BF00BF00BF00BF00BF00BF00BF6E
:105A400000BF00BF00BF00BF00BF00BF00BF00BF5E
:105A500000BF00BF00BF00BF00BF00BF00BF00BF4E
:105A600000BF00BF00BF00BF00BF00BF00BF00BF3E
:105A700000BF00BF00BF00BF00BF00BF00BF00BF2E
:105A800000BF00BF00BF00BF00BF00BF00BF00BF1E
:105A900000BF00BF00BF00BF00BF00BF00BF00BF0E
:105AA00000BF00BF00BF00BF00BF00BF00BF00BFFE
:105AB00000BF00BF00BF00BF00BF00BF00BF00BFEE
:105AC00000BF00BF00BF00BF00BF00BF00BF00BFDE
:105AD00000BF00BF00BF00BF00BF00BF00BF00BFCE
:105AE00000BF00BF00BF00BF00BF00BF00BF00BFBE
:105AF00000BF00BF00BF00BF00BF00BF00BF00BFAE
:105B000000BF00BF00BF00BF00BF00BF00BF00BF9D
:105B100000BF00BF00BF00BF00BF00BF00BF00BF8D
:105B200000BF00BF00BF00BF00BF00BF00BF00BF7D
:105B300000BF00BF00BF00BF00BF00BF00BF00BF6D
:105B400000BF00BF00BF00BF00BF00BF00BF00BF5D
:105B500000BF00BF00BF00BF00BF00BF00BF00BF4D
:105B600000BF00BF00BF00BF00BF00BF00BF00BF3D
:105B700000BF00BF00BF00BF00BF00BF00BF00BF2D
:105B800000BF00BF00BF00BF00BF00BF00BF00BF1D
:105B900000BF00BF00BFFFF7BFF93820FFF7BEFA14
:105BA0002A20FFF7BBFA0120FFF7B8FAFFF730FA17
:105BB00000BF00BF00BF00BF00BF00BF00BF00BFED
:105BC00000BF00BF00BF00BF00BF00BF00BF00BFDD
:105BD00000BF00BF00BF00BF00BF00BF00BF00BFCD
:105BE00000BF00BF00BF00BF00BF00BF00BF00BFBD
:105BF00000BF00BF00BF00BF00BF00BF00BF00BFAD
:105C000000BF00BF00BF00BF00BF00BF00BF00BF9C
:105C100000BF00BF00BF00BF00BF00BF00BF00BF8C
:105C200000BF00BF00BF00BF00BF00BF00BF00BF7C
:105C300000BF00BF00BF00BF00BF00BF00BF00BF6C
:105C400000BF00BF00BF00BF00BF00BF00BF00BF5C
:105C500000BF00BF00BF00BF00BF00BF00BF00BF4C
:105C600000BF00BF00BF00BF00BF00BF00BF00BF3C
:105C700000BF00BF00BF00BF00BF00BF00BF00BF2C
:105C800000BF00BF00BF00BF00BF00BF00BF00BF1C
:105C900000BF00BF00BF00BF00BF00BF00BF00BF0C
:105CA00000BF00BF00BF00BF00BF00BF00BF00BFFC
:105CB00000BF00BF00BF00BF00BF00BF00BF00BFEC
:105CC00000BF00BF00BF00BF00BF00BF00BF00BFDC
:105CD00000BF00BF00BF00BF00BF00BF00BF00BFCC
:105CE00000BF00BF00BF00BF00BF00BF00BF00BFBC
:105CF00000BF00BF00BF00BF00BF00BF00BF00BFAC
:105D000000BF00BF00BF00BF00BF00BF00BF00BF9B
:105D100000BF00BF00BF00BF00BF00BF00BF00BF8B
:105D200000BF00BF00BF00BF00BF00BF00BF00BF7B
:105D300000BF00BF00BF00BF00BF00BF00BF00BF6B
:105D400000BF00BF00BF00BF00BF00BF00BF00BF5B
:105D500000BF00BF00BF00BF00BF00BF00BF00BF4B
:105D600000BF00BF00BF00BF00BF00BF00BF00BF3B
:105D700000BF00BF00BF00BF00BF00BF00BF00BF2B
:105D800000BF00BF00BF00BF00BF00BF00BF00BF1B
:105D900001B000BD80F00F4070B5582804BF012449
:105DA000022508D0592804BF0324042503D05A280B
:105DB00004BF05240625FFF7AFF83820FFF7AEF93A
:105DC000E0B2FFF7ABF9FFF7A7F83920FFF7A6F924
:105DD000FFF764FA0446FFF71BF9FFF79DF8382038
:105DE000FFF79CF9E8B2FFF799F9FFF795F839202A
:105DF000FFF794F9FFF752FA0546FFF709F9200279
:105E000050FA85F080B28110802C23BF4FF0FF3014
:105E1000C943491C01208E04B60C00F047F9044622
:105E20000D46304600F04CF900220B4B00F056F9BD
:105E300022462B4600F076FA084A094B00F044FB54
:105E400098BF104605D9074A074B00F055FB01D211
:105E50000248194670BD000000FEAF401EA7E8488A
:105E60002EFFEF3F1DA7E8482EFFEFBF00B581B022
:105E7000002301221321022000F0EAF8002301226E
:105E80000021032000F0E4F8FFF746F8D220FFF7E6
:105E900045F92020FFF742F90F20FFF73FF9FFF700
:105EA000B7F8FFF739F8D220FFF738F92120FFF7CC
:105EB00035F90020FFF732F9FFF7AAF8FFF72CF8C1
:105EC000D220FFF72BF92220FFF728F90820FFF74F
:105ED00025F9FFF79DF8FFF71FF8D220FFF71EF90D
:105EE0002320FFF71BF93020FFF718F9FFF790F890
:105EF000FFF712F8D220FFF711F92420FFF70EF96F
:105F00000020FFF70BF901B05DF804EBFFF780B854
:105F10002DE9F14F0026582904BF2924282508D04F
:105F2000592904BF2B242A2503D05A2904BF2D2424
:105F30002C25002800F084800746F80727D5FEF7B7
:105F4000EBFFD220FFF7EAF8E0B2FFF7E7F8FEF741
:105F5000E3FFD320FFF7E2F8FFF7A0F90646FFF7CB
:105F600057F8FEF7D9FFD220FFF7D8F8E8B2FFF7CD
:105F7000D5F8FEF7D1FFD320FFF7D0F8FFF78EF961
:105F80008046FFF745F8300250FA88F636B27F08AF
:105F900000F05680FEF7C0FFD220FFF7BFF8E0B256
:105FA000FFF7BCF8FEF7B8FFD320FFF7B7F8FFF70D
:105FB00075F98346FFF72CF8FEF7AEFFD220FFF706
:105FC000ADF8E8B2FFF7AAF8FEF7A6FFD320FFF777
:105FD000A5F8FFF763F98046FFF71AF8FEF79CFF74
:105FE000D220FFF79BF8E0B2FFF798F8FEF794FF96
:105FF000D320FFF793F8FFF751F98146FFF708F830
:10600000FEF78AFFD220FFF789F8E8B2FFF786F89B
:10601000FEF782FFD320FFF781F8FFF73FF98246B2
:10602000FEF7F6FF4FEA09214FEA0B2051FA8AF1F9
:1060300050FA88F009B201FA80F086197F1EA9D1C2
:106040009DF8000001B096FBF0F0BDE8F08F000075
:1060500070B4154C4FF4807604EB80056D691643DF
:1060600045F82160D50703D5032A18BF132A09D1A3
:1060700054F820000123426903FA01F122EA0101E8
:1060800041610EE054F82000012202FA01F1426958
:106090000A434261012B02680CBF114322EA01014D
:1060A000016070BC70470000E01FFF1F010040F15D
:1060B0000980F446404200F005F851F00041604785
:1060C000010000BF09D0B0FA80F18840C91CC1F5B9
:1060D0008461090501EBD02140057047F0B540F21D
:1060E000FF7581EA030C0CF0004C15EA11541DBF3A
:1060F00015EA1357AC42AF42E5E0BC41C1F31301CE
:10610000C3F31303801A994143F4801304D2641E2D
:106110004000494180185941C90241EA5051B1FB40
:10612000F3F603FB1611A2FB0675D7EBC020A941BD
:1061300002D2761E80185941C90241EA5051B1FB82
:10614000F3FE03FB1E11A2FB0E75D7EBC020A94185
:1061500003D2AEF1010E80185941890241EA9051F3
:10616000760546EA8E2EB1FBF3F603FB1611A2FB71
:106170000675D7EB8020A94102D2761E80185941BE
:10618000C90241EA50514EEA060EB1FBF3F603FB99
:106190001611A2FB0675D7EBC020A94102D2761ECC
:1061A00080185941C90241EA5051B1FBF3F703FB92
:1061B0001711A2FB0735D3EBC020A94167F10007F7
:1061C0000CBF004247F0010766F3D5274FEA1E31A6
:1061D000B80814F5806412DDBD0775F1004250EB7C
:1061E0000E5051EB045111F5801F5CBF41EA0C01C8
:1061F000F0BD4CF07F6141F0E0410020F0BDBD07F3
:106200006D0840EA0E5041F48011D4F10104B4F15C
:1062100020060ADAC4F120060200E04001FA06F383
:10622000E1401843B24015430EE0342C13DCC6F1B4
:10623000200445EA40056D0820FA06F2154321FACC
:1062400006F0A1400D43002175F1004250F100001D
:1062500051EB0C01F0BD00205FEA0C01F0BDCFB99D
:1062600092185B41B3FA83F704BFB2FA82F6BF1902
:106270000B3FB7F120062FBF02FA06F3BB40C7F170
:10628000200622FA06F638BF3343BA401CB1E4199F
:10629000641E33E77F4231F00041B1FA81F404BF5C
:1062A000B0FA80F6A4190B3CB4F120062FBF00FA17
:1062B00006F1A140C4F1200620FA06F638BF3143AA
:1062C000A0403C1B1AE7AC421ABF05EA1357AF4285
:1062D00012E050EA41061CBF52EA4306BFE750EA0B
:1062E0004107304661461CBF41EA0551F0BD52EA04
:1062F000430C08BFC143F0BD00204FF4001616EB5D
:10630000410F98BF16EB430F08BF16EB410F24BF98
:10631000C14305E016EB430F0CBF61464CEA055143
:10632000F0BD0000B0B581EA030C0CF0004C40F267
:10633000FF7515EA11541DBF15EA1357AC42AF4261
:1063400039E0E41923EA455343F48013C90241F0CC
:10635000004141EA505EC7021100A7FB020200287B
:106360004FF00000EEFB01204FF00001E3FB07219E
:1063700018BF42F00102401800214941E3FB0E0121
:10638000A4F580640F0302D252004041494154F108
:1063900001046CDD470872F1004250F1000051EB3E
:1063A0000451A1F580115CBF41EA0C01B0BD4CEA7B
:1063B00005510020B0BD05EA1357AC4214BFAF42EF
:1063C00041E050EA410E1CBF52EA430E02E0614632
:1063D0000020B0BD24423C441BD15FEA070EF6D03A
:1063E000090302BF01460020AEF1140EB1FA81F795
:1063F000AEEB070401FA07FE0C37C7F1200100FAE3
:1064000007F7C8404EEA000E23EA455343F48013D1
:10641000A2E733F00043B3FA83F704BFB2FA82FE77
:1064200077440B3FE41BB7F1200E2FBF02FA0EF3A7
:10643000BB40C7F1200E22FA0EFE38BF43EA0E031E
:10644000BA40641C82E750EA410E14BF52EA430E80
:106450006FF000014FF4001717EB430F8ABF194686
:1064600017EB410FB5E74CEA05510020B0BDD4F160
:106470000104B4F120070FDAC4F12007520828BF45
:1064800042F0010210FA07F501FA07F7E1BF2A43CB
:10649000E0403843E1400FE0352C98DCC7F12004A0
:1064A00052EA400220FA07F218BF42F0010231FA24
:1064B00007F0A1400A43002172F1004250F10000B0
:1064C00051EB0C01B0BD00004FF4001C1CEB410F60
:1064D00094BF1CEB430F09E041EA030C50EA4C0C5B
:1064E00052EA0C0C03D28B4208BF8242704714BFA1
:1064F00099429042704700004FF4001C1CEB410F82
:1065000094BF1CEB430F09E041EA030C50EA4C0C2A
:1065100052EA0C0C03D2994208BF9042704714BF54
:106520008B4282427047000000B581B000230122F7
:106530000B210420FFF78CFD01B05DF804EB002374
:1065400001220C210420FFF783BD000030B4024675
:10655000DFF82C0B81B0036843F400630360036829
:1065600043F480530360642303E000BFBDF80030B0
:106570005B1EADF80030BDF80030002BF6D143694A
:1065800023F40063436103691B052CD5436943F47D
:1065900000634361036823F400630360642302E043
:1065A000BDF800305B1EADF80030BDF80030002BA8
:1065B000F6D1436923F40063436103691B0512D4D8
:1065C0004369082443F400634361036823F40063D0
:1065D000036042230568641E25F480550560642528
:1065E000ADF800500BE0416941F4006141610020C9
:1065F000C0E100BFBDF800506D1EADF80050BDF801
:106600000050002DF6D11D0605684CBF45F400650D
:1066100025F4006505605B00642502E0BDF80050CC
:106620006D1EADF80050BDF80050002DF6D1056884
:1066300045F480550560642503E000BFBDF80050B7
:106640006D1EADF80050BDF80050002DF6D1002CA5
:10665000C0D1036823F480530360036823F480539C
:106660000360642303E000BFBDF800305B1EADF89B
:106670000030BDF80030002BF6D1036843F400630E
:106680000360642303E000BFBDF800305B1EADF87B
:106690000030BDF80030002BF6D1036843F480537E
:1066A0000360436923F400634361642303E000BF94
:1066B000BDF800305B1EADF80030BDF80030002B97
:1066C000F6D103691B0511D5416941F400614161AF
:1066D000016821F480510160016821F4805101605A
:1066E000016821F400610160642114E0436943F40E
:1066F00000634361036823F4805303600823046844
:106700005B1E24F4805404606424ADF8024024E04D
:10671000BDF80010491EADF80010BDF800100029AA
:10672000F6D1016841F480510160016841F40061D3
:106730000160642003E000BFBDF80000401EADF81A
:106740000000BDF800000028F6D1002012E100BFD3
:10675000BDF80240641EADF80240BDF80240002CB6
:10676000F6D1140604684CBF44F4006424F40064B9
:1067700004605200642402E0BDF80040641EADF8DD
:106780000040BDF80040002CF6D1046844F4805469
:106790000460642403E000BFBDF80040641EADF84F
:1067A0000040BDF80040002CF6D1002BA7D10268B4
:1067B00022F480520260026822F480520260642255
:1067C00003E000BFBDF80020521EADF80020BDF868
:1067D0000020002AF6D1026842F4006202606422BE
:1067E00003E000BFBDF80020521EADF80020BDF848
:1067F0000020002AF6D1026842F480520260426909
:1068000022F400624261642203E000BFBDF8002070
:10681000521EADF80020BDF80020002AF6D1026912
:10682000426942F400624261026822F480520260CE
:1068300008220368521E23F4805303606423ADF8DA
:10684000003004E0BDF800305B1EADF80030BDF84C
:106850000030002BF6D10B0603684CBF43F40063F5
:1068600023F4006303604900642302E0BDF80030B4
:106870005B1EADF80030BDF80030002BF6D1036888
:1068800043F480530360642303E000BFBDF800308D
:106890005B1EADF80030BDF80030002BF6D1002AA9
:1068A000C7D1016821F480510160016821F4805151
:1068B0000160642103E000BFBDF80010491EADF87F
:1068C0000010BDF800100029F6D1016841F4006104
:1068D0000160642103E000BFBDF80010491EADF85F
:1068E0000010BDF800100029F6D1016841F4805174
:1068F0000160416921F400614161642103E000BF4E
:10690000BDF80010491EADF80010BDF800100029B8
:10691000F6D10169416941F400614161016821F4E6
:1069200080510160016821F480510160016821F407
:1069300000610160642102E0BDF80010491EADF85D
:106940000010BDF800100029F6D1016841F4805113
:106950000160016841F400610160642003E000BF50
:10696000BDF80000401EADF80000BDF80000002892
:10697000F6D1012001B030BC7047000070B413465E
:10698000DFF8FC2681B0146844F4006414601468D5
:1069900044F480541460642403E000BFBDF8004058
:1069A000641EADF80040BDF80040002CF6D15469DB
:1069B00024F400645461146924052CD5546944F40A
:1069C00000645461146824F400641460642402E0D8
:1069D000BDF80040641EADF80040BDF80040002C3A
:1069E000F6D1546924F4006454611469240512D466
:1069F0005469082544F400645461146824F4006464
:106A00001460422416686D1E26F4805616606426B3
:106A1000ADF800600BE0506940F400605061002068
:106A20002AE300BFBDF80060761EADF80060BDF837
:106A30000060002EF6D1260616684CBF46F40066AC
:106A400026F4006616606400642602E0BDF800606B
:106A5000761EADF80060BDF80060002EF6D1166815
:106A600046F480561660642603E000BFBDF800605F
:106A7000761EADF80060BDF80060002EF6D1002D46
:106A8000C0D1146824F480541460146824F4805431
:106A90001460642403E000BFBDF80040641EADF83C
:106AA0000040BDF80040002CF6D1146844F40064A6
:106AB0001460642403E000BFBDF80040641EADF81C
:106AC0000040BDF80040002CF6D1146844F4805416
:106AD0001460546924F400645461642403E000BF2A
:106AE000BDF80040641EADF80040BDF80040002C29
:106AF000F6D11469240511D5506940F40060506145
:106B0000106820F480501060106820F480501060ED
:106B1000106820F400601060642014E0546944F4AC
:106B200000645461146824F48054146008241568C7
:106B3000641E25F4805515606425ADF8025024E0EC
:106B4000BDF80000401EADF80000BDF800000028B0
:106B5000F6D1106840F480501060106840F4006076
:106B60001060642003E000BFBDF80000401EADF8D7
:106B70000000BDF800000028F6D100207CE200BF34
:106B8000BDF802506D1EADF80250BDF80250002D48
:106B9000F6D11D0615684CBF45F4006525F4006567
:106BA00015605B00642502E0BDF800506D1EADF875
:106BB0000050BDF80050002DF6D1156845F4805501
:106BC0001560642503E000BFBDF800506D1EADF8F0
:106BD0000050BDF80050002DF6D1002CA7D113684D
:106BE00023F480531360136823F4805313606423E9
:106BF00003E000BFBDF800305B1EADF80030BDF80B
:106C00000030002BF6D1136843F400631360642353
:106C100003E000BFBDF800305B1EADF80030BDF8EA
:106C20000030002BF6D1136843F48053136053698E
:106C300023F400635361642303E000BFBDF8003018
:106C40005B1EADF80030BDF80030002BF6D11369A3
:106C5000536943F400635361136823F48053136052
:106C6000136823F480531360136823F400631360E4
