:10000000F85F00201104000045300000453000007A
:10001000453000004530000045300000453000000C
:1000200045300000453000004530000045300000FC
:1000300045300000453000004530000045300000EC
:1000400045300000453000004530000045300000DC
:10040000FFFFFFFFFFFFFFFFFFFFFFFFFEFFFFFFFD
:1004100062B603F059FDFEE7F1B5A2B014001F006B
:10042000049100200D900AE00498229A90470490CD
:10043000002800D1CBE20D98401C0D90641C21785F
:10044000002901D10D98C4E22529EDD100200790A3
:10045000089009900A900B900C9002E00100012096
:100460000843641C21782029F8D023290ED02B2999
:1004700004D02D2907D030290BD00DE00100022037
:10048000084380B2EDE701000420F9E701000820ED
:10049000F6E701001020F3E72A290FD13968396007
:1004A0000A68091D39600F92002A05D551420F9143
:1004B00001000420084380B2641C12E000210F9167
:1004C0000AE00F9A754B9A4205D093009A18520091
:1004D000511830390F91641C21780A00303A0A2AE9
:1004E000EFD321782E2903D00021C9430E911EE0BD
:1004F000641C21782A2907D1396839600A68091DE6
:1005000039600E92641C12E000210E910AE00E9AEE
:10051000624B9A4205D093009A1852005118303914
:100520000E91641C21780A00303A0A2AEFD302A9FE
:1005300008872578290058487844FF305D3000F05E
:10054000E0FE002801D0641C00E0002502A83A303B
:10055000057002A83A300078682804D1217868290B
:1005600001D1622005E06C2807D120786C2804D1E5
:10057000712002A93A310870641C12A806902578EF
:10058000641C280025382AD01C3800D1CFE0001F79
:10059000022800D8CBE0133800D1EFE0093800D1B1
:1005A000C5E0801E00D157E1401E00D12BE1401E66
:1005B000022800D8BBE0001F00D124E1401F00D179
:1005C00086E0401E00D1D9E0401E26D0C01E0BD0D0
:1005D000801E00D1D2E0C01E00D1CFE046E1012054
:1005E0000790252012A998E0386838600568001D3A
:1005F000386005950E9E002E03D5280000F08BFE76
:1006000009E032000021280000F08DFE002801D012
:10061000401B00E03000089034E138683860026820
:10062000001D38600020C0430021104002AA03C210
:1006300012A80590069B3C2502A803C8002904D1F6
:10064000002802D10E9A002A14D06D1E01950207CF
:10065000120F3032D2B23A2A00DB27325A55000943
:100660000A071043090901D1002803D0059A5E1931
:10067000B242EAD33C20401B0890591905910E99CB
:1006800088420FDA081A0A9002A8008F0449014034
:1006900002A80187F6E000BF943B0000FFFFFF7F48
:1006A000EFFF0000002900D4ECE002A938310978FE
:1006B00014220A40102A00D0E4E00F99079A891A00
:1006C0000A9A891A0D1A012D00DADBE00A95D9E0A1
:1006D00002A83A300078622819D0682806D06A2823
:1006E0000CD06C281BD0712808D018E0386838600E
:1006F0000168001D38600D980880C3E038683860D4
:100700000268001D38600D98C11703C2BAE038684E
:1007100038600168001D38600D980870B2E03868D4
:1007200038600168001D38600D980860AAE03A68DA
:10073000D21D072082433A6003CA3A6002AA03C26C
:10074000002903D5012007902D200CE002A8008F7E
:10075000810703D5012007902B2004E0C00704D5B2
:1007600001200790202012A9087012A807994018AC
:100770000590290002A800F0FBF983E002A83A30B6
:1007800002786C2A0BD0712A01D06A2A07D13B6803
:10079000DB1D072083433B6003CB3B6005E03968EA
:1007A00039600868091D3960002102AB03C3682A5B
:1007B00003D102A803C880B20BE0622A03D102A8C9
:1007C00003C8C0B205E0742A01D07A2A04D102A875
:1007D00003C8002102AA03C202A83830007800072B
:1007E00031D502A803C8002901D100282BD0202030
:1007F0002843782827D1302012A9087002200790BA
:1008000012A845701FE0390002A83A30007800F0C5
:10081000E2F802AA03C202A8002904DA0798411CE0
:1008200007912D210DE0008F810704D50798411C09
:1008300007912B2105E0C00705D50798411C0791BA
:10084000202112AA115412A80799401805902900D6
:1008500002A800F0F4F815E001200790386838602D
:100860000168001D386012A801700BE0012007909C
:10087000252012A90870002D04D00798411C07916B
:1008800012A90D540F980799401A0A99401A08990D
:10089000401A0B99401A0999401A0C99401A019074
:1008A00002A838300078400711D42020694608702B
:1008B000002509E001236A4602A9229800F009FDFB
:1008C000002800D083E06D1C01988542F2DB079E72
:1008D00012AD0BE029780498229A904704900028E2
:1008E00075D00D98401C0D906D1C761E002EF1D118
:1008F0003020694608700A9E002508E001236A46F8
:1009000002A9229800F0E5FC002860D16D1CB542D8
:10091000F4DB089E059D0BE029780498229A904705
:100920000490002853D00D98401C0D906D1C761E2D
:10093000002EF1D13020694608700B9E002508E09A
:1009400001236A4602A9229800F0C3FC00283ED188
:100950006D1CB542F4DB099E0598089945180BE01B
:1009600029780498229A9047049000282FD00D9857
:10097000401C0D906D1C761E002EF1D13020694672
:1009800008700C9E002508E001236A4602A92298FF
:1009900000F09FFC00281AD16D1CB542F4DB02A8C0
:1009A00038300078400700D449E5202069460870B7
:1009B000002500E06D1C0198854200DB3FE5012326
:1009C0006A4602A9229800F084FC0028F2D0002098
:1009D000C04323B0F0BD0A00622822D0682819D095
:1009E0006A2808D06C2823D0712804D074281FD01E
:1009F0007A2808D01CE01368DB1D072083431360AE
:100A000003CB13607047116811600868091D1160FD
:100A100000217047116811600868091D116000B25B
:100A20000BE0116811600868091D116040B204E014
:100A3000116811600868091D1160C1177047F3B58E
:100A400083B0006900906846027C6F2A01D10824B7
:100A500006E020211143782901D00A2400E0102467
:100A60003C25039803C806000F00642A01D0692AB8
:100A700007D1002905DA00200021801BB9410600BA
:100A80000F00002F12D1002E10D10398006B002808
:100A90000CD1082C3CD1039838300078000737D5AA
:100AA0003B25302000993B31087031E06D1E0195E7
:100AB000300039002200E31700F041FC3032D2B29E
:100AC0003A2A03DB6846007C5138121800984255D8
:100AD000300039002200E31700F031FC06000F005F
:100AE00001D1002E05D00398C068009949198842A9
:100AF000DCD3082C0CD1039838300078000707D5D8
:100B00000098405D302803D06D1E30200099485574
:100B10003C20401B0399886100994919039AD160D0
:100B20000399096B884209DA081A03990862039845
:100B3000008F0E4901400398018715E0002913D565
:100B400003993831097814220A40102A0CD10399EC
:100B5000496B039A5269891A039A126A891A0D1A03
:100B6000012D01DB0398056205B0F0BDEFFF000029
:100B7000F3B591B006AD03C802AA03C212A800786B
:100B800020210143009161290BD01198006B0028AE
:100B900001D5062003E004D1672902D10120119973
:100BA0000863119841684800400DAA4A904225D137
:100BB000080310D11198006800280CD10320119966
:100BC000886112A8007861381A2842D323487844F3
:100BD0008A3000900BE003201199886112A80078F8
:100BE00061381A2831D31E487844743000900322AB
:100BF00000991198C06800F0D7FBF1E1012817DADD
:100C0000119800F0FFFB012812DB00270026009856
:100C1000612832D11198C06830210170401C411CFC
:100C2000119AD16012A9097861291FD178211EE09B
:100C300011994968884A0A4088491143119A5160BC
:100C40008749461A0027FF43E1E7064878441430F5
:100C5000CCE7054878441030BBE700BFE43500001E
:100C6000D8350000D0350000D4350000582101707F
:100C700011984069801C11994861002F03D100240C
:100C800068468780A2E10098612800D09FE0119813
:100C9000046B002C01D5212400E0641C24B2601CEC
:100CA0000090119803C804AA03C202A803C8002236
:100CB000002300F0C9FB04A803C802D28022120658
:100CC000514002AA03C2301F6946888000270F7670
:100CD00006AE761C00E0F61D0098012830DB02A865
:100CE00003C80022002300F0C8FB29D21C2102A85F
:100CF00000F0DCFB02A803C800F066FC05000098C9
:100D0000C01F009001280ADB280000F09BFC0200B5
:100D10000B0002A803C800F00CFD02AA03C2F61DD6
:100D2000072004E0761E2907090F31702D11012DCF
:100D300001DB401EF6D5401ECDD4761E3770FAE793
:100D400006A8401C311A06AD6D1CA14200DA0C0049
:100D500024B2200032D4884205DA06A9091849785D
:100D6000082900DB0F2706A9091801E0641E491EA7
:100D7000401E0A78BA42F9D00F2F04D106A90918EB
:100D80004A78521C4A70002806D506AD641C0198AA
:100D900000B2001D6946888024B2601E0ED4291856
:100DA0000A783032D2B23A2A03DB12AB1B783A3BD4
:100DB000D2180A70401E491E0028F1D51198006B08
:100DC000002800D402E1601E11990863FEE002A829
:100DD00003C80022002300F037FB06D202A803C894
:100DE00080221206514002AA03C236B27D487043E7
:100DF0007D4900F02BFD694688800720019909B2E2
:100E0000421A00207949012A20DB049202AA30CA42
:100E100000260F000498C00707D532003B002000D1
:100E2000290000F06DFD04000D00049840100490AE
:100E30003000390032003B0000F062FD06000F0078
:100E400004980028E6D102A830C028E054420026C9
:100E5000674F18E0FF070000FFFF0F800000E03F32
:100E6000FE030000E00707D504A803C832003B00DA
:100E700000F046FD06000F00641004A803C804AA91
:100E80000CCA00F03DFD04AA03C2002CEAD102A85E
:100E900003C832003B0000F0F5FD02AA03C200982F
:100EA000662803D1019800B20A3000E006201199AB
:100EB000096B08180490142801DB132004903020DB
:100EC0006946087606AC641C049801283ADB02A83F
:100ED00003C800F08BFB05000834042628000A2113
:100EE00000F0B7FC0F0028000A2100F0B2FC05005A
:100EF000641E303727700A2100F0ABFC0F00280079
:100F00000A2100F0A6FC0500641E30372770761E0B
:100F1000E4D108340498083804900128D4DB02A8EE
:100F200003C800F063FB00F097FB02000B0002A86F
:100F300003C800F0FEFB00222E4B00F0E1FC02AAE9
:100F400003C2C4E706A8401C201A06AD6D1C6A4601
:100F500005E0401E019909B2491E91806D1C297857
:100F60003029F6D00099662903D1019909B2491CAC
:100F700004E0652901D1012100E00021119A126BE2
:100F8000541824B2A04200DA040024B221001DD477
:100F9000814204DA685C352801DB392000E030202A
:100FA0006A1800E0641E521E491E13788342F9D06D
:100FB000392802D1685C401C6854002906D56D1E92
:100FC000641C019800B2401C69468880019800B2F8
:100FD000009023B22A0012A80178119800F00CF8B2
:100FE00013B0F0BD97750000A086010000002440FA
:100FF0000000F03F84D79741F3B589B015001C007D
:1010000000F0BBFD0190406A0078694608720998BB
:10101000076B012C01DA0124ADA50AA80178202074
:101020000843109E662801D1761C18E0672800D07E
:101030009FE036B20321C9438E4200DA9DE0BE42F2
:1010400000DB9AE0761C099838300078000702D45B
:10105000BC4200DA270036B2BF1B00D50027099832
:10106000C06800900998806900990918019136B20A
:10107000012E2CDA401C3021019A1170012F04DA64
:10108000099938310978090704D56946097A009A1F
:101090001154401C099988617042874200DA7E42EF
:1010A00036B2704209994862BF19A74200DA3C0083
:1010B00024B20998C461220029000098099B9B6909
:1010C000C01800F071F9381B09998862E1E0B44258
:1010D00020DA22002900019800F066F9099989694F
:1010E0000919099A9161301B099A5062012F04DA9B
:1010F000099838300078000709D56846007A099ABF
:10110000D26850540998C069401C0999C86109986F
:101110008762BEE032002900019800F045F9099885
:1011200080698019A41B012F04DA099938310978E4
:10113000090705D56946097A099AD2681154401CF5
:101140000999886124B2A74200DA3C0024B2220047
:10115000A9190998C068099B9B69C01800F024F977
:1011600009988069001909998861381B09994862B2
:101170008FE0612914D1702015E0BC4205DA09998D
:1011800038310978090700D427007F1E00D50027D1
:101190000AA80078672801D1652004E0452002E014
:1011A000412902D150200AA9087009988169481C78
:1011B000099AD26800922A78009B5A54691C012F20
:1011C00007DA099A38321278120702D4099988612D
:1011D0001BE06A46127A009B1A54401C099A9061DF
:1011E000012F12DB641E24B2A74200DA3C0024B2B5
:1011F0002200009B181800F0D7F8099880690019A0
:1012000009998861381B099948620998C068099949
:10121000896945180AA8007828706D1C36B230001C
:1012200003D42B2028706D1C03E02D2129706D1C28
:101230004642002405AF08E00A2203A800F0B8FCEB
:1012400004983870039E641C7F1C31B20129F3DAC4
:10125000022C08DA0AA8007820210143652902D16E
:10126000302028706D1C002C09D1302028706D1C96
:1012700007E0641E05A8005D303028706D1C012C4D
:10128000F7DA0998C068099989694018281A0999F4
:10129000C86109983830007814210140102914D110
:1012A000099840690999896940180999496A40185B
:1012B0000999C96940180999896A40180999496BBF
:1012C000884202DA081A099908620BB0F0BD0000E2
:1012D000300079B50E0014001D00002005E0F06A12
:1012E000401CF0620020641C6D1E002D08D0217887
:1012F000B068009A9047B0600028F0D10020C04349
:1013000076BDC9B200E0401C02788A4202D0002AB1
:10131000F9D100207047010000E0491C0A78002A3A
:10132000FBD1081A7047C9B201E0401C521E002AC6
:1013300003D003788B42F8D17047002070471242E7
:1013400024D0994228D970B500251B4202D00C0048
:10135000002109E00024012649186441944200D389
:10136000A41A7641F8D33100012601E0764109D272
:10137000001864416D41A41A9D41F7D2A4185D4143
:10138000B619F5D3300022002B0070BD1B42D8D116
:1013900008B500F01DFC08BD01D19042D3D2020077
:1013A0000B00002100207047124207D08B0706D0A7
:1013B0000B78491C0370401C521EF7D870478307F6
:1013C00006D00B78491C0370401C521EF9D170479F
:1013D00070B4103A03D378C9103A78C0FBD25307DF
:1013E00001D318C918C001D508C908C0D20704D351
:1013F0000B880380891C801C002A01D50B780370A0
:1014000070BC704730B401004B68802212061A404D
:1014100001201B031B0B4B600BD10B68002B08D169
:101420000DE00B686400DD0F25434D605B000B6031
:10143000401E4C68E302F4D523031B0B4B604B6842
:101440001A434A6030BC704730B4012464054D0033
:10145000EC420BD85D00EC4208D80C001C43640041
:101460000443144304D2994200D1904230BC7047E7
:10147000FCD08B42FAD18242F8E730B401246405F3
:101480004D00EC420BD85D00EC4208D80C001C4328
:1014900064000443144304D28B4200D1824230BC26
:1014A0007047FCD09942FAD19042F8E770B5040039
:1014B0000D0060684000400D3F4EB04207D16068AB
:1014C000000302D12068002816D0022070BD002839
:1014D00004D12000FFF796FF01286BDA012D0DDB08
:1014E000311A8D420AD36068002802D500203349A2
:1014F00001E00020310503C4012070BD4142A94232
:10150000616806DA2E4A0A40281800051043606018
:1015100047E080221206114062681203120B8023FA
:101520005B0313436360401E2D1800202A003532F0
:10153000352A02D36160206070BD00221E23DB4388
:101540009D4204DA20352268636823606060684247
:1015500011D0521E9241D243D20F20231B1A25686C
:101560009D402A432568C54066689E402E432660FC
:101570006368C340636060680843606011488242EA
:1015800006D28020000682420ED12078C0070BD5FB
:101590002068401C20602068002805D16068401C3D
:1015A00060600020C04370BD60688842F9D1206847
:1015B0000028F6D1002070BDFF0700000000F0FFFA
:1015C000FFFF0F8001000080F4464A1805D200F0AA
:1015D0000FF801D580174008604700F009F8012195
:1015E000C907884200D90800404260474A1812D211
:1015F000400DC90208430121C9070843520D40218B
:101600000901521A521C06D452421F3201D4D04052
:101610007047C01770470020704730B40121002286
:101620000368001D002B0BD00468001D0C4202D083
:101630004D466D1E64192260241D1B1FF0D0FAE771
:1016400030BC7047010009D5F446404200F006F86E
:101650000122D20711436047010000BF422212015C
:10166000D21E004207D002D4521E0018FCD5C10A77
:1016700040051205891870478B4200D1824205D976
:101680008446100062468C4619006346DF184C18E9
:10169000640D7F0D3AD0661C760537D0E61B352EDB
:1016A00034DCDB022B43DB0A0C0DC9022943C912CF
:1016B000202E0DDB1700203E06D01F00F741F3401F
:1016C0005F400026012A7741C01871410DD217E012
:1016D0001700F741F2405740F3415A40B340F340FE
:1016E0005A400026801859410AD3A21C52050FD037
:1016F000C207012F724117004008CB071843490861
:10170000641C24054208AF4170416141F0BC704740
:10171000641C21050020F9E76B4010E06B40ABE74B
:10172000F742F3D1E943F1E72442EFD10020002151
:10173000ECE7F0B40125ED070F005F40EED40C009C
:10174000871A9C4105D2C01BA141D219634169404F
:101750006B40AE0ADF184C18F442E1D2640D7F0DE5
:10176000E2D0E61B362ED1DCDB022B43DB0AA4469B
:101770000C0DC9022943C90A012E28DC04D1D60761
:101780005208DF073A435B08EF0A764290419941DD
:1017900014D039423BD1B61940414941761C3942F7
:1017A00004D1761C001849413942FAD0B943674642
:1017B000B74208D9A41B24052143A7E70042EAD178
:1017C0003642E8D1A2E7E40AE10700209EE7202E96
:1017D0000BDD203E1F00F340F7415F40012A00224D
:1017E00057417E42984191410BE01700F741F2408A
:1017F0005740F3415A40B340F3405A407E42904133
:1018000099410A0303D2641EB61940414941002799
:10181000641E24054208AE4178416141F0BC704726
:10182000F446002804D4494200F013F840426047CF
:101830004042002905D45FD000F00BF840424942F5
:101840006047494200F005F84942604703460B43B0
:10185000E6D40022030A8B420BD203098B4219D231
:1018600043088B422ED2411A00D201465241104603
:101870007047FF2209023FD012068B4205D3121295
:1018800009028B4201D31212090203098B4219D3B8
:1018900000E0090AC3098B4201D3CB01C01A5241AF
:1018A00083098B4201D38B01C01A524143098B42F9
:1018B00001D34B01C01A524103098B4201D30B01E2
:1018C000C01A5241C3088B4201D3CB00C01A524107
:1018D00083088B4201D38B00C01A524143088B42CC
:1018E00001D34B00C01A5241884200D3401A5241E2
:1018F000CFD201461046704708B500F06BF908BD1D
:10190000F0B50E005E400125ED072E40B446AE0A4C
:10191000DF184C18F44208D2F7420ED2640D01D001
:101920007F0D12D100206146F0BD05D1F74201D8EC
:101930007F0D05D10020C143F0BDFBD1640DF9D06E
:101940000020C143490549088FE0E419C902DB02C0
:1019500029432B43DB0A460DC00231438E4630B487
:1019600087B295B27D432E0CADB2140C7C43A41902
:10197000260C240425439CB27C43A419190C7943FA
:10198000270CC919A4B20F043C43090C000C97B2F0
:1019900047432E0CBE193543ADB2170C4743360CE6
:1019A000BF19A6B2BF193E043543240C3E0C3619AC
:1019B0009FB24743BF19BCB23E0C89191F0C474365
:1019C0007F183E043443390C704680B297B24743C7
:1019D0002E0CBE193543ADB2170C4743360CBF1958
:1019E000A6B2BF193E043543240C3E0C36199FB2F3
:1019F0004743BF19BCB23E0C89191F0C47437F18DF
:101A00003E043443390C77463F0C90B278432E0C99
:101A100080190604ADB22E43050CA0B22D18120C8D
:101A20007A435019020C80B2240CA4189AB27A435B
:101A3000121914042043120C89181B0C7B43C9187B
:101A400030BCEF0A394203D1B61940414941641E06
:101A50006F12BF0DE41B0BDBFF19BC4211DA24052A
:101A600000274208AE417841614166463143F0BDEE
:101A7000641C05D1401C6141CF0201D34908F4E741
:101A800050E75DE7F0B40E005E400125ED072E4003
:101A9000B446AE0ADF184C18F4423BD2F74241D2AA
:101AA000640D43D07F0D38D0E41BC902DB0229430B
:101AB0002B43CF0ADB0A0600B61A9F4104D2641EEC
:101AC000B6197F41B6185F416812800D24180018BE
:101AD000844222DAE80C0021B6197F41B61A9F41F0
:101AE00002D2B6185F413F1C40414941F4D3241C47
:101AF00021DD2405B6197F41B61A9F4105D337432E
:101B0000C60737430026012F7041614166463143C5
:101B1000F0BC7047FCD1F74205D20020C143490513
:101B20004908F3E704D00020C143F1E77F0DFAD064
:101B300000206146ECE72442FAD1401C61410F03CA
:101B4000F6D30020E2E7000080B5124800F043F829
:101B500011A1016041608160C160016141618161E9
:101B60000EA242628162C162016341630CA2826380
:101B70000DA2C2630164416401BD10B5054800F0C7
:101B80002AF804002068002801D1FFF7DDFF2000BB
:101B900010BD000078ECFF1F000000002E000000C8
:101BA00066616C736500000074727565000000006A
:101BB0007CB504000E00150030002900FFF746FE3A
:101BC00000904543701B0190684603C803C476BD6E
:101BD000704700007047704730B503000C001500D7
:101BE0006A1E002D04D025781D70641C5B1CF6E76E
:101BF00030BD10B503001400621E002C03D00C0091
:101C00001C705B1CF7E710BD70B503001C000D00D5
:101C100000201600721E002E06D020782E78801B21
:101C20006D1C641C0028F4D070BD00B500228256E3
:101C3000002A05D0002282568A4201D0401CF5E7D6
:101C40000022805600BD38B505000C00686A844249
:101C50000BD00123220029002831687800F02EFEE5
:101C6000002801D0012001E06C62002032BD00B5E7
:101C70000200891ED068801E814201D3002003E04B
:101C800090784143106A081800BDF8B507000D00B0
:101C9000022D02D3F868854201D3012079E038781B
:101CA000012804D073D303284ED033D36FE02E0025
:101CB000300040083618B8693100490A4118380028
:101CC000FFF7C1FF002862D1300080218900FFF7B3
:101CD000C0FD7818283000780400761CB8693100FF
:101CE000490A41183800FFF7AEFF00284FD13000F5
:101CF00080218900FFF7ADFD7818283000780002B8
:101D000020430400E80702D52000000901E0200577
:101D1000000D3EE0B8692900090A41183800FFF7B4
:101D200092FF002833D10220684380218900FFF709
:101D300090FD7818283000900098407800020099B3
:101D40000978084380B224E0B8692900C90941181C
:101D50003800FFF778FF002819D10420684380215C
:101D60008900FFF776FD7818283000900098C07839
:101D70000106009880780004084300994978090218
:101D800001430098007808430001000901E00020A9
:101D9000C043F2BDF2B50400E069001D07000098E1
:101DA000400A21688978FFF754FD0500386806006D
:101DB0003F1D002E01D1002007E0B54202D2386855
:101DC000281802E0AD1B3F1DF0E7F2BDF8B5050095
:101DD0000C00EC80A8680600012E03D02868C068BB
:101DE000864201D3022050E0002E06D128680078F8
:101DF000032802D12868C0690600002E0FD1EE60CA
:101E000028680089A4B2844201D302203DE02868FA
:101E1000C069A4B2210009094018286127E0286898
:101E20008078102141430F00A4B2BFB2BC4214D34A
:101E300031002868FFF729FF06000020C0438642D2
:101E400001D1012021E0022E03D32868C068864218
:101E500001D3022019E0E41BE6E7EE6031002868B8
:101E6000FFF705FFA4B2210009094018286128687E
:101E70000090A4B220001021FFF7EBFC202041438A
:101E800000984018283068610020F2BDF8B50400C1
:101E90000D00E088401C0600B6B2002E02D020697A
:101EA000002801D1042046E0B6B230001021FFF72F
:101EB000D0FC002930D12069401C2061E068002856
:101EC00006D120680089B6B2864225D3042032E0CC
:101ED000B6B23000000921688978491E0140002906
:101EE0001AD1E1682068FFF7D0FE0700022F01D267
:101EF000022020E00020C043874201D101201AE0E7
:101F00002068C068874201D3042014E0E7603900EC
:101F10002068FFF7ACFE2061E68020680090B6B232
:101F200030001021FFF795FC202041430098401815
:101F3000283060610020F2BD10B50200CB7E1B028C
:101F40008C7E23439BB218001378032B06D1040028
:101F5000487D00020B7D18430004204310BDF8B5F6
:101F6000040000212000FFF731FF05006DB2002DB5
:101F700002D0280040B225E021692068FFF763FE07
:101F800005006DB2002D1BD1606906003078070096
:101F9000FFB2002F02D10420050011E0F07A000703
:101FA00006D40B22A1693000FFF72EFE002807D0CF
:101FB00000212000FFF76AFF05006DB2002DDBD085
:101FC000280040B2F2BDF3B585B0069800680090D5
:101FD0000098002140562F2804D000980021405638
:101FE0005C2803D10098401C0090F1E705988069B7
:101FF00001900B2220210198FFF7FBFD0020060035
:10200000F6B235002F00082002900098C05D040051
:102010007F1CE4B2212C05DBE4B22F2C02D0E4B209
:102020005C2C07D10098C01906990860E4B2212CF5
:1020300067DA64E0E4B22E2C02D0029885420DD318
:102040000298082802D1E4B22E2C01D006207BE0B1
:10205000082005000B200290B600D6E7E4B2802CE1
:1020600002DB300003260643E4B2812C26DBE4B217
:10207000FF2C23D068460099C95D01737F1C684618
:10208000007B402803DB6846007B7F2807DB68462F
:10209000007B802807DB6846007BFF2803D002987E
:1020A000401E854201D306204EE0019844556D1C28
:1020B0006846007B019948556D1CA6E7E4B22100F3
:1020C0006548FFF7B2FD002801D006203CE0E4B2ED
:1020D000412C06DBE4B25B2C03DA30000226064317
:1020E00009E0E4B2612C06DBE4B27B2C03DA3000B9
:1020F00001260643203C019844556D1C85E70424C5
:1021000000E00024002D01D106201DE00198007898
:10211000E52802D10520019908700298082800D10D
:10212000B600F6B2B007800F012802D120001024BB
:102130000443F6B20C203040042802D120000824C9
:1021400004430198C472002007B0F0BDF2B504004A
:102150000098002140562F2804D0009800214056B6
:102160005C2802D10098401C00900020A0600098DC
:1021700000214056202807D200212000FFF726FE2C
:1021800005000020606129E069462000FFF71BFF81
:1021900005006DB2002D21D12000FFF7E0FE050003
:1021A000A069C07A07006DB2002D07D06DB2042D72
:1021B00014D1780701D4052005000FE078070DD46D
:1021C00060690600F07AC00602D40520050005E02B
:1021D00031002068FFF7B0FEA060D5E7280040B2CC
:1021E000F2BD38B504000D0001232A00210028317A
:1021F000607800F063FB002801D003202AE0174834
:10220000205C00021649615C084380B2154988428F
:1022100001D002201EE06020205C00045F21615C90
:10222000090201435E20205C08430F49884201D126
:1022300000200FE07C20205C00047B21615C09020F
:1022400001437A20205C08430749884201D10020DD
:1022500000E0012032BD00006C42000027020000B7
:102260002602000055AA000046415400F7B58AB086
:102270000A980568002028563038029002980A28EB
:1022800007D2012028563A2803D1AD1C0A980560D0
:1022900001E00020029000200B99086002980028BD
:1022A00001D00B2076E1BC480299042251434058EA
:1022B0000400002C01D10C206CE10B980460207804
:1022C00000280AD0607800F0F6FA08A9087008A87B
:1022D0000078C00701D400205CE100202070029843
:1022E0006070607800F0E4FA08A9087008A8007827
:1022F000C00701D503204DE1002001900199200085
:10230000FFF76FFF6946087068460078012826D1FC
:1023100000200700FFB2002F00D07F1EFFB2102068
:1023200078432018F321490040180390039800795E
:10233000002814D00398C07A01060398807A00041C
:1023400008430399497A090201430398007A084334
:10235000019001992000FFF744FF69460870684624
:102360000078032801D1012014E168460078002894
:1023700001D00D200EE13420205C00023321615C8D
:10238000084380B280218900884201D00D2001E1FC
:102390003F20205C00023E21615C084380B20600C1
:1023A000002E0ED14F20205C01064E20205C000440
:1023B00008434D21615C090201434C20205C084325
:1023C0000600266168463821615C417068464078A5
:1023D000E07068464078012805D0684640780228B9
:1023E00001D00D20D6E06846407846436846352146
:1023F000615C417068464078A0706846407800286B
:1024000006D06846407869464978491E084201D09E
:102410000D20BFE03A20205C00023921615C0843B6
:10242000208120891021FFF714FA002901D00D2006
:10243000B0E03C20205C00023B21615C084380B29C
:102440000590059800280ED14B20205C01064A20FB
:10245000205C000408434921615C090201434820D3
:10246000205C084305903720205C00023621615C27
:1024700008436946488068464088002801D10D20FD
:1024800088E068464088801921890909401807902A
:1024900005980799884201D20D207BE0059807999D
:1024A000401AA178FFF7D5F904900498002801D1CB
:1024B0000D206FE001206946087004985449884255
:1024C00002D302206946087004985249884202D318
:1024D0000320694608700498801CE06001986061E0
:1024E0000198694649884018A061019807994018E9
:1024F000206268460078032818D12089002801D07E
:102500000D2047E05720205C01065620205C000487
:1025100008435521615C090201435420205C0843B3
:10252000E061E0680421484306901AE02089002811
:1025300001D10D202EE0A0698019E0616846007885
:10254000022804D1E06802214843069009E0E068CF
:10255000032148434008217B0A00D207D20F80188C
:102560000690206906992C4A8918490A884201D2A6
:102570000D200FE068460078207028480088401C35
:102580002649088025480088E080002060620020FD
:10259000207100200DB0F0BD0CECFF1F38B5040019
:1025A0002500002D0BD02868002808D02868007866
:1025B000002804D02868C088A988884201D0092052
:1025C00008E02868407800F076F9C00701D50320BC
:1025D00000E0002032BD10B50200D2B2002A01D0C6
:1025E0000B2013E00E48D2B20424544300590300D8
:1025F000002B01D000201870002901D000200870A5
:102600000748D2B2042454430151002010BD0000F9
:10261000F60F0000F6FF0000FF01000074ECFF1F42
:102620000CECFF1FF2B58AB004001500002C01D19C
:10263000092047E00020206028000500ED07ED0F8D
:10264000002269460AA8FFF711FE07007FB2002F9B
:1026500036D107A806900A996846FFF777FD07006C
:10266000059806007FB2002F0BD105980600002EBA
:1026700002D10620070004E0F07AC00601D504204C
:1026800007007FB2002F1BD1A57131000098FFF722
:1026900053FC2061F07F0006B17F09040143707F85
:1026A00000020843317F0143E1600020A060002068
:1026B000A0610020E061009820600098C088A080A0
:1026C000380040B20BB0F0BDFAB587B00400150079
:1026D000079F0020089908602000FFF75FFF694608
:1026E0004871694605200856002803D06946052030
:1026F0000856CDE0A079000601D50220C8E0A079F7
:10270000C00701D40720C3E0E068A168401A059023
:102710000598A84201D205980500002D00D1B6E029
:10272000A06880218900FFF794F8002900D083E099
:10273000A068400A21688978491E014068460171F5
:1027400068460079002829D1A068002802D12069B4
:1027500004900DE0E069002805D0A1682000FFF793
:1027600019FB049004E061692068FFF78EFA049079
:102770000498022805D2A07980210143A17102208A
:1027800086E004980021C943884205D1A0798021C0
:102790000143A17101207BE00498606161692068B8
:1027A000FFF765FA0600002E05D1A07980210143CC
:1027B000A17102206CE06846007936182800400AB2
:1027C00003900398002823D020688078694609790F
:1027D000039A8918884205D2206880786946097969
:1027E000401A0390039BDBB2320039002068407826
:1027F00000F064F8002805D0A07980210143A17180
:10280000012045E0039880218900484302902FE091
:10281000A069B0420FD0012332002100203120688E
:10282000407800F04BF8002805D0A07980210143C2
:10283000A17101202CE0A661802080000090A0689A
:1028400080218900FFF705F80098401A029002984D
:10285000854200D20295029A0092A06880218900E8
:10286000FEF7F7FF61182031009A3800FFF7B4F93E
:1028700002983F18A06802994018A0600898006864
:10288000029940180899086002982D1A45E700201F
:1028900009B0F0BD38B504002000FFF77FFE050049
:1028A0006DB2002D01D100202060280040B232BD61
:1028B000010000207047010000207047F8B582B089
:1028C00006000C001500F6B2002E11D16846027AFF
:1028D0002900200000F00BF900900098002802D198
:1028E0000020070001E001200700380040B200E0AE
:1028F0000420FEBD80B5AC49012000F067F901BDA0
:1029000080B5AA49012000F061F901BD80B5A84851
:10291000006810210143A6480160FF2000F023F960
:1029200001BD38B50400A34DFF2000F01CF9E4B24E
:10293000A04204D0ADB2002D01D06D1EF4E7ADB2BF
:10294000002D01D1FF2000E0002032BD38B5050088
:102950000C00FE20FFF7E5FF002801D0012011E068
:102960002000441E80B2002805D0FF2000F0FBF8B4
:1029700028706D1CF4E7FF2000F0F5F8FF2000F050
:10298000F2F8002032BDF4B504000F000026FFF776
:10299000BDFF8748006810218843854908604020B2
:1029A0002043C0B200F0DFF83800000EC0B200F0E3
:1029B000DAF83800000CC0B200F0D5F83800000A90
:1029C000C0B200F0D0F83800C0B200F0CCF86846D1
:1029D000007800F0C8F81F200600FF2000F0C3F8C0
:1029E0000500280604D53000461EC0B20028F4D1E8
:1029F0002800C0B2F2BDF8B50027FFF77BFFFFF754
:102A000085FF00200500ADB20A2D04DAFF2000F09A
:102A1000AAF86D1CF7E7142004009522002100207D
:102A2000FFF7B1FF0600FFF771FFF6B2012E04D0E9
:102A30002000441E80B20028EFD100205E490870BB
:102A4000F6B2012E4CD18722D52149000820FFF78C
:102A50009AFF012844D1594804000122002137205F
:102A6000FFF791FF01228021C9052920FFF78BFF85
:102A70000600F6B2002E04D02000441E80B20028CA
:102A8000EBD1F6B2002E01D1012007000122002176
:102A90003A20FFF778FF0600F6B2002E20D1FF2083
:102AA00000F061F869460870FF2000F05CF86946A4
:102AB0004870FF2000F057F869468870FF2000F04A
:102AC00052F86946C870FFF721FF68460078400653
:102AD00003D506203849087002E004203649087002
:102AE000FFF714FFFFF70CFF3800C0B2F2BDF8B5D6
:102AF00005000E00140030480078062800D0760249
:102B0000E4B2012C0FD1012231001120FFF73BFF6D
:102B10000700FFB2002F21D1802189002800FFF794
:102B200015FF07001AE0012231001220FFF72BFFEA
:102B30000700802189002800FFF708FF0700802098
:102B400080002D18641EE4B2002C02D0FFB2002FCA
:102B5000EFD0012200210C20FFF715FFFFF7D6FE72
:102B60003800C0B2F2BD00B501000023144A10784D
:102B7000800605D45B1C9BB2C92BF8DB002010E05B
:102B800010480170002003001078000606D45B1C7A
:102B90009BB20D488342F7DB002002E00948007831
:102BA000C0B200BD00000000400D030080969800F8
:102BB00000F10F40FFFF000076ECFF1FFEFF00005A
:102BC0000070074006700740D1070000F3B587B0DA
:102BD0006E486A461C2151560422514340580590C4
:102BE000002002900027FF4369461C200856002859
:102BF00006D167480068FA218900484301900AE03D
:102C000069461C200856012805D162480068FA214F
:102C100089004843019000200500EDB2092D46DAF5
:102C200001980221A940089A5143FEF712FE0400C0
:102C3000082C3AD201980221A9406143FEF709FE0F
:102C4000009000980899401A00F0AAF80600BE42C9
:102C500008D23700EDB20395601E029000980490F0
:102C6000002E24D0641C01980221A940089A5143E7
:102C7000FEF7EFFD0400082C17D201980221A940AD
:102C80006143FEF7E6FD009000980899401A00F0B5
:102C900087F80600BE4208D23700EDB20395601EE9
:102CA000029000980490002E01D06D1CB5E70398A7
:102CB0000007000F0299090170220A40024305989B
:102CC0004270049809B0F0BDF8B504000D0016007C
:102CD0002E4864B204216143475864B2002C1DD1D0
:102CE0002D4800688021C90301432B4801608021E1
:102CF0008900612000F058F880218900622000F0EE
:102D000053F880218900632000F04EF8E8072AD5A7
:102D100001220121602000F0B3F824E064B2012C0C
:102D20001DD11D4800688021090401431A48016033
:102D300080218900822000F037F8A021C90083207B
:102D400000F032F8A021C900812000F02DF8E8073A
:102D500009D501220121842000F092F803E0C0216E
:102D60000E4800F05BF976B2002E09D15020F870C1
:102D70000020B8700099200040B2FFF727FF04E060
:102D80004020F8700020B8700020F2BD2CE6FF1F34
:102D900020ECFF1F18ECFF1F34800440144100009A
:102DA000002800D54042704710B4324A1268802390
:102DB0009B000400E4B26409A34013432D4A13604E
:102DC0002D4AC0B203005B1104246343D258A032E1
:102DD0000123C406E40EA3401360274AC0B20300D7
:102DE0005B1104246343D258C0B2C306DB0E042433
:102DF0006343D15010BC704710B41E4A1268802340
:102E00009B000400E4B26409A3401343194A136011
:102E1000194AC0B203005B1104246343D258A032A4
:102E20000123C406E40EA34013600A0013491140B5
:102E30000A001149C0B203005B1104246343C9585E
:102E4000C0B2C306DB0E04246343CB58E021C900A3
:102E500019401143084AC0B203005B1104246343C4
:102E6000D258C0B2C306DB0E04246343D15010BC59
:102E7000704700003880044018E6FF1FFFF8FFFF8E
:102E800070B504000D0016006DB2002D15D161481B
:102E9000E4B2210049110422514340585D49E4B293
:102EA0002200521104235A43895849690122E3063A
:102EB000DB0E9A409143416142E05648E4B2210062
:102EC00049110422514340585249E4B222005211A0
:102ED00004235A43895849690122E306DB0E9A40CC
:102EE0000A434261F6B2002E15D14A48E4B22100ED
:102EF000491104225143405800680121E206D20ED4
:102F0000914088434349E4B22200521104235A43BA
:102F10008958086014E03F48E4B2210049110422B6
:102F20005143405801680120E206D20E9040084308
:102F30003849E4B22200521104235A4389580860E8
:102F4000802149002000C0B2FFF72EFF70BD38B5C8
:102F500004000D002F48E4B221004911042251431E
:102F600040584069E106C90EC840C00703D4692132
:102F7000294800F053F8EDB2002D15D12548E4B2F0
:102F80002100491104225143405800680121E20602
:102F9000D20E914088431F49E4B22200521104230B
:102FA0005A438958086014E01A48E4B221004911D4
:102FB00004225143405801680120E206D20E90409D
:102FC00008431449E4B22200521104235A43895899
:102FD000086031BD10B504000E48E4B2210049116B
:102FE0000422514340584069E106C90EC840C00759
:102FF00003D48121084800F011F80648E4B221000A
:1030000049110422514340580121E206D20E914059
:10301000C16010BDCCE5FF1F9C40000038B5040026
:103020000D002A0021000E4800F022F8FEE738B516
:1030300004000D00210049B2002000F09DF920009D
:1030400032BD704710B5074804680748E4B209214B
:1030500061434218E4B22100044800F009F810BDB1
:10306000B041000004ED00E010E4FF1F60400000EC
:103070000EB400B582B003A900916B460200012195
:10308000034878440A30FDF7C7F9029906B00847AB
:10309000B5110000F1B584B00F00AE4869468881D3
:1030A000694610200856002803D0022825D012D3E4
:1030B00035E0A94800688021C9000143A6480160A5
:1030C000802189000120FFF76FFE80218900022006
:1030D000FFF76AFE23E0A048006880210901014350
:1030E0009D480160C02189004320FFF75DFEC0219B
:1030F00089004420FFF758FE11E0974800688021BE
:103100004901014394480160C02189006220FFF712
:103110004BFEC02189006320FFF746FEFFE76946AA
:1031200010200856002800D0ABE08C4800688C497D
:1031300001408A480160894800688A4901438748FC
:10314000016089480078F321014087480170002020
:103150008649087086480068864948430221FEF780
:1031600075FB029004200400E4B2212C64DA02987A
:10317000E4B22100491C7943FEF76BFB0500ADB2B8
:1031800080208001854255DA0298ADB2E4B2210078
:10319000491C6943FEF75DFB01900198C01B0128A3
:1031A00003DB01983900461A02E00198C01B464231
:1031B000B6B2002E05D168460580E4B26846448068
:1031C0003AE068468089B6B2864206D26846868171
:1031D00068460580E4B2684644806D1CADB280202C
:1031E0008001854226DA0298ADB2E4B22100491C82
:1031F0006943FEF72EFB01900198C01B012803DBF9
:1032000001983900461A02E00198C01B4642B6B246
:10321000002E05D168460580E4B2684644800BE084
:1032200068468089B6B2864204D268460580E4B218
:1032300068464480641C97E75C480078E0210140C0
:103240000C006846008880B2000AC006C00E204309
:1032500056490870684600885549087055480078F6
:10326000E02101400C0068464088C006C00E2043A3
:10327000504908703C4800780C2101433A480170DD
:1032800066E04D486A461021515604225143405889
:10329000C178F320084048496B4610229A5604230F
:1032A0005A438958C870002143486B4610229A56E9
:1032B00004235A438058817040480068FA218900ED
:1032C00048430290029810217943FEF7C2FA6946FA
:1032D00008806846008880218901884202DB3848DE
:1032E0006946088034486A461021515604225143E9
:1032F00040580078E02101400C006846008880B208
:10330000000AC106C90E21432B486B4610229A566B
:1033100004235A43805801706846018826486B464A
:1033200010229A5604235A438058417022486A4614
:1033300010215156042251434058C1780C200843B3
:103340001D496B4610229A5604235A438958C87067
:1033500005B0F0BDFFFF000034800440048004404D
:10336000FFFFFFF30000010403A0064002A0064097
:1033700014ECFF1F40420F0000B540B2002806D1F8
:10338000104A12781206FBD50F4A11700DE00A4A56
:1033900040B204234343D25812791206F7D5064AA5
:1033A00040B204234343D258D17100BD00A006406F
:1033B00001A006400AA0064034E6FF1F20ECFF1FD4
:1033C000FF1F000004A0064007A0064030B504001F
:1033D000874864B204216143455A64B2012C00DA83
:1033E00004E164B20D2C00DB00E1ADB2792D03DA0B
:1033F0000020B649087073E0ADB2F12D03DA012068
:10340000B24908706CE0ADB2FF206A30854203DA41
:103410000220AE49087063E0ADB2FF20E230854281
:1034200003DA0320A94908705AE0ADB27148854219
:1034300003DA0420A549087052E0ADB26E48854217
:1034400003DA0520A14908704AE0ADB26B48854215
:1034500003DA06209D49087042E0ADB26848854213
:1034600003DA0720994908703AE0ADB298488542DE
:1034700003DA08209549087032E0ADB295488542DC
:1034800003DA0920914908702AE0ADB292488542DA
:1034900003DA0A208D49087022E0ADB28F488542D8
:1034A00003DA0B20894908701AE0ADB28C488542D6
:1034B00003DA0C208549087012E0ADB289488542D4
:1034C00003DA0D20814908700AE0ADB286488542D2
:1034D00003DA0E207D49087002E00F207B49087056
:1034E000434864B204216143405A78490978491C31
:1034F000FEF7ACF90500ADB2292D03DA00207349BF
:10350000487073E0ADB2512D03DA01206F49487065
:103510006CE0ADB2792D03DA02206C49487065E0A9
:10352000ADB2A12D03DA0320684948705EE0ADB268
:10353000C92D03DA04206549487057E0ADB2F12D7A
:1035400003DA05206149487050E0ADB2FF201A301F
:10355000854203DA06205D49487047E0ADB2FF209E
:103560004230854203DA0720584948703EE0ADB248
:10357000FF206A30854203DA08205449487035E05C
:10358000ADB2FF209230854203DA09204F494870DE
:103590002CE0ADB2FF20BA30854203DA0A204B4955
:1035A000487023E0ADB2FF20E230854203DA0B2001
:1035B000464948701AE0ADB24C48854203DA0C2007
:1035C0004249487012E0ADB24948854203DA0D2005
:1035D0003E4948700AE0ADB20648854203DA0E2043
:1035E0003A49487002E00F203849487030BD000069
:1035F000E0E5FF1F59020000D1020000490300006E
:10360000C103000010B50400200040B2FFF7DEFE49
:1036100038480068802189000143364801602B4802
:1036200000780007294949780904E022D2020A40BB
:103630000243314802608C20304908702420304910
:103640000870BA202F4908702F480078C006FBD4B4
:103650002D480078C0B20C2101400829F8D12B4830
:1036600064B20421614340188078C006C00E284926
:103670000870264864B2042161434018C078C0062F
:10368000C00E40210143234801701F480078800686
:10369000FBD51D4800784006FBD50220194908706B
:1036A00019480078C0B20C2101400C29F8D11A4801
:1036B000006880214902014317480160134864B241
:1036C00004214C43005BC0B210BD000014E6FF1F94
:1036D00039040000B104000029050000A105000024
:1036E0001906000091060000090700000902000009
:1036F00031020000388004404480044000500640FD
:10370000014006400040064006400640E0E5FF1F3D
:1037100004400640054006400480044008B4024BC3
:103720009C4608BC6047C046A3E6FF1F08B4024B96
:103730009C4608BC6047C0465DE7FF1F70B5A024EB
:10374000E40165682668A4480560A448046086F31F
:10375000088886F30988A0480068804770BD10B5C6
:10376000002400200400E4B20A2C3ADA01219D2052
:10377000FFF7EDFB00219E20FFF7E9FB00219F20D2
:10378000FFF7E5FB964801681E204143012000F049
:1037900033F900219D20FFF7DAFB01219E20FFF77E
:1037A000D6FB00219F20FFF7D2FB8D4801681E2029
:1037B0004143012000F020F900219D20FFF7C7FBC5
:1037C00000219E20FFF7C3FB01219F20FFF7BFFBD5
:1037D000834801681E204143012000F00DF9641C5C
:1037E000C1E710BD10B5002400200400E4B2052C90
:1037F00029DA01219D20FFF7AAFB01219E20FFF776
:10380000A6FB01219F20FFF7A2FB75480168FA2063
:1038100040004143012000F0EFF800219D20FFF718
:1038200096FB00219E20FFF792FB00219F20FFF7CF
:103830008EFB6B480168FA2040004143012000F0F4
:10384000DBF8641CD2E710BD10B500240020040092
:10385000E4B2052C27DA01219D20FFF778FB012136
:103860009E20FFF774FB01219F20FFF770FB5C484F
:103870000168C8204143012000F0BEF800219D20CE
:10388000FFF765FB00219E20FFF761FB00219F20D1
:10389000FFF75DFB52480168C8204143012000F05A
:1038A000ABF8641CD4E710BDF0B54E4CA544002520
:1038B00000270026002472B6002200210420FFF712
:1038C000DFFA03210420FFF797FA45480168322008
:1038D0004143012000F090F8434800680100C90608
:1038E000C90F002901D0FFF729FF002201219D20E7
:1038F000FFF7C6FA002201219E20FFF7C1FA00223D
:1039000001219F20FFF7BCFA384B00220121012042
:10391000FFF7DAF9FFF723FFFFF76DF8002856D01D
:1039200089A90020FEF757FE0600F6B2002E50D1FE
:1039300001222F4901A8FEF775FE0600F6B2002EFF
:1039400042D10498800A050004988021C900FDF73F
:1039500080FF0F0000200400AC4219D29F20FFF727
:1039600039FB2000143080B2FFF7D8FE6B4680226E
:10397000D200204901A8FEF7A7FE1E4B8022D200EC
:1039800000212000143080B2FFF7D0FE641CE3E772
:10399000BFB2002F14D02800143080B2FFF7BEFE53
:1039A0006B46BFB23A00134901A8FEF78DFE114BDA
:1039B0003A0092B200212800143080B2FFF7B6FE20
:1039C00001A8FEF767FF04E0FFF73EFF01E0FFF705
:1039D00009FFFFF7B3FEFEE708ECFF1F08ED00E06C
:1039E00020ECFF1FB4FBFFFF10F00F40400D030061
:1039F0008842000008E8FF1F38B504000D00002DC4
:103A000003D147212E48FFF709FB2E48006880218B
:103A1000090401432B4801602B48006802218843B8
:103A200029490860294864B2102161434018806820
:103A300001218843254964B21022624389188860B5
:103A4000681E224964B21022624388501F4864B243
:103A5000102161434018C068012101431B4864B232
:103A6000102262438018C160184864B2102161437B
:103A70004018806801218843144964B210226243CF
:103A8000891888600120114964B2102262438918A4
:103A900088600E4864B2102161434018C068C007B6
:103AA000F7D50A4864B2102161434018C06801216B
:103AB0000143064864B2102262438018C16031BDE0
:103AC000D84000003C800440007003400071034077
:103AD0005245530000000000005245530000000012
:103AE00000004E4D4900000000000048617264462D
:103AF00061756C745245530000000000005245533C
:103B00000000000000005245530000000000005279
:103B10004553000000000000524553000000000023
:103B200000524553000000000000524553000000C1
:103B3000000000535643616C6C0000005245530076
:103B400000000000005245530000000000005065D6
:103B50006E6453560000005379735469636B000020
:103B6000444D41300000000000444D413100000050
:103B70000000444D41320000000000444D4133003C
:103B800000000000444D4134000000000052455345
:103B90000000000000004654464100000000004CB8
:103BA00056445F4C565700004C4C57000000000034
:103BB0000049324330000000000049324331000028
:103BC00000000053504930000000000053504931BC
:103BD00000000000005541525430000000005541E3
:103BE0005254310000000055415254320000000090
:103BF000414443300000000000434D5030000000BD
:103C0000000054504D30000000000054504D310071
:103C10000000000054504D32000000000052544398
:103C20000000000000005254435F536563000050E1
:103C300049540000000000004932533000000000E9
:103C40000055534230000000000044414330000062
:103C50000000005453493000000000004D4347006D
:103C600000000000004C50544D520000000052452E
:103C7000530000000000005054410000000000000C
:103C80005054435F505444000000000000F00FF80F
:103C900040F00FF880F00FF8C0F00FF800F10FF8C7
:103CA00000000A1D3000030040000200420003092A
:103CB0004400030A480002035000020660000100AD
:103CC000800002188800010A9400010DC800011A42
:103CD000DC00011F000100000090044000A004402F
:103CE00000B0044000C0044000D004400060074021
:103CF0000070074000A0064000B0064000C006402B
:103D00000204010124ECFF1F74ECFF1F24ECFF1FD1
:103D100024ECFF1F24ECFF1F7DE6FF1F64E6FF1F5E
:103D20000000000000000000000000000000000093
:103D30000000000000000000000000000000000083
:103D400000B5F02056490870554800780006FBD5AC
:103D5000534800787121084201D0002000E0012082
:103D600000BD10B582B00400A4B28020C000604342
:103D7000009009204B490870684680784A490870CD
:103D80006846407849490870684600784849087094
:103D9000FFF7D6FF002801D100200BE0A4B2002CD1
:103DA00007D10122D2434349200080B200F003F83A
:103DB00000E0012016BD7CB504000D001600A4B281
:103DC0008020C0006043ADB24019019001A8807806
:103DD0003549087001A84078344908706846007970
:103DE0003349087000966846C078334908706846C1
:103DF00080783249087068464078314908706846D2
:103E0000007830490870062026490870FFF798FFAF
:103E1000002801D1002000E0012076BDF2B582B07B
:103E2000040017001D00A4B28020C0006043694652
:103E300009894018009006201A49087000200600E1
:103E4000BFB2BE4229D268468078174908706846DA
:103E50004078164908706846007815490870286847
:103E6000019001A8C0781449087001A8807813490E
:103E7000087001A840781249087068460079114915
:103E80000870FFF75DFF002801D1002006E00098D0
:103E9000001D00902D1D361DD2E70120FEBD000043
:103EA00000000240070002400600024005000240F8
:103EB000040002400C0400000B0002400A00024013
:103EC000090002400800024080B500F0A5F800F0AB
:103ED0003AF800F005F8FFF7B4F8FFF7E5FCFEE765
:103EE00080B53D480078000705D53B48007808219B
:103EF0000143394801700B20FFF784FB3749086004
:103F00003648006836490968090F491CFDF7A1FCCD
:103F10003449086033480068FA218900484332492F
:103F20000860314800682E490968090C4907490FA3
:103F3000491CFDF78EFC2D490860E1214902002053
:103F4000FFF7A8F801BDF0B583B029482949884298
:103F50000FD00020040082204000844209D225486E
:103F60000421614340582249042262438850641C62
:103F7000F1E71F4800F060F81F4807001F480500E0
:103F80001F4801900198401B04002000441E002897
:103F900004D0287838706D1C7F1CF6E7194806009D
:103FA000194800900098801B04002000441E00283F
:103FB00003D000203070761CF7E714481449154AE6
:103FC000531A1C0023005C1E002B04D00B780370D6
:103FD000491C401CF6E7F7BD02D0074014ECFF1F58
:103FE000448004401CECFF1F18ECFF1F20ECFF1F57
:103FF00000E0FF1F0000000010E4FF1FD03A0000A7
:10400000403D000008E8FF1F78ECFF1F80E6FF1F1F
:10401000403D0000C83E00000648006804490860B2
:10402000044800680C21884302490860704700007A
:1040300010ECFF1F0081044010B504002000802117
:104040008900FDF703FC002903D01E210248FEF77A
:10405000E5FF0248046010BD5041000008ED00E09B
:104060000A2A2A2A2A64656661756C745F6973720C
:1040700020656E7465726564206F6E20766563746A
:104080006F722025642A2A2A2A2A0D0A0A257320FB
:10409000496E74657272757074000000433A5C5525
:1040A000736572735C68616F6D695C4465736B7492
:1040B0006F705C6B6C32365C626F6F746C6F6164D6
:1040C00065725C436869705C5372635C4D4B4C5F16
:1040D0006770696F2E630000433A5C5573657273B5
:1040E0005C68616F6D695C4465736B746F705C6B69
:1040F0006C32365C626F6F746C6F616465725C43C6
:104100006869705C5372635C4D4B4C5F5049542E30
:1041100063000000433A5C55736572735C68616FBD
:104120006D695C4465736B746F705C6B6C32365C8C
:10413000626F6F746C6F616465725C436869705C18
:104140005372635C4D4B4C5F7370692E63000000CB
:10415000433A5C55736572735C68616F6D695C446A
:1041600065736B746F705C6B6C32365C626F6F740E
:104170006C6F616465725C436869705C5372635C08
:104180006D6973632E63000010B5074979441831D7
:10419000064C7C44163404E0081D0A6889188847D8
:1041A0000100A142F8D110BD2C0000003800000031
:1041B000417373657274696F6E206661696C6564C2
:1041C00020696E202573206174206C696E6520253E
:1041D000640A000047D4FFFF7004000008E8FF1FD6
:1041E0000000000000F00BF8002801D0FFF7CCFF22
:1041F0000020C046C046FFF757FB00F002F8012040
:10420000704780B500F002F801BD0000074638464F
:1042100000F002F8FBE7000080B5C046C046024A45
:1042200011001820ABBEFBE726000200686A6C7420
:104230007A4C00006E616E004E414E00696E660061
:10424000494E460038B505000C00200000F006F885
:10425000A04200D00025280032BD000080B50249F0
:10426000FEF7E5FE02BD00BF40E6FF1F222A2B2C11
:104270003A3B3C3D3E3F5B5D7C7F0000C046C04614
:10428000C046C046FFF7AEFF6170702E62696E00D7
:10429000000000000000000000000000000000001E
:1042A000000000000000000000000000FFFFFFFF12
:1042B000FFFFFFFF00000000000000000000000002
:1042C00000000000000000000000000000000000EE
:1042D0000000000000000000FFFFFFFFFFFF0000E4
:1042E00000000000000000000000000000000000CE
:1042F00000000000000000000000000000000000BE
:1043000000000000000000000000000000000000AD
:084310000000000000000000A5
:040000050000427D38
:00000001FF
